{
  "address": "0xcA2cbc7c51FF78c1fEB56e8D392dB1bc6cfDc004",
  "abi": [
    {
      "inputs": [],
      "stateMutability": "nonpayable",
      "type": "constructor"
    },
    {
      "anonymous": false,
      "inputs": [
        {
          "indexed": true,
          "internalType": "address",
          "name": "_oldAdmin",
          "type": "address"
        },
        {
          "indexed": true,
          "internalType": "address",
          "name": "_newAdmin",
          "type": "address"
        }
      ],
      "name": "AdminChanged",
      "type": "event"
    },
    {
      "anonymous": false,
      "inputs": [
        {
          "indexed": true,
          "internalType": "address",
          "name": "_oldAdmin",
          "type": "address"
        }
      ],
      "name": "AdminRemoved",
      "type": "event"
    },
    {
      "anonymous": false,
      "inputs": [
        {
          "indexed": true,
          "internalType": "address",
          "name": "owner",
          "type": "address"
        },
        {
          "indexed": true,
          "internalType": "address",
          "name": "spender",
          "type": "address"
        },
        {
          "indexed": false,
          "internalType": "uint256",
          "name": "value",
          "type": "uint256"
        }
      ],
      "name": "Approval",
      "type": "event"
    },
    {
      "anonymous": false,
      "inputs": [
        {
          "indexed": true,
          "internalType": "address",
          "name": "_minter",
          "type": "address"
        }
      ],
      "name": "MinterAdded",
      "type": "event"
    },
    {
      "anonymous": false,
      "inputs": [
        {
          "indexed": true,
          "internalType": "address",
          "name": "_minter",
          "type": "address"
        }
      ],
      "name": "MinterRemoved",
      "type": "event"
    },
    {
      "anonymous": false,
      "inputs": [
        {
          "indexed": true,
          "internalType": "address",
          "name": "previousOwner",
          "type": "address"
        },
        {
          "indexed": true,
          "internalType": "address",
          "name": "newOwner",
          "type": "address"
        }
      ],
      "name": "OwnershipTransferred",
      "type": "event"
    },
    {
      "anonymous": false,
      "inputs": [
        {
          "indexed": true,
          "internalType": "address",
          "name": "from",
          "type": "address"
        },
        {
          "indexed": true,
          "internalType": "address",
          "name": "to",
          "type": "address"
        },
        {
          "indexed": false,
          "internalType": "uint256",
          "name": "value",
          "type": "uint256"
        }
      ],
      "name": "Transfer",
      "type": "event"
    },
    {
      "inputs": [
        {
          "internalType": "address",
          "name": "_to",
          "type": "address"
        },
        {
          "internalType": "uint256",
          "name": "_value",
          "type": "uint256"
        }
      ],
      "name": "addMintable",
      "outputs": [],
      "stateMutability": "nonpayable",
      "type": "function"
    },
    {
      "inputs": [
        {
          "internalType": "address[]",
          "name": "_addedMinters",
          "type": "address[]"
        }
      ],
      "name": "addMinters",
      "outputs": [],
      "stateMutability": "nonpayable",
      "type": "function"
    },
    {
      "inputs": [],
      "name": "admin",
      "outputs": [
        {
          "internalType": "address",
          "name": "",
          "type": "address"
        }
      ],
      "stateMutability": "view",
      "type": "function"
    },
    {
      "inputs": [
        {
          "internalType": "address",
          "name": "owner",
          "type": "address"
        },
        {
          "internalType": "address",
          "name": "spender",
          "type": "address"
        }
      ],
      "name": "allowance",
      "outputs": [
        {
          "internalType": "uint256",
          "name": "",
          "type": "uint256"
        }
      ],
      "stateMutability": "view",
      "type": "function"
    },
    {
      "inputs": [
        {
          "internalType": "address",
          "name": "spender",
          "type": "address"
        },
        {
          "internalType": "uint256",
          "name": "amount",
          "type": "uint256"
        }
      ],
      "name": "approve",
      "outputs": [
        {
          "internalType": "bool",
          "name": "",
          "type": "bool"
        }
      ],
      "stateMutability": "nonpayable",
      "type": "function"
    },
    {
      "inputs": [
        {
          "internalType": "address",
          "name": "account",
          "type": "address"
        }
      ],
      "name": "balanceOf",
      "outputs": [
        {
          "internalType": "uint256",
          "name": "",
          "type": "uint256"
        }
      ],
      "stateMutability": "view",
      "type": "function"
    },
    {
      "inputs": [
        {
          "internalType": "uint256",
          "name": "amount",
          "type": "uint256"
        }
      ],
      "name": "burn",
      "outputs": [],
      "stateMutability": "nonpayable",
      "type": "function"
    },
    {
      "inputs": [
        {
          "internalType": "address",
          "name": "account",
          "type": "address"
        },
        {
          "internalType": "uint256",
          "name": "amount",
          "type": "uint256"
        }
      ],
      "name": "burnFrom",
      "outputs": [],
      "stateMutability": "nonpayable",
      "type": "function"
    },
    {
      "inputs": [
        {
          "internalType": "address",
          "name": "_newAdmin",
          "type": "address"
        }
      ],
      "name": "changeAdmin",
      "outputs": [],
      "stateMutability": "nonpayable",
      "type": "function"
    },
    {
      "inputs": [],
      "name": "decimals",
      "outputs": [
        {
          "internalType": "uint8",
          "name": "",
          "type": "uint8"
        }
      ],
      "stateMutability": "view",
      "type": "function"
    },
    {
      "inputs": [
        {
          "internalType": "address",
          "name": "spender",
          "type": "address"
        },
        {
          "internalType": "uint256",
          "name": "subtractedValue",
          "type": "uint256"
        }
      ],
      "name": "decreaseAllowance",
      "outputs": [
        {
          "internalType": "bool",
          "name": "",
          "type": "bool"
        }
      ],
      "stateMutability": "nonpayable",
      "type": "function"
    },
    {
      "inputs": [
        {
          "internalType": "address",
          "name": "spender",
          "type": "address"
        },
        {
          "internalType": "uint256",
          "name": "addedValue",
          "type": "uint256"
        }
      ],
      "name": "increaseAllowance",
      "outputs": [
        {
          "internalType": "bool",
          "name": "",
          "type": "bool"
        }
      ],
      "stateMutability": "nonpayable",
      "type": "function"
    },
    {
      "inputs": [
        {
          "internalType": "address",
          "name": "_addr",
          "type": "address"
        }
      ],
      "name": "isMinter",
      "outputs": [
        {
          "internalType": "bool",
          "name": "",
          "type": "bool"
        }
      ],
      "stateMutability": "view",
      "type": "function"
    },
    {
      "inputs": [
        {
          "internalType": "address",
          "name": "_to",
          "type": "address"
        },
        {
          "internalType": "uint256",
          "name": "_value",
          "type": "uint256"
        }
      ],
      "name": "mintByMinter",
      "outputs": [],
      "stateMutability": "nonpayable",
      "type": "function"
    },
    {
      "inputs": [],
      "name": "mintByUser",
      "outputs": [],
      "stateMutability": "nonpayable",
      "type": "function"
    },
    {
      "inputs": [
        {
          "internalType": "address",
          "name": "",
          "type": "address"
        }
      ],
      "name": "mintable",
      "outputs": [
        {
          "internalType": "uint256",
          "name": "",
          "type": "uint256"
        }
      ],
      "stateMutability": "view",
      "type": "function"
    },
    {
      "inputs": [
        {
          "internalType": "address",
          "name": "",
          "type": "address"
        }
      ],
      "name": "minter",
      "outputs": [
        {
          "internalType": "bool",
          "name": "",
          "type": "bool"
        }
      ],
      "stateMutability": "view",
      "type": "function"
    },
    {
      "inputs": [
        {
          "internalType": "uint256",
          "name": "",
          "type": "uint256"
        }
      ],
      "name": "minters",
      "outputs": [
        {
          "internalType": "address",
          "name": "",
          "type": "address"
        }
      ],
      "stateMutability": "view",
      "type": "function"
    },
    {
      "inputs": [],
      "name": "name",
      "outputs": [
        {
          "internalType": "string",
          "name": "",
          "type": "string"
        }
      ],
      "stateMutability": "view",
      "type": "function"
    },
    {
      "inputs": [],
      "name": "owner",
      "outputs": [
        {
          "internalType": "address",
          "name": "",
          "type": "address"
        }
      ],
      "stateMutability": "view",
      "type": "function"
    },
    {
      "inputs": [],
      "name": "removeAdmin",
      "outputs": [],
      "stateMutability": "nonpayable",
      "type": "function"
    },
    {
      "inputs": [
        {
          "internalType": "address[]",
          "name": "_removedMinters",
          "type": "address[]"
        }
      ],
      "name": "removeMinters",
      "outputs": [],
      "stateMutability": "nonpayable",
      "type": "function"
    },
    {
      "inputs": [],
      "name": "renounceOwnership",
      "outputs": [],
      "stateMutability": "nonpayable",
      "type": "function"
    },
    {
      "inputs": [],
      "name": "symbol",
      "outputs": [
        {
          "internalType": "string",
          "name": "",
          "type": "string"
        }
      ],
      "stateMutability": "view",
      "type": "function"
    },
    {
      "inputs": [],
      "name": "totalSupply",
      "outputs": [
        {
          "internalType": "uint256",
          "name": "",
          "type": "uint256"
        }
      ],
      "stateMutability": "view",
      "type": "function"
    },
    {
      "inputs": [
        {
          "internalType": "address",
          "name": "recipient",
          "type": "address"
        },
        {
          "internalType": "uint256",
          "name": "amount",
          "type": "uint256"
        }
      ],
      "name": "transfer",
      "outputs": [
        {
          "internalType": "bool",
          "name": "",
          "type": "bool"
        }
      ],
      "stateMutability": "nonpayable",
      "type": "function"
    },
    {
      "inputs": [
        {
          "internalType": "address",
          "name": "sender",
          "type": "address"
        },
        {
          "internalType": "address",
          "name": "recipient",
          "type": "address"
        },
        {
          "internalType": "uint256",
          "name": "amount",
          "type": "uint256"
        }
      ],
      "name": "transferFrom",
      "outputs": [
        {
          "internalType": "bool",
          "name": "",
          "type": "bool"
        }
      ],
      "stateMutability": "nonpayable",
      "type": "function"
    },
    {
      "inputs": [
        {
          "internalType": "address",
          "name": "newOwner",
          "type": "address"
        }
      ],
      "name": "transferOwnership",
      "outputs": [],
      "stateMutability": "nonpayable",
      "type": "function"
    }
  ],
  "transactionHash": "0x3fff215cce78fdaa4d7f6c4f19a7ed00793638f8d364d9be348c83b6707bc1a7",
  "args": [],
  "solcInputHash": "3c70c77d428e61bb6242bf0749abc803",
  "bytecode": "0x60806040523480156200001157600080fd5b50604051806040016040528060118152602001702232b2b81029b2b090283630b735ba37b760791b8152506040518060400160405280600381526020016204453560ec1b8152508160039080519060200190620000709291906200034c565b508051620000869060049060208401906200034c565b5050600580546001600160a01b031916339081179091556040519091506000907f7e644d79422f17c01e4894b5f4f588d331ebfa28653d42ae832dc59e38c9798f908290a3620000d63362000194565b60016009556040805160028082526060820183526000926020830190803683375050600854919250506001600160a01b0316816000815181106200012a57634e487b7160e01b600052603260045260246000fd5b6001600160a01b0392831660209182029290920101526005548251911690829060019081106200016a57634e487b7160e01b600052603260045260246000fd5b6001600160a01b03909216602092830291909101909101526200018d81620001e6565b5062000457565b600880546001600160a01b038381166001600160a01b0319831681179093556040519116919082907f8be0079c531659141344cd1fd0a4f28419497f9722a3daafe3b4186f6b6457e090600090a35050565b6005546001600160a01b03163314620002455760405162461bcd60e51b815260206004820152601360248201527f48617341646d696e3a206e6f742061646d696e00000000000000000000000000604482015260640160405180910390fd5b6000805b825181101562000347578281815181106200027457634e487b7160e01b600052603260045260246000fd5b6020908102919091018101516001600160a01b0381166000908152600790925260409091205490925060ff1662000332576006805460018082019092557ff652222313e28459528d920b65115c16c04f3efc82aaedc97be59f3f377c0d3f0180546001600160a01b0319166001600160a01b038516908117909155600081815260076020526040808220805460ff1916909417909355915190917f6ae172837ea30b801fbfcdd4108aa1d5bf8ff775444fd70256b44e6bf3dfc3f691a25b806200033e816200042f565b91505062000249565b505050565b8280546200035a90620003f2565b90600052602060002090601f0160209004810192826200037e5760008555620003c9565b82601f106200039957805160ff1916838001178555620003c9565b82800160010185558215620003c9579182015b82811115620003c9578251825591602001919060010190620003ac565b50620003d7929150620003db565b5090565b5b80821115620003d75760008155600101620003dc565b600181811c908216806200040757607f821691505b602082108114156200042957634e487b7160e01b600052602260045260246000fd5b50919050565b60006000198214156200045057634e487b7160e01b81526011600452602481fd5b5060010190565b61176e80620004676000396000f3fe608060405234801561001057600080fd5b50600436106101c45760003560e01c806371e2a657116100f9578063a457c2d711610097578063b138607811610071578063b1386078146103ea578063dd62ed3e146103f2578063f2fde38b1461042b578063f851a4401461043e57600080fd5b8063a457c2d714610398578063a9059cbb146103ab578063aa271e1a146103be57600080fd5b80638da5cb5b116100d35780638da5cb5b146103645780638f2839701461037557806395d89b41146103885780639a202d471461039057600080fd5b806371e2a6571461031357806379cc6790146103265780638623ec7b1461033957600080fd5b806342966c681161016657806359441eae1161014057806359441eae146102af5780635fc1964f146102cf57806370a08231146102e2578063715018a61461030b57600080fd5b806342966c68146102745780634468aae31461028957806352491d771461029c57600080fd5b806323b872dd116101a257806323b872dd1461021c578063313ce5671461022f578063395093511461023e5780633dd08c381461025157600080fd5b806306fdde03146101c9578063095ea7b3146101e757806318160ddd1461020a575b600080fd5b6101d1610451565b6040516101de91906115d0565b60405180910390f35b6101fa6101f53660046114c8565b6104e3565b60405190151581526020016101de565b6002545b6040519081526020016101de565b6101fa61022a36600461148d565b6104f9565b604051601281526020016101de565b6101fa61024c3660046114c8565b6105a8565b6101fa61025f36600461143a565b60076020526000908152604090205460ff1681565b6102876102823660046115b8565b6105e4565b005b6102876102973660046114c8565b6105f1565b6102876102aa3660046114c8565b61066b565b61020e6102bd36600461143a565b600a6020526000908152604090205481565b6102876102dd3660046114f1565b6106c2565b61020e6102f036600461143a565b6001600160a01b031660009081526020819052604090205490565b6102876108f5565b6102876103213660046114f1565b61095b565b6102876103343660046114c8565b610a81565b61034c6103473660046115b8565b610b02565b6040516001600160a01b0390911681526020016101de565b6008546001600160a01b031661034c565b61028761038336600461143a565b610b2c565b6101d1610c18565b610287610c27565b6101fa6103a63660046114c8565b610c9b565b6101fa6103b93660046114c8565b610d34565b6101fa6103cc36600461143a565b6001600160a01b031660009081526007602052604090205460ff1690565b610287610d41565b61020e61040036600461145b565b6001600160a01b03918216600090815260016020908152604080832093909416825291909152205490565b61028761043936600461143a565b610de4565b60055461034c906001600160a01b031681565b606060038054610460906116b6565b80601f016020809104026020016040519081016040528092919081815260200182805461048c906116b6565b80156104d95780601f106104ae576101008083540402835291602001916104d9565b820191906000526020600020905b8154815290600101906020018083116104bc57829003601f168201915b5050505050905090565b60006104f0338484610eac565b50600192915050565b6000610506848484610fd0565b6001600160a01b0384166000908152600160209081526040808320338452909152902054828110156105905760405162461bcd60e51b815260206004820152602860248201527f45524332303a207472616e7366657220616d6f756e74206578636565647320616044820152676c6c6f77616e636560c01b60648201526084015b60405180910390fd5b61059d8533858403610eac565b506001949350505050565b3360008181526001602090815260408083206001600160a01b038716845290915281205490916104f09185906105df908690611687565b610eac565b6105ee338261119f565b50565b3360009081526007602052604090205460ff1661060d57600080fd5b600260095414156106305760405162461bcd60e51b815260040161058790611650565b60026009556001600160a01b0382166000908152600a60205260408120805483929061065d908490611687565b909155505060016009555050565b3360009081526007602052604090205460ff1661068757600080fd5b600260095414156106aa5760405162461bcd60e51b815260040161058790611650565b60026009556106b982826112ed565b50506001600955565b6005546001600160a01b031633146106ec5760405162461bcd60e51b815260040161058790611623565b6000805b82518110156107a35782818151811061071957634e487b7160e01b600052603260045260246000fd5b6020908102919091018101516001600160a01b0381166000908152600790925260409091205490925060ff1615610791576001600160a01b038216600081815260076020526040808220805460ff19169055517fe94479a9f7e1952cc78f2d6baab678adc1b772d936c6583def489e524cb666929190a25b8061079b816116f1565b9150506106f0565b5060005b6006548110156108f057600681815481106107d257634e487b7160e01b600052603260045260246000fd5b60009182526020808320909101546001600160a01b0316808352600790915260409091205490925060ff166108de57600680546108119060019061169f565b8154811061082f57634e487b7160e01b600052603260045260246000fd5b600091825260209091200154600680546001600160a01b03909216918390811061086957634e487b7160e01b600052603260045260246000fd5b600091825260209091200180546001600160a01b0319166001600160a01b0392909216919091179055600680546108a29060019061169f565b815481106108c057634e487b7160e01b600052603260045260246000fd5b600091825260209091200180546001600160a01b03191690556107a7565b806108e8816116f1565b9150506107a7565b505050565b6008546001600160a01b0316331461094f5760405162461bcd60e51b815260206004820181905260248201527f4f776e61626c653a2063616c6c6572206973206e6f7420746865206f776e65726044820152606401610587565b61095960006113cc565b565b6005546001600160a01b031633146109855760405162461bcd60e51b815260040161058790611623565b6000805b82518110156108f0578281815181106109b257634e487b7160e01b600052603260045260246000fd5b6020908102919091018101516001600160a01b0381166000908152600790925260409091205490925060ff16610a6f576006805460018082019092557ff652222313e28459528d920b65115c16c04f3efc82aaedc97be59f3f377c0d3f0180546001600160a01b0319166001600160a01b038516908117909155600081815260076020526040808220805460ff1916909417909355915190917f6ae172837ea30b801fbfcdd4108aa1d5bf8ff775444fd70256b44e6bf3dfc3f691a25b80610a79816116f1565b915050610989565b6000610a8d8333610400565b905081811015610aeb5760405162461bcd60e51b8152602060048201526024808201527f45524332303a206275726e20616d6f756e74206578636565647320616c6c6f77604482015263616e636560e01b6064820152608401610587565b610af88333848403610eac565b6108f0838361119f565b60068181548110610b1257600080fd5b6000918252602090912001546001600160a01b0316905081565b6005546001600160a01b03163314610b565760405162461bcd60e51b815260040161058790611623565b6001600160a01b038116610bbc5760405162461bcd60e51b815260206004820152602760248201527f48617341646d696e3a206e65772061646d696e20697320746865207a65726f206044820152666164647265737360c81b6064820152608401610587565b6005546040516001600160a01b038084169216907f7e644d79422f17c01e4894b5f4f588d331ebfa28653d42ae832dc59e38c9798f90600090a3600580546001600160a01b0319166001600160a01b0392909216919091179055565b606060048054610460906116b6565b6005546001600160a01b03163314610c515760405162461bcd60e51b815260040161058790611623565b6005546040516001600160a01b03909116907fa3b62bc36326052d97ea62d63c3d60308ed4c3ea8ac079dd8499f1e9c4f80c0f90600090a2600580546001600160a01b0319169055565b3360009081526001602090815260408083206001600160a01b038616845290915281205482811015610d1d5760405162461bcd60e51b815260206004820152602560248201527f45524332303a2064656372656173656420616c6c6f77616e63652062656c6f77604482015264207a65726f60d81b6064820152608401610587565b610d2a3385858403610eac565b5060019392505050565b60006104f0338484610fd0565b60026009541415610d645760405162461bcd60e51b815260040161058790611650565b6002600955336000908152600a6020526040902054610db35760405162461bcd60e51b815260206004820152600b60248201526a4e6f206d696e7461626c6560a81b6044820152606401610587565b336000818152600a6020526040902054610dcd91906112ed565b336000908152600a60205260408120556001600955565b6008546001600160a01b03163314610e3e5760405162461bcd60e51b815260206004820181905260248201527f4f776e61626c653a2063616c6c6572206973206e6f7420746865206f776e65726044820152606401610587565b6001600160a01b038116610ea35760405162461bcd60e51b815260206004820152602660248201527f4f776e61626c653a206e6577206f776e657220697320746865207a65726f206160448201526564647265737360d01b6064820152608401610587565b6105ee816113cc565b6001600160a01b038316610f0e5760405162461bcd60e51b8152602060048201526024808201527f45524332303a20617070726f76652066726f6d20746865207a65726f206164646044820152637265737360e01b6064820152608401610587565b6001600160a01b038216610f6f5760405162461bcd60e51b815260206004820152602260248201527f45524332303a20617070726f766520746f20746865207a65726f206164647265604482015261737360f01b6064820152608401610587565b6001600160a01b0383811660008181526001602090815260408083209487168084529482529182902085905590518481527f8c5be1e5ebec7d5bd14f71427d1e84f3dd0314c0f7b2291e5b200ac8c7c3b925910160405180910390a3505050565b6001600160a01b0383166110345760405162461bcd60e51b815260206004820152602560248201527f45524332303a207472616e736665722066726f6d20746865207a65726f206164604482015264647265737360d81b6064820152608401610587565b6001600160a01b0382166110965760405162461bcd60e51b815260206004820152602360248201527f45524332303a207472616e7366657220746f20746865207a65726f206164647260448201526265737360e81b6064820152608401610587565b6001600160a01b0383166000908152602081905260409020548181101561110e5760405162461bcd60e51b815260206004820152602660248201527f45524332303a207472616e7366657220616d6f756e7420657863656564732062604482015265616c616e636560d01b6064820152608401610587565b6001600160a01b03808516600090815260208190526040808220858503905591851681529081208054849290611145908490611687565b92505081905550826001600160a01b0316846001600160a01b03167fddf252ad1be2c89b69c2b068fc378daa952ba7f163c4a11628f55a4df523b3ef8460405161119191815260200190565b60405180910390a350505050565b6001600160a01b0382166111ff5760405162461bcd60e51b815260206004820152602160248201527f45524332303a206275726e2066726f6d20746865207a65726f206164647265736044820152607360f81b6064820152608401610587565b6001600160a01b038216600090815260208190526040902054818110156112735760405162461bcd60e51b815260206004820152602260248201527f45524332303a206275726e20616d6f756e7420657863656564732062616c616e604482015261636560f01b6064820152608401610587565b6001600160a01b03831660009081526020819052604081208383039055600280548492906112a290849061169f565b90915550506040518281526000906001600160a01b038516907fddf252ad1be2c89b69c2b068fc378daa952ba7f163c4a11628f55a4df523b3ef9060200160405180910390a3505050565b6001600160a01b0382166113435760405162461bcd60e51b815260206004820152601f60248201527f45524332303a206d696e7420746f20746865207a65726f2061646472657373006044820152606401610587565b80600260008282546113559190611687565b90915550506001600160a01b03821660009081526020819052604081208054839290611382908490611687565b90915550506040518181526001600160a01b038316906000907fddf252ad1be2c89b69c2b068fc378daa952ba7f163c4a11628f55a4df523b3ef9060200160405180910390a35050565b600880546001600160a01b038381166001600160a01b0319831681179093556040519116919082907f8be0079c531659141344cd1fd0a4f28419497f9722a3daafe3b4186f6b6457e090600090a35050565b80356001600160a01b038116811461143557600080fd5b919050565b60006020828403121561144b578081fd5b6114548261141e565b9392505050565b6000806040838503121561146d578081fd5b6114768361141e565b91506114846020840161141e565b90509250929050565b6000806000606084860312156114a1578081fd5b6114aa8461141e565b92506114b86020850161141e565b9150604084013590509250925092565b600080604083850312156114da578182fd5b6114e38361141e565b946020939093013593505050565b60006020808385031215611503578182fd5b823567ffffffffffffffff8082111561151a578384fd5b818501915085601f83011261152d578384fd5b81358181111561153f5761153f611722565b8060051b604051601f19603f8301168101818110858211171561156457611564611722565b604052828152858101935084860182860187018a1015611582578788fd5b8795505b838610156115ab576115978161141e565b855260019590950194938601938601611586565b5098975050505050505050565b6000602082840312156115c9578081fd5b5035919050565b6000602080835283518082850152825b818110156115fc578581018301518582016040015282016115e0565b8181111561160d5783604083870101525b50601f01601f1916929092016040019392505050565b6020808252601390820152722430b9a0b236b4b71d103737ba1030b236b4b760691b604082015260600190565b6020808252601f908201527f5265656e7472616e637947756172643a207265656e7472616e742063616c6c00604082015260600190565b6000821982111561169a5761169a61170c565b500190565b6000828210156116b1576116b161170c565b500390565b600181811c908216806116ca57607f821691505b602082108114156116eb57634e487b7160e01b600052602260045260246000fd5b50919050565b60006000198214156117055761170561170c565b5060010190565b634e487b7160e01b600052601160045260246000fd5b634e487b7160e01b600052604160045260246000fdfea264697066735822122096ce17ec6e48446057fba308a18255f389655f800f32a9f42b09f8fab038476964736f6c63430008040033",
  "devdoc": {
    "kind": "dev",
    "methods": {
      "allowance(address,address)": {
        "details": "See {IERC20-allowance}."
      },
      "approve(address,uint256)": {
        "details": "See {IERC20-approve}. Requirements: - `spender` cannot be the zero address."
      },
      "balanceOf(address)": {
        "details": "See {IERC20-balanceOf}."
      },
      "burn(uint256)": {
        "details": "Destroys `amount` tokens from the caller. See {ERC20-_burn}."
      },
      "burnFrom(address,uint256)": {
        "details": "Destroys `amount` tokens from `account`, deducting from the caller's allowance. See {ERC20-_burn} and {ERC20-allowance}. Requirements: - the caller must have allowance for ``accounts``'s tokens of at least `amount`."
      },
      "decimals()": {
        "details": "Returns the number of decimals used to get its user representation. For example, if `decimals` equals `2`, a balance of `505` tokens should be displayed to a user as `5.05` (`505 / 10 ** 2`). Tokens usually opt for a value of 18, imitating the relationship between Ether and Wei. This is the value {ERC20} uses, unless this function is overridden; NOTE: This information is only used for _display_ purposes: it in no way affects any of the arithmetic of the contract, including {IERC20-balanceOf} and {IERC20-transfer}."
      },
      "decreaseAllowance(address,uint256)": {
        "details": "Atomically decreases the allowance granted to `spender` by the caller. This is an alternative to {approve} that can be used as a mitigation for problems described in {IERC20-approve}. Emits an {Approval} event indicating the updated allowance. Requirements: - `spender` cannot be the zero address. - `spender` must have allowance for the caller of at least `subtractedValue`."
      },
      "increaseAllowance(address,uint256)": {
        "details": "Atomically increases the allowance granted to `spender` by the caller. This is an alternative to {approve} that can be used as a mitigation for problems described in {IERC20-approve}. Emits an {Approval} event indicating the updated allowance. Requirements: - `spender` cannot be the zero address."
      },
      "name()": {
        "details": "Returns the name of the token."
      },
      "owner()": {
        "details": "Returns the address of the current owner."
      },
      "renounceOwnership()": {
        "details": "Leaves the contract without owner. It will not be possible to call `onlyOwner` functions anymore. Can only be called by the current owner. NOTE: Renouncing ownership will leave the contract without an owner, thereby removing any functionality that is only available to the owner."
      },
      "symbol()": {
        "details": "Returns the symbol of the token, usually a shorter version of the name."
      },
      "totalSupply()": {
        "details": "See {IERC20-totalSupply}."
      },
      "transfer(address,uint256)": {
        "details": "See {IERC20-transfer}. Requirements: - `recipient` cannot be the zero address. - the caller must have a balance of at least `amount`."
      },
      "transferFrom(address,address,uint256)": {
        "details": "See {IERC20-transferFrom}. Emits an {Approval} event indicating the updated allowance. This is not required by the EIP. See the note at the beginning of {ERC20}. Requirements: - `sender` and `recipient` cannot be the zero address. - `sender` must have a balance of at least `amount`. - the caller must have allowance for ``sender``'s tokens of at least `amount`."
      },
      "transferOwnership(address)": {
        "details": "Transfers ownership of the contract to a new account (`newOwner`). Can only be called by the current owner."
      }
    },
    "version": 1
  },
  "userdoc": {
    "kind": "user",
    "methods": {},
    "version": 1
  },
  "storageLayout": {
    "storage": [
      {
        "astId": 251,
        "contract": "contracts/dsp/DeepSeaPlankton.sol:DeepSeaPlankton",
        "label": "_balances",
        "offset": 0,
        "slot": "0",
        "type": "t_mapping(t_address,t_uint256)"
      },
      {
        "astId": 257,
        "contract": "contracts/dsp/DeepSeaPlankton.sol:DeepSeaPlankton",
        "label": "_allowances",
        "offset": 0,
        "slot": "1",
        "type": "t_mapping(t_address,t_mapping(t_address,t_uint256))"
      },
      {
        "astId": 259,
        "contract": "contracts/dsp/DeepSeaPlankton.sol:DeepSeaPlankton",
        "label": "_totalSupply",
        "offset": 0,
        "slot": "2",
        "type": "t_uint256"
      },
      {
        "astId": 261,
        "contract": "contracts/dsp/DeepSeaPlankton.sol:DeepSeaPlankton",
        "label": "_name",
        "offset": 0,
        "slot": "3",
        "type": "t_string_storage"
      },
      {
        "astId": 263,
        "contract": "contracts/dsp/DeepSeaPlankton.sol:DeepSeaPlankton",
        "label": "_symbol",
        "offset": 0,
        "slot": "4",
        "type": "t_string_storage"
      },
      {
        "astId": 3890,
        "contract": "contracts/dsp/DeepSeaPlankton.sol:DeepSeaPlankton",
        "label": "admin",
        "offset": 0,
        "slot": "5",
        "type": "t_address"
      },
      {
        "astId": 3980,
        "contract": "contracts/dsp/DeepSeaPlankton.sol:DeepSeaPlankton",
        "label": "minters",
        "offset": 0,
        "slot": "6",
        "type": "t_array(t_address)dyn_storage"
      },
      {
        "astId": 3984,
        "contract": "contracts/dsp/DeepSeaPlankton.sol:DeepSeaPlankton",
        "label": "minter",
        "offset": 0,
        "slot": "7",
        "type": "t_mapping(t_address,t_bool)"
      },
      {
        "astId": 7,
        "contract": "contracts/dsp/DeepSeaPlankton.sol:DeepSeaPlankton",
        "label": "_owner",
        "offset": 0,
        "slot": "8",
        "type": "t_address"
      },
      {
        "astId": 206,
        "contract": "contracts/dsp/DeepSeaPlankton.sol:DeepSeaPlankton",
        "label": "_status",
        "offset": 0,
        "slot": "9",
        "type": "t_uint256"
      },
      {
        "astId": 3808,
        "contract": "contracts/dsp/DeepSeaPlankton.sol:DeepSeaPlankton",
        "label": "mintable",
        "offset": 0,
        "slot": "10",
        "type": "t_mapping(t_address,t_uint256)"
      }
    ],
    "types": {
      "t_address": {
        "encoding": "inplace",
        "label": "address",
        "numberOfBytes": "20"
      },
      "t_array(t_address)dyn_storage": {
        "base": "t_address",
        "encoding": "dynamic_array",
        "label": "address[]",
        "numberOfBytes": "32"
      },
      "t_bool": {
        "encoding": "inplace",
        "label": "bool",
        "numberOfBytes": "1"
      },
      "t_mapping(t_address,t_bool)": {
        "encoding": "mapping",
        "key": "t_address",
        "label": "mapping(address => bool)",
        "numberOfBytes": "32",
        "value": "t_bool"
      },
      "t_mapping(t_address,t_mapping(t_address,t_uint256))": {
        "encoding": "mapping",
        "key": "t_address",
        "label": "mapping(address => mapping(address => uint256))",
        "numberOfBytes": "32",
        "value": "t_mapping(t_address,t_uint256)"
      },
      "t_mapping(t_address,t_uint256)": {
        "encoding": "mapping",
        "key": "t_address",
        "label": "mapping(address => uint256)",
        "numberOfBytes": "32",
        "value": "t_uint256"
      },
      "t_string_storage": {
        "encoding": "bytes",
        "label": "string",
        "numberOfBytes": "32"
      },
      "t_uint256": {
        "encoding": "inplace",
        "label": "uint256",
        "numberOfBytes": "32"
      }
    }
  }
}