{
  "address": "0x365d4dBAA36e7e02C030F7CE04680948344e0f63",
  "abi": [
    {
      "inputs": [
        {
          "internalType": "address",
          "name": "_tokenAddress",
          "type": "address"
        },
        {
          "internalType": "uint256",
          "name": "_perAirdrop",
          "type": "uint256"
        },
        {
          "internalType": "uint256",
          "name": "_totalAirdrop",
          "type": "uint256"
        }
      ],
      "stateMutability": "nonpayable",
      "type": "constructor"
    },
    {
      "anonymous": false,
      "inputs": [
        {
          "indexed": true,
          "internalType": "address",
          "name": "previousOwner",
          "type": "address"
        },
        {
          "indexed": true,
          "internalType": "address",
          "name": "newOwner",
          "type": "address"
        }
      ],
      "name": "OwnershipTransferred",
      "type": "event"
    },
    {
      "anonymous": false,
      "inputs": [
        {
          "indexed": true,
          "internalType": "address",
          "name": "from",
          "type": "address"
        },
        {
          "indexed": true,
          "internalType": "address",
          "name": "to",
          "type": "address"
        }
      ],
      "name": "TransferAdmin",
      "type": "event"
    },
    {
      "inputs": [],
      "name": "admin",
      "outputs": [
        {
          "internalType": "address",
          "name": "",
          "type": "address"
        }
      ],
      "stateMutability": "view",
      "type": "function"
    },
    {
      "inputs": [
        {
          "internalType": "address",
          "name": "_tokenAddress",
          "type": "address"
        }
      ],
      "name": "balance",
      "outputs": [
        {
          "internalType": "uint256",
          "name": "",
          "type": "uint256"
        }
      ],
      "stateMutability": "view",
      "type": "function"
    },
    {
      "inputs": [
        {
          "internalType": "bytes",
          "name": "signature",
          "type": "bytes"
        }
      ],
      "name": "claimAirdrop",
      "outputs": [],
      "stateMutability": "nonpayable",
      "type": "function"
    },
    {
      "inputs": [
        {
          "internalType": "address",
          "name": "",
          "type": "address"
        }
      ],
      "name": "expired",
      "outputs": [
        {
          "internalType": "bool",
          "name": "",
          "type": "bool"
        }
      ],
      "stateMutability": "view",
      "type": "function"
    },
    {
      "inputs": [],
      "name": "flipActiveState",
      "outputs": [],
      "stateMutability": "nonpayable",
      "type": "function"
    },
    {
      "inputs": [],
      "name": "owner",
      "outputs": [
        {
          "internalType": "address",
          "name": "",
          "type": "address"
        }
      ],
      "stateMutability": "view",
      "type": "function"
    },
    {
      "inputs": [],
      "name": "renounceOwnership",
      "outputs": [],
      "stateMutability": "nonpayable",
      "type": "function"
    },
    {
      "inputs": [
        {
          "internalType": "address",
          "name": "_to",
          "type": "address"
        }
      ],
      "name": "transferAdmin",
      "outputs": [],
      "stateMutability": "nonpayable",
      "type": "function"
    },
    {
      "inputs": [
        {
          "internalType": "address",
          "name": "newOwner",
          "type": "address"
        }
      ],
      "name": "transferOwnership",
      "outputs": [],
      "stateMutability": "nonpayable",
      "type": "function"
    },
    {
      "inputs": [
        {
          "internalType": "address",
          "name": "_tokenAddress",
          "type": "address"
        },
        {
          "internalType": "uint256",
          "name": "_amount",
          "type": "uint256"
        }
      ],
      "name": "withdraw",
      "outputs": [],
      "stateMutability": "nonpayable",
      "type": "function"
    }
  ],
  "transactionHash": "0x475b5b84a2b740c312c066bda280405323aaa89adac06d2c32c9a075a02dfde6",
  "args": [
    "0xB6d7Bf947d4D6321FD863ACcD2C71f022BCFd0eE",
    "100000000000000000000",
    "10000000000000000000000"
  ],
  "solcInputHash": "3c70c77d428e61bb6242bf0749abc803",
  "bytecode": "0x60806040526006805460ff1916600117905534801561001d57600080fd5b50604051610f17380380610f1783398101604081905261003c916100d6565b600160005561004a33610084565b60028054336001600160a01b031991821617909155600380549091166001600160a01b039490941693909317909255600455600555610117565b600180546001600160a01b038381166001600160a01b0319831681179093556040519116919082907f8be0079c531659141344cd1fd0a4f28419497f9722a3daafe3b4186f6b6457e090600090a35050565b6000806000606084860312156100ea578283fd5b83516001600160a01b0381168114610100578384fd5b602085015160409095015190969495509392505050565b610df1806101266000396000f3fe608060405234801561001057600080fd5b506004361061009e5760003560e01c8063e3d670d711610066578063e3d670d714610105578063f06a10e014610126578063f2fde38b14610159578063f3fef3a31461016c578063f851a4401461017f57600080fd5b8063715018a6146100a357806375829def146100ad5780638da5cb5b146100c05780638dbb62da146100ea578063ccd7fb00146100fd575b600080fd5b6100ab610192565b005b6100ab6100bb366004610b72565b6101d1565b6001546001600160a01b03165b6040516001600160a01b0390911681526020015b60405180910390f35b6100ab6100f8366004610c0d565b6102a2565b6100ab610562565b610118610113366004610b72565b6105bd565b6040519081526020016100e1565b610149610134366004610b72565b60076020526000908152604090205460ff1681565b60405190151581526020016100e1565b6100ab610167366004610b72565b61063d565b6100ab61017a366004610baa565b6106d8565b6002546100cd906001600160a01b031681565b6001546001600160a01b031633146101c55760405162461bcd60e51b81526004016101bc90610d2b565b60405180910390fd5b6101cf60006107d9565b565b6001546001600160a01b031633146101fb5760405162461bcd60e51b81526004016101bc90610d2b565b6002546001600160a01b03828116911614156102505760405162461bcd60e51b81526020600482015260146024820152735472616e73666572204d65616e696e676c65737360601b60448201526064016101bc565b600280546001600160a01b038381166001600160a01b0319831681179093556040519116919082907fbdd36143ee09de60bdefca70680e0f71189b2ed7acee364b53917ad433fdaf8090600090a35050565b600260005414156102f55760405162461bcd60e51b815260206004820152601f60248201527f5265656e7472616e637947756172643a207265656e7472616e742063616c6c0060448201526064016101bc565b600260005560405163b613249d60e01b815233600482015261038690736748dAeA9f2F668ED4a425000E4d61b07797CA759063b613249d9060240160206040518083038186803b15801561034857600080fd5b505af415801561035c573d6000803e3d6000fd5b505050506040513d601f19601f820116820180604052508101906103809190610bf5565b8261082b565b6103c15760405162461bcd60e51b815260206004820152600c60248201526b139bdd081d995c9a599a595960a21b60448201526064016101bc565b3360009081526007602052604090205460ff161561040b5760405162461bcd60e51b8152602060048201526007602482015266115e1c1a5c995960ca1b60448201526064016101bc565b60065460ff1661045d5760405162461bcd60e51b815260206004820152601760248201527f556e61637469766520746f206d696e7420416e696d616c00000000000000000060448201526064016101bc565b600480546003546040516370a0823160e01b8152309381019390935290916001600160a01b03909116906370a082319060240160206040518083038186803b1580156104a857600080fd5b505afa1580156104bc573d6000803e3d6000fd5b505050506040513d601f19601f820116820180604052508101906104e09190610bf5565b10156105235760405162461bcd60e51b81526020600482015260126024820152712ab739bab33334b1b4b2b73a103a37b5b2b760711b60448201526064016101bc565b600454600354610540916001600160a01b039091169033906108cf565b50336000908152600760205260408120805460ff191660019081179091559055565b6002546001600160a01b031633146105a95760405162461bcd60e51b815260206004820152600a602482015269139bdd0814195c9b5a5d60b21b60448201526064016101bc565b6006805460ff19811660ff90911615179055565b6040516370a0823160e01b81523060048201526000906001600160a01b038316906370a082319060240160206040518083038186803b1580156105ff57600080fd5b505afa158015610613573d6000803e3d6000fd5b505050506040513d601f19601f820116820180604052508101906106379190610bf5565b92915050565b6001546001600160a01b031633146106675760405162461bcd60e51b81526004016101bc90610d2b565b6001600160a01b0381166106cc5760405162461bcd60e51b815260206004820152602660248201527f4f776e61626c653a206e6577206f776e657220697320746865207a65726f206160448201526564647265737360d01b60648201526084016101bc565b6106d5816107d9565b50565b6001546001600160a01b031633146107025760405162461bcd60e51b81526004016101bc90610d2b565b6040516370a0823160e01b815230600482015281906001600160a01b038416906370a082319060240160206040518083038186803b15801561074357600080fd5b505afa158015610757573d6000803e3d6000fd5b505050506040513d601f19601f8201168201806040525081019061077b9190610bf5565b10156107be5760405162461bcd60e51b81526020600482015260126024820152712ab739bab33334b1b4b2b73a103a37b5b2b760711b60448201526064016101bc565b6003546107d5906001600160a01b031633836108cf565b5050565b600180546001600160a01b038381166001600160a01b0319831681179093556040519116919082907f8be0079c531659141344cd1fd0a4f28419497f9722a3daafe3b4186f6b6457e090600090a35050565b6040516319045a2560e01b8152600090736748dAeA9f2F668ED4a425000E4d61b07797CA75906319045a25906108679086908690600401610cff565b60206040518083038186803b15801561087f57600080fd5b505af4158015610893573d6000803e3d6000fd5b505050506040513d601f19601f820116820180604052508101906108b79190610b8e565b6002546001600160a01b039182169116149392505050565b604080516001600160a01b038416602482015260448082018490528251808303909101815260649091019091526020810180516001600160e01b031663a9059cbb60e01b179052610921908490610926565b505050565b600061097b826040518060400160405280602081526020017f5361666545524332303a206c6f772d6c6576656c2063616c6c206661696c6564815250856001600160a01b03166109f89092919063ffffffff16565b80519091501561092157808060200190518101906109999190610bd5565b6109215760405162461bcd60e51b815260206004820152602a60248201527f5361666545524332303a204552433230206f7065726174696f6e20646964206e6044820152691bdd081cdd58d8d9595960b21b60648201526084016101bc565b6060610a078484600085610a11565b90505b9392505050565b606082471015610a725760405162461bcd60e51b815260206004820152602660248201527f416464726573733a20696e73756666696369656e742062616c616e636520666f6044820152651c8818d85b1b60d21b60648201526084016101bc565b843b610ac05760405162461bcd60e51b815260206004820152601d60248201527f416464726573733a2063616c6c20746f206e6f6e2d636f6e747261637400000060448201526064016101bc565b600080866001600160a01b03168587604051610adc9190610ce3565b60006040518083038185875af1925050503d8060008114610b19576040519150601f19603f3d011682016040523d82523d6000602084013e610b1e565b606091505b5091509150610b2e828286610b39565b979650505050505050565b60608315610b48575081610a0a565b825115610b585782518084602001fd5b8160405162461bcd60e51b81526004016101bc9190610d18565b600060208284031215610b83578081fd5b8135610a0a81610da6565b600060208284031215610b9f578081fd5b8151610a0a81610da6565b60008060408385031215610bbc578081fd5b8235610bc781610da6565b946020939093013593505050565b600060208284031215610be6578081fd5b81518015158114610a0a578182fd5b600060208284031215610c06578081fd5b5051919050565b600060208284031215610c1e578081fd5b813567ffffffffffffffff80821115610c35578283fd5b818401915084601f830112610c48578283fd5b813581811115610c5a57610c5a610d90565b604051601f8201601f19908116603f01168101908382118183101715610c8257610c82610d90565b81604052828152876020848701011115610c9a578586fd5b826020860160208301379182016020019490945295945050505050565b60008151808452610ccf816020860160208601610d60565b601f01601f19169290920160200192915050565b60008251610cf5818460208701610d60565b9190910192915050565b828152604060208201526000610a076040830184610cb7565b602081526000610a0a6020830184610cb7565b6020808252818101527f4f776e61626c653a2063616c6c6572206973206e6f7420746865206f776e6572604082015260600190565b60005b83811015610d7b578181015183820152602001610d63565b83811115610d8a576000848401525b50505050565b634e487b7160e01b600052604160045260246000fd5b6001600160a01b03811681146106d557600080fdfea264697066735822122061cc7613518c440fd3b133f653b3ed9269a6dc2e61d88fedb05007a89d77460064736f6c63430008040033",
  "deployedBytecode": "0x608060405234801561001057600080fd5b506004361061009e5760003560e01c8063e3d670d711610066578063e3d670d714610105578063f06a10e014610126578063f2fde38b14610159578063f3fef3a31461016c578063f851a4401461017f57600080fd5b8063715018a6146100a357806375829def146100ad5780638da5cb5b146100c05780638dbb62da146100ea578063ccd7fb00146100fd575b600080fd5b6100ab610192565b005b6100ab6100bb366004610b72565b6101d1565b6001546001600160a01b03165b6040516001600160a01b0390911681526020015b60405180910390f35b6100ab6100f8366004610c0d565b6102a2565b6100ab610562565b610118610113366004610b72565b6105bd565b6040519081526020016100e1565b610149610134366004610b72565b60076020526000908152604090205460ff1681565b60405190151581526020016100e1565b6100ab610167366004610b72565b61063d565b6100ab61017a366004610baa565b6106d8565b6002546100cd906001600160a01b031681565b6001546001600160a01b031633146101c55760405162461bcd60e51b81526004016101bc90610d2b565b60405180910390fd5b6101cf60006107d9565b565b6001546001600160a01b031633146101fb5760405162461bcd60e51b81526004016101bc90610d2b565b6002546001600160a01b03828116911614156102505760405162461bcd60e51b81526020600482015260146024820152735472616e73666572204d65616e696e676c65737360601b60448201526064016101bc565b600280546001600160a01b038381166001600160a01b0319831681179093556040519116919082907fbdd36143ee09de60bdefca70680e0f71189b2ed7acee364b53917ad433fdaf8090600090a35050565b600260005414156102f55760405162461bcd60e51b815260206004820152601f60248201527f5265656e7472616e637947756172643a207265656e7472616e742063616c6c0060448201526064016101bc565b600260005560405163b613249d60e01b81523360048201526103869073__$bfe2affd5a69741b1d0756c60605649423$__9063b613249d9060240160206040518083038186803b15801561034857600080fd5b505af415801561035c573d6000803e3d6000fd5b505050506040513d601f19601f820116820180604052508101906103809190610bf5565b8261082b565b6103c15760405162461bcd60e51b815260206004820152600c60248201526b139bdd081d995c9a599a595960a21b60448201526064016101bc565b3360009081526007602052604090205460ff161561040b5760405162461bcd60e51b8152602060048201526007602482015266115e1c1a5c995960ca1b60448201526064016101bc565b60065460ff1661045d5760405162461bcd60e51b815260206004820152601760248201527f556e61637469766520746f206d696e7420416e696d616c00000000000000000060448201526064016101bc565b600480546003546040516370a0823160e01b8152309381019390935290916001600160a01b03909116906370a082319060240160206040518083038186803b1580156104a857600080fd5b505afa1580156104bc573d6000803e3d6000fd5b505050506040513d601f19601f820116820180604052508101906104e09190610bf5565b10156105235760405162461bcd60e51b81526020600482015260126024820152712ab739bab33334b1b4b2b73a103a37b5b2b760711b60448201526064016101bc565b600454600354610540916001600160a01b039091169033906108cf565b50336000908152600760205260408120805460ff191660019081179091559055565b6002546001600160a01b031633146105a95760405162461bcd60e51b815260206004820152600a602482015269139bdd0814195c9b5a5d60b21b60448201526064016101bc565b6006805460ff19811660ff90911615179055565b6040516370a0823160e01b81523060048201526000906001600160a01b038316906370a082319060240160206040518083038186803b1580156105ff57600080fd5b505afa158015610613573d6000803e3d6000fd5b505050506040513d601f19601f820116820180604052508101906106379190610bf5565b92915050565b6001546001600160a01b031633146106675760405162461bcd60e51b81526004016101bc90610d2b565b6001600160a01b0381166106cc5760405162461bcd60e51b815260206004820152602660248201527f4f776e61626c653a206e6577206f776e657220697320746865207a65726f206160448201526564647265737360d01b60648201526084016101bc565b6106d5816107d9565b50565b6001546001600160a01b031633146107025760405162461bcd60e51b81526004016101bc90610d2b565b6040516370a0823160e01b815230600482015281906001600160a01b038416906370a082319060240160206040518083038186803b15801561074357600080fd5b505afa158015610757573d6000803e3d6000fd5b505050506040513d601f19601f8201168201806040525081019061077b9190610bf5565b10156107be5760405162461bcd60e51b81526020600482015260126024820152712ab739bab33334b1b4b2b73a103a37b5b2b760711b60448201526064016101bc565b6003546107d5906001600160a01b031633836108cf565b5050565b600180546001600160a01b038381166001600160a01b0319831681179093556040519116919082907f8be0079c531659141344cd1fd0a4f28419497f9722a3daafe3b4186f6b6457e090600090a35050565b6040516319045a2560e01b815260009073__$bfe2affd5a69741b1d0756c60605649423$__906319045a25906108679086908690600401610cff565b60206040518083038186803b15801561087f57600080fd5b505af4158015610893573d6000803e3d6000fd5b505050506040513d601f19601f820116820180604052508101906108b79190610b8e565b6002546001600160a01b039182169116149392505050565b604080516001600160a01b038416602482015260448082018490528251808303909101815260649091019091526020810180516001600160e01b031663a9059cbb60e01b179052610921908490610926565b505050565b600061097b826040518060400160405280602081526020017f5361666545524332303a206c6f772d6c6576656c2063616c6c206661696c6564815250856001600160a01b03166109f89092919063ffffffff16565b80519091501561092157808060200190518101906109999190610bd5565b6109215760405162461bcd60e51b815260206004820152602a60248201527f5361666545524332303a204552433230206f7065726174696f6e20646964206e6044820152691bdd081cdd58d8d9595960b21b60648201526084016101bc565b6060610a078484600085610a11565b90505b9392505050565b606082471015610a725760405162461bcd60e51b815260206004820152602660248201527f416464726573733a20696e73756666696369656e742062616c616e636520666f6044820152651c8818d85b1b60d21b60648201526084016101bc565b843b610ac05760405162461bcd60e51b815260206004820152601d60248201527f416464726573733a2063616c6c20746f206e6f6e2d636f6e747261637400000060448201526064016101bc565b600080866001600160a01b03168587604051610adc9190610ce3565b60006040518083038185875af1925050503d8060008114610b19576040519150601f19603f3d011682016040523d82523d6000602084013e610b1e565b606091505b5091509150610b2e828286610b39565b979650505050505050565b60608315610b48575081610a0a565b825115610b585782518084602001fd5b8160405162461bcd60e51b81526004016101bc9190610d18565b600060208284031215610b83578081fd5b8135610a0a81610da6565b600060208284031215610b9f578081fd5b8151610a0a81610da6565b60008060408385031215610bbc578081fd5b8235610bc781610da6565b946020939093013593505050565b600060208284031215610be6578081fd5b81518015158114610a0a578182fd5b600060208284031215610c06578081fd5b5051919050565b600060208284031215610c1e578081fd5b813567ffffffffffffffff80821115610c35578283fd5b818401915084601f830112610c48578283fd5b813581811115610c5a57610c5a610d90565b604051601f8201601f19908116603f01168101908382118183101715610c8257610c82610d90565b81604052828152876020848701011115610c9a578586fd5b826020860160208301379182016020019490945295945050505050565b60008151808452610ccf816020860160208601610d60565b601f01601f19169290920160200192915050565b60008251610cf5818460208701610d60565b9190910192915050565b828152604060208201526000610a076040830184610cb7565b602081526000610a0a6020830184610cb7565b6020808252818101527f4f776e61626c653a2063616c6c6572206973206e6f7420746865206f776e6572604082015260600190565b60005b83811015610d7b578181015183820152602001610d63565b83811115610d8a576000848401525b50505050565b634e487b7160e01b600052604160045260246000fd5b6001600160a01b03811681146106d557600080fdfea264697066735822122061cc7613518c440fd3b133f653b3ed9269a6dc2e61d88fedb05007a89d77460064736f6c63430008040033",
  "libraries": {
    "Sig": "0x6748dAeA9f2F668ED4a425000E4d61b07797CA75"
  },
  "devdoc": {
    "kind": "dev",
    "methods": {
      "owner()": {
        "details": "Returns the address of the current owner."
      },
      "renounceOwnership()": {
        "details": "Leaves the contract without owner. It will not be possible to call `onlyOwner` functions anymore. Can only be called by the current owner. NOTE: Renouncing ownership will leave the contract without an owner, thereby removing any functionality that is only available to the owner."
      },
      "transferOwnership(address)": {
        "details": "Transfers ownership of the contract to a new account (`newOwner`). Can only be called by the current owner."
      }
    },
    "version": 1
  },
  "userdoc": {
    "kind": "user",
    "methods": {},
    "version": 1
  },
  "storageLayout": {
    "storage": [
      {
        "astId": 206,
        "contract": "contracts/market/DeepGoAirdrop.sol:DeepGoAirdrop",
        "label": "_status",
        "offset": 0,
        "slot": "0",
        "type": "t_uint256"
      },
      {
        "astId": 7,
        "contract": "contracts/market/DeepGoAirdrop.sol:DeepGoAirdrop",
        "label": "_owner",
        "offset": 0,
        "slot": "1",
        "type": "t_address"
      },
      {
        "astId": 4168,
        "contract": "contracts/market/DeepGoAirdrop.sol:DeepGoAirdrop",
        "label": "admin",
        "offset": 0,
        "slot": "2",
        "type": "t_address"
      },
      {
        "astId": 4170,
        "contract": "contracts/market/DeepGoAirdrop.sol:DeepGoAirdrop",
        "label": "tokenAddress",
        "offset": 0,
        "slot": "3",
        "type": "t_address"
      },
      {
        "astId": 4172,
        "contract": "contracts/market/DeepGoAirdrop.sol:DeepGoAirdrop",
        "label": "perAirdrop",
        "offset": 0,
        "slot": "4",
        "type": "t_uint256"
      },
      {
        "astId": 4174,
        "contract": "contracts/market/DeepGoAirdrop.sol:DeepGoAirdrop",
        "label": "totalAirdrop",
        "offset": 0,
        "slot": "5",
        "type": "t_uint256"
      },
      {
        "astId": 4177,
        "contract": "contracts/market/DeepGoAirdrop.sol:DeepGoAirdrop",
        "label": "airdropIsActive",
        "offset": 0,
        "slot": "6",
        "type": "t_bool"
      },
      {
        "astId": 4181,
        "contract": "contracts/market/DeepGoAirdrop.sol:DeepGoAirdrop",
        "label": "expired",
        "offset": 0,
        "slot": "7",
        "type": "t_mapping(t_address,t_bool)"
      }
    ],
    "types": {
      "t_address": {
        "encoding": "inplace",
        "label": "address",
        "numberOfBytes": "20"
      },
      "t_bool": {
        "encoding": "inplace",
        "label": "bool",
        "numberOfBytes": "1"
      },
      "t_mapping(t_address,t_bool)": {
        "encoding": "mapping",
        "key": "t_address",
        "label": "mapping(address => bool)",
        "numberOfBytes": "32",
        "value": "t_bool"
      },
      "t_uint256": {
        "encoding": "inplace",
        "label": "uint256",
        "numberOfBytes": "32"
      }
    }
  }
}