{
  "address": "0x6748dAeA9f2F668ED4a425000E4d61b07797CA75",
  "abi": [
    {
      "inputs": [
        {
          "internalType": "address",
          "name": "_addr",
          "type": "address"
        }
      ],
      "name": "addressHash",
      "outputs": [
        {
          "internalType": "bytes32",
          "name": "",
          "type": "bytes32"
        }
      ],
      "stateMutability": "pure",
      "type": "function"
    },
    {
      "inputs": [
        {
          "internalType": "address",
          "name": "_addr",
          "type": "address"
        }
      ],
      "name": "ethSignedHash",
      "outputs": [
        {
          "internalType": "bytes32",
          "name": "",
          "type": "bytes32"
        }
      ],
      "stateMutability": "pure",
      "type": "function"
    },
    {
      "inputs": [
        {
          "internalType": "bytes32",
          "name": "hash",
          "type": "bytes32"
        },
        {
          "internalType": "bytes",
          "name": "signature",
          "type": "bytes"
        }
      ],
      "name": "recover",
      "outputs": [
        {
          "internalType": "address",
          "name": "",
          "type": "address"
        }
      ],
      "stateMutability": "pure",
      "type": "function"
    },
    {
      "inputs": [
        {
          "internalType": "bytes32",
          "name": "hash",
          "type": "bytes32"
        },
        {
          "internalType": "bytes",
          "name": "signature",
          "type": "bytes"
        },
        {
          "internalType": "address",
          "name": "signer",
          "type": "address"
        }
      ],
      "name": "verified",
      "outputs": [
        {
          "internalType": "bool",
          "name": "",
          "type": "bool"
        }
      ],
      "stateMutability": "pure",
      "type": "function"
    }
  ],
  "transactionHash": "0x289e7715b13b9fbd4fdd77ae7f215192137d9bb3651afba2484d78d1375973f9",
  "args": [],
  "solcInputHash": "3c70c77d428e61bb6242bf0749abc803",
  "bytecode": "0x61073b61003a600b82828239805160001a60731461002d57634e487b7160e01b600052600060045260246000fd5b30600052607381538281f3fe73000000000000000000000000000000000000000030146080604052600436106100555760003560e01c8062adc3821461005a57806319045a251461008057806355902dea146100ab578063b613249d146100ce575b600080fd5b61006d61006836600461063b565b6100e1565b6040519081526020015b60405180910390f35b61009361008e366004610655565b610121565b6040516001600160a01b039091168152602001610077565b6100be6100b936600461069a565b610134565b6040519015158152602001610077565b61006d6100dc36600461063b565b61015d565b6040516bffffffffffffffffffffffff19606083901b1660208201526000906034015b604051602081830303815290604052805190602001209050919050565b600061012d83836101a4565b9392505050565b60006101408484610121565b6001600160a01b0316826001600160a01b03161490509392505050565b6040516bffffffffffffffffffffffff19606083901b16602082015260009061019e90603401604051602081830303815290604052805190602001206101c8565b92915050565b60008060006101b38585610203565b915091506101c081610273565b509392505050565b6040517f19457468657265756d205369676e6564204d6573736167653a0a3332000000006020820152603c8101829052600090605c01610104565b60008082516041141561023a5760208301516040840151606085015160001a61022e8782858561047c565b9450945050505061026c565b8251604014156102645760208301516040840151610259868383610569565b93509350505061026c565b506000905060025b9250929050565b600081600481111561029557634e487b7160e01b600052602160045260246000fd5b141561029e5750565b60018160048111156102c057634e487b7160e01b600052602160045260246000fd5b14156103135760405162461bcd60e51b815260206004820152601860248201527f45434453413a20696e76616c6964207369676e6174757265000000000000000060448201526064015b60405180910390fd5b600281600481111561033557634e487b7160e01b600052602160045260246000fd5b14156103835760405162461bcd60e51b815260206004820152601f60248201527f45434453413a20696e76616c6964207369676e6174757265206c656e67746800604482015260640161030a565b60038160048111156103a557634e487b7160e01b600052602160045260246000fd5b14156103fe5760405162461bcd60e51b815260206004820152602260248201527f45434453413a20696e76616c6964207369676e6174757265202773272076616c604482015261756560f01b606482015260840161030a565b600481600481111561042057634e487b7160e01b600052602160045260246000fd5b14156104795760405162461bcd60e51b815260206004820152602260248201527f45434453413a20696e76616c6964207369676e6174757265202776272076616c604482015261756560f01b606482015260840161030a565b50565b6000807f7fffffffffffffffffffffffffffffff5d576e7357a4501ddfe92f46681b20a08311156104b35750600090506003610560565b8460ff16601b141580156104cb57508460ff16601c14155b156104dc5750600090506004610560565b6040805160008082526020820180845289905260ff881692820192909252606081018690526080810185905260019060a0016020604051602081039080840390855afa158015610530573d6000803e3d6000fd5b5050604051601f1901519150506001600160a01b03811661055957600060019250925050610560565b9150600090505b94509492505050565b6000806001600160ff1b03831660ff84901c601b0161058a8782888561047c565b935093505050935093915050565b80356001600160a01b03811681146105af57600080fd5b919050565b600082601f8301126105c4578081fd5b813567ffffffffffffffff808211156105df576105df6106ef565b604051601f8301601f19908116603f01168101908282118183101715610607576106076106ef565b8160405283815286602085880101111561061f578485fd5b8360208701602083013792830160200193909352509392505050565b60006020828403121561064c578081fd5b61012d82610598565b60008060408385031215610667578081fd5b82359150602083013567ffffffffffffffff811115610684578182fd5b610690858286016105b4565b9150509250929050565b6000806000606084860312156106ae578081fd5b83359250602084013567ffffffffffffffff8111156106cb578182fd5b6106d7868287016105b4565b9250506106e660408501610598565b90509250925092565b634e487b7160e01b600052604160045260246000fdfea2646970667358221220794ef73492a65942eb5bd90f1f5250e89c949c13bc78fc0c3b00fd74808a4c1664736f6c63430008040033",
  "devdoc": {
    "kind": "dev",
    "methods": {},
    "version": 1
  },
  "userdoc": {
    "kind": "user",
    "methods": {},
    "version": 1
  },
  "storageLayout": {
    "storage": [],
    "types": null
  }
}