{
  "address": "0xe62E32c3BBcab4a1096b4B7D3ee4E4E1BEee0d19",
  "abi": [
    {
      "inputs": [
        {
          "internalType": "address",
          "name": "_voyagerStorage",
          "type": "address"
        }
      ],
      "stateMutability": "nonpayable",
      "type": "constructor"
    },
    {
      "anonymous": false,
      "inputs": [
        {
          "indexed": false,
          "internalType": "address",
          "name": "oldAdmin",
          "type": "address"
        },
        {
          "indexed": false,
          "internalType": "address",
          "name": "newAdmin",
          "type": "address"
        }
      ],
      "name": "AdminTransferred",
      "type": "event"
    },
    {
      "anonymous": false,
      "inputs": [
        {
          "indexed": true,
          "internalType": "address",
          "name": "previousOwner",
          "type": "address"
        },
        {
          "indexed": true,
          "internalType": "address",
          "name": "newOwner",
          "type": "address"
        }
      ],
      "name": "OwnershipTransferred",
      "type": "event"
    },
    {
      "anonymous": false,
      "inputs": [
        {
          "indexed": false,
          "internalType": "address",
          "name": "account",
          "type": "address"
        }
      ],
      "name": "Paused",
      "type": "event"
    },
    {
      "anonymous": false,
      "inputs": [
        {
          "indexed": false,
          "internalType": "address",
          "name": "account",
          "type": "address"
        }
      ],
      "name": "Unpaused",
      "type": "event"
    },
    {
      "inputs": [
        {
          "internalType": "uint256",
          "name": "tokenID",
          "type": "uint256"
        },
        {
          "internalType": "string",
          "name": "_tokenURI",
          "type": "string"
        }
      ],
      "name": "_changeTokenURI",
      "outputs": [],
      "stateMutability": "nonpayable",
      "type": "function"
    },
    {
      "inputs": [],
      "name": "_mintVoyager",
      "outputs": [],
      "stateMutability": "nonpayable",
      "type": "function"
    },
    {
      "inputs": [
        {
          "internalType": "bytes",
          "name": "signature",
          "type": "bytes"
        }
      ],
      "name": "_mintVoyagerByWhitelist",
      "outputs": [],
      "stateMutability": "nonpayable",
      "type": "function"
    },
    {
      "inputs": [],
      "name": "admin",
      "outputs": [
        {
          "internalType": "address",
          "name": "",
          "type": "address"
        }
      ],
      "stateMutability": "view",
      "type": "function"
    },
    {
      "inputs": [],
      "name": "burnDSP",
      "outputs": [],
      "stateMutability": "nonpayable",
      "type": "function"
    },
    {
      "inputs": [
        {
          "internalType": "uint256",
          "name": "tokenID",
          "type": "uint256"
        },
        {
          "internalType": "string",
          "name": "_tokenURI",
          "type": "string"
        }
      ],
      "name": "changeTokenURI",
      "outputs": [],
      "stateMutability": "nonpayable",
      "type": "function"
    },
    {
      "inputs": [],
      "name": "curVersion",
      "outputs": [
        {
          "internalType": "address",
          "name": "voyagerLogic",
          "type": "address"
        }
      ],
      "stateMutability": "view",
      "type": "function"
    },
    {
      "inputs": [],
      "name": "delayVersion",
      "outputs": [
        {
          "internalType": "address",
          "name": "voyagerLogic",
          "type": "address"
        }
      ],
      "stateMutability": "view",
      "type": "function"
    },
    {
      "inputs": [],
      "name": "delayVersionName",
      "outputs": [
        {
          "internalType": "string",
          "name": "",
          "type": "string"
        }
      ],
      "stateMutability": "view",
      "type": "function"
    },
    {
      "inputs": [],
      "name": "dsp",
      "outputs": [
        {
          "internalType": "contract DeepSeaPlankton",
          "name": "",
          "type": "address"
        }
      ],
      "stateMutability": "view",
      "type": "function"
    },
    {
      "inputs": [],
      "name": "executeUpgrade",
      "outputs": [],
      "stateMutability": "nonpayable",
      "type": "function"
    },
    {
      "inputs": [],
      "name": "flipMintableState",
      "outputs": [],
      "stateMutability": "nonpayable",
      "type": "function"
    },
    {
      "inputs": [
        {
          "internalType": "string",
          "name": "_version",
          "type": "string"
        }
      ],
      "name": "getLogicContracts",
      "outputs": [
        {
          "internalType": "address",
          "name": "",
          "type": "address"
        }
      ],
      "stateMutability": "view",
      "type": "function"
    },
    {
      "inputs": [
        {
          "internalType": "address",
          "name": "_voyagerLogic",
          "type": "address"
        }
      ],
      "name": "initialize",
      "outputs": [],
      "stateMutability": "nonpayable",
      "type": "function"
    },
    {
      "inputs": [],
      "name": "initialized",
      "outputs": [
        {
          "internalType": "bool",
          "name": "",
          "type": "bool"
        }
      ],
      "stateMutability": "view",
      "type": "function"
    },
    {
      "inputs": [
        {
          "internalType": "uint256",
          "name": "tokenID",
          "type": "uint256"
        }
      ],
      "name": "levelUp",
      "outputs": [],
      "stateMutability": "nonpayable",
      "type": "function"
    },
    {
      "inputs": [],
      "name": "mintIsActive",
      "outputs": [
        {
          "internalType": "bool",
          "name": "",
          "type": "bool"
        }
      ],
      "stateMutability": "view",
      "type": "function"
    },
    {
      "inputs": [],
      "name": "mintVoyager",
      "outputs": [],
      "stateMutability": "nonpayable",
      "type": "function"
    },
    {
      "inputs": [
        {
          "internalType": "bytes",
          "name": "signature",
          "type": "bytes"
        }
      ],
      "name": "mintVoyagerByWhitelist",
      "outputs": [],
      "stateMutability": "nonpayable",
      "type": "function"
    },
    {
      "inputs": [],
      "name": "owner",
      "outputs": [
        {
          "internalType": "address",
          "name": "",
          "type": "address"
        }
      ],
      "stateMutability": "view",
      "type": "function"
    },
    {
      "inputs": [],
      "name": "paused",
      "outputs": [
        {
          "internalType": "bool",
          "name": "",
          "type": "bool"
        }
      ],
      "stateMutability": "view",
      "type": "function"
    },
    {
      "inputs": [],
      "name": "proxy",
      "outputs": [
        {
          "internalType": "address",
          "name": "",
          "type": "address"
        }
      ],
      "stateMutability": "view",
      "type": "function"
    },
    {
      "inputs": [],
      "name": "renounceOwnership",
      "outputs": [],
      "stateMutability": "nonpayable",
      "type": "function"
    },
    {
      "inputs": [],
      "name": "rollback",
      "outputs": [],
      "stateMutability": "nonpayable",
      "type": "function"
    },
    {
      "inputs": [
        {
          "internalType": "address",
          "name": "_token1",
          "type": "address"
        }
      ],
      "name": "setFee1TokenAddress",
      "outputs": [],
      "stateMutability": "nonpayable",
      "type": "function"
    },
    {
      "inputs": [
        {
          "internalType": "address",
          "name": "_token2",
          "type": "address"
        }
      ],
      "name": "setFee2TokenAddress",
      "outputs": [],
      "stateMutability": "nonpayable",
      "type": "function"
    },
    {
      "inputs": [],
      "name": "setPause",
      "outputs": [],
      "stateMutability": "nonpayable",
      "type": "function"
    },
    {
      "inputs": [
        {
          "internalType": "address",
          "name": "_proxy",
          "type": "address"
        }
      ],
      "name": "setProxy",
      "outputs": [],
      "stateMutability": "nonpayable",
      "type": "function"
    },
    {
      "inputs": [
        {
          "internalType": "string",
          "name": "_tokenURI",
          "type": "string"
        }
      ],
      "name": "setToken0URI",
      "outputs": [],
      "stateMutability": "nonpayable",
      "type": "function"
    },
    {
      "inputs": [
        {
          "internalType": "uint256",
          "name": "_tokenid",
          "type": "uint256"
        },
        {
          "internalType": "uint256",
          "name": "_level",
          "type": "uint256"
        },
        {
          "internalType": "string",
          "name": "_tokenURI",
          "type": "string"
        }
      ],
      "name": "setTokenURI",
      "outputs": [],
      "stateMutability": "nonpayable",
      "type": "function"
    },
    {
      "inputs": [
        {
          "internalType": "string",
          "name": "_newVersion",
          "type": "string"
        },
        {
          "internalType": "address",
          "name": "_voyagerLogic",
          "type": "address"
        }
      ],
      "name": "setUpgrade",
      "outputs": [],
      "stateMutability": "nonpayable",
      "type": "function"
    },
    {
      "inputs": [],
      "name": "startTime",
      "outputs": [
        {
          "internalType": "uint256",
          "name": "",
          "type": "uint256"
        }
      ],
      "stateMutability": "view",
      "type": "function"
    },
    {
      "inputs": [
        {
          "internalType": "address",
          "name": "newAdmin",
          "type": "address"
        }
      ],
      "name": "transferAdmin",
      "outputs": [],
      "stateMutability": "nonpayable",
      "type": "function"
    },
    {
      "inputs": [
        {
          "internalType": "address",
          "name": "newOwner",
          "type": "address"
        }
      ],
      "name": "transferOwnership",
      "outputs": [],
      "stateMutability": "nonpayable",
      "type": "function"
    },
    {
      "inputs": [],
      "name": "unPause",
      "outputs": [],
      "stateMutability": "nonpayable",
      "type": "function"
    },
    {
      "inputs": [],
      "name": "vS",
      "outputs": [
        {
          "internalType": "contract VoyagerStorage",
          "name": "",
          "type": "address"
        }
      ],
      "stateMutability": "view",
      "type": "function"
    },
    {
      "inputs": [
        {
          "internalType": "bytes32",
          "name": "hash",
          "type": "bytes32"
        },
        {
          "internalType": "bytes",
          "name": "signature",
          "type": "bytes"
        }
      ],
      "name": "verified",
      "outputs": [
        {
          "internalType": "bool",
          "name": "",
          "type": "bool"
        }
      ],
      "stateMutability": "view",
      "type": "function"
    },
    {
      "inputs": [
        {
          "internalType": "uint256",
          "name": "",
          "type": "uint256"
        }
      ],
      "name": "versionList",
      "outputs": [
        {
          "internalType": "string",
          "name": "",
          "type": "string"
        }
      ],
      "stateMutability": "view",
      "type": "function"
    },
    {
      "inputs": [],
      "name": "versionName",
      "outputs": [
        {
          "internalType": "string",
          "name": "",
          "type": "string"
        }
      ],
      "stateMutability": "view",
      "type": "function"
    },
    {
      "inputs": [
        {
          "internalType": "uint256",
          "name": "_amount",
          "type": "uint256"
        },
        {
          "internalType": "address",
          "name": "_to",
          "type": "address"
        }
      ],
      "name": "withdrawDGT",
      "outputs": [],
      "stateMutability": "nonpayable",
      "type": "function"
    }
  ],
  "transactionHash": "0xb1d2a09a54e6805bb40c7829e302930b5c1f1a5eaadda906f6920cea1db2d5c8",
  "args": [
    "0x598df3b1c2993321c6098b490464a9Db4712e79c"
  ],
  "solcInputHash": "3c70c77d428e61bb6242bf0749abc803",
  "bytecode": "0x60806040526003805460ff60a01b1916600160a01b1790553480156200002457600080fd5b5060405162004b3338038062004b33833981016040819052620000479162000190565b6200005233620000df565b6001805562000061336200012f565b600c805461ff00191690556001600160a01b038116620000b95760405162461bcd60e51b815260206004820152600f60248201526e496e76616c6964204164647265737360881b604482015260640160405180910390fd5b600480546001600160a01b0319166001600160a01b0392909216919091179055620001c0565b600080546001600160a01b038381166001600160a01b0319831681178455604051919092169283917f8be0079c531659141344cd1fd0a4f28419497f9722a3daafe3b4186f6b6457e09190a35050565b600280546001600160a01b038381166001600160a01b031983168117909355604080519190921680825260208201939093527ff8ccb027dfcd135e000e9d45e6cc2d662578a8825d4c45b5e32e0adf67e79ec6910160405180910390a15050565b600060208284031215620001a2578081fd5b81516001600160a01b0381168114620001b9578182fd5b9392505050565b61496380620001d06000396000f3fe608060405234801561001057600080fd5b50600436106102485760003560e01c80637e8962141161013b578063c4d66de8116100b8578063ec5568891161007c578063ec556889146104bf578063f0185255146104d2578063f2fde38b146104da578063f7b188a5146104ed578063f851a440146104f557600080fd5b8063c4d66de814610481578063ce0ded3a14610494578063cf41b8a91461049c578063d431b1ac146104a4578063de3bcca9146104ac57600080fd5b80639afd9d78116100ff5780639afd9d7814610438578063aa30c4b714610440578063bfe0b12514610453578063c1cd333814610466578063c2e8dd4a1461046e57600080fd5b80637e896214146103e65780637fb3a9a2146103ee5780638da5cb5b14610401578063942eb8c31461041257806397107d6d1461042557600080fd5b80635c975abb116101c95780637161cdd81161018d5780637161cdd81461038357806372e0d7fe1461039657806375829def146103a957806378e97925146103bc5780637a599e81146103d357600080fd5b80635c975abb1461032c57806367e798321461033c5780636ed333431461034f5780636ed5545914610368578063715018a61461037b57600080fd5b806334f15bd71161021057806334f15bd7146102d75780633b6764ae146102ea578063471a4294146102f257806347acbe0f1461030657806353bb0ab31461031957600080fd5b80630ce90ec21461024d578063158ef93e146102625780631d8f5f18146102845780632864efb6146102a457806329e566cb146102ac575b600080fd5b61026061025b36600461450c565b610506565b005b600c5461026f9060ff1681565b60405190151581526020015b60405180910390f35b61029761029236600461450c565b61146e565b60405161027b91906146d7565b61026061151a565b6102bf6102ba366004614380565b611663565b6040516001600160a01b03909116815260200161027b565b61026f6102e5366004614308565b6116fe565b6102976117b6565b60035461026f90600160a01b900460ff1681565b61026061031436600461434d565b6117c3565b61026061032736600461457d565b611909565b600c54610100900460ff1661026f565b6007546102bf906001600160a01b031681565b600c546102bf906201000090046001600160a01b031681565b6006546102bf906001600160a01b031681565b610260611dfe565b610260610391366004614548565b611e34565b6102606103a4366004614524565b611f97565b6102606103b7366004614298565b612253565b6103c5600b5481565b60405190815260200161027b565b6102606103e136600461434d565b6122f4565b610260612382565b6102606103fc366004614548565b612544565b6000546001600160a01b03166102bf565b610260610420366004614298565b6125d4565b610260610433366004614298565b61265a565b6102606126ee565b6004546102bf906001600160a01b031681565b610260610461366004614460565b612736565b6102606128b2565b61026061047c366004614298565b613048565b61026061048f366004614298565b613126565b6102976131d8565b6102606131e5565b6102606133b1565b6102606104ba36600461434d565b613419565b6003546102bf906001600160a01b031681565b610260613b89565b6102606104e8366004614298565b613bd4565b610260613c6c565b6002546001600160a01b03166102bf565b600260015414156105325760405162461bcd60e51b815260040161052990614780565b60405180910390fd5b6002600155806105725760405162461bcd60e51b815260206004820152600b60248201526a2737ba1018103a37b5b2b760a91b6044820152606401610529565b60048054604051630e4d620560e01b815233928101929092526001600160a01b031690630e4d62059060240160206040518083038186803b1580156105b657600080fd5b505afa1580156105ca573d6000803e3d6000fd5b505050506040513d601f19601f820116820180604052508101906105ee91906142f0565b1561062b5760405162461bcd60e51b815260206004820152600d60248201526c2ab73b30b634b2103a37b5b2b760991b6044820152606401610529565b600480546040805163cc06c35960e01b815290516001600160a01b039092169263cc06c359928282019260209290829003018186803b15801561066d57600080fd5b505afa158015610681573d6000803e3d6000fd5b505050506040513d601f19601f820116820180604052508101906106a591906142f0565b600480546040516304252ae160e51b81529182018490526001600160a01b031690637e5ea2829082906384a55c209060240160206040518083038186803b1580156106ef57600080fd5b505afa158015610703573d6000803e3d6000fd5b505050506040513d601f19601f8201168201806040525081019061072791906142f0565b6040518263ffffffff1660e01b815260040161074591815260200190565b604080518083038186803b15801561075c57600080fd5b505afa158015610770573d6000803e3d6000fd5b505050506040513d601f19601f8201168201806040525081019061079491906144b0565b5160ff16106107d95760405162461bcd60e51b8152602060048201526011602482015270105b1c9958591e481b585e081b195d995b607a1b6044820152606401610529565b60048054604051630219207560e61b8152918201839052600091829182916001600160a01b03909116906386481d409060240160206040518083038186803b15801561082457600080fd5b505afa158015610838573d6000803e3d6000fd5b505050506040513d601f19601f8201168201806040525081019061085c91906142f0565b60048054604051632f40faf760e01b81529293506001600160a01b031691632f40faf7916108909185910190815260200190565b604080518083038186803b1580156108a757600080fd5b505afa1580156108bb573d6000803e3d6000fd5b505050506040513d601f19601f820116820180604052508101906108df919061455a565b60048054604080516371f3b44560e11b8152905194975092955086936001600160a01b039091169263e3e7688a9281810192602092909190829003018186803b15801561092b57600080fd5b505afa15801561093f573d6000803e3d6000fd5b505050506040513d601f19601f8201168201806040525081019061096391906142b4565b6040516370a0823160e01b81523360048201526001600160a01b0391909116906370a082319060240160206040518083038186803b1580156109a457600080fd5b505afa1580156109b8573d6000803e3d6000fd5b505050506040513d601f19601f820116820180604052508101906109dc91906142f0565b1015610a235760405162461bcd60e51b81526020600482015260166024820152752ab739bab33334b1b4b2b73a103233ba103a37b5b2b760511b6044820152606401610529565b81600460009054906101000a90046001600160a01b03166001600160a01b03166338e514fe6040518163ffffffff1660e01b815260040160206040518083038186803b158015610a7257600080fd5b505afa158015610a86573d6000803e3d6000fd5b505050506040513d601f19601f82011682018060405250810190610aaa91906142b4565b6040516370a0823160e01b81523360048201526001600160a01b0391909116906370a082319060240160206040518083038186803b158015610aeb57600080fd5b505afa158015610aff573d6000803e3d6000fd5b505050506040513d601f19601f82011682018060405250810190610b2391906142f0565b1015610b6a5760405162461bcd60e51b81526020600482015260166024820152752ab739bab33334b1b4b2b73a103239b8103a37b5b2b760511b6044820152606401610529565b610c07333085600460009054906101000a90046001600160a01b03166001600160a01b031663e3e7688a6040518163ffffffff1660e01b815260040160206040518083038186803b158015610bbe57600080fd5b505afa158015610bd2573d6000803e3d6000fd5b505050506040513d601f19601f82011682018060405250810190610bf691906142b4565b6001600160a01b0316929190613cce565b610c5b333084600460009054906101000a90046001600160a01b03166001600160a01b03166338e514fe6040518163ffffffff1660e01b815260040160206040518083038186803b158015610bbe57600080fd5b60048054604051630219207560e61b81529182018690526001600160a01b0316906380ea5a8390339083906386481d409060240160206040518083038186803b158015610ca757600080fd5b505afa158015610cbb573d6000803e3d6000fd5b505050506040513d601f19601f82011682018060405250810190610cdf91906142f0565b60048054604051630219207560e61b81529182018a90526001916001600160a01b0390911690636d3f450b90339083906386481d409060240160206040518083038186803b158015610d3057600080fd5b505afa158015610d44573d6000803e3d6000fd5b505050506040513d601f19601f82011682018060405250810190610d6891906142f0565b6040516001600160e01b031960e085901b1681526001600160a01b039092166004830152602482015260440160206040518083038186803b158015610dac57600080fd5b505afa158015610dc0573d6000803e3d6000fd5b505050506040513d601f19601f82011682018060405250810190610de491906142f0565b610dee919061486e565b6040516001600160e01b031960e086901b1681526001600160a01b03909316600484015260248301919091526044820152606401600060405180830381600087803b158015610e3c57600080fd5b505af1158015610e50573d6000803e3d6000fd5b505060048054604051630219207560e61b81529182018890526001600160a01b031692506370a93b369150869083906386481d409060240160206040518083038186803b158015610ea057600080fd5b505afa158015610eb4573d6000803e3d6000fd5b505050506040513d601f19601f82011682018060405250810190610ed891906142f0565b610ee3906001614856565b6040516001600160e01b031960e085901b16815260048101929092526024820152604401600060405180830381600087803b158015610f2157600080fd5b505af1158015610f35573d6000803e3d6000fd5b505060048054604051630219207560e61b81529182018890526001600160a01b031692506380ea5a839150339083906386481d409060240160206040518083038186803b158015610f8557600080fd5b505afa158015610f99573d6000803e3d6000fd5b505050506040513d601f19601f82011682018060405250810190610fbd91906142f0565b60048054604051630219207560e61b81529182018a90526001600160a01b031690636d3f450b90339083906386481d409060240160206040518083038186803b15801561100957600080fd5b505afa15801561101d573d6000803e3d6000fd5b505050506040513d601f19601f8201168201806040525081019061104191906142f0565b6040516001600160e01b031960e085901b1681526001600160a01b039092166004830152602482015260440160206040518083038186803b15801561108557600080fd5b505afa158015611099573d6000803e3d6000fd5b505050506040513d601f19601f820116820180604052508101906110bd91906142f0565b6110c8906001614856565b6040516001600160e01b031960e086901b1681526001600160a01b03909316600484015260248301919091526044820152606401600060405180830381600087803b15801561111657600080fd5b505af115801561112a573d6000803e3d6000fd5b505060048054604051639d47207160e01b81523392810192909252602482018890526001600160a01b03169250639d4720719150604401600060405180830381600087803b15801561117b57600080fd5b505af115801561118f573d6000803e3d6000fd5b50506004805460405163984027a760e01b815233928101929092526001600160a01b0316925063984027a7915060240160206040518083038186803b1580156111d757600080fd5b505afa1580156111eb573d6000803e3d6000fd5b505050506040513d601f19601f8201168201806040525081019061120f91906142f0565b600480546040516304252ae160e51b81529182018790526001600160a01b031690637e5ea2829082906384a55c209060240160206040518083038186803b15801561125957600080fd5b505afa15801561126d573d6000803e3d6000fd5b505050506040513d601f19601f8201168201806040525081019061129191906142f0565b6040518263ffffffff1660e01b81526004016112af91815260200190565b604080518083038186803b1580156112c657600080fd5b505afa1580156112da573d6000803e3d6000fd5b505050506040513d601f19601f820116820180604052508101906112fe91906144b0565b5160ff16111561146457600480546040516304252ae160e51b81529182018690526001600160a01b031690630d2176ed9033908390637e5ea2829082906384a55c209060240160206040518083038186803b15801561135c57600080fd5b505afa158015611370573d6000803e3d6000fd5b505050506040513d601f19601f8201168201806040525081019061139491906142f0565b6040518263ffffffff1660e01b81526004016113b291815260200190565b604080518083038186803b1580156113c957600080fd5b505afa1580156113dd573d6000803e3d6000fd5b505050506040513d601f19601f8201168201806040525081019061140191906144b0565b5160405160e084901b6001600160e01b03191681526001600160a01b03909216600483015260ff166024820152604401600060405180830381600087803b15801561144b57600080fd5b505af115801561145f573d6000803e3d6000fd5b505050505b5050600180555050565b6008818154811061147e57600080fd5b906000526020600020016000915090508054611499906148b1565b80601f01602080910402602001604051908101604052809291908181526020018280546114c5906148b1565b80156115125780601f106114e757610100808354040283529160200191611512565b820191906000526020600020905b8154815290600101906020018083116114f557829003601f168201915b505050505081565b600354600160a01b900460ff166115435760405162461bcd60e51b8152600401610529906146ea565b600c54610100900460ff161561156b5760405162461bcd60e51b815260040161052990614721565b6002600154141561158e5760405162461bcd60e51b815260040161052990614780565b600260015560065460408051600481526024810182526020810180516001600160e01b0316631839a66760e31b17905290516000926001600160a01b0316916115d6916145f7565b600060405180830381855af49150503d8060008114611611576040519150601f19603f3d011682016040523d82523d6000602084013e611616565b606091505b505090508061165c5760405162461bcd60e51b81526020600482015260126024820152711b5a5b9d159bde5859d95c8811985a5b195960721b6044820152606401610529565b5060018055565b600080546001600160a01b0316331461168e5760405162461bcd60e51b81526004016105299061474b565b816116cb5760405162461bcd60e51b815260206004820152600d60248201526c22b6b83a3c902b32b939b4b7b760991b6044820152606401610529565b600583836040516116dd929190614613565b908152604051908190036020019020546001600160a01b0316905092915050565b6040516319045a2560e01b8152600090736748dAeA9f2F668ED4a425000E4d61b07797CA75906319045a259061173a90869086906004016146be565b60206040518083038186803b15801561175257600080fd5b505af4158015611766573d6000803e3d6000fd5b505050506040513d601f19601f8201168201806040525081019061178a91906142b4565b6001600160a01b03166117a56002546001600160a01b031690565b6001600160a01b0316149392505050565b60098054611499906148b1565b60405163b613249d60e01b8152336004820152819061185290736748dAeA9f2F668ED4a425000E4d61b07797CA759063b613249d906024015b60206040518083038186803b15801561181457600080fd5b505af4158015611828573d6000803e3d6000fd5b505050506040513d601f19601f8201168201806040525081019061184c91906142f0565b826116fe565b61188d5760405162461bcd60e51b815260206004820152600c60248201526b139bdd081d995c9a599a595960a21b6044820152606401610529565b600354600160a01b900460ff166118b65760405162461bcd60e51b8152600401610529906146ea565b600c54610100900460ff16156118de5760405162461bcd60e51b815260040161052990614721565b600260015414156119015760405162461bcd60e51b815260040161052990614780565b505060018055565b60048054604051630e4d620560e01b815233928101929092526000916001600160a01b0390911690630e4d62059060240160206040518083038186803b15801561195257600080fd5b505afa158015611966573d6000803e3d6000fd5b505050506040513d601f19601f8201168201806040525081019061198a91906142f0565b600480546040516304252ae160e51b81529182018390529192506000916001600160a01b031690637e5ea2829082906384a55c209060240160206040518083038186803b1580156119da57600080fd5b505afa1580156119ee573d6000803e3d6000fd5b505050506040513d601f19601f82011682018060405250810190611a1291906142f0565b6040518263ffffffff1660e01b8152600401611a3091815260200190565b604080518083038186803b158015611a4757600080fd5b505afa158015611a5b573d6000803e3d6000fd5b505050506040513d601f19601f82011682018060405250810190611a7f91906144b0565b5160ff16905081611ac25760405162461bcd60e51b815260206004820152600d60248201526c2ab73b30b634b2103a37b5b2b760991b6044820152606401610529565b600480546040516331a9108f60e11b815291820184905233916001600160a01b0390911690636352211e9060240160206040518083038186803b158015611b0857600080fd5b505afa158015611b1c573d6000803e3d6000fd5b505050506040513d601f19601f82011682018060405250810190611b4091906142b4565b6001600160a01b031614611b825760405162461bcd60e51b81526020600482015260096024820152682737ba1037bbb732b960b91b6044820152606401610529565b818514611bc65760405162461bcd60e51b815260206004820152601260248201527110dbdb9cda5cdd195b9d081d1bdad95b925160721b6044820152606401610529565b838114611c085760405162461bcd60e51b815260206004820152601060248201526f10dbdb9cda5cdd195b9d081b195d995b60821b6044820152606401610529565b60048054604051637538bcfd60e01b8152918201849052602482018390526001600160a01b031690637538bcfd9060440160206040518083038186803b158015611c5157600080fd5b505afa158015611c65573d6000803e3d6000fd5b505050506040513d601f19601f82011682018060405250810190611c8991906142d0565b15611cc65760405162461bcd60e51b815260206004820152600d60248201526c536574206f766572206f6e636560981b6044820152606401610529565b60048054604051622a710d60e31b81526001600160a01b0390911691630153886891611cf69186918891016146be565b600060405180830381600087803b158015611d1057600080fd5b505af1158015611d24573d6000803e3d6000fd5b505060048054604051639d47207160e01b81523392810192909252600060248301526001600160a01b03169250639d4720719150604401600060405180830381600087803b158015611d7557600080fd5b505af1158015611d89573d6000803e3d6000fd5b50506004805460405163682fffaf60e01b815291820186905260248201859052600160448301526001600160a01b0316925063682fffaf9150606401600060405180830381600087803b158015611ddf57600080fd5b505af1158015611df3573d6000803e3d6000fd5b505050505050505050565b6000546001600160a01b03163314611e285760405162461bcd60e51b81526004016105299061474b565b611e326000613d2e565b565b6002546001600160a01b03163314611e5e5760405162461bcd60e51b8152600401610529906147b7565b600c54610100900460ff1615611e865760405162461bcd60e51b815260040161052990614721565b6006546040516000916001600160a01b0316907f7fb3a9a28264147fdfcb557d570d2771a0c4df4cc7f7f8b4305eede3bba91ab090611ecb90869086906024016146be565b60408051601f198184030181529181526020820180516001600160e01b03166001600160e01b0319909416939093179092529051611f0991906145f7565b600060405180830381855af49150503d8060008114611f44576040519150601f19603f3d011682016040523d82523d6000602084013e611f49565b606091505b5050905080611f925760405162461bcd60e51b815260206004820152601560248201527418da185b99d9551bdad95b9554924811985a5b1959605a1b6044820152606401610529565b505050565b6000546001600160a01b03163314611fc15760405162461bcd60e51b81526004016105299061474b565b600c54610100900460ff1615611fe95760405162461bcd60e51b815260040161052990614721565b6002600154141561200c5760405162461bcd60e51b815260040161052990614780565b600260015560048054604080516371f3b44560e11b8152905185936001600160a01b039093169263e3e7688a92808201926020929091829003018186803b15801561205657600080fd5b505afa15801561206a573d6000803e3d6000fd5b505050506040513d601f19601f8201168201806040525081019061208e91906142b4565b6040516370a0823160e01b81523360048201526001600160a01b0391909116906370a082319060240160206040518083038186803b1580156120cf57600080fd5b505afa1580156120e3573d6000803e3d6000fd5b505050506040513d601f19601f8201168201806040525081019061210791906142f0565b101561214c5760405162461bcd60e51b8152602060048201526014602482015273496e73756666696369656e742062616c616e636560601b6044820152606401610529565b60048054604080516371f3b44560e11b815290516001600160a01b039092169263e3e7688a928282019260209290829003018186803b15801561218e57600080fd5b505afa1580156121a2573d6000803e3d6000fd5b505050506040513d601f19601f820116820180604052508101906121c691906142b4565b60405163a9059cbb60e01b81526001600160a01b03838116600483015260248201859052919091169063a9059cbb90604401602060405180830381600087803b15801561221257600080fd5b505af1158015612226573d6000803e3d6000fd5b505050506040513d601f19601f8201168201806040525081019061224a91906142d0565b50506001805550565b6000546001600160a01b0316331461227d5760405162461bcd60e51b81526004016105299061474b565b6001600160a01b0381166122e85760405162461bcd60e51b815260206004820152602c60248201527f496e76616c69642041646d696e3a206e65772061646d696e206973207468652060448201526b7a65726f206164647265737360a01b6064820152608401610529565b6122f181613d7e565b50565b6002546001600160a01b0316331461231e5760405162461bcd60e51b8152600401610529906147b7565b6004805460405163a1b3d1ff60e01b81526001600160a01b039091169163a1b3d1ff9161234d918591016146d7565b600060405180830381600087803b15801561236757600080fd5b505af115801561237b573d6000803e3d6000fd5b5050505050565b6000546001600160a01b031633146123ac5760405162461bcd60e51b81526004016105299061474b565b6007546001600160a01b03166123f45760405162461bcd60e51b815260206004820152600d60248201526c57726f6e67204164647265737360981b6044820152606401610529565b600c5460ff161561244857600b5461240f9062015180613ddf565b42116124485760405162461bcd60e51b8152602060048201526008602482015267496e2044656c617960c01b6044820152606401610529565b60076005600a60405161245b9190614623565b908152604051908190036020019020905481546001600160a01b0319166001600160a01b03909116179055600a805460099190612497906148b1565b6124a2929190614133565b50600754600680546001600160a01b0319166001600160a01b0390921691909117905560088054600181018255600091909152600a80547ff3f7a9fe364faab93b216da50a3214154f22a0a2b415b23a84c8169e8b636ee390920191612507906148b1565b612512929190614133565b5060408051602081019182905260009081905261253191600a916141be565b50600780546001600160a01b0319169055565b6002546001600160a01b0316331461256e5760405162461bcd60e51b8152600401610529906147b7565b60048054604051622a710d60e31b81526001600160a01b039091169163015388689161259e9186918691016146be565b600060405180830381600087803b1580156125b857600080fd5b505af11580156125cc573d6000803e3d6000fd5b505050505050565b6002546001600160a01b031633146125fe5760405162461bcd60e51b8152600401610529906147b7565b600c54610100900460ff16156126265760405162461bcd60e51b815260040161052990614721565b6004805460405163942eb8c360e01b81526001600160a01b038481169382019390935291169063942eb8c39060240161234d565b6000546001600160a01b031633146126845760405162461bcd60e51b81526004016105299061474b565b6001600160a01b0381166126cc5760405162461bcd60e51b815260206004820152600f60248201526e496e76616c6964204164647265737360881b6044820152606401610529565b600380546001600160a01b0319166001600160a01b0392909216919091179055565b6000546001600160a01b031633146127185760405162461bcd60e51b81526004016105299061474b565b60408051602081019182905260009081905261253191600a916141be565b6000546001600160a01b031633146127605760405162461bcd60e51b81526004016105299061474b565b6001600160a01b0381166127a65760405162461bcd60e51b815260206004820152600d60248201526c57726f6e67204164647265737360981b6044820152606401610529565b60008251116127e75760405162461bcd60e51b815260206004820152600d60248201526c22b6b83a3c902b32b939b4b7b760991b6044820152606401610529565b816040516020016127f891906145f7565b6040516020818303038152906040528051906020012060096040516020016128209190614623565b6040516020818303038152906040528051906020012014156128775760405162461bcd60e51b815260206004820152601060248201526f22bc34b9ba34b733902b32b939b4b7b760811b6044820152606401610529565b815161288a90600a9060208501906141be565b50600780546001600160a01b0319166001600160a01b03929092169190911790555042600b55565b60048054604051630e4d620560e01b815233928101929092526001600160a01b031690630e4d62059060240160206040518083038186803b1580156128f657600080fd5b505afa15801561290a573d6000803e3d6000fd5b505050506040513d601f19601f8201168201806040525081019061292e91906142f0565b156129705760405162461bcd60e51b815260206004820152601260248201527114d95d081d1bdad95b95549248199a5c9cdd60721b6044820152606401610529565b60048054604051632f40faf760e01b8152600092810183905282916001600160a01b031690632f40faf790602401604080518083038186803b1580156129b557600080fd5b505afa1580156129c9573d6000803e3d6000fd5b505050506040513d601f19601f820116820180604052508101906129ed919061455a565b9150915081600460009054906101000a90046001600160a01b03166001600160a01b031663e3e7688a6040518163ffffffff1660e01b815260040160206040518083038186803b158015612a4057600080fd5b505afa158015612a54573d6000803e3d6000fd5b505050506040513d601f19601f82011682018060405250810190612a7891906142b4565b6040516370a0823160e01b81523360048201526001600160a01b0391909116906370a082319060240160206040518083038186803b158015612ab957600080fd5b505afa158015612acd573d6000803e3d6000fd5b505050506040513d601f19601f82011682018060405250810190612af191906142f0565b1015612b385760405162461bcd60e51b81526020600482015260166024820152752ab739bab33334b1b4b2b73a103233ba103a37b5b2b760511b6044820152606401610529565b80600460009054906101000a90046001600160a01b03166001600160a01b03166338e514fe6040518163ffffffff1660e01b815260040160206040518083038186803b158015612b8757600080fd5b505afa158015612b9b573d6000803e3d6000fd5b505050506040513d601f19601f82011682018060405250810190612bbf91906142b4565b6040516370a0823160e01b81523360048201526001600160a01b0391909116906370a082319060240160206040518083038186803b158015612c0057600080fd5b505afa158015612c14573d6000803e3d6000fd5b505050506040513d601f19601f82011682018060405250810190612c3891906142f0565b1015612c7f5760405162461bcd60e51b81526020600482015260166024820152752ab739bab33334b1b4b2b73a103239b8103a37b5b2b760511b6044820152606401610529565b612cd3333084600460009054906101000a90046001600160a01b03166001600160a01b031663e3e7688a6040518163ffffffff1660e01b815260040160206040518083038186803b158015610bbe57600080fd5b612d27333083600460009054906101000a90046001600160a01b03166001600160a01b03166338e514fe6040518163ffffffff1660e01b815260040160206040518083038186803b158015610bbe57600080fd5b6000600460009054906101000a90046001600160a01b03166001600160a01b0316630ca1c5c96040518163ffffffff1660e01b815260040160206040518083038186803b158015612d7757600080fd5b505afa158015612d8b573d6000803e3d6000fd5b505050506040513d601f19601f82011682018060405250810190612daf91906142f0565b60048054604051634541a7fb60e11b81523392810192909252602482018390529192506001600160a01b0390911690638a834ff690604401600060405180830381600087803b158015612e0157600080fd5b505af1158015612e15573d6000803e3d6000fd5b505050508060001415612efe57600480546040805163b9e1bbf960e01b815290516001600160a01b03909216926301538868928592859263b9e1bbf9928282019260009290829003018186803b158015612e6e57600080fd5b505afa158015612e82573d6000803e3d6000fd5b505050506040513d6000823e601f3d908101601f19168201604052612eaa91908101906143ed565b6040518363ffffffff1660e01b8152600401612ec79291906146be565b600060405180830381600087803b158015612ee157600080fd5b505af1158015612ef5573d6000803e3d6000fd5b50505050612f64565b60048054604051639d47207160e01b81523392810192909252602482018390526001600160a01b031690639d47207190604401600060405180830381600087803b158015612f4b57600080fd5b505af1158015612f5f573d6000803e3d6000fd5b505050505b6004805460408051630ca1c5c960e01b815290516001600160a01b03909216926316dbf90692612ff3926001928692630ca1c5c9928083019260209291829003018186803b158015612fb557600080fd5b505afa158015612fc9573d6000803e3d6000fd5b505050506040513d601f19601f82011682018060405250810190612fed91906142f0565b90613ddf565b6040518263ffffffff1660e01b815260040161301191815260200190565b600060405180830381600087803b15801561302b57600080fd5b505af115801561303f573d6000803e3d6000fd5b50505050505050565b6002546001600160a01b031633146130725760405162461bcd60e51b8152600401610529906147b7565b600c54610100900460ff161561309a5760405162461bcd60e51b815260040161052990614721565b600480546040516361746ea560e11b81526001600160a01b038481169382019390935291169063c2e8dd4a90602401600060405180830381600087803b1580156130e357600080fd5b505af11580156130f7573d6000803e3d6000fd5b5050600c80546001600160a01b03909416620100000262010000600160b01b0319909416939093179092555050565b6000546001600160a01b031633146131505760405162461bcd60e51b81526004016105299061474b565b600c5460ff16156131995760405162461bcd60e51b8152602060048201526013602482015272105b1c9958591e48125b9a5d1a585b1a5e9959606a1b6044820152606401610529565b6131c060405180604001604052806005815260200164302e302e3160d81b81525082612736565b6131c8612382565b50600c805460ff19166001179055565b600a8054611499906148b1565b6000546001600160a01b0316331461320f5760405162461bcd60e51b81526004016105299061474b565b600c54610100900460ff16156132375760405162461bcd60e51b815260040161052990614721565b6002600154141561325a5760405162461bcd60e51b815260040161052990614780565b6002600155600c546004805460408051631c728a7f60e11b815290516001600160a01b03620100009095048516946342966c68949316926338e514fe92808201926020929091829003018186803b1580156132b457600080fd5b505afa1580156132c8573d6000803e3d6000fd5b505050506040513d601f19601f820116820180604052508101906132ec91906142b4565b6040516370a0823160e01b81523060048201526001600160a01b0391909116906370a082319060240160206040518083038186803b15801561332d57600080fd5b505afa158015613341573d6000803e3d6000fd5b505050506040513d601f19601f8201168201806040525081019061336591906142f0565b6040518263ffffffff1660e01b815260040161338391815260200190565b600060405180830381600087803b15801561339d57600080fd5b505af1158015611464573d6000803e3d6000fd5b6000546001600160a01b031633146133db5760405162461bcd60e51b81526004016105299061474b565b6133e3613df2565b6040513381527f62e78cea01bee320cd4e420270b5ea74000d11b0c9f74754ebdbfc544b05a258906020015b60405180910390a1565b60405163b613249d60e01b8152336004820152819061345690736748dAeA9f2F668ED4a425000E4d61b07797CA759063b613249d906024016117fc565b6134915760405162461bcd60e51b815260206004820152600c60248201526b139bdd081d995c9a599a595960a21b6044820152606401610529565b600354600160a01b900460ff166134ba5760405162461bcd60e51b8152600401610529906146ea565b600c54610100900460ff16156134e25760405162461bcd60e51b815260040161052990614721565b600260015414156135055760405162461bcd60e51b815260040161052990614780565b600260015560048054604051630e4d620560e01b815233928101929092526001600160a01b031690630e4d62059060240160206040518083038186803b15801561354e57600080fd5b505afa158015613562573d6000803e3d6000fd5b505050506040513d601f19601f8201168201806040525081019061358691906142f0565b156135c85760405162461bcd60e51b815260206004820152601260248201527114d95d081d1bdad95b95549248199a5c9cdd60721b6044820152606401610529565b60048054604051630554924960e51b815233928101929092526001600160a01b03169063aa9249209060240160206040518083038186803b15801561360c57600080fd5b505afa158015613620573d6000803e3d6000fd5b505050506040513d601f19601f8201168201806040525081019061364491906142d0565b1561367b5760405162461bcd60e51b8152602060048201526007602482015266115e1c1a5c995960ca1b6044820152606401610529565b60048054604080516310c1331760e31b815290516001600160a01b039092169263860998b8928282019260209290829003018186803b1580156136bd57600080fd5b505afa1580156136d1573d6000803e3d6000fd5b505050506040513d601f19601f820116820180604052508101906136f591906142f0565b60048054604080516325ebda5b60e01b8152905161373b936001936001600160a01b0316926325ebda5b9281830192602092829003018186803b158015612fb557600080fd5b111561379a5760405162461bcd60e51b815260206004820152602860248201527f4d696e7420776f756c6420657863656564206d617820737570706c79206f6620604482015267566f79616765727360c01b6064820152608401610529565b6000600460009054906101000a90046001600160a01b03166001600160a01b0316630ca1c5c96040518163ffffffff1660e01b815260040160206040518083038186803b1580156137ea57600080fd5b505afa1580156137fe573d6000803e3d6000fd5b505050506040513d601f19601f8201168201806040525081019061382291906142f0565b60048054604051634541a7fb60e11b81523392810192909252602482018390529192506001600160a01b0390911690638a834ff690604401600060405180830381600087803b15801561387457600080fd5b505af1158015613888573d6000803e3d6000fd5b50505050806000141561397157600480546040805163b9e1bbf960e01b815290516001600160a01b03909216926301538868928592859263b9e1bbf9928282019260009290829003018186803b1580156138e157600080fd5b505afa1580156138f5573d6000803e3d6000fd5b505050506040513d6000823e601f3d908101601f1916820160405261391d91908101906143ed565b6040518363ffffffff1660e01b815260040161393a9291906146be565b600060405180830381600087803b15801561395457600080fd5b505af1158015613968573d6000803e3d6000fd5b505050506139d7565b60048054604051639d47207160e01b81523392810192909252602482018390526001600160a01b031690639d47207190604401600060405180830381600087803b1580156139be57600080fd5b505af11580156139d2573d6000803e3d6000fd5b505050505b6004805460408051630ca1c5c960e01b815290516001600160a01b03909216926316dbf90692613a28926001928692630ca1c5c9928083019260209291829003018186803b158015612fb557600080fd5b6040518263ffffffff1660e01b8152600401613a4691815260200190565b600060405180830381600087803b158015613a6057600080fd5b505af1158015613a74573d6000803e3d6000fd5b50506004805460405163ca0a9e3d60e01b81523392810192909252600160248301526001600160a01b0316925063ca0a9e3d9150604401600060405180830381600087803b158015613ac557600080fd5b505af1158015613ad9573d6000803e3d6000fd5b505060048054604080516325ebda5b60e01b815290516001600160a01b03909216945063440372f89350613b309260019286926325ebda5b9281810192602092909190829003018186803b158015612fb557600080fd5b6040518263ffffffff1660e01b8152600401613b4e91815260200190565b600060405180830381600087803b158015613b6857600080fd5b505af1158015613b7c573d6000803e3d6000fd5b5050600180555050505050565b6002546001600160a01b03163314613bb35760405162461bcd60e51b8152600401610529906147b7565b6003805460ff60a01b198116600160a01b9182900460ff1615909102179055565b6000546001600160a01b03163314613bfe5760405162461bcd60e51b81526004016105299061474b565b6001600160a01b038116613c635760405162461bcd60e51b815260206004820152602660248201527f4f776e61626c653a206e6577206f776e657220697320746865207a65726f206160448201526564647265737360d01b6064820152608401610529565b6122f181613d2e565b6000546001600160a01b03163314613c965760405162461bcd60e51b81526004016105299061474b565b613c9e613e69565b6040513381527f5db9ee0a495bf2e6ff9c91a7834c1ba4fdd244a5e8aa4e537bd38aeae4b073aa9060200161340f565b604080516001600160a01b0385811660248301528416604482015260648082018490528251808303909101815260849091019091526020810180516001600160e01b03166323b872dd60e01b179052613d28908590613ee9565b50505050565b600080546001600160a01b038381166001600160a01b0319831681178455604051919092169283917f8be0079c531659141344cd1fd0a4f28419497f9722a3daafe3b4186f6b6457e09190a35050565b600280546001600160a01b038381166001600160a01b031983168117909355604080519190921680825260208201939093527ff8ccb027dfcd135e000e9d45e6cc2d662578a8825d4c45b5e32e0adf67e79ec6910160405180910390a15050565b6000613deb8284614856565b9392505050565b600c54610100900460ff1615613e1a5760405162461bcd60e51b815260040161052990614721565b600c805461ff0019166101001790557f62e78cea01bee320cd4e420270b5ea74000d11b0c9f74754ebdbfc544b05a258613e513390565b6040516001600160a01b03909116815260200161340f565b600c54610100900460ff16613eb75760405162461bcd60e51b815260206004820152601460248201527314185d5cd8589b194e881b9bdd081c185d5cd95960621b6044820152606401610529565b600c805461ff00191690557f5db9ee0a495bf2e6ff9c91a7834c1ba4fdd244a5e8aa4e537bd38aeae4b073aa33613e51565b6000613f3e826040518060400160405280602081526020017f5361666545524332303a206c6f772d6c6576656c2063616c6c206661696c6564815250856001600160a01b0316613fbb9092919063ffffffff16565b805190915015611f925780806020019051810190613f5c91906142d0565b611f925760405162461bcd60e51b815260206004820152602a60248201527f5361666545524332303a204552433230206f7065726174696f6e20646964206e6044820152691bdd081cdd58d8d9595960b21b6064820152608401610529565b6060613fca8484600085613fd2565b949350505050565b6060824710156140335760405162461bcd60e51b815260206004820152602660248201527f416464726573733a20696e73756666696369656e742062616c616e636520666f6044820152651c8818d85b1b60d21b6064820152608401610529565b843b6140815760405162461bcd60e51b815260206004820152601d60248201527f416464726573733a2063616c6c20746f206e6f6e2d636f6e74726163740000006044820152606401610529565b600080866001600160a01b0316858760405161409d91906145f7565b60006040518083038185875af1925050503d80600081146140da576040519150601f19603f3d011682016040523d82523d6000602084013e6140df565b606091505b50915091506140ef8282866140fa565b979650505050505050565b60608315614109575081613deb565b8251156141195782518084602001fd5b8160405162461bcd60e51b815260040161052991906146d7565b82805461413f906148b1565b90600052602060002090601f01602090048101928261416157600085556141ae565b82601f1061417257805485556141ae565b828001600101855582156141ae57600052602060002091601f016020900482015b828111156141ae578254825591600101919060010190614193565b506141ba929150614232565b5090565b8280546141ca906148b1565b90600052602060002090601f0160209004810192826141ec57600085556141ae565b82601f1061420557805160ff19168380011785556141ae565b828001600101855582156141ae579182015b828111156141ae578251825591602001919060010190614217565b5b808211156141ba5760008155600101614233565b600082601f830112614257578081fd5b813561426a6142658261482e565b6147fd565b81815284602083860101111561427e578283fd5b816020850160208301379081016020019190915292915050565b6000602082840312156142a9578081fd5b8135613deb81614918565b6000602082840312156142c5578081fd5b8151613deb81614918565b6000602082840312156142e1578081fd5b81518015158114613deb578182fd5b600060208284031215614301578081fd5b5051919050565b6000806040838503121561431a578081fd5b82359150602083013567ffffffffffffffff811115614337578182fd5b61434385828601614247565b9150509250929050565b60006020828403121561435e578081fd5b813567ffffffffffffffff811115614374578182fd5b613fca84828501614247565b60008060208385031215614392578182fd5b823567ffffffffffffffff808211156143a9578384fd5b818501915085601f8301126143bc578384fd5b8135818111156143ca578485fd5b8660208285010111156143db578485fd5b60209290920196919550909350505050565b6000602082840312156143fe578081fd5b815167ffffffffffffffff811115614414578182fd5b8201601f81018413614424578182fd5b80516144326142658261482e565b818152856020838501011115614446578384fd5b614457826020830160208601614885565b95945050505050565b60008060408385031215614472578182fd5b823567ffffffffffffffff811115614488578283fd5b61449485828601614247565b92505060208301356144a581614918565b809150509250929050565b6000604082840312156144c1578081fd5b6040516040810181811067ffffffffffffffff821117156144e4576144e4614902565b604052825160ff811681146144f7578283fd5b81526020928301519281019290925250919050565b60006020828403121561451d578081fd5b5035919050565b60008060408385031215614536578182fd5b8235915060208301356144a581614918565b6000806040838503121561431a578182fd5b6000806040838503121561456c578182fd5b505080516020909101519092909150565b600080600060608486031215614591578081fd5b8335925060208401359150604084013567ffffffffffffffff8111156145b5578182fd5b6145c186828701614247565b9150509250925092565b600081518084526145e3816020860160208601614885565b601f01601f19169290920160200192915050565b60008251614609818460208701614885565b9190910192915050565b8183823760009101908152919050565b600080835482600182811c91508083168061463f57607f831692505b602080841082141561465f57634e487b7160e01b87526022600452602487fd5b8180156146735760018114614684576146b0565b60ff198616895284890196506146b0565b60008a815260209020885b868110156146a85781548b82015290850190830161468f565b505084890196505b509498975050505050505050565b828152604060208201526000613fca60408301846145cb565b602081526000613deb60208301846145cb565b60208082526018908201527f556e61637469766520746f206d696e7420566f79616765720000000000000000604082015260600190565b60208082526010908201526f14185d5cd8589b194e881c185d5cd95960821b604082015260600190565b6020808252818101527f4f776e61626c653a2063616c6c6572206973206e6f7420746865206f776e6572604082015260600190565b6020808252601f908201527f5265656e7472616e637947756172643a207265656e7472616e742063616c6c00604082015260600190565b60208082526026908201527f496e76616c69642041646d696e3a2063616c6c6572206973206e6f74207468656040820152651030b236b4b760d11b606082015260800190565b604051601f8201601f1916810167ffffffffffffffff8111828210171561482657614826614902565b604052919050565b600067ffffffffffffffff82111561484857614848614902565b50601f01601f191660200190565b60008219821115614869576148696148ec565b500190565b600082821015614880576148806148ec565b500390565b60005b838110156148a0578181015183820152602001614888565b83811115613d285750506000910152565b600181811c908216806148c557607f821691505b602082108114156148e657634e487b7160e01b600052602260045260246000fd5b50919050565b634e487b7160e01b600052601160045260246000fd5b634e487b7160e01b600052604160045260246000fd5b6001600160a01b03811681146122f157600080fdfea264697066735822122053028f4d45f51be0c7f949a165d3f87a5f7d3531878d6fdc619330721d155fc864736f6c63430008040033",
  "deployedBytecode": "0x608060405234801561001057600080fd5b50600436106102485760003560e01c80637e8962141161013b578063c4d66de8116100b8578063ec5568891161007c578063ec556889146104bf578063f0185255146104d2578063f2fde38b146104da578063f7b188a5146104ed578063f851a440146104f557600080fd5b8063c4d66de814610481578063ce0ded3a14610494578063cf41b8a91461049c578063d431b1ac146104a4578063de3bcca9146104ac57600080fd5b80639afd9d78116100ff5780639afd9d7814610438578063aa30c4b714610440578063bfe0b12514610453578063c1cd333814610466578063c2e8dd4a1461046e57600080fd5b80637e896214146103e65780637fb3a9a2146103ee5780638da5cb5b14610401578063942eb8c31461041257806397107d6d1461042557600080fd5b80635c975abb116101c95780637161cdd81161018d5780637161cdd81461038357806372e0d7fe1461039657806375829def146103a957806378e97925146103bc5780637a599e81146103d357600080fd5b80635c975abb1461032c57806367e798321461033c5780636ed333431461034f5780636ed5545914610368578063715018a61461037b57600080fd5b806334f15bd71161021057806334f15bd7146102d75780633b6764ae146102ea578063471a4294146102f257806347acbe0f1461030657806353bb0ab31461031957600080fd5b80630ce90ec21461024d578063158ef93e146102625780631d8f5f18146102845780632864efb6146102a457806329e566cb146102ac575b600080fd5b61026061025b36600461450c565b610506565b005b600c5461026f9060ff1681565b60405190151581526020015b60405180910390f35b61029761029236600461450c565b61146e565b60405161027b91906146d7565b61026061151a565b6102bf6102ba366004614380565b611663565b6040516001600160a01b03909116815260200161027b565b61026f6102e5366004614308565b6116fe565b6102976117b6565b60035461026f90600160a01b900460ff1681565b61026061031436600461434d565b6117c3565b61026061032736600461457d565b611909565b600c54610100900460ff1661026f565b6007546102bf906001600160a01b031681565b600c546102bf906201000090046001600160a01b031681565b6006546102bf906001600160a01b031681565b610260611dfe565b610260610391366004614548565b611e34565b6102606103a4366004614524565b611f97565b6102606103b7366004614298565b612253565b6103c5600b5481565b60405190815260200161027b565b6102606103e136600461434d565b6122f4565b610260612382565b6102606103fc366004614548565b612544565b6000546001600160a01b03166102bf565b610260610420366004614298565b6125d4565b610260610433366004614298565b61265a565b6102606126ee565b6004546102bf906001600160a01b031681565b610260610461366004614460565b612736565b6102606128b2565b61026061047c366004614298565b613048565b61026061048f366004614298565b613126565b6102976131d8565b6102606131e5565b6102606133b1565b6102606104ba36600461434d565b613419565b6003546102bf906001600160a01b031681565b610260613b89565b6102606104e8366004614298565b613bd4565b610260613c6c565b6002546001600160a01b03166102bf565b600260015414156105325760405162461bcd60e51b815260040161052990614780565b60405180910390fd5b6002600155806105725760405162461bcd60e51b815260206004820152600b60248201526a2737ba1018103a37b5b2b760a91b6044820152606401610529565b60048054604051630e4d620560e01b815233928101929092526001600160a01b031690630e4d62059060240160206040518083038186803b1580156105b657600080fd5b505afa1580156105ca573d6000803e3d6000fd5b505050506040513d601f19601f820116820180604052508101906105ee91906142f0565b1561062b5760405162461bcd60e51b815260206004820152600d60248201526c2ab73b30b634b2103a37b5b2b760991b6044820152606401610529565b600480546040805163cc06c35960e01b815290516001600160a01b039092169263cc06c359928282019260209290829003018186803b15801561066d57600080fd5b505afa158015610681573d6000803e3d6000fd5b505050506040513d601f19601f820116820180604052508101906106a591906142f0565b600480546040516304252ae160e51b81529182018490526001600160a01b031690637e5ea2829082906384a55c209060240160206040518083038186803b1580156106ef57600080fd5b505afa158015610703573d6000803e3d6000fd5b505050506040513d601f19601f8201168201806040525081019061072791906142f0565b6040518263ffffffff1660e01b815260040161074591815260200190565b604080518083038186803b15801561075c57600080fd5b505afa158015610770573d6000803e3d6000fd5b505050506040513d601f19601f8201168201806040525081019061079491906144b0565b5160ff16106107d95760405162461bcd60e51b8152602060048201526011602482015270105b1c9958591e481b585e081b195d995b607a1b6044820152606401610529565b60048054604051630219207560e61b8152918201839052600091829182916001600160a01b03909116906386481d409060240160206040518083038186803b15801561082457600080fd5b505afa158015610838573d6000803e3d6000fd5b505050506040513d601f19601f8201168201806040525081019061085c91906142f0565b60048054604051632f40faf760e01b81529293506001600160a01b031691632f40faf7916108909185910190815260200190565b604080518083038186803b1580156108a757600080fd5b505afa1580156108bb573d6000803e3d6000fd5b505050506040513d601f19601f820116820180604052508101906108df919061455a565b60048054604080516371f3b44560e11b8152905194975092955086936001600160a01b039091169263e3e7688a9281810192602092909190829003018186803b15801561092b57600080fd5b505afa15801561093f573d6000803e3d6000fd5b505050506040513d601f19601f8201168201806040525081019061096391906142b4565b6040516370a0823160e01b81523360048201526001600160a01b0391909116906370a082319060240160206040518083038186803b1580156109a457600080fd5b505afa1580156109b8573d6000803e3d6000fd5b505050506040513d601f19601f820116820180604052508101906109dc91906142f0565b1015610a235760405162461bcd60e51b81526020600482015260166024820152752ab739bab33334b1b4b2b73a103233ba103a37b5b2b760511b6044820152606401610529565b81600460009054906101000a90046001600160a01b03166001600160a01b03166338e514fe6040518163ffffffff1660e01b815260040160206040518083038186803b158015610a7257600080fd5b505afa158015610a86573d6000803e3d6000fd5b505050506040513d601f19601f82011682018060405250810190610aaa91906142b4565b6040516370a0823160e01b81523360048201526001600160a01b0391909116906370a082319060240160206040518083038186803b158015610aeb57600080fd5b505afa158015610aff573d6000803e3d6000fd5b505050506040513d601f19601f82011682018060405250810190610b2391906142f0565b1015610b6a5760405162461bcd60e51b81526020600482015260166024820152752ab739bab33334b1b4b2b73a103239b8103a37b5b2b760511b6044820152606401610529565b610c07333085600460009054906101000a90046001600160a01b03166001600160a01b031663e3e7688a6040518163ffffffff1660e01b815260040160206040518083038186803b158015610bbe57600080fd5b505afa158015610bd2573d6000803e3d6000fd5b505050506040513d601f19601f82011682018060405250810190610bf691906142b4565b6001600160a01b0316929190613cce565b610c5b333084600460009054906101000a90046001600160a01b03166001600160a01b03166338e514fe6040518163ffffffff1660e01b815260040160206040518083038186803b158015610bbe57600080fd5b60048054604051630219207560e61b81529182018690526001600160a01b0316906380ea5a8390339083906386481d409060240160206040518083038186803b158015610ca757600080fd5b505afa158015610cbb573d6000803e3d6000fd5b505050506040513d601f19601f82011682018060405250810190610cdf91906142f0565b60048054604051630219207560e61b81529182018a90526001916001600160a01b0390911690636d3f450b90339083906386481d409060240160206040518083038186803b158015610d3057600080fd5b505afa158015610d44573d6000803e3d6000fd5b505050506040513d601f19601f82011682018060405250810190610d6891906142f0565b6040516001600160e01b031960e085901b1681526001600160a01b039092166004830152602482015260440160206040518083038186803b158015610dac57600080fd5b505afa158015610dc0573d6000803e3d6000fd5b505050506040513d601f19601f82011682018060405250810190610de491906142f0565b610dee919061486e565b6040516001600160e01b031960e086901b1681526001600160a01b03909316600484015260248301919091526044820152606401600060405180830381600087803b158015610e3c57600080fd5b505af1158015610e50573d6000803e3d6000fd5b505060048054604051630219207560e61b81529182018890526001600160a01b031692506370a93b369150869083906386481d409060240160206040518083038186803b158015610ea057600080fd5b505afa158015610eb4573d6000803e3d6000fd5b505050506040513d601f19601f82011682018060405250810190610ed891906142f0565b610ee3906001614856565b6040516001600160e01b031960e085901b16815260048101929092526024820152604401600060405180830381600087803b158015610f2157600080fd5b505af1158015610f35573d6000803e3d6000fd5b505060048054604051630219207560e61b81529182018890526001600160a01b031692506380ea5a839150339083906386481d409060240160206040518083038186803b158015610f8557600080fd5b505afa158015610f99573d6000803e3d6000fd5b505050506040513d601f19601f82011682018060405250810190610fbd91906142f0565b60048054604051630219207560e61b81529182018a90526001600160a01b031690636d3f450b90339083906386481d409060240160206040518083038186803b15801561100957600080fd5b505afa15801561101d573d6000803e3d6000fd5b505050506040513d601f19601f8201168201806040525081019061104191906142f0565b6040516001600160e01b031960e085901b1681526001600160a01b039092166004830152602482015260440160206040518083038186803b15801561108557600080fd5b505afa158015611099573d6000803e3d6000fd5b505050506040513d601f19601f820116820180604052508101906110bd91906142f0565b6110c8906001614856565b6040516001600160e01b031960e086901b1681526001600160a01b03909316600484015260248301919091526044820152606401600060405180830381600087803b15801561111657600080fd5b505af115801561112a573d6000803e3d6000fd5b505060048054604051639d47207160e01b81523392810192909252602482018890526001600160a01b03169250639d4720719150604401600060405180830381600087803b15801561117b57600080fd5b505af115801561118f573d6000803e3d6000fd5b50506004805460405163984027a760e01b815233928101929092526001600160a01b0316925063984027a7915060240160206040518083038186803b1580156111d757600080fd5b505afa1580156111eb573d6000803e3d6000fd5b505050506040513d601f19601f8201168201806040525081019061120f91906142f0565b600480546040516304252ae160e51b81529182018790526001600160a01b031690637e5ea2829082906384a55c209060240160206040518083038186803b15801561125957600080fd5b505afa15801561126d573d6000803e3d6000fd5b505050506040513d601f19601f8201168201806040525081019061129191906142f0565b6040518263ffffffff1660e01b81526004016112af91815260200190565b604080518083038186803b1580156112c657600080fd5b505afa1580156112da573d6000803e3d6000fd5b505050506040513d601f19601f820116820180604052508101906112fe91906144b0565b5160ff16111561146457600480546040516304252ae160e51b81529182018690526001600160a01b031690630d2176ed9033908390637e5ea2829082906384a55c209060240160206040518083038186803b15801561135c57600080fd5b505afa158015611370573d6000803e3d6000fd5b505050506040513d601f19601f8201168201806040525081019061139491906142f0565b6040518263ffffffff1660e01b81526004016113b291815260200190565b604080518083038186803b1580156113c957600080fd5b505afa1580156113dd573d6000803e3d6000fd5b505050506040513d601f19601f8201168201806040525081019061140191906144b0565b5160405160e084901b6001600160e01b03191681526001600160a01b03909216600483015260ff166024820152604401600060405180830381600087803b15801561144b57600080fd5b505af115801561145f573d6000803e3d6000fd5b505050505b5050600180555050565b6008818154811061147e57600080fd5b906000526020600020016000915090508054611499906148b1565b80601f01602080910402602001604051908101604052809291908181526020018280546114c5906148b1565b80156115125780601f106114e757610100808354040283529160200191611512565b820191906000526020600020905b8154815290600101906020018083116114f557829003601f168201915b505050505081565b600354600160a01b900460ff166115435760405162461bcd60e51b8152600401610529906146ea565b600c54610100900460ff161561156b5760405162461bcd60e51b815260040161052990614721565b6002600154141561158e5760405162461bcd60e51b815260040161052990614780565b600260015560065460408051600481526024810182526020810180516001600160e01b0316631839a66760e31b17905290516000926001600160a01b0316916115d6916145f7565b600060405180830381855af49150503d8060008114611611576040519150601f19603f3d011682016040523d82523d6000602084013e611616565b606091505b505090508061165c5760405162461bcd60e51b81526020600482015260126024820152711b5a5b9d159bde5859d95c8811985a5b195960721b6044820152606401610529565b5060018055565b600080546001600160a01b0316331461168e5760405162461bcd60e51b81526004016105299061474b565b816116cb5760405162461bcd60e51b815260206004820152600d60248201526c22b6b83a3c902b32b939b4b7b760991b6044820152606401610529565b600583836040516116dd929190614613565b908152604051908190036020019020546001600160a01b0316905092915050565b6040516319045a2560e01b815260009073__$bfe2affd5a69741b1d0756c60605649423$__906319045a259061173a90869086906004016146be565b60206040518083038186803b15801561175257600080fd5b505af4158015611766573d6000803e3d6000fd5b505050506040513d601f19601f8201168201806040525081019061178a91906142b4565b6001600160a01b03166117a56002546001600160a01b031690565b6001600160a01b0316149392505050565b60098054611499906148b1565b60405163b613249d60e01b815233600482015281906118529073__$bfe2affd5a69741b1d0756c60605649423$__9063b613249d906024015b60206040518083038186803b15801561181457600080fd5b505af4158015611828573d6000803e3d6000fd5b505050506040513d601f19601f8201168201806040525081019061184c91906142f0565b826116fe565b61188d5760405162461bcd60e51b815260206004820152600c60248201526b139bdd081d995c9a599a595960a21b6044820152606401610529565b600354600160a01b900460ff166118b65760405162461bcd60e51b8152600401610529906146ea565b600c54610100900460ff16156118de5760405162461bcd60e51b815260040161052990614721565b600260015414156119015760405162461bcd60e51b815260040161052990614780565b505060018055565b60048054604051630e4d620560e01b815233928101929092526000916001600160a01b0390911690630e4d62059060240160206040518083038186803b15801561195257600080fd5b505afa158015611966573d6000803e3d6000fd5b505050506040513d601f19601f8201168201806040525081019061198a91906142f0565b600480546040516304252ae160e51b81529182018390529192506000916001600160a01b031690637e5ea2829082906384a55c209060240160206040518083038186803b1580156119da57600080fd5b505afa1580156119ee573d6000803e3d6000fd5b505050506040513d601f19601f82011682018060405250810190611a1291906142f0565b6040518263ffffffff1660e01b8152600401611a3091815260200190565b604080518083038186803b158015611a4757600080fd5b505afa158015611a5b573d6000803e3d6000fd5b505050506040513d601f19601f82011682018060405250810190611a7f91906144b0565b5160ff16905081611ac25760405162461bcd60e51b815260206004820152600d60248201526c2ab73b30b634b2103a37b5b2b760991b6044820152606401610529565b600480546040516331a9108f60e11b815291820184905233916001600160a01b0390911690636352211e9060240160206040518083038186803b158015611b0857600080fd5b505afa158015611b1c573d6000803e3d6000fd5b505050506040513d601f19601f82011682018060405250810190611b4091906142b4565b6001600160a01b031614611b825760405162461bcd60e51b81526020600482015260096024820152682737ba1037bbb732b960b91b6044820152606401610529565b818514611bc65760405162461bcd60e51b815260206004820152601260248201527110dbdb9cda5cdd195b9d081d1bdad95b925160721b6044820152606401610529565b838114611c085760405162461bcd60e51b815260206004820152601060248201526f10dbdb9cda5cdd195b9d081b195d995b60821b6044820152606401610529565b60048054604051637538bcfd60e01b8152918201849052602482018390526001600160a01b031690637538bcfd9060440160206040518083038186803b158015611c5157600080fd5b505afa158015611c65573d6000803e3d6000fd5b505050506040513d601f19601f82011682018060405250810190611c8991906142d0565b15611cc65760405162461bcd60e51b815260206004820152600d60248201526c536574206f766572206f6e636560981b6044820152606401610529565b60048054604051622a710d60e31b81526001600160a01b0390911691630153886891611cf69186918891016146be565b600060405180830381600087803b158015611d1057600080fd5b505af1158015611d24573d6000803e3d6000fd5b505060048054604051639d47207160e01b81523392810192909252600060248301526001600160a01b03169250639d4720719150604401600060405180830381600087803b158015611d7557600080fd5b505af1158015611d89573d6000803e3d6000fd5b50506004805460405163682fffaf60e01b815291820186905260248201859052600160448301526001600160a01b0316925063682fffaf9150606401600060405180830381600087803b158015611ddf57600080fd5b505af1158015611df3573d6000803e3d6000fd5b505050505050505050565b6000546001600160a01b03163314611e285760405162461bcd60e51b81526004016105299061474b565b611e326000613d2e565b565b6002546001600160a01b03163314611e5e5760405162461bcd60e51b8152600401610529906147b7565b600c54610100900460ff1615611e865760405162461bcd60e51b815260040161052990614721565b6006546040516000916001600160a01b0316907f7fb3a9a28264147fdfcb557d570d2771a0c4df4cc7f7f8b4305eede3bba91ab090611ecb90869086906024016146be565b60408051601f198184030181529181526020820180516001600160e01b03166001600160e01b0319909416939093179092529051611f0991906145f7565b600060405180830381855af49150503d8060008114611f44576040519150601f19603f3d011682016040523d82523d6000602084013e611f49565b606091505b5050905080611f925760405162461bcd60e51b815260206004820152601560248201527418da185b99d9551bdad95b9554924811985a5b1959605a1b6044820152606401610529565b505050565b6000546001600160a01b03163314611fc15760405162461bcd60e51b81526004016105299061474b565b600c54610100900460ff1615611fe95760405162461bcd60e51b815260040161052990614721565b6002600154141561200c5760405162461bcd60e51b815260040161052990614780565b600260015560048054604080516371f3b44560e11b8152905185936001600160a01b039093169263e3e7688a92808201926020929091829003018186803b15801561205657600080fd5b505afa15801561206a573d6000803e3d6000fd5b505050506040513d601f19601f8201168201806040525081019061208e91906142b4565b6040516370a0823160e01b81523360048201526001600160a01b0391909116906370a082319060240160206040518083038186803b1580156120cf57600080fd5b505afa1580156120e3573d6000803e3d6000fd5b505050506040513d601f19601f8201168201806040525081019061210791906142f0565b101561214c5760405162461bcd60e51b8152602060048201526014602482015273496e73756666696369656e742062616c616e636560601b6044820152606401610529565b60048054604080516371f3b44560e11b815290516001600160a01b039092169263e3e7688a928282019260209290829003018186803b15801561218e57600080fd5b505afa1580156121a2573d6000803e3d6000fd5b505050506040513d601f19601f820116820180604052508101906121c691906142b4565b60405163a9059cbb60e01b81526001600160a01b03838116600483015260248201859052919091169063a9059cbb90604401602060405180830381600087803b15801561221257600080fd5b505af1158015612226573d6000803e3d6000fd5b505050506040513d601f19601f8201168201806040525081019061224a91906142d0565b50506001805550565b6000546001600160a01b0316331461227d5760405162461bcd60e51b81526004016105299061474b565b6001600160a01b0381166122e85760405162461bcd60e51b815260206004820152602c60248201527f496e76616c69642041646d696e3a206e65772061646d696e206973207468652060448201526b7a65726f206164647265737360a01b6064820152608401610529565b6122f181613d7e565b50565b6002546001600160a01b0316331461231e5760405162461bcd60e51b8152600401610529906147b7565b6004805460405163a1b3d1ff60e01b81526001600160a01b039091169163a1b3d1ff9161234d918591016146d7565b600060405180830381600087803b15801561236757600080fd5b505af115801561237b573d6000803e3d6000fd5b5050505050565b6000546001600160a01b031633146123ac5760405162461bcd60e51b81526004016105299061474b565b6007546001600160a01b03166123f45760405162461bcd60e51b815260206004820152600d60248201526c57726f6e67204164647265737360981b6044820152606401610529565b600c5460ff161561244857600b5461240f9062015180613ddf565b42116124485760405162461bcd60e51b8152602060048201526008602482015267496e2044656c617960c01b6044820152606401610529565b60076005600a60405161245b9190614623565b908152604051908190036020019020905481546001600160a01b0319166001600160a01b03909116179055600a805460099190612497906148b1565b6124a2929190614133565b50600754600680546001600160a01b0319166001600160a01b0390921691909117905560088054600181018255600091909152600a80547ff3f7a9fe364faab93b216da50a3214154f22a0a2b415b23a84c8169e8b636ee390920191612507906148b1565b612512929190614133565b5060408051602081019182905260009081905261253191600a916141be565b50600780546001600160a01b0319169055565b6002546001600160a01b0316331461256e5760405162461bcd60e51b8152600401610529906147b7565b60048054604051622a710d60e31b81526001600160a01b039091169163015388689161259e9186918691016146be565b600060405180830381600087803b1580156125b857600080fd5b505af11580156125cc573d6000803e3d6000fd5b505050505050565b6002546001600160a01b031633146125fe5760405162461bcd60e51b8152600401610529906147b7565b600c54610100900460ff16156126265760405162461bcd60e51b815260040161052990614721565b6004805460405163942eb8c360e01b81526001600160a01b038481169382019390935291169063942eb8c39060240161234d565b6000546001600160a01b031633146126845760405162461bcd60e51b81526004016105299061474b565b6001600160a01b0381166126cc5760405162461bcd60e51b815260206004820152600f60248201526e496e76616c6964204164647265737360881b6044820152606401610529565b600380546001600160a01b0319166001600160a01b0392909216919091179055565b6000546001600160a01b031633146127185760405162461bcd60e51b81526004016105299061474b565b60408051602081019182905260009081905261253191600a916141be565b6000546001600160a01b031633146127605760405162461bcd60e51b81526004016105299061474b565b6001600160a01b0381166127a65760405162461bcd60e51b815260206004820152600d60248201526c57726f6e67204164647265737360981b6044820152606401610529565b60008251116127e75760405162461bcd60e51b815260206004820152600d60248201526c22b6b83a3c902b32b939b4b7b760991b6044820152606401610529565b816040516020016127f891906145f7565b6040516020818303038152906040528051906020012060096040516020016128209190614623565b6040516020818303038152906040528051906020012014156128775760405162461bcd60e51b815260206004820152601060248201526f22bc34b9ba34b733902b32b939b4b7b760811b6044820152606401610529565b815161288a90600a9060208501906141be565b50600780546001600160a01b0319166001600160a01b03929092169190911790555042600b55565b60048054604051630e4d620560e01b815233928101929092526001600160a01b031690630e4d62059060240160206040518083038186803b1580156128f657600080fd5b505afa15801561290a573d6000803e3d6000fd5b505050506040513d601f19601f8201168201806040525081019061292e91906142f0565b156129705760405162461bcd60e51b815260206004820152601260248201527114d95d081d1bdad95b95549248199a5c9cdd60721b6044820152606401610529565b60048054604051632f40faf760e01b8152600092810183905282916001600160a01b031690632f40faf790602401604080518083038186803b1580156129b557600080fd5b505afa1580156129c9573d6000803e3d6000fd5b505050506040513d601f19601f820116820180604052508101906129ed919061455a565b9150915081600460009054906101000a90046001600160a01b03166001600160a01b031663e3e7688a6040518163ffffffff1660e01b815260040160206040518083038186803b158015612a4057600080fd5b505afa158015612a54573d6000803e3d6000fd5b505050506040513d601f19601f82011682018060405250810190612a7891906142b4565b6040516370a0823160e01b81523360048201526001600160a01b0391909116906370a082319060240160206040518083038186803b158015612ab957600080fd5b505afa158015612acd573d6000803e3d6000fd5b505050506040513d601f19601f82011682018060405250810190612af191906142f0565b1015612b385760405162461bcd60e51b81526020600482015260166024820152752ab739bab33334b1b4b2b73a103233ba103a37b5b2b760511b6044820152606401610529565b80600460009054906101000a90046001600160a01b03166001600160a01b03166338e514fe6040518163ffffffff1660e01b815260040160206040518083038186803b158015612b8757600080fd5b505afa158015612b9b573d6000803e3d6000fd5b505050506040513d601f19601f82011682018060405250810190612bbf91906142b4565b6040516370a0823160e01b81523360048201526001600160a01b0391909116906370a082319060240160206040518083038186803b158015612c0057600080fd5b505afa158015612c14573d6000803e3d6000fd5b505050506040513d601f19601f82011682018060405250810190612c3891906142f0565b1015612c7f5760405162461bcd60e51b81526020600482015260166024820152752ab739bab33334b1b4b2b73a103239b8103a37b5b2b760511b6044820152606401610529565b612cd3333084600460009054906101000a90046001600160a01b03166001600160a01b031663e3e7688a6040518163ffffffff1660e01b815260040160206040518083038186803b158015610bbe57600080fd5b612d27333083600460009054906101000a90046001600160a01b03166001600160a01b03166338e514fe6040518163ffffffff1660e01b815260040160206040518083038186803b158015610bbe57600080fd5b6000600460009054906101000a90046001600160a01b03166001600160a01b0316630ca1c5c96040518163ffffffff1660e01b815260040160206040518083038186803b158015612d7757600080fd5b505afa158015612d8b573d6000803e3d6000fd5b505050506040513d601f19601f82011682018060405250810190612daf91906142f0565b60048054604051634541a7fb60e11b81523392810192909252602482018390529192506001600160a01b0390911690638a834ff690604401600060405180830381600087803b158015612e0157600080fd5b505af1158015612e15573d6000803e3d6000fd5b505050508060001415612efe57600480546040805163b9e1bbf960e01b815290516001600160a01b03909216926301538868928592859263b9e1bbf9928282019260009290829003018186803b158015612e6e57600080fd5b505afa158015612e82573d6000803e3d6000fd5b505050506040513d6000823e601f3d908101601f19168201604052612eaa91908101906143ed565b6040518363ffffffff1660e01b8152600401612ec79291906146be565b600060405180830381600087803b158015612ee157600080fd5b505af1158015612ef5573d6000803e3d6000fd5b50505050612f64565b60048054604051639d47207160e01b81523392810192909252602482018390526001600160a01b031690639d47207190604401600060405180830381600087803b158015612f4b57600080fd5b505af1158015612f5f573d6000803e3d6000fd5b505050505b6004805460408051630ca1c5c960e01b815290516001600160a01b03909216926316dbf90692612ff3926001928692630ca1c5c9928083019260209291829003018186803b158015612fb557600080fd5b505afa158015612fc9573d6000803e3d6000fd5b505050506040513d601f19601f82011682018060405250810190612fed91906142f0565b90613ddf565b6040518263ffffffff1660e01b815260040161301191815260200190565b600060405180830381600087803b15801561302b57600080fd5b505af115801561303f573d6000803e3d6000fd5b50505050505050565b6002546001600160a01b031633146130725760405162461bcd60e51b8152600401610529906147b7565b600c54610100900460ff161561309a5760405162461bcd60e51b815260040161052990614721565b600480546040516361746ea560e11b81526001600160a01b038481169382019390935291169063c2e8dd4a90602401600060405180830381600087803b1580156130e357600080fd5b505af11580156130f7573d6000803e3d6000fd5b5050600c80546001600160a01b03909416620100000262010000600160b01b0319909416939093179092555050565b6000546001600160a01b031633146131505760405162461bcd60e51b81526004016105299061474b565b600c5460ff16156131995760405162461bcd60e51b8152602060048201526013602482015272105b1c9958591e48125b9a5d1a585b1a5e9959606a1b6044820152606401610529565b6131c060405180604001604052806005815260200164302e302e3160d81b81525082612736565b6131c8612382565b50600c805460ff19166001179055565b600a8054611499906148b1565b6000546001600160a01b0316331461320f5760405162461bcd60e51b81526004016105299061474b565b600c54610100900460ff16156132375760405162461bcd60e51b815260040161052990614721565b6002600154141561325a5760405162461bcd60e51b815260040161052990614780565b6002600155600c546004805460408051631c728a7f60e11b815290516001600160a01b03620100009095048516946342966c68949316926338e514fe92808201926020929091829003018186803b1580156132b457600080fd5b505afa1580156132c8573d6000803e3d6000fd5b505050506040513d601f19601f820116820180604052508101906132ec91906142b4565b6040516370a0823160e01b81523060048201526001600160a01b0391909116906370a082319060240160206040518083038186803b15801561332d57600080fd5b505afa158015613341573d6000803e3d6000fd5b505050506040513d601f19601f8201168201806040525081019061336591906142f0565b6040518263ffffffff1660e01b815260040161338391815260200190565b600060405180830381600087803b15801561339d57600080fd5b505af1158015611464573d6000803e3d6000fd5b6000546001600160a01b031633146133db5760405162461bcd60e51b81526004016105299061474b565b6133e3613df2565b6040513381527f62e78cea01bee320cd4e420270b5ea74000d11b0c9f74754ebdbfc544b05a258906020015b60405180910390a1565b60405163b613249d60e01b815233600482015281906134569073__$bfe2affd5a69741b1d0756c60605649423$__9063b613249d906024016117fc565b6134915760405162461bcd60e51b815260206004820152600c60248201526b139bdd081d995c9a599a595960a21b6044820152606401610529565b600354600160a01b900460ff166134ba5760405162461bcd60e51b8152600401610529906146ea565b600c54610100900460ff16156134e25760405162461bcd60e51b815260040161052990614721565b600260015414156135055760405162461bcd60e51b815260040161052990614780565b600260015560048054604051630e4d620560e01b815233928101929092526001600160a01b031690630e4d62059060240160206040518083038186803b15801561354e57600080fd5b505afa158015613562573d6000803e3d6000fd5b505050506040513d601f19601f8201168201806040525081019061358691906142f0565b156135c85760405162461bcd60e51b815260206004820152601260248201527114d95d081d1bdad95b95549248199a5c9cdd60721b6044820152606401610529565b60048054604051630554924960e51b815233928101929092526001600160a01b03169063aa9249209060240160206040518083038186803b15801561360c57600080fd5b505afa158015613620573d6000803e3d6000fd5b505050506040513d601f19601f8201168201806040525081019061364491906142d0565b1561367b5760405162461bcd60e51b8152602060048201526007602482015266115e1c1a5c995960ca1b6044820152606401610529565b60048054604080516310c1331760e31b815290516001600160a01b039092169263860998b8928282019260209290829003018186803b1580156136bd57600080fd5b505afa1580156136d1573d6000803e3d6000fd5b505050506040513d601f19601f820116820180604052508101906136f591906142f0565b60048054604080516325ebda5b60e01b8152905161373b936001936001600160a01b0316926325ebda5b9281830192602092829003018186803b158015612fb557600080fd5b111561379a5760405162461bcd60e51b815260206004820152602860248201527f4d696e7420776f756c6420657863656564206d617820737570706c79206f6620604482015267566f79616765727360c01b6064820152608401610529565b6000600460009054906101000a90046001600160a01b03166001600160a01b0316630ca1c5c96040518163ffffffff1660e01b815260040160206040518083038186803b1580156137ea57600080fd5b505afa1580156137fe573d6000803e3d6000fd5b505050506040513d601f19601f8201168201806040525081019061382291906142f0565b60048054604051634541a7fb60e11b81523392810192909252602482018390529192506001600160a01b0390911690638a834ff690604401600060405180830381600087803b15801561387457600080fd5b505af1158015613888573d6000803e3d6000fd5b50505050806000141561397157600480546040805163b9e1bbf960e01b815290516001600160a01b03909216926301538868928592859263b9e1bbf9928282019260009290829003018186803b1580156138e157600080fd5b505afa1580156138f5573d6000803e3d6000fd5b505050506040513d6000823e601f3d908101601f1916820160405261391d91908101906143ed565b6040518363ffffffff1660e01b815260040161393a9291906146be565b600060405180830381600087803b15801561395457600080fd5b505af1158015613968573d6000803e3d6000fd5b505050506139d7565b60048054604051639d47207160e01b81523392810192909252602482018390526001600160a01b031690639d47207190604401600060405180830381600087803b1580156139be57600080fd5b505af11580156139d2573d6000803e3d6000fd5b505050505b6004805460408051630ca1c5c960e01b815290516001600160a01b03909216926316dbf90692613a28926001928692630ca1c5c9928083019260209291829003018186803b158015612fb557600080fd5b6040518263ffffffff1660e01b8152600401613a4691815260200190565b600060405180830381600087803b158015613a6057600080fd5b505af1158015613a74573d6000803e3d6000fd5b50506004805460405163ca0a9e3d60e01b81523392810192909252600160248301526001600160a01b0316925063ca0a9e3d9150604401600060405180830381600087803b158015613ac557600080fd5b505af1158015613ad9573d6000803e3d6000fd5b505060048054604080516325ebda5b60e01b815290516001600160a01b03909216945063440372f89350613b309260019286926325ebda5b9281810192602092909190829003018186803b158015612fb557600080fd5b6040518263ffffffff1660e01b8152600401613b4e91815260200190565b600060405180830381600087803b158015613b6857600080fd5b505af1158015613b7c573d6000803e3d6000fd5b5050600180555050505050565b6002546001600160a01b03163314613bb35760405162461bcd60e51b8152600401610529906147b7565b6003805460ff60a01b198116600160a01b9182900460ff1615909102179055565b6000546001600160a01b03163314613bfe5760405162461bcd60e51b81526004016105299061474b565b6001600160a01b038116613c635760405162461bcd60e51b815260206004820152602660248201527f4f776e61626c653a206e6577206f776e657220697320746865207a65726f206160448201526564647265737360d01b6064820152608401610529565b6122f181613d2e565b6000546001600160a01b03163314613c965760405162461bcd60e51b81526004016105299061474b565b613c9e613e69565b6040513381527f5db9ee0a495bf2e6ff9c91a7834c1ba4fdd244a5e8aa4e537bd38aeae4b073aa9060200161340f565b604080516001600160a01b0385811660248301528416604482015260648082018490528251808303909101815260849091019091526020810180516001600160e01b03166323b872dd60e01b179052613d28908590613ee9565b50505050565b600080546001600160a01b038381166001600160a01b0319831681178455604051919092169283917f8be0079c531659141344cd1fd0a4f28419497f9722a3daafe3b4186f6b6457e09190a35050565b600280546001600160a01b038381166001600160a01b031983168117909355604080519190921680825260208201939093527ff8ccb027dfcd135e000e9d45e6cc2d662578a8825d4c45b5e32e0adf67e79ec6910160405180910390a15050565b6000613deb8284614856565b9392505050565b600c54610100900460ff1615613e1a5760405162461bcd60e51b815260040161052990614721565b600c805461ff0019166101001790557f62e78cea01bee320cd4e420270b5ea74000d11b0c9f74754ebdbfc544b05a258613e513390565b6040516001600160a01b03909116815260200161340f565b600c54610100900460ff16613eb75760405162461bcd60e51b815260206004820152601460248201527314185d5cd8589b194e881b9bdd081c185d5cd95960621b6044820152606401610529565b600c805461ff00191690557f5db9ee0a495bf2e6ff9c91a7834c1ba4fdd244a5e8aa4e537bd38aeae4b073aa33613e51565b6000613f3e826040518060400160405280602081526020017f5361666545524332303a206c6f772d6c6576656c2063616c6c206661696c6564815250856001600160a01b0316613fbb9092919063ffffffff16565b805190915015611f925780806020019051810190613f5c91906142d0565b611f925760405162461bcd60e51b815260206004820152602a60248201527f5361666545524332303a204552433230206f7065726174696f6e20646964206e6044820152691bdd081cdd58d8d9595960b21b6064820152608401610529565b6060613fca8484600085613fd2565b949350505050565b6060824710156140335760405162461bcd60e51b815260206004820152602660248201527f416464726573733a20696e73756666696369656e742062616c616e636520666f6044820152651c8818d85b1b60d21b6064820152608401610529565b843b6140815760405162461bcd60e51b815260206004820152601d60248201527f416464726573733a2063616c6c20746f206e6f6e2d636f6e74726163740000006044820152606401610529565b600080866001600160a01b0316858760405161409d91906145f7565b60006040518083038185875af1925050503d80600081146140da576040519150601f19603f3d011682016040523d82523d6000602084013e6140df565b606091505b50915091506140ef8282866140fa565b979650505050505050565b60608315614109575081613deb565b8251156141195782518084602001fd5b8160405162461bcd60e51b815260040161052991906146d7565b82805461413f906148b1565b90600052602060002090601f01602090048101928261416157600085556141ae565b82601f1061417257805485556141ae565b828001600101855582156141ae57600052602060002091601f016020900482015b828111156141ae578254825591600101919060010190614193565b506141ba929150614232565b5090565b8280546141ca906148b1565b90600052602060002090601f0160209004810192826141ec57600085556141ae565b82601f1061420557805160ff19168380011785556141ae565b828001600101855582156141ae579182015b828111156141ae578251825591602001919060010190614217565b5b808211156141ba5760008155600101614233565b600082601f830112614257578081fd5b813561426a6142658261482e565b6147fd565b81815284602083860101111561427e578283fd5b816020850160208301379081016020019190915292915050565b6000602082840312156142a9578081fd5b8135613deb81614918565b6000602082840312156142c5578081fd5b8151613deb81614918565b6000602082840312156142e1578081fd5b81518015158114613deb578182fd5b600060208284031215614301578081fd5b5051919050565b6000806040838503121561431a578081fd5b82359150602083013567ffffffffffffffff811115614337578182fd5b61434385828601614247565b9150509250929050565b60006020828403121561435e578081fd5b813567ffffffffffffffff811115614374578182fd5b613fca84828501614247565b60008060208385031215614392578182fd5b823567ffffffffffffffff808211156143a9578384fd5b818501915085601f8301126143bc578384fd5b8135818111156143ca578485fd5b8660208285010111156143db578485fd5b60209290920196919550909350505050565b6000602082840312156143fe578081fd5b815167ffffffffffffffff811115614414578182fd5b8201601f81018413614424578182fd5b80516144326142658261482e565b818152856020838501011115614446578384fd5b614457826020830160208601614885565b95945050505050565b60008060408385031215614472578182fd5b823567ffffffffffffffff811115614488578283fd5b61449485828601614247565b92505060208301356144a581614918565b809150509250929050565b6000604082840312156144c1578081fd5b6040516040810181811067ffffffffffffffff821117156144e4576144e4614902565b604052825160ff811681146144f7578283fd5b81526020928301519281019290925250919050565b60006020828403121561451d578081fd5b5035919050565b60008060408385031215614536578182fd5b8235915060208301356144a581614918565b6000806040838503121561431a578182fd5b6000806040838503121561456c578182fd5b505080516020909101519092909150565b600080600060608486031215614591578081fd5b8335925060208401359150604084013567ffffffffffffffff8111156145b5578182fd5b6145c186828701614247565b9150509250925092565b600081518084526145e3816020860160208601614885565b601f01601f19169290920160200192915050565b60008251614609818460208701614885565b9190910192915050565b8183823760009101908152919050565b600080835482600182811c91508083168061463f57607f831692505b602080841082141561465f57634e487b7160e01b87526022600452602487fd5b8180156146735760018114614684576146b0565b60ff198616895284890196506146b0565b60008a815260209020885b868110156146a85781548b82015290850190830161468f565b505084890196505b509498975050505050505050565b828152604060208201526000613fca60408301846145cb565b602081526000613deb60208301846145cb565b60208082526018908201527f556e61637469766520746f206d696e7420566f79616765720000000000000000604082015260600190565b60208082526010908201526f14185d5cd8589b194e881c185d5cd95960821b604082015260600190565b6020808252818101527f4f776e61626c653a2063616c6c6572206973206e6f7420746865206f776e6572604082015260600190565b6020808252601f908201527f5265656e7472616e637947756172643a207265656e7472616e742063616c6c00604082015260600190565b60208082526026908201527f496e76616c69642041646d696e3a2063616c6c6572206973206e6f74207468656040820152651030b236b4b760d11b606082015260800190565b604051601f8201601f1916810167ffffffffffffffff8111828210171561482657614826614902565b604052919050565b600067ffffffffffffffff82111561484857614848614902565b50601f01601f191660200190565b60008219821115614869576148696148ec565b500190565b600082821015614880576148806148ec565b500390565b60005b838110156148a0578181015183820152602001614888565b83811115613d285750506000910152565b600181811c908216806148c557607f821691505b602082108114156148e657634e487b7160e01b600052602260045260246000fd5b50919050565b634e487b7160e01b600052601160045260246000fd5b634e487b7160e01b600052604160045260246000fd5b6001600160a01b03811681146122f157600080fdfea264697066735822122053028f4d45f51be0c7f949a165d3f87a5f7d3531878d6fdc619330721d155fc864736f6c63430008040033",
  "libraries": {
    "Sig": "0x6748dAeA9f2F668ED4a425000E4d61b07797CA75"
  },
  "devdoc": {
    "kind": "dev",
    "methods": {
      "admin()": {
        "details": "Returns the address of the current admin."
      },
      "owner()": {
        "details": "Returns the address of the current owner."
      },
      "paused()": {
        "details": "Returns true if the contract is paused, and false otherwise."
      },
      "renounceOwnership()": {
        "details": "Leaves the contract without owner. It will not be possible to call `onlyOwner` functions anymore. Can only be called by the current owner. NOTE: Renouncing ownership will leave the contract without an owner, thereby removing any functionality that is only available to the owner."
      },
      "transferAdmin(address)": {
        "details": "Transfers ownership of the contract to a new account (`newAdmin`). Can only be called by the current admin."
      },
      "transferOwnership(address)": {
        "details": "Transfers ownership of the contract to a new account (`newOwner`). Can only be called by the current owner."
      }
    },
    "version": 1
  },
  "userdoc": {
    "kind": "user",
    "methods": {},
    "version": 1
  },
  "storageLayout": {
    "storage": [
      {
        "astId": 7,
        "contract": "contracts/voyager/Voyager.sol:Voyager",
        "label": "_owner",
        "offset": 0,
        "slot": "0",
        "type": "t_address"
      },
      {
        "astId": 206,
        "contract": "contracts/voyager/Voyager.sol:Voyager",
        "label": "_status",
        "offset": 0,
        "slot": "1",
        "type": "t_uint256"
      },
      {
        "astId": 6424,
        "contract": "contracts/voyager/Voyager.sol:Voyager",
        "label": "_admin",
        "offset": 0,
        "slot": "2",
        "type": "t_address"
      },
      {
        "astId": 6426,
        "contract": "contracts/voyager/Voyager.sol:Voyager",
        "label": "proxy",
        "offset": 0,
        "slot": "3",
        "type": "t_address"
      },
      {
        "astId": 6429,
        "contract": "contracts/voyager/Voyager.sol:Voyager",
        "label": "mintIsActive",
        "offset": 20,
        "slot": "3",
        "type": "t_bool"
      },
      {
        "astId": 7239,
        "contract": "contracts/voyager/Voyager.sol:Voyager",
        "label": "vS",
        "offset": 0,
        "slot": "4",
        "type": "t_contract(VoyagerStorage)8542"
      },
      {
        "astId": 7247,
        "contract": "contracts/voyager/Voyager.sol:Voyager",
        "label": "versions",
        "offset": 0,
        "slot": "5",
        "type": "t_mapping(t_string_memory_ptr,t_struct(LogicContracts)7242_storage)"
      },
      {
        "astId": 7250,
        "contract": "contracts/voyager/Voyager.sol:Voyager",
        "label": "curVersion",
        "offset": 0,
        "slot": "6",
        "type": "t_struct(LogicContracts)7242_storage"
      },
      {
        "astId": 7253,
        "contract": "contracts/voyager/Voyager.sol:Voyager",
        "label": "delayVersion",
        "offset": 0,
        "slot": "7",
        "type": "t_struct(LogicContracts)7242_storage"
      },
      {
        "astId": 7256,
        "contract": "contracts/voyager/Voyager.sol:Voyager",
        "label": "versionList",
        "offset": 0,
        "slot": "8",
        "type": "t_array(t_string_storage)dyn_storage"
      },
      {
        "astId": 7258,
        "contract": "contracts/voyager/Voyager.sol:Voyager",
        "label": "versionName",
        "offset": 0,
        "slot": "9",
        "type": "t_string_storage"
      },
      {
        "astId": 7260,
        "contract": "contracts/voyager/Voyager.sol:Voyager",
        "label": "delayVersionName",
        "offset": 0,
        "slot": "10",
        "type": "t_string_storage"
      },
      {
        "astId": 7265,
        "contract": "contracts/voyager/Voyager.sol:Voyager",
        "label": "startTime",
        "offset": 0,
        "slot": "11",
        "type": "t_uint256"
      },
      {
        "astId": 7267,
        "contract": "contracts/voyager/Voyager.sol:Voyager",
        "label": "initialized",
        "offset": 0,
        "slot": "12",
        "type": "t_bool"
      },
      {
        "astId": 121,
        "contract": "contracts/voyager/Voyager.sol:Voyager",
        "label": "_paused",
        "offset": 1,
        "slot": "12",
        "type": "t_bool"
      },
      {
        "astId": 5549,
        "contract": "contracts/voyager/Voyager.sol:Voyager",
        "label": "dsp",
        "offset": 2,
        "slot": "12",
        "type": "t_contract(DeepSeaPlankton)3876"
      }
    ],
    "types": {
      "t_address": {
        "encoding": "inplace",
        "label": "address",
        "numberOfBytes": "20"
      },
      "t_array(t_string_storage)dyn_storage": {
        "base": "t_string_storage",
        "encoding": "dynamic_array",
        "label": "string[]",
        "numberOfBytes": "32"
      },
      "t_bool": {
        "encoding": "inplace",
        "label": "bool",
        "numberOfBytes": "1"
      },
      "t_contract(DeepSeaPlankton)3876": {
        "encoding": "inplace",
        "label": "contract DeepSeaPlankton",
        "numberOfBytes": "20"
      },
      "t_contract(VoyagerStorage)8542": {
        "encoding": "inplace",
        "label": "contract VoyagerStorage",
        "numberOfBytes": "20"
      },
      "t_mapping(t_string_memory_ptr,t_struct(LogicContracts)7242_storage)": {
        "encoding": "mapping",
        "key": "t_string_memory_ptr",
        "label": "mapping(string => struct VoyagerProxy.LogicContracts)",
        "numberOfBytes": "32",
        "value": "t_struct(LogicContracts)7242_storage"
      },
      "t_string_memory_ptr": {
        "encoding": "bytes",
        "label": "string",
        "numberOfBytes": "32"
      },
      "t_string_storage": {
        "encoding": "bytes",
        "label": "string",
        "numberOfBytes": "32"
      },
      "t_struct(LogicContracts)7242_storage": {
        "encoding": "inplace",
        "label": "struct VoyagerProxy.LogicContracts",
        "members": [
          {
            "astId": 7241,
            "contract": "contracts/voyager/Voyager.sol:Voyager",
            "label": "voyagerLogic",
            "offset": 0,
            "slot": "0",
            "type": "t_address"
          }
        ],
        "numberOfBytes": "32"
      },
      "t_uint256": {
        "encoding": "inplace",
        "label": "uint256",
        "numberOfBytes": "32"
      }
    }
  }
}