{
  "address": "0x598df3b1c2993321c6098b490464a9Db4712e79c",
  "abi": [
    {
      "inputs": [
        {
          "internalType": "uint256",
          "name": "_maxLevel",
          "type": "uint256"
        }
      ],
      "stateMutability": "nonpayable",
      "type": "constructor"
    },
    {
      "anonymous": false,
      "inputs": [
        {
          "indexed": false,
          "internalType": "address",
          "name": "oldAdmin",
          "type": "address"
        },
        {
          "indexed": false,
          "internalType": "address",
          "name": "newAdmin",
          "type": "address"
        }
      ],
      "name": "AdminTransferred",
      "type": "event"
    },
    {
      "anonymous": false,
      "inputs": [
        {
          "indexed": true,
          "internalType": "address",
          "name": "owner",
          "type": "address"
        },
        {
          "indexed": true,
          "internalType": "address",
          "name": "approved",
          "type": "address"
        },
        {
          "indexed": true,
          "internalType": "uint256",
          "name": "tokenId",
          "type": "uint256"
        }
      ],
      "name": "Approval",
      "type": "event"
    },
    {
      "anonymous": false,
      "inputs": [
        {
          "indexed": true,
          "internalType": "address",
          "name": "owner",
          "type": "address"
        },
        {
          "indexed": true,
          "internalType": "address",
          "name": "operator",
          "type": "address"
        },
        {
          "indexed": false,
          "internalType": "bool",
          "name": "approved",
          "type": "bool"
        }
      ],
      "name": "ApprovalForAll",
      "type": "event"
    },
    {
      "anonymous": false,
      "inputs": [
        {
          "indexed": true,
          "internalType": "address",
          "name": "previousOwner",
          "type": "address"
        },
        {
          "indexed": true,
          "internalType": "address",
          "name": "newOwner",
          "type": "address"
        }
      ],
      "name": "OwnershipTransferred",
      "type": "event"
    },
    {
      "anonymous": false,
      "inputs": [
        {
          "indexed": true,
          "internalType": "address",
          "name": "from",
          "type": "address"
        },
        {
          "indexed": true,
          "internalType": "address",
          "name": "to",
          "type": "address"
        },
        {
          "indexed": true,
          "internalType": "uint256",
          "name": "tokenId",
          "type": "uint256"
        }
      ],
      "name": "Transfer",
      "type": "event"
    },
    {
      "inputs": [
        {
          "internalType": "uint256",
          "name": "_tokenId",
          "type": "uint256"
        },
        {
          "internalType": "string",
          "name": "_tokenURI",
          "type": "string"
        }
      ],
      "name": "_setTokenURI",
      "outputs": [],
      "stateMutability": "nonpayable",
      "type": "function"
    },
    {
      "inputs": [],
      "name": "admin",
      "outputs": [
        {
          "internalType": "address",
          "name": "",
          "type": "address"
        }
      ],
      "stateMutability": "view",
      "type": "function"
    },
    {
      "inputs": [
        {
          "internalType": "uint256",
          "name": "",
          "type": "uint256"
        }
      ],
      "name": "allVoyagersIndex",
      "outputs": [
        {
          "internalType": "uint256",
          "name": "",
          "type": "uint256"
        }
      ],
      "stateMutability": "view",
      "type": "function"
    },
    {
      "inputs": [
        {
          "internalType": "address",
          "name": "to",
          "type": "address"
        },
        {
          "internalType": "uint256",
          "name": "tokenId",
          "type": "uint256"
        }
      ],
      "name": "approve",
      "outputs": [],
      "stateMutability": "nonpayable",
      "type": "function"
    },
    {
      "inputs": [
        {
          "internalType": "address",
          "name": "owner",
          "type": "address"
        }
      ],
      "name": "balanceOf",
      "outputs": [
        {
          "internalType": "uint256",
          "name": "",
          "type": "uint256"
        }
      ],
      "stateMutability": "view",
      "type": "function"
    },
    {
      "inputs": [
        {
          "internalType": "uint256",
          "name": "",
          "type": "uint256"
        }
      ],
      "name": "cooldowns",
      "outputs": [
        {
          "internalType": "uint32",
          "name": "",
          "type": "uint32"
        }
      ],
      "stateMutability": "view",
      "type": "function"
    },
    {
      "inputs": [],
      "name": "decimals",
      "outputs": [
        {
          "internalType": "uint256",
          "name": "",
          "type": "uint256"
        }
      ],
      "stateMutability": "view",
      "type": "function"
    },
    {
      "inputs": [],
      "name": "dgtAddress",
      "outputs": [
        {
          "internalType": "address",
          "name": "",
          "type": "address"
        }
      ],
      "stateMutability": "view",
      "type": "function"
    },
    {
      "inputs": [],
      "name": "dspAddress",
      "outputs": [
        {
          "internalType": "address",
          "name": "",
          "type": "address"
        }
      ],
      "stateMutability": "view",
      "type": "function"
    },
    {
      "inputs": [],
      "name": "flipMintableState",
      "outputs": [],
      "stateMutability": "nonpayable",
      "type": "function"
    },
    {
      "inputs": [
        {
          "internalType": "uint256",
          "name": "_tokenId",
          "type": "uint256"
        }
      ],
      "name": "getAllVoyagerIndex",
      "outputs": [
        {
          "internalType": "uint256",
          "name": "",
          "type": "uint256"
        }
      ],
      "stateMutability": "view",
      "type": "function"
    },
    {
      "inputs": [
        {
          "internalType": "uint256",
          "name": "tokenId",
          "type": "uint256"
        }
      ],
      "name": "getApproved",
      "outputs": [
        {
          "internalType": "address",
          "name": "",
          "type": "address"
        }
      ],
      "stateMutability": "view",
      "type": "function"
    },
    {
      "inputs": [
        {
          "internalType": "address",
          "name": "_addr",
          "type": "address"
        }
      ],
      "name": "getExpiredWhitelist",
      "outputs": [
        {
          "internalType": "bool",
          "name": "",
          "type": "bool"
        }
      ],
      "stateMutability": "view",
      "type": "function"
    },
    {
      "inputs": [
        {
          "internalType": "uint256",
          "name": "tokenId",
          "type": "uint256"
        }
      ],
      "name": "getLevel",
      "outputs": [
        {
          "internalType": "uint256",
          "name": "",
          "type": "uint256"
        }
      ],
      "stateMutability": "view",
      "type": "function"
    },
    {
      "inputs": [
        {
          "internalType": "uint256",
          "name": "level",
          "type": "uint256"
        }
      ],
      "name": "getLevelUpFee",
      "outputs": [
        {
          "internalType": "uint256",
          "name": "",
          "type": "uint256"
        },
        {
          "internalType": "uint256",
          "name": "",
          "type": "uint256"
        }
      ],
      "stateMutability": "view",
      "type": "function"
    },
    {
      "inputs": [
        {
          "internalType": "address",
          "name": "_addr",
          "type": "address"
        }
      ],
      "name": "getMaxLevelOfOwner",
      "outputs": [
        {
          "internalType": "uint256",
          "name": "",
          "type": "uint256"
        }
      ],
      "stateMutability": "view",
      "type": "function"
    },
    {
      "inputs": [],
      "name": "getMaxWhitelisted",
      "outputs": [
        {
          "internalType": "uint256",
          "name": "",
          "type": "uint256"
        }
      ],
      "stateMutability": "view",
      "type": "function"
    },
    {
      "inputs": [
        {
          "internalType": "uint256",
          "name": "_tokenId",
          "type": "uint256"
        },
        {
          "internalType": "uint256",
          "name": "_level",
          "type": "uint256"
        }
      ],
      "name": "getSetByOwner",
      "outputs": [
        {
          "internalType": "bool",
          "name": "",
          "type": "bool"
        }
      ],
      "stateMutability": "view",
      "type": "function"
    },
    {
      "inputs": [],
      "name": "getToken0URI",
      "outputs": [
        {
          "internalType": "string",
          "name": "",
          "type": "string"
        }
      ],
      "stateMutability": "view",
      "type": "function"
    },
    {
      "inputs": [
        {
          "internalType": "address",
          "name": "_addr",
          "type": "address"
        }
      ],
      "name": "getTokenIDWithoutURI",
      "outputs": [
        {
          "internalType": "uint256",
          "name": "",
          "type": "uint256"
        }
      ],
      "stateMutability": "view",
      "type": "function"
    },
    {
      "inputs": [
        {
          "internalType": "address",
          "name": "_addr",
          "type": "address"
        },
        {
          "internalType": "uint256",
          "name": "_level",
          "type": "uint256"
        }
      ],
      "name": "getTokenLevelCount",
      "outputs": [
        {
          "internalType": "uint256",
          "name": "",
          "type": "uint256"
        }
      ],
      "stateMutability": "view",
      "type": "function"
    },
    {
      "inputs": [],
      "name": "getTotalMinted",
      "outputs": [
        {
          "internalType": "uint256",
          "name": "",
          "type": "uint256"
        }
      ],
      "stateMutability": "view",
      "type": "function"
    },
    {
      "inputs": [
        {
          "internalType": "uint256",
          "name": "_index",
          "type": "uint256"
        }
      ],
      "name": "getVoyager",
      "outputs": [
        {
          "components": [
            {
              "internalType": "uint8",
              "name": "level",
              "type": "uint8"
            },
            {
              "internalType": "uint256",
              "name": "id",
              "type": "uint256"
            }
          ],
          "internalType": "struct BaseStorage.Voyager",
          "name": "",
          "type": "tuple"
        }
      ],
      "stateMutability": "view",
      "type": "function"
    },
    {
      "inputs": [],
      "name": "getWhitelistExpired",
      "outputs": [
        {
          "internalType": "uint256",
          "name": "",
          "type": "uint256"
        }
      ],
      "stateMutability": "view",
      "type": "function"
    },
    {
      "inputs": [],
      "name": "initialSupply",
      "outputs": [
        {
          "internalType": "uint256",
          "name": "",
          "type": "uint256"
        }
      ],
      "stateMutability": "view",
      "type": "function"
    },
    {
      "inputs": [
        {
          "internalType": "address",
          "name": "owner",
          "type": "address"
        },
        {
          "internalType": "address",
          "name": "operator",
          "type": "address"
        }
      ],
      "name": "isApprovedForAll",
      "outputs": [
        {
          "internalType": "bool",
          "name": "",
          "type": "bool"
        }
      ],
      "stateMutability": "view",
      "type": "function"
    },
    {
      "inputs": [
        {
          "internalType": "uint256",
          "name": "",
          "type": "uint256"
        }
      ],
      "name": "levelUpFees",
      "outputs": [
        {
          "internalType": "uint256",
          "name": "dgt",
          "type": "uint256"
        },
        {
          "internalType": "uint256",
          "name": "dsp",
          "type": "uint256"
        }
      ],
      "stateMutability": "view",
      "type": "function"
    },
    {
      "inputs": [],
      "name": "maxLevel",
      "outputs": [
        {
          "internalType": "uint256",
          "name": "",
          "type": "uint256"
        }
      ],
      "stateMutability": "view",
      "type": "function"
    },
    {
      "inputs": [
        {
          "internalType": "address",
          "name": "",
          "type": "address"
        }
      ],
      "name": "maxLevelOfOwner",
      "outputs": [
        {
          "internalType": "uint256",
          "name": "",
          "type": "uint256"
        }
      ],
      "stateMutability": "view",
      "type": "function"
    },
    {
      "inputs": [],
      "name": "minLevel",
      "outputs": [
        {
          "internalType": "uint256",
          "name": "",
          "type": "uint256"
        }
      ],
      "stateMutability": "view",
      "type": "function"
    },
    {
      "inputs": [],
      "name": "mintIsActive",
      "outputs": [
        {
          "internalType": "bool",
          "name": "",
          "type": "bool"
        }
      ],
      "stateMutability": "view",
      "type": "function"
    },
    {
      "inputs": [
        {
          "internalType": "address",
          "name": "_addr",
          "type": "address"
        },
        {
          "internalType": "uint256",
          "name": "_tokenId",
          "type": "uint256"
        }
      ],
      "name": "mintVoyayer",
      "outputs": [],
      "stateMutability": "nonpayable",
      "type": "function"
    },
    {
      "inputs": [],
      "name": "name",
      "outputs": [
        {
          "internalType": "string",
          "name": "",
          "type": "string"
        }
      ],
      "stateMutability": "view",
      "type": "function"
    },
    {
      "inputs": [
        {
          "internalType": "address",
          "name": "",
          "type": "address"
        },
        {
          "internalType": "uint256",
          "name": "",
          "type": "uint256"
        }
      ],
      "name": "ownedVoyagers",
      "outputs": [
        {
          "internalType": "uint8",
          "name": "level",
          "type": "uint8"
        },
        {
          "internalType": "uint256",
          "name": "id",
          "type": "uint256"
        }
      ],
      "stateMutability": "view",
      "type": "function"
    },
    {
      "inputs": [
        {
          "internalType": "uint256",
          "name": "",
          "type": "uint256"
        }
      ],
      "name": "ownedVoyagersIndex",
      "outputs": [
        {
          "internalType": "uint256",
          "name": "",
          "type": "uint256"
        }
      ],
      "stateMutability": "view",
      "type": "function"
    },
    {
      "inputs": [],
      "name": "owner",
      "outputs": [
        {
          "internalType": "address",
          "name": "",
          "type": "address"
        }
      ],
      "stateMutability": "view",
      "type": "function"
    },
    {
      "inputs": [
        {
          "internalType": "uint256",
          "name": "tokenId",
          "type": "uint256"
        }
      ],
      "name": "ownerOf",
      "outputs": [
        {
          "internalType": "address",
          "name": "",
          "type": "address"
        }
      ],
      "stateMutability": "view",
      "type": "function"
    },
    {
      "inputs": [],
      "name": "proxy",
      "outputs": [
        {
          "internalType": "address",
          "name": "",
          "type": "address"
        }
      ],
      "stateMutability": "view",
      "type": "function"
    },
    {
      "inputs": [],
      "name": "renounceOwnership",
      "outputs": [],
      "stateMutability": "nonpayable",
      "type": "function"
    },
    {
      "inputs": [
        {
          "internalType": "address",
          "name": "from",
          "type": "address"
        },
        {
          "internalType": "address",
          "name": "to",
          "type": "address"
        },
        {
          "internalType": "uint256",
          "name": "tokenId",
          "type": "uint256"
        }
      ],
      "name": "safeTransferFrom",
      "outputs": [],
      "stateMutability": "nonpayable",
      "type": "function"
    },
    {
      "inputs": [
        {
          "internalType": "address",
          "name": "from",
          "type": "address"
        },
        {
          "internalType": "address",
          "name": "to",
          "type": "address"
        },
        {
          "internalType": "uint256",
          "name": "tokenId",
          "type": "uint256"
        },
        {
          "internalType": "bytes",
          "name": "_data",
          "type": "bytes"
        }
      ],
      "name": "safeTransferFrom",
      "outputs": [],
      "stateMutability": "nonpayable",
      "type": "function"
    },
    {
      "inputs": [
        {
          "internalType": "address",
          "name": "operator",
          "type": "address"
        },
        {
          "internalType": "bool",
          "name": "approved",
          "type": "bool"
        }
      ],
      "name": "setApprovalForAll",
      "outputs": [],
      "stateMutability": "nonpayable",
      "type": "function"
    },
    {
      "inputs": [
        {
          "internalType": "uint256",
          "name": "",
          "type": "uint256"
        },
        {
          "internalType": "uint256",
          "name": "",
          "type": "uint256"
        }
      ],
      "name": "setByOwner",
      "outputs": [
        {
          "internalType": "bool",
          "name": "",
          "type": "bool"
        }
      ],
      "stateMutability": "view",
      "type": "function"
    },
    {
      "inputs": [
        {
          "internalType": "uint256",
          "name": "_toLevel",
          "type": "uint256"
        },
        {
          "internalType": "uint32",
          "name": "_interval",
          "type": "uint32"
        }
      ],
      "name": "setCoolDown",
      "outputs": [],
      "stateMutability": "nonpayable",
      "type": "function"
    },
    {
      "inputs": [
        {
          "internalType": "address",
          "name": "_addr",
          "type": "address"
        },
        {
          "internalType": "bool",
          "name": "_isExpired",
          "type": "bool"
        }
      ],
      "name": "setExpiredWhitelist",
      "outputs": [],
      "stateMutability": "nonpayable",
      "type": "function"
    },
    {
      "inputs": [
        {
          "internalType": "address",
          "name": "_token1",
          "type": "address"
        }
      ],
      "name": "setFee1TokenAddress",
      "outputs": [],
      "stateMutability": "nonpayable",
      "type": "function"
    },
    {
      "inputs": [
        {
          "internalType": "address",
          "name": "_token2",
          "type": "address"
        }
      ],
      "name": "setFee2TokenAddress",
      "outputs": [],
      "stateMutability": "nonpayable",
      "type": "function"
    },
    {
      "inputs": [
        {
          "internalType": "uint256",
          "name": "tokenId",
          "type": "uint256"
        },
        {
          "internalType": "uint256",
          "name": "level",
          "type": "uint256"
        }
      ],
      "name": "setLevel",
      "outputs": [],
      "stateMutability": "nonpayable",
      "type": "function"
    },
    {
      "inputs": [
        {
          "internalType": "uint256",
          "name": "_toLevel",
          "type": "uint256"
        },
        {
          "internalType": "uint256",
          "name": "_dgt",
          "type": "uint256"
        },
        {
          "internalType": "uint256",
          "name": "_dsp",
          "type": "uint256"
        }
      ],
      "name": "setLevelUpFee",
      "outputs": [],
      "stateMutability": "nonpayable",
      "type": "function"
    },
    {
      "inputs": [
        {
          "internalType": "address",
          "name": "_addr",
          "type": "address"
        },
        {
          "internalType": "uint256",
          "name": "_level",
          "type": "uint256"
        }
      ],
      "name": "setMaxLevelOfOwner",
      "outputs": [],
      "stateMutability": "nonpayable",
      "type": "function"
    },
    {
      "inputs": [
        {
          "internalType": "address",
          "name": "_proxy",
          "type": "address"
        }
      ],
      "name": "setProxy",
      "outputs": [],
      "stateMutability": "nonpayable",
      "type": "function"
    },
    {
      "inputs": [
        {
          "internalType": "uint256",
          "name": "_tokenId",
          "type": "uint256"
        },
        {
          "internalType": "uint256",
          "name": "_level",
          "type": "uint256"
        },
        {
          "internalType": "bool",
          "name": "_isSet",
          "type": "bool"
        }
      ],
      "name": "setSetByOwner",
      "outputs": [],
      "stateMutability": "nonpayable",
      "type": "function"
    },
    {
      "inputs": [
        {
          "internalType": "address",
          "name": "_addr",
          "type": "address"
        },
        {
          "internalType": "uint256",
          "name": "_tokenId",
          "type": "uint256"
        }
      ],
      "name": "setTokenIDWithoutURI",
      "outputs": [],
      "stateMutability": "nonpayable",
      "type": "function"
    },
    {
      "inputs": [
        {
          "internalType": "address",
          "name": "_addr",
          "type": "address"
        },
        {
          "internalType": "uint256",
          "name": "_level",
          "type": "uint256"
        },
        {
          "internalType": "uint256",
          "name": "_amount",
          "type": "uint256"
        }
      ],
      "name": "setTokenLevelCount",
      "outputs": [],
      "stateMutability": "nonpayable",
      "type": "function"
    },
    {
      "inputs": [
        {
          "internalType": "uint256",
          "name": "_amount",
          "type": "uint256"
        }
      ],
      "name": "setTotalMinted",
      "outputs": [],
      "stateMutability": "nonpayable",
      "type": "function"
    },
    {
      "inputs": [
        {
          "internalType": "uint256",
          "name": "_amount",
          "type": "uint256"
        }
      ],
      "name": "setWhitelistExpired",
      "outputs": [],
      "stateMutability": "nonpayable",
      "type": "function"
    },
    {
      "inputs": [
        {
          "internalType": "bytes4",
          "name": "interfaceId",
          "type": "bytes4"
        }
      ],
      "name": "supportsInterface",
      "outputs": [
        {
          "internalType": "bool",
          "name": "",
          "type": "bool"
        }
      ],
      "stateMutability": "view",
      "type": "function"
    },
    {
      "inputs": [],
      "name": "symbol",
      "outputs": [
        {
          "internalType": "string",
          "name": "",
          "type": "string"
        }
      ],
      "stateMutability": "view",
      "type": "function"
    },
    {
      "inputs": [
        {
          "internalType": "string",
          "name": "_string",
          "type": "string"
        }
      ],
      "name": "token0URI",
      "outputs": [],
      "stateMutability": "nonpayable",
      "type": "function"
    },
    {
      "inputs": [
        {
          "internalType": "uint256",
          "name": "index",
          "type": "uint256"
        }
      ],
      "name": "tokenByIndex",
      "outputs": [
        {
          "internalType": "uint256",
          "name": "",
          "type": "uint256"
        }
      ],
      "stateMutability": "view",
      "type": "function"
    },
    {
      "inputs": [
        {
          "internalType": "address",
          "name": "",
          "type": "address"
        },
        {
          "internalType": "uint256",
          "name": "",
          "type": "uint256"
        }
      ],
      "name": "tokenLevelCount",
      "outputs": [
        {
          "internalType": "uint256",
          "name": "",
          "type": "uint256"
        }
      ],
      "stateMutability": "view",
      "type": "function"
    },
    {
      "inputs": [
        {
          "internalType": "address",
          "name": "owner",
          "type": "address"
        },
        {
          "internalType": "uint256",
          "name": "index",
          "type": "uint256"
        }
      ],
      "name": "tokenOfOwnerByIndex",
      "outputs": [
        {
          "internalType": "uint256",
          "name": "",
          "type": "uint256"
        }
      ],
      "stateMutability": "view",
      "type": "function"
    },
    {
      "inputs": [
        {
          "internalType": "uint256",
          "name": "tokenId",
          "type": "uint256"
        }
      ],
      "name": "tokenURI",
      "outputs": [
        {
          "internalType": "string",
          "name": "",
          "type": "string"
        }
      ],
      "stateMutability": "view",
      "type": "function"
    },
    {
      "inputs": [],
      "name": "totalSupply",
      "outputs": [
        {
          "internalType": "uint256",
          "name": "",
          "type": "uint256"
        }
      ],
      "stateMutability": "view",
      "type": "function"
    },
    {
      "inputs": [
        {
          "internalType": "address",
          "name": "_to",
          "type": "address"
        },
        {
          "internalType": "uint256",
          "name": "_tokenId",
          "type": "uint256"
        }
      ],
      "name": "transfer",
      "outputs": [],
      "stateMutability": "nonpayable",
      "type": "function"
    },
    {
      "inputs": [
        {
          "internalType": "address",
          "name": "newAdmin",
          "type": "address"
        }
      ],
      "name": "transferAdmin",
      "outputs": [],
      "stateMutability": "nonpayable",
      "type": "function"
    },
    {
      "inputs": [
        {
          "internalType": "address",
          "name": "from",
          "type": "address"
        },
        {
          "internalType": "address",
          "name": "to",
          "type": "address"
        },
        {
          "internalType": "uint256",
          "name": "tokenId",
          "type": "uint256"
        }
      ],
      "name": "transferFrom",
      "outputs": [],
      "stateMutability": "nonpayable",
      "type": "function"
    },
    {
      "inputs": [
        {
          "internalType": "address",
          "name": "newOwner",
          "type": "address"
        }
      ],
      "name": "transferOwnership",
      "outputs": [],
      "stateMutability": "nonpayable",
      "type": "function"
    },
    {
      "inputs": [
        {
          "internalType": "bytes32",
          "name": "hash",
          "type": "bytes32"
        },
        {
          "internalType": "bytes",
          "name": "signature",
          "type": "bytes"
        }
      ],
      "name": "verified",
      "outputs": [
        {
          "internalType": "bool",
          "name": "",
          "type": "bool"
        }
      ],
      "stateMutability": "view",
      "type": "function"
    },
    {
      "inputs": [
        {
          "internalType": "uint256",
          "name": "",
          "type": "uint256"
        }
      ],
      "name": "voyagers",
      "outputs": [
        {
          "internalType": "uint8",
          "name": "level",
          "type": "uint8"
        },
        {
          "internalType": "uint256",
          "name": "id",
          "type": "uint256"
        }
      ],
      "stateMutability": "view",
      "type": "function"
    }
  ],
  "transactionHash": "0xb7c02e5b431f39b202800441d5f4d80fdf8473dff87fbf1ca3938309f15a7ce5",
  "args": [
    6
  ],
  "solcInputHash": "3c70c77d428e61bb6242bf0749abc803",
  "bytecode": "0x670de0b6b3a764000060085561012060405261070860809081526201518060a0526202a30060c0526205460060e05262093a806101005262000046906009906005620002d1565b506001600a556103e8600c8190556011805460ff60a01b1916600160a01b179055601c553480156200007757600080fd5b506040516200379c3803806200379c8339810160408190526200009a9162000408565b60408051808201825260078152662b37bcb0b3b2b960c91b602080830191825283518085019094526003845262564f4760e81b908401528151919291620000e49160009162000374565b508051620000fa90600190602084019062000374565b50505062000117620001116200013d60201b60201c565b62000141565b6001600f55620001273362000193565b600b81905562000136620001f4565b50620004cf565b3390565b600e80546001600160a01b038381166001600160a01b0319831681179093556040519116919082907f8be0079c531659141344cd1fd0a4f28419497f9722a3daafe3b4186f6b6457e090600090a35050565b601080546001600160a01b038381166001600160a01b031983168117909355604080519190921680825260208201939093527ff8ccb027dfcd135e000e9d45e6cc2d662578a8825d4c45b5e32e0adf67e79ec6910160405180910390a15050565b60005b600b54811015620002ab57600d604051806040016040528062000253600854600a6200022491906200043c565b6200023f600187620002ae60201b62001da61790919060201c565b620002c360201b62001db91790919060201c565b81526020016200026d60085460646200022491906200043c565b905281546001818101845560009384526020938490208351600290930201918255929091015191015580620002a2816200049b565b915050620001f7565b50565b6000620002bc828462000421565b9392505050565b6000620002bc82846200043c565b600183019183908215620003625791602002820160005b838211156200032e57835183826101000a81548163ffffffff021916908363ffffffff1602179055509260200192600401602081600301049283019260010302620002e8565b8015620003605782816101000a81549063ffffffff02191690556004016020816003010492830192600103026200032e565b505b5062000370929150620003f1565b5090565b82805462000382906200045e565b90600052602060002090601f016020900481019282620003a6576000855562000362565b82601f10620003c157805160ff191683800117855562000362565b8280016001018555821562000362579182015b8281111562000362578251825591602001919060010190620003d4565b5b80821115620003705760008155600101620003f2565b6000602082840312156200041a578081fd5b5051919050565b60008219821115620004375762000437620004b9565b500190565b6000816000190483118215151615620004595762000459620004b9565b500290565b600181811c908216806200047357607f821691505b602082108114156200049557634e487b7160e01b600052602260045260246000fd5b50919050565b6000600019821415620004b257620004b2620004b9565b5060010190565b634e487b7160e01b600052601160045260246000fd5b6132bd80620004df6000396000f3fe608060405234801561001057600080fd5b50600436106104125760003560e01c806375829def11610220578063a1b3d1ff11610130578063ca0a9e3d116100b8578063e985e9c511610087578063e985e9c514610a1f578063ec55688914610a5b578063f018525514610a6e578063f2fde38b14610a76578063f851a44014610a8957600080fd5b8063ca0a9e3d146109c2578063cc06c359146109d5578063d1d26b28146109de578063e3e7688a14610a0c57600080fd5b8063aa924920116100ff578063aa92492014610955578063b88d4fde14610981578063b9e1bbf914610994578063c2e8dd4a1461099c578063c87b56dd146109af57600080fd5b8063a1b3d1ff14610909578063a22cb4651461091c578063a9059cbb1461092f578063a94ad6961461094257600080fd5b80638ef10c28116101b357806396fe42881161018257806396fe42881461088957806397107d6d14610892578063984027a7146108a55780639d472071146108ce5780639d6fac6f146108e157600080fd5b80638ef10c281461080a57806393d0b35414610836578063942eb8c31461086e57806395d89b411461088157600080fd5b8063860998b8116101ef578063860998b8146107cb57806386481d40146107d35780638a834ff6146107e65780638da5cb5b146107f957600080fd5b806375829def146107545780637e5ea2821461076757806380ea5a831461079857806384a55c20146107ab57600080fd5b80632f745c5911610326578063471a4294116102ae5780636d3f450b1161027d5780636d3f450b146106c257806370a08231146106f857806370a93b361461070b578063715018a61461071e5780637538bcfd1461072657600080fd5b8063471a4294146106755780634f6ccce7146106895780636352211e1461069c578063682fffaf146106af57600080fd5b8063378dc3dc116102f5578063378dc3dc1461060857806338e514fe146106115780633a0ccef11461062457806342842e0e1461064f578063440372f81461066257600080fd5b80632f745c59146105b9578063313ce567146105cc57806334f15bd7146105d55780633764d924146105e857600080fd5b8063143e7d56116103a95780631e5d9e1b116103785780631e5d9e1b1461054b5780632369e9e31461056b57806323b872dd1461058b57806325ebda5b1461059e5780632f40faf7146105a657600080fd5b8063143e7d56146104f557806316dbf9061461050857806318160ddd1461051b5780631dd3a3651461052357600080fd5b8063095ea7b3116103e5578063095ea7b3146104945780630ca1c5c9146104a75780630d2176ed146104b95780630e4d6205146104cc57600080fd5b8063015388681461041757806301ffc9a71461042c57806306fdde0314610454578063081812fc14610469575b600080fd5b61042a610425366004612e4d565b610a9a565b005b61043f61043a366004612e92565b610b6a565b60405190151581526020015b60405180910390f35b61045c610b95565b60405161044b9190613062565b61047c610477366004612efd565b610c27565b6040516001600160a01b03909116815260200161044b565b61042a6104a2366004612dee565b610cbc565b601d545b60405190815260200161044b565b61042a6104c7366004612dee565b610dcd565b6104ab6104da366004612ca0565b6001600160a01b03166000908152601a602052604090205490565b61042a610503366004612f6a565b610e13565b61042a610516366004612efd565b610fc5565b6012546104ab565b610536610531366004612efd565b610ff4565b6040805192835260208301919091520161044b565b6104ab610559366004612ca0565b60166020526000908152604090205481565b6104ab610579366004612efd565b60156020526000908152604090205481565b61042a610599366004612d10565b611022565b601e546104ab565b6105366105b4366004612efd565b611053565b6104ab6105c7366004612dee565b6110c5565b6104ab60085481565b61043f6105e3366004612e4d565b61115e565b6104ab6105f6366004612efd565b60146020526000908152604090205481565b6104ab600c5481565b60075461047c906001600160a01b031681565b6104ab610632366004612dee565b601760209081526000928352604080842090915290825290205481565b61042a61065d366004612d10565b611216565b61042a610670366004612efd565b611231565b60115461043f90600160a01b900460ff1681565b6104ab610697366004612efd565b611260565b61047c6106aa366004612efd565b611308565b61042a6106bd366004612f36565b61137f565b6104ab6106d0366004612dee565b6001600160a01b03919091166000908152601760209081526040808320938352929052205490565b6104ab610706366004612ca0565b6113d3565b61042a610719366004612f15565b61145a565b61042a6114dc565b61043f610734366004612f15565b600091825260196020908152604080842092845291905290205460ff1690565b61042a610762366004612ca0565b611512565b61077a610775366004612efd565b6115b3565b60408051825160ff168152602092830151928101929092520161044b565b61042a6107a6366004612e19565b61161b565b6104ab6107b9366004612efd565b60009081526015602052604090205490565b601c546104ab565b6104ab6107e1366004612efd565b61166b565b61042a6107f4366004612dee565b6116b7565b600e546001600160a01b031661047c565b61081d610818366004612efd565b6116ef565b6040805160ff909316835260208301919091520161044b565b61081d610844366004612dee565b60136020908152600092835260408084209091529082529020805460019091015460ff9091169082565b61042a61087c366004612ca0565b611721565b61045c61176d565b6104ab600a5481565b61042a6108a0366004612ca0565b61177c565b6104ab6108b3366004612ca0565b6001600160a01b031660009081526016602052604090205490565b61042a6108dc366004612dee565b611810565b6108f46108ef366004612efd565b611856565b60405163ffffffff909116815260200161044b565b61042a610917366004612eca565b611886565b61042a61092a366004612dba565b6118c3565b61042a61093d366004612dee565b611988565b61042a610950366004612f95565b6119a3565b61043f610963366004612ca0565b6001600160a01b03166000908152601b602052604090205460ff1690565b61042a61098f366004612d50565b611a7e565b61045c611ab6565b61042a6109aa366004612ca0565b611ac5565b61045c6109bd366004612efd565b611b11565b61042a6109d0366004612dba565b611c2f565b6104ab600b5481565b61043f6109ec366004612f15565b601960209081526000928352604080842090915290825290205460ff1681565b60065461047c906001600160a01b031681565b61043f610a2d366004612cd8565b6001600160a01b03918216600090815260056020908152604080832093909416825291909152205460ff1690565b60115461047c906001600160a01b031681565b61042a611c84565b61042a610a84366004612ca0565b611d0e565b6010546001600160a01b031661047c565b6011546001600160a01b03163314610acd5760405162461bcd60e51b8152600401610ac4906130fc565b60405180910390fd5b6000828152600260205260409020546001600160a01b0316610b465760405162461bcd60e51b815260206004820152602c60248201527f4552433732314d657461646174613a2055524920736574206f66206e6f6e657860448201526b34b9ba32b73a103a37b5b2b760a11b6064820152608401610ac4565b60008281526018602090815260409091208251610b6592840190612b6b565b505050565b60006001600160e01b0319821663780e9d6360e01b1480610b8f5750610b8f82611dc5565b92915050565b606060008054610ba4906131f5565b80601f0160208091040260200160405190810160405280929190818152602001828054610bd0906131f5565b8015610c1d5780601f10610bf257610100808354040283529160200191610c1d565b820191906000526020600020905b815481529060010190602001808311610c0057829003601f168201915b5050505050905090565b6000818152600260205260408120546001600160a01b0316610ca05760405162461bcd60e51b815260206004820152602c60248201527f4552433732313a20617070726f76656420717565727920666f72206e6f6e657860448201526b34b9ba32b73a103a37b5b2b760a11b6064820152608401610ac4565b506000908152600460205260409020546001600160a01b031690565b6000610cc782611308565b9050806001600160a01b0316836001600160a01b03161415610d355760405162461bcd60e51b815260206004820152602160248201527f4552433732313a20617070726f76616c20746f2063757272656e74206f776e656044820152603960f91b6064820152608401610ac4565b336001600160a01b0382161480610d515750610d518133610a2d565b610dc35760405162461bcd60e51b815260206004820152603860248201527f4552433732313a20617070726f76652063616c6c6572206973206e6f74206f7760448201527f6e6572206e6f7220617070726f76656420666f7220616c6c00000000000000006064820152608401610ac4565b610b658383611e15565b6011546001600160a01b03163314610df75760405162461bcd60e51b8152600401610ac4906130fc565b6001600160a01b03909116600090815260166020526040902055565b600e546001600160a01b03163314610e3d5760405162461bcd60e51b8152600401610ac4906130c7565b600b54831115610e805760405162461bcd60e51b815260206004820152600e60248201526d13dd995c881b585e081b195d995b60921b6044820152606401610ac4565b610e8b6001846131c7565b600d541015610ed55760405162461bcd60e51b81526020600482015260166024820152751059190819995948199c9bdb481b1bddc81b195d995b60521b6044820152606401610ac4565b610ee06001846131c7565b600d541415610f62576040805180820190915291825260208201908152600d805460018101825560009190915291517fd7b6990105719101dabeb77144f2a3385c8033acd3af97e9423a695e81ad1eb5600290930292830155517fd7b6990105719101dabeb77144f2a3385c8033acd3af97e9423a695e81ad1eb69091015550565b6040805180820190915282815260208101829052600d610f836001866131c7565b81548110610fa157634e487b7160e01b600052603260045260246000fd5b60009182526020918290208351600290920201908155910151600190910155505050565b6011546001600160a01b03163314610fef5760405162461bcd60e51b8152600401610ac4906130fc565b601d55565b600d818154811061100457600080fd5b60009182526020909120600290910201805460019091015490915082565b61102c3382611e83565b6110485760405162461bcd60e51b8152600401610ac49061313f565b610b65838383611f7a565b600080600d838154811061107757634e487b7160e01b600052603260045260246000fd5b906000526020600020906002020160000154600d84815481106110aa57634e487b7160e01b600052603260045260246000fd5b90600052602060002090600202016001015491509150915091565b60006110d0836113d3565b82106111325760405162461bcd60e51b815260206004820152602b60248201527f455243373231456e756d657261626c653a206f776e657220696e646578206f7560448201526a74206f6620626f756e647360a81b6064820152608401610ac4565b506001600160a01b03919091166000908152601360209081526040808320938352929052206001015490565b6040516319045a2560e01b8152600090736748dAeA9f2F668ED4a425000E4d61b07797CA75906319045a259061119a9086908690600401613049565b60206040518083038186803b1580156111b257600080fd5b505af41580156111c6573d6000803e3d6000fd5b505050506040513d601f19601f820116820180604052508101906111ea9190612cbc565b6001600160a01b03166112056010546001600160a01b031690565b6001600160a01b0316149392505050565b610b6583838360405180602001604052806000815250611a7e565b6011546001600160a01b0316331461125b5760405162461bcd60e51b8152600401610ac4906130fc565b601e55565b600061126b60125490565b82106112ce5760405162461bcd60e51b815260206004820152602c60248201527f455243373231456e756d657261626c653a20676c6f62616c20696e646578206f60448201526b7574206f6620626f756e647360a01b6064820152608401610ac4565b601282815481106112ef57634e487b7160e01b600052603260045260246000fd5b9060005260206000209060020201600101549050919050565b6000818152600260205260408120546001600160a01b031680610b8f5760405162461bcd60e51b815260206004820152602960248201527f4552433732313a206f776e657220717565727920666f72206e6f6e657869737460448201526832b73a103a37b5b2b760b91b6064820152608401610ac4565b6011546001600160a01b031633146113a95760405162461bcd60e51b8152600401610ac4906130fc565b60009283526019602090815260408085209385529290529120805460ff1916911515919091179055565b60006001600160a01b03821661143e5760405162461bcd60e51b815260206004820152602a60248201527f4552433732313a2062616c616e636520717565727920666f7220746865207a65604482015269726f206164647265737360b01b6064820152608401610ac4565b506001600160a01b031660009081526003602052604090205490565b6011546001600160a01b031633146114845760405162461bcd60e51b8152600401610ac4906130fc565b6000828152601560205260409020546012805483929081106114b657634e487b7160e01b600052603260045260246000fd5b60009182526020909120600290910201805460ff191660ff929092169190911790555050565b600e546001600160a01b031633146115065760405162461bcd60e51b8152600401610ac4906130c7565b6115106000612125565b565b600e546001600160a01b0316331461153c5760405162461bcd60e51b8152600401610ac4906130c7565b6001600160a01b0381166115a75760405162461bcd60e51b815260206004820152602c60248201527f496e76616c69642041646d696e3a206e65772061646d696e206973207468652060448201526b7a65726f206164647265737360a01b6064820152608401610ac4565b6115b081612177565b50565b6040805180820190915260008082526020820152601282815481106115e857634e487b7160e01b600052603260045260246000fd5b600091825260209182902060408051808201909152600290920201805460ff168252600101549181019190915292915050565b6011546001600160a01b031633146116455760405162461bcd60e51b8152600401610ac4906130fc565b6001600160a01b0390921660009081526017602090815260408083209383529290522055565b60008181526015602052604081205460128054909190811061169d57634e487b7160e01b600052603260045260246000fd5b600091825260209091206002909102015460ff1692915050565b6011546001600160a01b031633146116e15760405162461bcd60e51b8152600401610ac4906130fc565b6116eb82826121d8565b5050565b601281815481106116ff57600080fd5b60009182526020909120600290910201805460019091015460ff909116915082565b6011546001600160a01b0316331461174b5760405162461bcd60e51b8152600401610ac4906130fc565b600680546001600160a01b0319166001600160a01b0392909216919091179055565b606060018054610ba4906131f5565b600e546001600160a01b031633146117a65760405162461bcd60e51b8152600401610ac4906130c7565b6001600160a01b0381166117ee5760405162461bcd60e51b815260206004820152600f60248201526e496e76616c6964204164647265737360881b6044820152606401610ac4565b601180546001600160a01b0319166001600160a01b0392909216919091179055565b6011546001600160a01b0316331461183a5760405162461bcd60e51b8152600401610ac4906130fc565b6001600160a01b039091166000908152601a6020526040902055565b6009816005811061186657600080fd5b60089182820401919006600402915054906101000a900463ffffffff1681565b6011546001600160a01b031633146118b05760405162461bcd60e51b8152600401610ac4906130fc565b80516116eb90601f906020840190612b6b565b6001600160a01b03821633141561191c5760405162461bcd60e51b815260206004820152601960248201527f4552433732313a20617070726f766520746f2063616c6c6572000000000000006044820152606401610ac4565b3360008181526005602090815260408083206001600160a01b03871680855290835292819020805460ff191686151590811790915590519081529192917f17307eab39ab6107e8899845ad3d59bd9653f200f220920489ca2b5937696c31910160405180910390a35050565b6116eb338383604051806020016040528060008152506121f2565b600e546001600160a01b031633146119cd5760405162461bcd60e51b8152600401610ac4906130c7565b6001821180156119e857506119e460056001611da6565b8211155b611a255760405162461bcd60e51b815260206004820152600e60248201526d13dd995c881b585e081b195d995b60921b6044820152606401610ac4565b806009611a336002856131c7565b60058110611a5157634e487b7160e01b600052603260045260246000fd5b600891828204019190066004026101000a81548163ffffffff021916908363ffffffff1602179055505050565b611a883383611e83565b611aa45760405162461bcd60e51b8152600401610ac49061313f565b611ab0848484846121f2565b50505050565b6060601f8054610ba4906131f5565b6011546001600160a01b03163314611aef5760405162461bcd60e51b8152600401610ac4906130fc565b600780546001600160a01b0319166001600160a01b0392909216919091179055565b6000818152600260205260409020546060906001600160a01b0316611b905760405162461bcd60e51b815260206004820152602f60248201527f4552433732314d657461646174613a2055524920717565727920666f72206e6f60448201526e3732bc34b9ba32b73a103a37b5b2b760891b6064820152608401610ac4565b60008281526018602052604081208054611ba9906131f5565b80601f0160208091040260200160405190810160405280929190818152602001828054611bd5906131f5565b8015611c225780601f10611bf757610100808354040283529160200191611c22565b820191906000526020600020905b815481529060010190602001808311611c0557829003601f168201915b5093979650505050505050565b6011546001600160a01b03163314611c595760405162461bcd60e51b8152600401610ac4906130fc565b6001600160a01b03919091166000908152601b60205260409020805460ff1916911515919091179055565b6010546001600160a01b03163314611ced5760405162461bcd60e51b815260206004820152602660248201527f496e76616c69642041646d696e3a2063616c6c6572206973206e6f74207468656044820152651030b236b4b760d11b6064820152608401610ac4565b6011805460ff60a01b198116600160a01b9182900460ff1615909102179055565b600e546001600160a01b03163314611d385760405162461bcd60e51b8152600401610ac4906130c7565b6001600160a01b038116611d9d5760405162461bcd60e51b815260206004820152602660248201527f4f776e61626c653a206e6577206f776e657220697320746865207a65726f206160448201526564647265737360d01b6064820152608401610ac4565b6115b081612125565b6000611db28284613190565b9392505050565b6000611db282846131a8565b60006001600160e01b031982166380ac58cd60e01b1480611df657506001600160e01b03198216635b5e139f60e01b145b80610b8f57506301ffc9a760e01b6001600160e01b0319831614610b8f565b600081815260046020526040902080546001600160a01b0319166001600160a01b0384169081179091558190611e4a82611308565b6001600160a01b03167f8c5be1e5ebec7d5bd14f71427d1e84f3dd0314c0f7b2291e5b200ac8c7c3b92560405160405180910390a45050565b6000818152600260205260408120546001600160a01b0316611efc5760405162461bcd60e51b815260206004820152602c60248201527f4552433732313a206f70657261746f7220717565727920666f72206e6f6e657860448201526b34b9ba32b73a103a37b5b2b760a11b6064820152608401610ac4565b6000611f0783611308565b9050806001600160a01b0316846001600160a01b03161480611f425750836001600160a01b0316611f3784610c27565b6001600160a01b0316145b80611f7257506001600160a01b0380821660009081526005602090815260408083209388168352929052205460ff165b949350505050565b826001600160a01b0316611f8d82611308565b6001600160a01b031614611ff55760405162461bcd60e51b815260206004820152602960248201527f4552433732313a207472616e73666572206f6620746f6b656e2074686174206960448201526839903737ba1037bbb760b91b6064820152608401610ac4565b6001600160a01b0382166120575760405162461bcd60e51b8152602060048201526024808201527f4552433732313a207472616e7366657220746f20746865207a65726f206164646044820152637265737360e01b6064820152608401610ac4565b612062838383612225565b61206d600082611e15565b6001600160a01b03831660009081526003602052604081208054600192906120969084906131c7565b90915550506001600160a01b03821660009081526003602052604081208054600192906120c4908490613190565b909155505060008181526002602052604080822080546001600160a01b0319166001600160a01b0386811691821790925591518493918716917fddf252ad1be2c89b69c2b068fc378daa952ba7f163c4a11628f55a4df523b3ef91a4505050565b600e80546001600160a01b038381166001600160a01b0319831681179093556040519116919082907f8be0079c531659141344cd1fd0a4f28419497f9722a3daafe3b4186f6b6457e090600090a35050565b601080546001600160a01b038381166001600160a01b031983168117909355604080519190921680825260208201939093527ff8ccb027dfcd135e000e9d45e6cc2d662578a8825d4c45b5e32e0adf67e79ec6910160405180910390a15050565b6116eb82826040518060200160405280600081525061233a565b6121fd848484611f7a565b6122098484848461236d565b611ab05760405162461bcd60e51b8152600401610ac490613075565b6001600160a01b0383166122415761223c8161247a565b61226e565b816001600160a01b0316836001600160a01b03161461226e5761226483826125a9565b61226e8382612668565b6001600160a01b03821661228557610b65816127f0565b826001600160a01b0316826001600160a01b031614610b65576122a882826128fb565b6122b28282612993565b6001600160a01b0382166000908152601760209081526040808320848452601590925282205460128054600194929081106122fd57634e487b7160e01b600052603260045260246000fd5b6000918252602080832060029092029091015460ff16835282019290925260400181208054909190612330908490613190565b9091555050505050565b6123448383612a1d565b612351600084848461236d565b610b655760405162461bcd60e51b8152600401610ac490613075565b60006001600160a01b0384163b1561246f57604051630a85bd0160e11b81526001600160a01b0385169063150b7a02906123b190339089908890889060040161300c565b602060405180830381600087803b1580156123cb57600080fd5b505af19250505080156123fb575060408051601f3d908101601f191682019092526123f891810190612eae565b60015b612455573d808015612429576040519150601f19603f3d011682016040523d82523d6000602084013e61242e565b606091505b50805161244d5760405162461bcd60e51b8152600401610ac490613075565b805181602001fd5b6001600160e01b031916630a85bd0160e11b149050611f72565b506001949350505050565b6012546000828152601560205260409020558061251d5760408051808201909152600b5460ff9081168252602082019283526012805460018101825560009190915291517fbb8a6a4669ba250d26cd7a459eca9d215f8307e33aebe50379bc5a3617ec34446002909302928301805460ff19169190921617905590517fbb8a6a4669ba250d26cd7a459eca9d215f8307e33aebe50379bc5a3617ec344590910155565b60408051808201909152600a5460ff9081168252602082019283526012805460018101825560009190915291517fbb8a6a4669ba250d26cd7a459eca9d215f8307e33aebe50379bc5a3617ec34446002909302928301805460ff19169190921617905590517fbb8a6a4669ba250d26cd7a459eca9d215f8307e33aebe50379bc5a3617ec344590910155565b600060016125b6846113d3565b6125c091906131c7565b60008381526014602052604090205490915080821461262a576001600160a01b038416600090815260136020908152604080832085845282528083208484528184208154815460ff191660ff90911617815560019182015491018190558352601490915290208190555b5060009182526014602090815260408084208490556001600160a01b0390941683526013815283832091835252908120805460ff1916815560010155565b60008181526015602052604081205460128054909190811061269a57634e487b7160e01b600052603260045260246000fd5b600091825260208083206002909202909101546001600160a01b0386168352601690915260409091205460ff909116915081111561270b5760405162461bcd60e51b815260206004820152600e60248201526d098caeccad840deeccae440dac2f60931b6044820152606401610ac4565b6001600160a01b0383166000908152601760209081526040808320848452909152812080546001929061273f9084906131c7565b9091555061274e9050836113d3565b61276e5750506001600160a01b0316600090815260166020526040812055565b6001600160a01b038316600090815260166020526040902054811415610b65575b8015610b65576001600160a01b0383166000908152601760209081526040808320848452909152902054156127de576001600160a01b0383166000908152601660205260409020819055505050565b806127e8816131de565b91505061278f565b601254600090612802906001906131c7565b6000838152601560205260408120546012805493945090928490811061283857634e487b7160e01b600052603260045260246000fd5b90600052602060002090600202019050806012838154811061286a57634e487b7160e01b600052603260045260246000fd5b600091825260208083208454600290930201805460ff191660ff909316929092178255600193840154918401919091559183015481526015909152604080822084905585825281205560128054806128d257634e487b7160e01b600052603160045260246000fd5b600082815260208120600260001990930192830201805460ff1916815560010155905550505050565b6000612906836113d3565b6000838152601560205260409020546012805492935091811061293957634e487b7160e01b600052603260045260246000fd5b600091825260208083206001600160a01b039096168352601381526040808420858552825280842060029093029096018054835460ff191660ff909116178355600190810154920191909155928152601490925291902055565b6000818152601560205260408120546012805490919081106129c557634e487b7160e01b600052603260045260246000fd5b600091825260208083206002909202909101546001600160a01b0386168352601690915260409091205460ff9091169150811115610b65576001600160a01b0383166000908152601660205260409020819055505050565b6001600160a01b038216612a735760405162461bcd60e51b815260206004820181905260248201527f4552433732313a206d696e7420746f20746865207a65726f20616464726573736044820152606401610ac4565b6000818152600260205260409020546001600160a01b031615612ad85760405162461bcd60e51b815260206004820152601c60248201527f4552433732313a20746f6b656e20616c7265616479206d696e746564000000006044820152606401610ac4565b612ae460008383612225565b6001600160a01b0382166000908152600360205260408120805460019290612b0d908490613190565b909155505060008181526002602052604080822080546001600160a01b0319166001600160a01b03861690811790915590518392907fddf252ad1be2c89b69c2b068fc378daa952ba7f163c4a11628f55a4df523b3ef908290a45050565b828054612b77906131f5565b90600052602060002090601f016020900481019282612b995760008555612bdf565b82601f10612bb257805160ff1916838001178555612bdf565b82800160010185558215612bdf579182015b82811115612bdf578251825591602001919060010190612bc4565b50612beb929150612bef565b5090565b5b80821115612beb5760008155600101612bf0565b80358015158114612c1457600080fd5b919050565b600082601f830112612c29578081fd5b813567ffffffffffffffff80821115612c4457612c44613246565b604051601f8301601f19908116603f01168101908282118183101715612c6c57612c6c613246565b81604052838152866020858801011115612c84578485fd5b8360208701602083013792830160200193909352509392505050565b600060208284031215612cb1578081fd5b8135611db28161325c565b600060208284031215612ccd578081fd5b8151611db28161325c565b60008060408385031215612cea578081fd5b8235612cf58161325c565b91506020830135612d058161325c565b809150509250929050565b600080600060608486031215612d24578081fd5b8335612d2f8161325c565b92506020840135612d3f8161325c565b929592945050506040919091013590565b60008060008060808587031215612d65578081fd5b8435612d708161325c565b93506020850135612d808161325c565b925060408501359150606085013567ffffffffffffffff811115612da2578182fd5b612dae87828801612c19565b91505092959194509250565b60008060408385031215612dcc578182fd5b8235612dd78161325c565b9150612de560208401612c04565b90509250929050565b60008060408385031215612e00578182fd5b8235612e0b8161325c565b946020939093013593505050565b600080600060608486031215612e2d578283fd5b8335612e388161325c565b95602085013595506040909401359392505050565b60008060408385031215612e5f578182fd5b82359150602083013567ffffffffffffffff811115612e7c578182fd5b612e8885828601612c19565b9150509250929050565b600060208284031215612ea3578081fd5b8135611db281613271565b600060208284031215612ebf578081fd5b8151611db281613271565b600060208284031215612edb578081fd5b813567ffffffffffffffff811115612ef1578182fd5b611f7284828501612c19565b600060208284031215612f0e578081fd5b5035919050565b60008060408385031215612f27578182fd5b50508035926020909101359150565b600080600060608486031215612f4a578081fd5b8335925060208401359150612f6160408501612c04565b90509250925092565b600080600060608486031215612f7e578081fd5b505081359360208301359350604090920135919050565b60008060408385031215612fa7578182fd5b82359150602083013563ffffffff81168114612d05578182fd5b60008151808452815b81811015612fe657602081850181015186830182015201612fca565b81811115612ff75782602083870101525b50601f01601f19169290920160200192915050565b6001600160a01b038581168252841660208201526040810183905260806060820181905260009061303f90830184612fc1565b9695505050505050565b828152604060208201526000611f726040830184612fc1565b602081526000611db26020830184612fc1565b60208082526032908201527f4552433732313a207472616e7366657220746f206e6f6e20455243373231526560408201527131b2b4bb32b91034b6b83632b6b2b73a32b960711b606082015260800190565b6020808252818101527f4f776e61626c653a2063616c6c6572206973206e6f7420746865206f776e6572604082015260600190565b60208082526023908201527f4e6f74205065726d69743a2063616c6c6572206973206e6f74207468652070726040820152626f787960e81b606082015260800190565b60208082526031908201527f4552433732313a207472616e736665722063616c6c6572206973206e6f74206f6040820152701ddb995c881b9bdc88185c1c1c9bdd9959607a1b606082015260800190565b600082198211156131a3576131a3613230565b500190565b60008160001904831182151516156131c2576131c2613230565b500290565b6000828210156131d9576131d9613230565b500390565b6000816131ed576131ed613230565b506000190190565b600181811c9082168061320957607f821691505b6020821081141561322a57634e487b7160e01b600052602260045260246000fd5b50919050565b634e487b7160e01b600052601160045260246000fd5b634e487b7160e01b600052604160045260246000fd5b6001600160a01b03811681146115b057600080fd5b6001600160e01b0319811681146115b057600080fdfea2646970667358221220249638a9037577bad8ab6710c54513f2359b47457bca309bd64bcfc7033621ab64736f6c63430008040033",
  "deployedBytecode": "0x608060405234801561001057600080fd5b50600436106104125760003560e01c806375829def11610220578063a1b3d1ff11610130578063ca0a9e3d116100b8578063e985e9c511610087578063e985e9c514610a1f578063ec55688914610a5b578063f018525514610a6e578063f2fde38b14610a76578063f851a44014610a8957600080fd5b8063ca0a9e3d146109c2578063cc06c359146109d5578063d1d26b28146109de578063e3e7688a14610a0c57600080fd5b8063aa924920116100ff578063aa92492014610955578063b88d4fde14610981578063b9e1bbf914610994578063c2e8dd4a1461099c578063c87b56dd146109af57600080fd5b8063a1b3d1ff14610909578063a22cb4651461091c578063a9059cbb1461092f578063a94ad6961461094257600080fd5b80638ef10c28116101b357806396fe42881161018257806396fe42881461088957806397107d6d14610892578063984027a7146108a55780639d472071146108ce5780639d6fac6f146108e157600080fd5b80638ef10c281461080a57806393d0b35414610836578063942eb8c31461086e57806395d89b411461088157600080fd5b8063860998b8116101ef578063860998b8146107cb57806386481d40146107d35780638a834ff6146107e65780638da5cb5b146107f957600080fd5b806375829def146107545780637e5ea2821461076757806380ea5a831461079857806384a55c20146107ab57600080fd5b80632f745c5911610326578063471a4294116102ae5780636d3f450b1161027d5780636d3f450b146106c257806370a08231146106f857806370a93b361461070b578063715018a61461071e5780637538bcfd1461072657600080fd5b8063471a4294146106755780634f6ccce7146106895780636352211e1461069c578063682fffaf146106af57600080fd5b8063378dc3dc116102f5578063378dc3dc1461060857806338e514fe146106115780633a0ccef11461062457806342842e0e1461064f578063440372f81461066257600080fd5b80632f745c59146105b9578063313ce567146105cc57806334f15bd7146105d55780633764d924146105e857600080fd5b8063143e7d56116103a95780631e5d9e1b116103785780631e5d9e1b1461054b5780632369e9e31461056b57806323b872dd1461058b57806325ebda5b1461059e5780632f40faf7146105a657600080fd5b8063143e7d56146104f557806316dbf9061461050857806318160ddd1461051b5780631dd3a3651461052357600080fd5b8063095ea7b3116103e5578063095ea7b3146104945780630ca1c5c9146104a75780630d2176ed146104b95780630e4d6205146104cc57600080fd5b8063015388681461041757806301ffc9a71461042c57806306fdde0314610454578063081812fc14610469575b600080fd5b61042a610425366004612e4d565b610a9a565b005b61043f61043a366004612e92565b610b6a565b60405190151581526020015b60405180910390f35b61045c610b95565b60405161044b9190613062565b61047c610477366004612efd565b610c27565b6040516001600160a01b03909116815260200161044b565b61042a6104a2366004612dee565b610cbc565b601d545b60405190815260200161044b565b61042a6104c7366004612dee565b610dcd565b6104ab6104da366004612ca0565b6001600160a01b03166000908152601a602052604090205490565b61042a610503366004612f6a565b610e13565b61042a610516366004612efd565b610fc5565b6012546104ab565b610536610531366004612efd565b610ff4565b6040805192835260208301919091520161044b565b6104ab610559366004612ca0565b60166020526000908152604090205481565b6104ab610579366004612efd565b60156020526000908152604090205481565b61042a610599366004612d10565b611022565b601e546104ab565b6105366105b4366004612efd565b611053565b6104ab6105c7366004612dee565b6110c5565b6104ab60085481565b61043f6105e3366004612e4d565b61115e565b6104ab6105f6366004612efd565b60146020526000908152604090205481565b6104ab600c5481565b60075461047c906001600160a01b031681565b6104ab610632366004612dee565b601760209081526000928352604080842090915290825290205481565b61042a61065d366004612d10565b611216565b61042a610670366004612efd565b611231565b60115461043f90600160a01b900460ff1681565b6104ab610697366004612efd565b611260565b61047c6106aa366004612efd565b611308565b61042a6106bd366004612f36565b61137f565b6104ab6106d0366004612dee565b6001600160a01b03919091166000908152601760209081526040808320938352929052205490565b6104ab610706366004612ca0565b6113d3565b61042a610719366004612f15565b61145a565b61042a6114dc565b61043f610734366004612f15565b600091825260196020908152604080842092845291905290205460ff1690565b61042a610762366004612ca0565b611512565b61077a610775366004612efd565b6115b3565b60408051825160ff168152602092830151928101929092520161044b565b61042a6107a6366004612e19565b61161b565b6104ab6107b9366004612efd565b60009081526015602052604090205490565b601c546104ab565b6104ab6107e1366004612efd565b61166b565b61042a6107f4366004612dee565b6116b7565b600e546001600160a01b031661047c565b61081d610818366004612efd565b6116ef565b6040805160ff909316835260208301919091520161044b565b61081d610844366004612dee565b60136020908152600092835260408084209091529082529020805460019091015460ff9091169082565b61042a61087c366004612ca0565b611721565b61045c61176d565b6104ab600a5481565b61042a6108a0366004612ca0565b61177c565b6104ab6108b3366004612ca0565b6001600160a01b031660009081526016602052604090205490565b61042a6108dc366004612dee565b611810565b6108f46108ef366004612efd565b611856565b60405163ffffffff909116815260200161044b565b61042a610917366004612eca565b611886565b61042a61092a366004612dba565b6118c3565b61042a61093d366004612dee565b611988565b61042a610950366004612f95565b6119a3565b61043f610963366004612ca0565b6001600160a01b03166000908152601b602052604090205460ff1690565b61042a61098f366004612d50565b611a7e565b61045c611ab6565b61042a6109aa366004612ca0565b611ac5565b61045c6109bd366004612efd565b611b11565b61042a6109d0366004612dba565b611c2f565b6104ab600b5481565b61043f6109ec366004612f15565b601960209081526000928352604080842090915290825290205460ff1681565b60065461047c906001600160a01b031681565b61043f610a2d366004612cd8565b6001600160a01b03918216600090815260056020908152604080832093909416825291909152205460ff1690565b60115461047c906001600160a01b031681565b61042a611c84565b61042a610a84366004612ca0565b611d0e565b6010546001600160a01b031661047c565b6011546001600160a01b03163314610acd5760405162461bcd60e51b8152600401610ac4906130fc565b60405180910390fd5b6000828152600260205260409020546001600160a01b0316610b465760405162461bcd60e51b815260206004820152602c60248201527f4552433732314d657461646174613a2055524920736574206f66206e6f6e657860448201526b34b9ba32b73a103a37b5b2b760a11b6064820152608401610ac4565b60008281526018602090815260409091208251610b6592840190612b6b565b505050565b60006001600160e01b0319821663780e9d6360e01b1480610b8f5750610b8f82611dc5565b92915050565b606060008054610ba4906131f5565b80601f0160208091040260200160405190810160405280929190818152602001828054610bd0906131f5565b8015610c1d5780601f10610bf257610100808354040283529160200191610c1d565b820191906000526020600020905b815481529060010190602001808311610c0057829003601f168201915b5050505050905090565b6000818152600260205260408120546001600160a01b0316610ca05760405162461bcd60e51b815260206004820152602c60248201527f4552433732313a20617070726f76656420717565727920666f72206e6f6e657860448201526b34b9ba32b73a103a37b5b2b760a11b6064820152608401610ac4565b506000908152600460205260409020546001600160a01b031690565b6000610cc782611308565b9050806001600160a01b0316836001600160a01b03161415610d355760405162461bcd60e51b815260206004820152602160248201527f4552433732313a20617070726f76616c20746f2063757272656e74206f776e656044820152603960f91b6064820152608401610ac4565b336001600160a01b0382161480610d515750610d518133610a2d565b610dc35760405162461bcd60e51b815260206004820152603860248201527f4552433732313a20617070726f76652063616c6c6572206973206e6f74206f7760448201527f6e6572206e6f7220617070726f76656420666f7220616c6c00000000000000006064820152608401610ac4565b610b658383611e15565b6011546001600160a01b03163314610df75760405162461bcd60e51b8152600401610ac4906130fc565b6001600160a01b03909116600090815260166020526040902055565b600e546001600160a01b03163314610e3d5760405162461bcd60e51b8152600401610ac4906130c7565b600b54831115610e805760405162461bcd60e51b815260206004820152600e60248201526d13dd995c881b585e081b195d995b60921b6044820152606401610ac4565b610e8b6001846131c7565b600d541015610ed55760405162461bcd60e51b81526020600482015260166024820152751059190819995948199c9bdb481b1bddc81b195d995b60521b6044820152606401610ac4565b610ee06001846131c7565b600d541415610f62576040805180820190915291825260208201908152600d805460018101825560009190915291517fd7b6990105719101dabeb77144f2a3385c8033acd3af97e9423a695e81ad1eb5600290930292830155517fd7b6990105719101dabeb77144f2a3385c8033acd3af97e9423a695e81ad1eb69091015550565b6040805180820190915282815260208101829052600d610f836001866131c7565b81548110610fa157634e487b7160e01b600052603260045260246000fd5b60009182526020918290208351600290920201908155910151600190910155505050565b6011546001600160a01b03163314610fef5760405162461bcd60e51b8152600401610ac4906130fc565b601d55565b600d818154811061100457600080fd5b60009182526020909120600290910201805460019091015490915082565b61102c3382611e83565b6110485760405162461bcd60e51b8152600401610ac49061313f565b610b65838383611f7a565b600080600d838154811061107757634e487b7160e01b600052603260045260246000fd5b906000526020600020906002020160000154600d84815481106110aa57634e487b7160e01b600052603260045260246000fd5b90600052602060002090600202016001015491509150915091565b60006110d0836113d3565b82106111325760405162461bcd60e51b815260206004820152602b60248201527f455243373231456e756d657261626c653a206f776e657220696e646578206f7560448201526a74206f6620626f756e647360a81b6064820152608401610ac4565b506001600160a01b03919091166000908152601360209081526040808320938352929052206001015490565b6040516319045a2560e01b815260009073__$bfe2affd5a69741b1d0756c60605649423$__906319045a259061119a9086908690600401613049565b60206040518083038186803b1580156111b257600080fd5b505af41580156111c6573d6000803e3d6000fd5b505050506040513d601f19601f820116820180604052508101906111ea9190612cbc565b6001600160a01b03166112056010546001600160a01b031690565b6001600160a01b0316149392505050565b610b6583838360405180602001604052806000815250611a7e565b6011546001600160a01b0316331461125b5760405162461bcd60e51b8152600401610ac4906130fc565b601e55565b600061126b60125490565b82106112ce5760405162461bcd60e51b815260206004820152602c60248201527f455243373231456e756d657261626c653a20676c6f62616c20696e646578206f60448201526b7574206f6620626f756e647360a01b6064820152608401610ac4565b601282815481106112ef57634e487b7160e01b600052603260045260246000fd5b9060005260206000209060020201600101549050919050565b6000818152600260205260408120546001600160a01b031680610b8f5760405162461bcd60e51b815260206004820152602960248201527f4552433732313a206f776e657220717565727920666f72206e6f6e657869737460448201526832b73a103a37b5b2b760b91b6064820152608401610ac4565b6011546001600160a01b031633146113a95760405162461bcd60e51b8152600401610ac4906130fc565b60009283526019602090815260408085209385529290529120805460ff1916911515919091179055565b60006001600160a01b03821661143e5760405162461bcd60e51b815260206004820152602a60248201527f4552433732313a2062616c616e636520717565727920666f7220746865207a65604482015269726f206164647265737360b01b6064820152608401610ac4565b506001600160a01b031660009081526003602052604090205490565b6011546001600160a01b031633146114845760405162461bcd60e51b8152600401610ac4906130fc565b6000828152601560205260409020546012805483929081106114b657634e487b7160e01b600052603260045260246000fd5b60009182526020909120600290910201805460ff191660ff929092169190911790555050565b600e546001600160a01b031633146115065760405162461bcd60e51b8152600401610ac4906130c7565b6115106000612125565b565b600e546001600160a01b0316331461153c5760405162461bcd60e51b8152600401610ac4906130c7565b6001600160a01b0381166115a75760405162461bcd60e51b815260206004820152602c60248201527f496e76616c69642041646d696e3a206e65772061646d696e206973207468652060448201526b7a65726f206164647265737360a01b6064820152608401610ac4565b6115b081612177565b50565b6040805180820190915260008082526020820152601282815481106115e857634e487b7160e01b600052603260045260246000fd5b600091825260209182902060408051808201909152600290920201805460ff168252600101549181019190915292915050565b6011546001600160a01b031633146116455760405162461bcd60e51b8152600401610ac4906130fc565b6001600160a01b0390921660009081526017602090815260408083209383529290522055565b60008181526015602052604081205460128054909190811061169d57634e487b7160e01b600052603260045260246000fd5b600091825260209091206002909102015460ff1692915050565b6011546001600160a01b031633146116e15760405162461bcd60e51b8152600401610ac4906130fc565b6116eb82826121d8565b5050565b601281815481106116ff57600080fd5b60009182526020909120600290910201805460019091015460ff909116915082565b6011546001600160a01b0316331461174b5760405162461bcd60e51b8152600401610ac4906130fc565b600680546001600160a01b0319166001600160a01b0392909216919091179055565b606060018054610ba4906131f5565b600e546001600160a01b031633146117a65760405162461bcd60e51b8152600401610ac4906130c7565b6001600160a01b0381166117ee5760405162461bcd60e51b815260206004820152600f60248201526e496e76616c6964204164647265737360881b6044820152606401610ac4565b601180546001600160a01b0319166001600160a01b0392909216919091179055565b6011546001600160a01b0316331461183a5760405162461bcd60e51b8152600401610ac4906130fc565b6001600160a01b039091166000908152601a6020526040902055565b6009816005811061186657600080fd5b60089182820401919006600402915054906101000a900463ffffffff1681565b6011546001600160a01b031633146118b05760405162461bcd60e51b8152600401610ac4906130fc565b80516116eb90601f906020840190612b6b565b6001600160a01b03821633141561191c5760405162461bcd60e51b815260206004820152601960248201527f4552433732313a20617070726f766520746f2063616c6c6572000000000000006044820152606401610ac4565b3360008181526005602090815260408083206001600160a01b03871680855290835292819020805460ff191686151590811790915590519081529192917f17307eab39ab6107e8899845ad3d59bd9653f200f220920489ca2b5937696c31910160405180910390a35050565b6116eb338383604051806020016040528060008152506121f2565b600e546001600160a01b031633146119cd5760405162461bcd60e51b8152600401610ac4906130c7565b6001821180156119e857506119e460056001611da6565b8211155b611a255760405162461bcd60e51b815260206004820152600e60248201526d13dd995c881b585e081b195d995b60921b6044820152606401610ac4565b806009611a336002856131c7565b60058110611a5157634e487b7160e01b600052603260045260246000fd5b600891828204019190066004026101000a81548163ffffffff021916908363ffffffff1602179055505050565b611a883383611e83565b611aa45760405162461bcd60e51b8152600401610ac49061313f565b611ab0848484846121f2565b50505050565b6060601f8054610ba4906131f5565b6011546001600160a01b03163314611aef5760405162461bcd60e51b8152600401610ac4906130fc565b600780546001600160a01b0319166001600160a01b0392909216919091179055565b6000818152600260205260409020546060906001600160a01b0316611b905760405162461bcd60e51b815260206004820152602f60248201527f4552433732314d657461646174613a2055524920717565727920666f72206e6f60448201526e3732bc34b9ba32b73a103a37b5b2b760891b6064820152608401610ac4565b60008281526018602052604081208054611ba9906131f5565b80601f0160208091040260200160405190810160405280929190818152602001828054611bd5906131f5565b8015611c225780601f10611bf757610100808354040283529160200191611c22565b820191906000526020600020905b815481529060010190602001808311611c0557829003601f168201915b5093979650505050505050565b6011546001600160a01b03163314611c595760405162461bcd60e51b8152600401610ac4906130fc565b6001600160a01b03919091166000908152601b60205260409020805460ff1916911515919091179055565b6010546001600160a01b03163314611ced5760405162461bcd60e51b815260206004820152602660248201527f496e76616c69642041646d696e3a2063616c6c6572206973206e6f74207468656044820152651030b236b4b760d11b6064820152608401610ac4565b6011805460ff60a01b198116600160a01b9182900460ff1615909102179055565b600e546001600160a01b03163314611d385760405162461bcd60e51b8152600401610ac4906130c7565b6001600160a01b038116611d9d5760405162461bcd60e51b815260206004820152602660248201527f4f776e61626c653a206e6577206f776e657220697320746865207a65726f206160448201526564647265737360d01b6064820152608401610ac4565b6115b081612125565b6000611db28284613190565b9392505050565b6000611db282846131a8565b60006001600160e01b031982166380ac58cd60e01b1480611df657506001600160e01b03198216635b5e139f60e01b145b80610b8f57506301ffc9a760e01b6001600160e01b0319831614610b8f565b600081815260046020526040902080546001600160a01b0319166001600160a01b0384169081179091558190611e4a82611308565b6001600160a01b03167f8c5be1e5ebec7d5bd14f71427d1e84f3dd0314c0f7b2291e5b200ac8c7c3b92560405160405180910390a45050565b6000818152600260205260408120546001600160a01b0316611efc5760405162461bcd60e51b815260206004820152602c60248201527f4552433732313a206f70657261746f7220717565727920666f72206e6f6e657860448201526b34b9ba32b73a103a37b5b2b760a11b6064820152608401610ac4565b6000611f0783611308565b9050806001600160a01b0316846001600160a01b03161480611f425750836001600160a01b0316611f3784610c27565b6001600160a01b0316145b80611f7257506001600160a01b0380821660009081526005602090815260408083209388168352929052205460ff165b949350505050565b826001600160a01b0316611f8d82611308565b6001600160a01b031614611ff55760405162461bcd60e51b815260206004820152602960248201527f4552433732313a207472616e73666572206f6620746f6b656e2074686174206960448201526839903737ba1037bbb760b91b6064820152608401610ac4565b6001600160a01b0382166120575760405162461bcd60e51b8152602060048201526024808201527f4552433732313a207472616e7366657220746f20746865207a65726f206164646044820152637265737360e01b6064820152608401610ac4565b612062838383612225565b61206d600082611e15565b6001600160a01b03831660009081526003602052604081208054600192906120969084906131c7565b90915550506001600160a01b03821660009081526003602052604081208054600192906120c4908490613190565b909155505060008181526002602052604080822080546001600160a01b0319166001600160a01b0386811691821790925591518493918716917fddf252ad1be2c89b69c2b068fc378daa952ba7f163c4a11628f55a4df523b3ef91a4505050565b600e80546001600160a01b038381166001600160a01b0319831681179093556040519116919082907f8be0079c531659141344cd1fd0a4f28419497f9722a3daafe3b4186f6b6457e090600090a35050565b601080546001600160a01b038381166001600160a01b031983168117909355604080519190921680825260208201939093527ff8ccb027dfcd135e000e9d45e6cc2d662578a8825d4c45b5e32e0adf67e79ec6910160405180910390a15050565b6116eb82826040518060200160405280600081525061233a565b6121fd848484611f7a565b6122098484848461236d565b611ab05760405162461bcd60e51b8152600401610ac490613075565b6001600160a01b0383166122415761223c8161247a565b61226e565b816001600160a01b0316836001600160a01b03161461226e5761226483826125a9565b61226e8382612668565b6001600160a01b03821661228557610b65816127f0565b826001600160a01b0316826001600160a01b031614610b65576122a882826128fb565b6122b28282612993565b6001600160a01b0382166000908152601760209081526040808320848452601590925282205460128054600194929081106122fd57634e487b7160e01b600052603260045260246000fd5b6000918252602080832060029092029091015460ff16835282019290925260400181208054909190612330908490613190565b9091555050505050565b6123448383612a1d565b612351600084848461236d565b610b655760405162461bcd60e51b8152600401610ac490613075565b60006001600160a01b0384163b1561246f57604051630a85bd0160e11b81526001600160a01b0385169063150b7a02906123b190339089908890889060040161300c565b602060405180830381600087803b1580156123cb57600080fd5b505af19250505080156123fb575060408051601f3d908101601f191682019092526123f891810190612eae565b60015b612455573d808015612429576040519150601f19603f3d011682016040523d82523d6000602084013e61242e565b606091505b50805161244d5760405162461bcd60e51b8152600401610ac490613075565b805181602001fd5b6001600160e01b031916630a85bd0160e11b149050611f72565b506001949350505050565b6012546000828152601560205260409020558061251d5760408051808201909152600b5460ff9081168252602082019283526012805460018101825560009190915291517fbb8a6a4669ba250d26cd7a459eca9d215f8307e33aebe50379bc5a3617ec34446002909302928301805460ff19169190921617905590517fbb8a6a4669ba250d26cd7a459eca9d215f8307e33aebe50379bc5a3617ec344590910155565b60408051808201909152600a5460ff9081168252602082019283526012805460018101825560009190915291517fbb8a6a4669ba250d26cd7a459eca9d215f8307e33aebe50379bc5a3617ec34446002909302928301805460ff19169190921617905590517fbb8a6a4669ba250d26cd7a459eca9d215f8307e33aebe50379bc5a3617ec344590910155565b600060016125b6846113d3565b6125c091906131c7565b60008381526014602052604090205490915080821461262a576001600160a01b038416600090815260136020908152604080832085845282528083208484528184208154815460ff191660ff90911617815560019182015491018190558352601490915290208190555b5060009182526014602090815260408084208490556001600160a01b0390941683526013815283832091835252908120805460ff1916815560010155565b60008181526015602052604081205460128054909190811061269a57634e487b7160e01b600052603260045260246000fd5b600091825260208083206002909202909101546001600160a01b0386168352601690915260409091205460ff909116915081111561270b5760405162461bcd60e51b815260206004820152600e60248201526d098caeccad840deeccae440dac2f60931b6044820152606401610ac4565b6001600160a01b0383166000908152601760209081526040808320848452909152812080546001929061273f9084906131c7565b9091555061274e9050836113d3565b61276e5750506001600160a01b0316600090815260166020526040812055565b6001600160a01b038316600090815260166020526040902054811415610b65575b8015610b65576001600160a01b0383166000908152601760209081526040808320848452909152902054156127de576001600160a01b0383166000908152601660205260409020819055505050565b806127e8816131de565b91505061278f565b601254600090612802906001906131c7565b6000838152601560205260408120546012805493945090928490811061283857634e487b7160e01b600052603260045260246000fd5b90600052602060002090600202019050806012838154811061286a57634e487b7160e01b600052603260045260246000fd5b600091825260208083208454600290930201805460ff191660ff909316929092178255600193840154918401919091559183015481526015909152604080822084905585825281205560128054806128d257634e487b7160e01b600052603160045260246000fd5b600082815260208120600260001990930192830201805460ff1916815560010155905550505050565b6000612906836113d3565b6000838152601560205260409020546012805492935091811061293957634e487b7160e01b600052603260045260246000fd5b600091825260208083206001600160a01b039096168352601381526040808420858552825280842060029093029096018054835460ff191660ff909116178355600190810154920191909155928152601490925291902055565b6000818152601560205260408120546012805490919081106129c557634e487b7160e01b600052603260045260246000fd5b600091825260208083206002909202909101546001600160a01b0386168352601690915260409091205460ff9091169150811115610b65576001600160a01b0383166000908152601660205260409020819055505050565b6001600160a01b038216612a735760405162461bcd60e51b815260206004820181905260248201527f4552433732313a206d696e7420746f20746865207a65726f20616464726573736044820152606401610ac4565b6000818152600260205260409020546001600160a01b031615612ad85760405162461bcd60e51b815260206004820152601c60248201527f4552433732313a20746f6b656e20616c7265616479206d696e746564000000006044820152606401610ac4565b612ae460008383612225565b6001600160a01b0382166000908152600360205260408120805460019290612b0d908490613190565b909155505060008181526002602052604080822080546001600160a01b0319166001600160a01b03861690811790915590518392907fddf252ad1be2c89b69c2b068fc378daa952ba7f163c4a11628f55a4df523b3ef908290a45050565b828054612b77906131f5565b90600052602060002090601f016020900481019282612b995760008555612bdf565b82601f10612bb257805160ff1916838001178555612bdf565b82800160010185558215612bdf579182015b82811115612bdf578251825591602001919060010190612bc4565b50612beb929150612bef565b5090565b5b80821115612beb5760008155600101612bf0565b80358015158114612c1457600080fd5b919050565b600082601f830112612c29578081fd5b813567ffffffffffffffff80821115612c4457612c44613246565b604051601f8301601f19908116603f01168101908282118183101715612c6c57612c6c613246565b81604052838152866020858801011115612c84578485fd5b8360208701602083013792830160200193909352509392505050565b600060208284031215612cb1578081fd5b8135611db28161325c565b600060208284031215612ccd578081fd5b8151611db28161325c565b60008060408385031215612cea578081fd5b8235612cf58161325c565b91506020830135612d058161325c565b809150509250929050565b600080600060608486031215612d24578081fd5b8335612d2f8161325c565b92506020840135612d3f8161325c565b929592945050506040919091013590565b60008060008060808587031215612d65578081fd5b8435612d708161325c565b93506020850135612d808161325c565b925060408501359150606085013567ffffffffffffffff811115612da2578182fd5b612dae87828801612c19565b91505092959194509250565b60008060408385031215612dcc578182fd5b8235612dd78161325c565b9150612de560208401612c04565b90509250929050565b60008060408385031215612e00578182fd5b8235612e0b8161325c565b946020939093013593505050565b600080600060608486031215612e2d578283fd5b8335612e388161325c565b95602085013595506040909401359392505050565b60008060408385031215612e5f578182fd5b82359150602083013567ffffffffffffffff811115612e7c578182fd5b612e8885828601612c19565b9150509250929050565b600060208284031215612ea3578081fd5b8135611db281613271565b600060208284031215612ebf578081fd5b8151611db281613271565b600060208284031215612edb578081fd5b813567ffffffffffffffff811115612ef1578182fd5b611f7284828501612c19565b600060208284031215612f0e578081fd5b5035919050565b60008060408385031215612f27578182fd5b50508035926020909101359150565b600080600060608486031215612f4a578081fd5b8335925060208401359150612f6160408501612c04565b90509250925092565b600080600060608486031215612f7e578081fd5b505081359360208301359350604090920135919050565b60008060408385031215612fa7578182fd5b82359150602083013563ffffffff81168114612d05578182fd5b60008151808452815b81811015612fe657602081850181015186830182015201612fca565b81811115612ff75782602083870101525b50601f01601f19169290920160200192915050565b6001600160a01b038581168252841660208201526040810183905260806060820181905260009061303f90830184612fc1565b9695505050505050565b828152604060208201526000611f726040830184612fc1565b602081526000611db26020830184612fc1565b60208082526032908201527f4552433732313a207472616e7366657220746f206e6f6e20455243373231526560408201527131b2b4bb32b91034b6b83632b6b2b73a32b960711b606082015260800190565b6020808252818101527f4f776e61626c653a2063616c6c6572206973206e6f7420746865206f776e6572604082015260600190565b60208082526023908201527f4e6f74205065726d69743a2063616c6c6572206973206e6f74207468652070726040820152626f787960e81b606082015260800190565b60208082526031908201527f4552433732313a207472616e736665722063616c6c6572206973206e6f74206f6040820152701ddb995c881b9bdc88185c1c1c9bdd9959607a1b606082015260800190565b600082198211156131a3576131a3613230565b500190565b60008160001904831182151516156131c2576131c2613230565b500290565b6000828210156131d9576131d9613230565b500390565b6000816131ed576131ed613230565b506000190190565b600181811c9082168061320957607f821691505b6020821081141561322a57634e487b7160e01b600052602260045260246000fd5b50919050565b634e487b7160e01b600052601160045260246000fd5b634e487b7160e01b600052604160045260246000fd5b6001600160a01b03811681146115b057600080fd5b6001600160e01b0319811681146115b057600080fdfea2646970667358221220249638a9037577bad8ab6710c54513f2359b47457bca309bd64bcfc7033621ab64736f6c63430008040033",
  "libraries": {
    "Sig": "0x6748dAeA9f2F668ED4a425000E4d61b07797CA75"
  },
  "devdoc": {
    "kind": "dev",
    "methods": {
      "admin()": {
        "details": "Returns the address of the current admin."
      },
      "approve(address,uint256)": {
        "details": "See {IERC721-approve}."
      },
      "balanceOf(address)": {
        "details": "See {IERC721-balanceOf}."
      },
      "getApproved(uint256)": {
        "details": "See {IERC721-getApproved}."
      },
      "getLevelUpFee(uint256)": {
        "details": "The address of the ClockAuction contract that handles sales of Kitties.  This same contract handles both peer-to-peer."
      },
      "isApprovedForAll(address,address)": {
        "details": "See {IERC721-isApprovedForAll}."
      },
      "name()": {
        "details": "See {IERC721Metadata-name}."
      },
      "owner()": {
        "details": "Returns the address of the current owner."
      },
      "ownerOf(uint256)": {
        "details": "See {IERC721-ownerOf}."
      },
      "renounceOwnership()": {
        "details": "Leaves the contract without owner. It will not be possible to call `onlyOwner` functions anymore. Can only be called by the current owner. NOTE: Renouncing ownership will leave the contract without an owner, thereby removing any functionality that is only available to the owner."
      },
      "safeTransferFrom(address,address,uint256)": {
        "details": "See {IERC721-safeTransferFrom}."
      },
      "safeTransferFrom(address,address,uint256,bytes)": {
        "details": "See {IERC721-safeTransferFrom}."
      },
      "setApprovalForAll(address,bool)": {
        "details": "See {IERC721-setApprovalForAll}."
      },
      "setLevelUpFee(uint256,uint256,uint256)": {
        "details": "Updates the level up fee as well as mint fee. Can only  be called by the Admin address. todo: maxLevel todo: maxLevel todo"
      },
      "supportsInterface(bytes4)": {
        "details": "See {IERC165-supportsInterface}."
      },
      "symbol()": {
        "details": "See {IERC721Metadata-symbol}."
      },
      "tokenByIndex(uint256)": {
        "details": "See {IERC721Enumerable-tokenByIndex}."
      },
      "tokenOfOwnerByIndex(address,uint256)": {
        "details": "See {IERC721Enumerable-tokenOfOwnerByIndex}."
      },
      "tokenURI(uint256)": {
        "details": "See {IERC721Metadata-tokenURI}."
      },
      "totalSupply()": {
        "details": "See {IERC721Enumerable-totalSupply}."
      },
      "transferAdmin(address)": {
        "details": "Transfers ownership of the contract to a new account (`newAdmin`). Can only be called by the current admin."
      },
      "transferFrom(address,address,uint256)": {
        "details": "See {IERC721-transferFrom}."
      },
      "transferOwnership(address)": {
        "details": "Transfers ownership of the contract to a new account (`newOwner`). Can only be called by the current owner."
      }
    },
    "stateVariables": {
      "maxLevelOfOwner": {
        "details": "A mapping from Voyager to the max level of the Voyager. "
      },
      "tokenLevelCount": {
        "details": "A mapping from owner to token amount of each level. "
      },
      "voyagers": {
        "details": "An array containing the Voyager struct for all Voyagers in existence. The ID of each Voyager is actually an index into this array."
      }
    },
    "version": 1
  },
  "userdoc": {
    "kind": "user",
    "methods": {
      "cooldowns(uint256)": {
        "notice": ",cooldowns7"
      }
    },
    "version": 1
  },
  "storageLayout": {
    "storage": [
      {
        "astId": 1196,
        "contract": "contracts/voyager/VoyagerStorage.sol:VoyagerStorage",
        "label": "_name",
        "offset": 0,
        "slot": "0",
        "type": "t_string_storage"
      },
      {
        "astId": 1198,
        "contract": "contracts/voyager/VoyagerStorage.sol:VoyagerStorage",
        "label": "_symbol",
        "offset": 0,
        "slot": "1",
        "type": "t_string_storage"
      },
      {
        "astId": 1202,
        "contract": "contracts/voyager/VoyagerStorage.sol:VoyagerStorage",
        "label": "_owners",
        "offset": 0,
        "slot": "2",
        "type": "t_mapping(t_uint256,t_address)"
      },
      {
        "astId": 1206,
        "contract": "contracts/voyager/VoyagerStorage.sol:VoyagerStorage",
        "label": "_balances",
        "offset": 0,
        "slot": "3",
        "type": "t_mapping(t_address,t_uint256)"
      },
      {
        "astId": 1210,
        "contract": "contracts/voyager/VoyagerStorage.sol:VoyagerStorage",
        "label": "_tokenApprovals",
        "offset": 0,
        "slot": "4",
        "type": "t_mapping(t_uint256,t_address)"
      },
      {
        "astId": 1216,
        "contract": "contracts/voyager/VoyagerStorage.sol:VoyagerStorage",
        "label": "_operatorApprovals",
        "offset": 0,
        "slot": "5",
        "type": "t_mapping(t_address,t_mapping(t_address,t_bool))"
      },
      {
        "astId": 5133,
        "contract": "contracts/voyager/VoyagerStorage.sol:VoyagerStorage",
        "label": "dgtAddress",
        "offset": 0,
        "slot": "6",
        "type": "t_address"
      },
      {
        "astId": 5135,
        "contract": "contracts/voyager/VoyagerStorage.sol:VoyagerStorage",
        "label": "dspAddress",
        "offset": 0,
        "slot": "7",
        "type": "t_address"
      },
      {
        "astId": 5140,
        "contract": "contracts/voyager/VoyagerStorage.sol:VoyagerStorage",
        "label": "decimals",
        "offset": 0,
        "slot": "8",
        "type": "t_uint256"
      },
      {
        "astId": 5176,
        "contract": "contracts/voyager/VoyagerStorage.sol:VoyagerStorage",
        "label": "cooldowns",
        "offset": 0,
        "slot": "9",
        "type": "t_array(t_uint32)5_storage"
      },
      {
        "astId": 5179,
        "contract": "contracts/voyager/VoyagerStorage.sol:VoyagerStorage",
        "label": "minLevel",
        "offset": 0,
        "slot": "10",
        "type": "t_uint256"
      },
      {
        "astId": 5181,
        "contract": "contracts/voyager/VoyagerStorage.sol:VoyagerStorage",
        "label": "maxLevel",
        "offset": 0,
        "slot": "11",
        "type": "t_uint256"
      },
      {
        "astId": 5184,
        "contract": "contracts/voyager/VoyagerStorage.sol:VoyagerStorage",
        "label": "initialSupply",
        "offset": 0,
        "slot": "12",
        "type": "t_uint256"
      },
      {
        "astId": 5188,
        "contract": "contracts/voyager/VoyagerStorage.sol:VoyagerStorage",
        "label": "levelUpFees",
        "offset": 0,
        "slot": "13",
        "type": "t_array(t_struct(FeeComponent)5145_storage)dyn_storage"
      },
      {
        "astId": 7,
        "contract": "contracts/voyager/VoyagerStorage.sol:VoyagerStorage",
        "label": "_owner",
        "offset": 0,
        "slot": "14",
        "type": "t_address"
      },
      {
        "astId": 206,
        "contract": "contracts/voyager/VoyagerStorage.sol:VoyagerStorage",
        "label": "_status",
        "offset": 0,
        "slot": "15",
        "type": "t_uint256"
      },
      {
        "astId": 6424,
        "contract": "contracts/voyager/VoyagerStorage.sol:VoyagerStorage",
        "label": "_admin",
        "offset": 0,
        "slot": "16",
        "type": "t_address"
      },
      {
        "astId": 6426,
        "contract": "contracts/voyager/VoyagerStorage.sol:VoyagerStorage",
        "label": "proxy",
        "offset": 0,
        "slot": "17",
        "type": "t_address"
      },
      {
        "astId": 6429,
        "contract": "contracts/voyager/VoyagerStorage.sol:VoyagerStorage",
        "label": "mintIsActive",
        "offset": 20,
        "slot": "17",
        "type": "t_bool"
      },
      {
        "astId": 7452,
        "contract": "contracts/voyager/VoyagerStorage.sol:VoyagerStorage",
        "label": "voyagers",
        "offset": 0,
        "slot": "18",
        "type": "t_array(t_struct(Voyager)5150_storage)dyn_storage"
      },
      {
        "astId": 7459,
        "contract": "contracts/voyager/VoyagerStorage.sol:VoyagerStorage",
        "label": "ownedVoyagers",
        "offset": 0,
        "slot": "19",
        "type": "t_mapping(t_address,t_mapping(t_uint256,t_struct(Voyager)5150_storage))"
      },
      {
        "astId": 7463,
        "contract": "contracts/voyager/VoyagerStorage.sol:VoyagerStorage",
        "label": "ownedVoyagersIndex",
        "offset": 0,
        "slot": "20",
        "type": "t_mapping(t_uint256,t_uint256)"
      },
      {
        "astId": 7467,
        "contract": "contracts/voyager/VoyagerStorage.sol:VoyagerStorage",
        "label": "allVoyagersIndex",
        "offset": 0,
        "slot": "21",
        "type": "t_mapping(t_uint256,t_uint256)"
      },
      {
        "astId": 7472,
        "contract": "contracts/voyager/VoyagerStorage.sol:VoyagerStorage",
        "label": "maxLevelOfOwner",
        "offset": 0,
        "slot": "22",
        "type": "t_mapping(t_address,t_uint256)"
      },
      {
        "astId": 7479,
        "contract": "contracts/voyager/VoyagerStorage.sol:VoyagerStorage",
        "label": "tokenLevelCount",
        "offset": 0,
        "slot": "23",
        "type": "t_mapping(t_address,t_mapping(t_uint256,t_uint256))"
      },
      {
        "astId": 7483,
        "contract": "contracts/voyager/VoyagerStorage.sol:VoyagerStorage",
        "label": "_tokenURIs",
        "offset": 0,
        "slot": "24",
        "type": "t_mapping(t_uint256,t_string_storage)"
      },
      {
        "astId": 7489,
        "contract": "contracts/voyager/VoyagerStorage.sol:VoyagerStorage",
        "label": "setByOwner",
        "offset": 0,
        "slot": "25",
        "type": "t_mapping(t_uint256,t_mapping(t_uint256,t_bool))"
      },
      {
        "astId": 7493,
        "contract": "contracts/voyager/VoyagerStorage.sol:VoyagerStorage",
        "label": "_tokenIDWithoutURI",
        "offset": 0,
        "slot": "26",
        "type": "t_mapping(t_address,t_uint256)"
      },
      {
        "astId": 7497,
        "contract": "contracts/voyager/VoyagerStorage.sol:VoyagerStorage",
        "label": "_expiredWhitelist",
        "offset": 0,
        "slot": "27",
        "type": "t_mapping(t_address,t_bool)"
      },
      {
        "astId": 7500,
        "contract": "contracts/voyager/VoyagerStorage.sol:VoyagerStorage",
        "label": "_maxWhitelisted",
        "offset": 0,
        "slot": "28",
        "type": "t_uint256"
      },
      {
        "astId": 7502,
        "contract": "contracts/voyager/VoyagerStorage.sol:VoyagerStorage",
        "label": "_totalMinted",
        "offset": 0,
        "slot": "29",
        "type": "t_uint256"
      },
      {
        "astId": 7504,
        "contract": "contracts/voyager/VoyagerStorage.sol:VoyagerStorage",
        "label": "_whitelistExpired",
        "offset": 0,
        "slot": "30",
        "type": "t_uint256"
      },
      {
        "astId": 7506,
        "contract": "contracts/voyager/VoyagerStorage.sol:VoyagerStorage",
        "label": "_token0URI",
        "offset": 0,
        "slot": "31",
        "type": "t_string_storage"
      }
    ],
    "types": {
      "t_address": {
        "encoding": "inplace",
        "label": "address",
        "numberOfBytes": "20"
      },
      "t_array(t_struct(FeeComponent)5145_storage)dyn_storage": {
        "base": "t_struct(FeeComponent)5145_storage",
        "encoding": "dynamic_array",
        "label": "struct BaseStorage.FeeComponent[]",
        "numberOfBytes": "32"
      },
      "t_array(t_struct(Voyager)5150_storage)dyn_storage": {
        "base": "t_struct(Voyager)5150_storage",
        "encoding": "dynamic_array",
        "label": "struct BaseStorage.Voyager[]",
        "numberOfBytes": "32"
      },
      "t_array(t_uint32)5_storage": {
        "base": "t_uint32",
        "encoding": "inplace",
        "label": "uint32[5]",
        "numberOfBytes": "32"
      },
      "t_bool": {
        "encoding": "inplace",
        "label": "bool",
        "numberOfBytes": "1"
      },
      "t_mapping(t_address,t_bool)": {
        "encoding": "mapping",
        "key": "t_address",
        "label": "mapping(address => bool)",
        "numberOfBytes": "32",
        "value": "t_bool"
      },
      "t_mapping(t_address,t_mapping(t_address,t_bool))": {
        "encoding": "mapping",
        "key": "t_address",
        "label": "mapping(address => mapping(address => bool))",
        "numberOfBytes": "32",
        "value": "t_mapping(t_address,t_bool)"
      },
      "t_mapping(t_address,t_mapping(t_uint256,t_struct(Voyager)5150_storage))": {
        "encoding": "mapping",
        "key": "t_address",
        "label": "mapping(address => mapping(uint256 => struct BaseStorage.Voyager))",
        "numberOfBytes": "32",
        "value": "t_mapping(t_uint256,t_struct(Voyager)5150_storage)"
      },
      "t_mapping(t_address,t_mapping(t_uint256,t_uint256))": {
        "encoding": "mapping",
        "key": "t_address",
        "label": "mapping(address => mapping(uint256 => uint256))",
        "numberOfBytes": "32",
        "value": "t_mapping(t_uint256,t_uint256)"
      },
      "t_mapping(t_address,t_uint256)": {
        "encoding": "mapping",
        "key": "t_address",
        "label": "mapping(address => uint256)",
        "numberOfBytes": "32",
        "value": "t_uint256"
      },
      "t_mapping(t_uint256,t_address)": {
        "encoding": "mapping",
        "key": "t_uint256",
        "label": "mapping(uint256 => address)",
        "numberOfBytes": "32",
        "value": "t_address"
      },
      "t_mapping(t_uint256,t_bool)": {
        "encoding": "mapping",
        "key": "t_uint256",
        "label": "mapping(uint256 => bool)",
        "numberOfBytes": "32",
        "value": "t_bool"
      },
      "t_mapping(t_uint256,t_mapping(t_uint256,t_bool))": {
        "encoding": "mapping",
        "key": "t_uint256",
        "label": "mapping(uint256 => mapping(uint256 => bool))",
        "numberOfBytes": "32",
        "value": "t_mapping(t_uint256,t_bool)"
      },
      "t_mapping(t_uint256,t_string_storage)": {
        "encoding": "mapping",
        "key": "t_uint256",
        "label": "mapping(uint256 => string)",
        "numberOfBytes": "32",
        "value": "t_string_storage"
      },
      "t_mapping(t_uint256,t_struct(Voyager)5150_storage)": {
        "encoding": "mapping",
        "key": "t_uint256",
        "label": "mapping(uint256 => struct BaseStorage.Voyager)",
        "numberOfBytes": "32",
        "value": "t_struct(Voyager)5150_storage"
      },
      "t_mapping(t_uint256,t_uint256)": {
        "encoding": "mapping",
        "key": "t_uint256",
        "label": "mapping(uint256 => uint256)",
        "numberOfBytes": "32",
        "value": "t_uint256"
      },
      "t_string_storage": {
        "encoding": "bytes",
        "label": "string",
        "numberOfBytes": "32"
      },
      "t_struct(FeeComponent)5145_storage": {
        "encoding": "inplace",
        "label": "struct BaseStorage.FeeComponent",
        "members": [
          {
            "astId": 5142,
            "contract": "contracts/voyager/VoyagerStorage.sol:VoyagerStorage",
            "label": "dgt",
            "offset": 0,
            "slot": "0",
            "type": "t_uint256"
          },
          {
            "astId": 5144,
            "contract": "contracts/voyager/VoyagerStorage.sol:VoyagerStorage",
            "label": "dsp",
            "offset": 0,
            "slot": "1",
            "type": "t_uint256"
          }
        ],
        "numberOfBytes": "64"
      },
      "t_struct(Voyager)5150_storage": {
        "encoding": "inplace",
        "label": "struct BaseStorage.Voyager",
        "members": [
          {
            "astId": 5147,
            "contract": "contracts/voyager/VoyagerStorage.sol:VoyagerStorage",
            "label": "level",
            "offset": 0,
            "slot": "0",
            "type": "t_uint8"
          },
          {
            "astId": 5149,
            "contract": "contracts/voyager/VoyagerStorage.sol:VoyagerStorage",
            "label": "id",
            "offset": 0,
            "slot": "1",
            "type": "t_uint256"
          }
        ],
        "numberOfBytes": "64"
      },
      "t_uint256": {
        "encoding": "inplace",
        "label": "uint256",
        "numberOfBytes": "32"
      },
      "t_uint32": {
        "encoding": "inplace",
        "label": "uint32",
        "numberOfBytes": "4"
      },
      "t_uint8": {
        "encoding": "inplace",
        "label": "uint8",
        "numberOfBytes": "1"
      }
    }
  }
}