{
  "address": "0xD8e64D2046d55F1FcFe2F23FA2dfC3c6658B2BA4",
  "abi": [
    {
      "inputs": [
        {
          "internalType": "uint256",
          "name": "tokenID",
          "type": "uint256"
        },
        {
          "internalType": "string",
          "name": "_tokenURI",
          "type": "string"
        }
      ],
      "name": "changeTokenURI",
      "outputs": [],
      "stateMutability": "nonpayable",
      "type": "function"
    },
    {
      "inputs": [
        {
          "internalType": "uint256",
          "name": "",
          "type": "uint256"
        }
      ],
      "name": "cooldowns",
      "outputs": [
        {
          "internalType": "uint32",
          "name": "",
          "type": "uint32"
        }
      ],
      "stateMutability": "view",
      "type": "function"
    },
    {
      "inputs": [],
      "name": "decimals",
      "outputs": [
        {
          "internalType": "uint256",
          "name": "",
          "type": "uint256"
        }
      ],
      "stateMutability": "view",
      "type": "function"
    },
    {
      "inputs": [],
      "name": "dgtAddress",
      "outputs": [
        {
          "internalType": "address",
          "name": "",
          "type": "address"
        }
      ],
      "stateMutability": "view",
      "type": "function"
    },
    {
      "inputs": [],
      "name": "dspAddress",
      "outputs": [
        {
          "internalType": "address",
          "name": "",
          "type": "address"
        }
      ],
      "stateMutability": "view",
      "type": "function"
    },
    {
      "inputs": [],
      "name": "initialSupply",
      "outputs": [
        {
          "internalType": "uint256",
          "name": "",
          "type": "uint256"
        }
      ],
      "stateMutability": "view",
      "type": "function"
    },
    {
      "inputs": [
        {
          "internalType": "uint256",
          "name": "tokenID",
          "type": "uint256"
        }
      ],
      "name": "levelUp",
      "outputs": [],
      "stateMutability": "nonpayable",
      "type": "function"
    },
    {
      "inputs": [
        {
          "internalType": "uint256",
          "name": "",
          "type": "uint256"
        }
      ],
      "name": "levelUpFees",
      "outputs": [
        {
          "internalType": "uint256",
          "name": "dgt",
          "type": "uint256"
        },
        {
          "internalType": "uint256",
          "name": "dsp",
          "type": "uint256"
        }
      ],
      "stateMutability": "view",
      "type": "function"
    },
    {
      "inputs": [],
      "name": "maxLevel",
      "outputs": [
        {
          "internalType": "uint256",
          "name": "",
          "type": "uint256"
        }
      ],
      "stateMutability": "view",
      "type": "function"
    },
    {
      "inputs": [],
      "name": "minLevel",
      "outputs": [
        {
          "internalType": "uint256",
          "name": "",
          "type": "uint256"
        }
      ],
      "stateMutability": "view",
      "type": "function"
    },
    {
      "inputs": [],
      "name": "mintVoyager",
      "outputs": [],
      "stateMutability": "nonpayable",
      "type": "function"
    },
    {
      "inputs": [],
      "name": "mintVoyagerByWhitelist",
      "outputs": [],
      "stateMutability": "nonpayable",
      "type": "function"
    },
    {
      "inputs": [
        {
          "internalType": "address",
          "name": "_token1",
          "type": "address"
        }
      ],
      "name": "setFee1TokenAddress",
      "outputs": [],
      "stateMutability": "nonpayable",
      "type": "function"
    },
    {
      "inputs": [
        {
          "internalType": "address",
          "name": "_token2",
          "type": "address"
        }
      ],
      "name": "setFee2TokenAddress",
      "outputs": [],
      "stateMutability": "nonpayable",
      "type": "function"
    },
    {
      "inputs": [
        {
          "internalType": "string",
          "name": "_tokenURI",
          "type": "string"
        }
      ],
      "name": "setToken0URI",
      "outputs": [],
      "stateMutability": "nonpayable",
      "type": "function"
    },
    {
      "inputs": [
        {
          "internalType": "uint256",
          "name": "_tokenid",
          "type": "uint256"
        },
        {
          "internalType": "uint256",
          "name": "_level",
          "type": "uint256"
        },
        {
          "internalType": "string",
          "name": "_tokenURI",
          "type": "string"
        }
      ],
      "name": "setTokenURI",
      "outputs": [],
      "stateMutability": "nonpayable",
      "type": "function"
    },
    {
      "inputs": [],
      "name": "testDelegatecall",
      "outputs": [
        {
          "internalType": "uint256",
          "name": "",
          "type": "uint256"
        }
      ],
      "stateMutability": "view",
      "type": "function"
    },
    {
      "inputs": [
        {
          "internalType": "address",
          "name": "_vs",
          "type": "address"
        }
      ],
      "name": "testSetVs",
      "outputs": [],
      "stateMutability": "nonpayable",
      "type": "function"
    },
    {
      "inputs": [],
      "name": "vS",
      "outputs": [
        {
          "internalType": "contract VoyagerStorage",
          "name": "",
          "type": "address"
        }
      ],
      "stateMutability": "view",
      "type": "function"
    }
  ],
  "transactionHash": "0x59893ee424b1cc426b301b231865a2f1db9c7ff31db2a38eab3b0c0dab693d11",
  "args": [],
  "solcInputHash": "3c70c77d428e61bb6242bf0749abc803",
  "bytecode": "0x670de0b6b3a764000060025561012060405261070860809081526201518060a0526202a30060c0526205460060e05262093a8061010052620000469060039060056200006b565b5060016004556103e86006553480156200005f57600080fd5b50600160085562000125565b600183019183908215620000fc5791602002820160005b83821115620000c857835183826101000a81548163ffffffff021916908363ffffffff160217905550926020019260040160208160030104928301926001030262000082565b8015620000fa5782816101000a81549063ffffffff0219169055600401602081600301049283019260010302620000c8565b505b506200010a9291506200010e565b5090565b5b808211156200010a57600081556001016200010f565b612b3d80620001356000396000f3fe608060405234801561001057600080fd5b50600436106101215760003560e01c8063942eb8c3116100ad578063b7d1070711610071578063b7d1070714610270578063c1cd3338146102a0578063c2e8dd4a146102a8578063cc06c359146102d8578063e3e7688a146102e157600080fd5b8063942eb8c3146101f457806396fe4288146102245780639d6fac6f1461022d578063a1382b5a14610255578063aa30c4b71461025d57600080fd5b806338e514fe116100f457806338e514fe1461018857806353bb0ab3146101b35780637a599e81146101c65780637fb3a9a2146101d957806393d31cff146101ec57600080fd5b80630ce90ec2146101265780631dd3a3651461013b578063313ce56714610168578063378dc3dc1461017f575b600080fd5b6101396101343660046128b5565b6102f4565b005b61014e6101493660046128b5565b6110d5565b604080519283526020830191909152015b60405180910390f35b61017160025481565b60405190815260200161015f565b61017160065481565b60015461019b906001600160a01b031681565b6040516001600160a01b03909116815260200161015f565b6101396101c136600461294d565b611103565b6101396101d43660046127b3565b6115f7565b6101396101e73660046128e5565b61165c565b6101396116c3565b61013961020236600461275b565b600080546001600160a01b0319166001600160a01b0392909216919091179055565b61017160045481565b61024061023b3660046128b5565b611d50565b60405163ffffffff909116815260200161015f565b610171611d80565b60095461019b906001600160a01b031681565b61013961027e36600461275b565b600980546001600160a01b0319166001600160a01b0392909216919091179055565b610139611e01565b6101396102b636600461275b565b600180546001600160a01b0319166001600160a01b0392909216919091179055565b61017160055481565b60005461019b906001600160a01b031681565b6002600854141561034c5760405162461bcd60e51b815260206004820152601f60248201527f5265656e7472616e637947756172643a207265656e7472616e742063616c6c0060448201526064015b60405180910390fd5b60026008558061038c5760405162461bcd60e51b815260206004820152600b60248201526a2737ba1018103a37b5b2b760a91b6044820152606401610343565b600954604051630e4d620560e01b81523360048201526001600160a01b0390911690630e4d62059060240160206040518083038186803b1580156103cf57600080fd5b505afa1580156103e3573d6000803e3d6000fd5b505050506040513d601f19601f8201168201806040525081019061040791906128cd565b156104445760405162461bcd60e51b815260206004820152600d60248201526c2ab73b30b634b2103a37b5b2b760991b6044820152606401610343565b600960009054906101000a90046001600160a01b03166001600160a01b031663cc06c3596040518163ffffffff1660e01b815260040160206040518083038186803b15801561049257600080fd5b505afa1580156104a6573d6000803e3d6000fd5b505050506040513d601f19601f820116820180604052508101906104ca91906128cd565b6009546040516304252ae160e51b8152600481018490526001600160a01b0390911690637e5ea2829082906384a55c209060240160206040518083038186803b15801561051657600080fd5b505afa15801561052a573d6000803e3d6000fd5b505050506040513d601f19601f8201168201806040525081019061054e91906128cd565b6040518263ffffffff1660e01b815260040161056c91815260200190565b604080518083038186803b15801561058357600080fd5b505afa158015610597573d6000803e3d6000fd5b505050506040513d601f19601f820116820180604052508101906105bb9190612859565b5160ff16106106005760405162461bcd60e51b8152602060048201526011602482015270105b1c9958591e481b585e081b195d995b607a1b6044820152606401610343565b600954604051630219207560e61b815260048101839052600091829182916001600160a01b0316906386481d409060240160206040518083038186803b15801561064957600080fd5b505afa15801561065d573d6000803e3d6000fd5b505050506040513d601f19601f8201168201806040525081019061068191906128cd565b600954604051632f40faf760e01b8152600481018390529192506001600160a01b031690632f40faf790602401604080518083038186803b1580156106c557600080fd5b505afa1580156106d9573d6000803e3d6000fd5b505050506040513d601f19601f820116820180604052508101906106fd919061292a565b6000546040516370a0823160e01b815233600482015292955090935084916001600160a01b03909116906370a082319060240160206040518083038186803b15801561074857600080fd5b505afa15801561075c573d6000803e3d6000fd5b505050506040513d601f19601f8201168201806040525081019061078091906128cd565b10156107c75760405162461bcd60e51b81526020600482015260166024820152752ab739bab33334b1b4b2b73a103233ba103a37b5b2b760511b6044820152606401610343565b6001546040516370a0823160e01b815233600482015283916001600160a01b0316906370a082319060240160206040518083038186803b15801561080a57600080fd5b505afa15801561081e573d6000803e3d6000fd5b505050506040513d601f19601f8201168201806040525081019061084291906128cd565b10156108895760405162461bcd60e51b81526020600482015260166024820152752ab739bab33334b1b4b2b73a103239b8103a37b5b2b760511b6044820152606401610343565b6000546108a1906001600160a01b0316333086612448565b6001546108b9906001600160a01b0316333085612448565b600954604051630219207560e61b8152600481018690526001600160a01b03909116906380ea5a8390339083906386481d409060240160206040518083038186803b15801561090757600080fd5b505afa15801561091b573d6000803e3d6000fd5b505050506040513d601f19601f8201168201806040525081019061093f91906128cd565b600954604051630219207560e61b8152600481018a90526001916001600160a01b031690636d3f450b90339083906386481d409060240160206040518083038186803b15801561098e57600080fd5b505afa1580156109a2573d6000803e3d6000fd5b505050506040513d601f19601f820116820180604052508101906109c691906128cd565b6040516001600160e01b031960e085901b1681526001600160a01b039092166004830152602482015260440160206040518083038186803b158015610a0a57600080fd5b505afa158015610a1e573d6000803e3d6000fd5b505050506040513d601f19601f82011682018060405250810190610a4291906128cd565b610a4c9190612a80565b6040516001600160e01b031960e086901b1681526001600160a01b03909316600484015260248301919091526044820152606401600060405180830381600087803b158015610a9a57600080fd5b505af1158015610aae573d6000803e3d6000fd5b5050600954604051630219207560e61b8152600481018890526001600160a01b0390911692506370a93b369150869083906386481d409060240160206040518083038186803b158015610b0057600080fd5b505afa158015610b14573d6000803e3d6000fd5b505050506040513d601f19601f82011682018060405250810190610b3891906128cd565b610b43906001612a68565b6040516001600160e01b031960e085901b16815260048101929092526024820152604401600060405180830381600087803b158015610b8157600080fd5b505af1158015610b95573d6000803e3d6000fd5b5050600954604051630219207560e61b8152600481018890526001600160a01b0390911692506380ea5a839150339083906386481d409060240160206040518083038186803b158015610be757600080fd5b505afa158015610bfb573d6000803e3d6000fd5b505050506040513d601f19601f82011682018060405250810190610c1f91906128cd565b600954604051630219207560e61b8152600481018a90526001600160a01b0390911690636d3f450b90339083906386481d409060240160206040518083038186803b158015610c6d57600080fd5b505afa158015610c81573d6000803e3d6000fd5b505050506040513d601f19601f82011682018060405250810190610ca591906128cd565b6040516001600160e01b031960e085901b1681526001600160a01b039092166004830152602482015260440160206040518083038186803b158015610ce957600080fd5b505afa158015610cfd573d6000803e3d6000fd5b505050506040513d601f19601f82011682018060405250810190610d2191906128cd565b610d2c906001612a68565b6040516001600160e01b031960e086901b1681526001600160a01b03909316600484015260248301919091526044820152606401600060405180830381600087803b158015610d7a57600080fd5b505af1158015610d8e573d6000803e3d6000fd5b5050600954604051639d47207160e01b8152336004820152602481018890526001600160a01b039091169250639d4720719150604401600060405180830381600087803b158015610dde57600080fd5b505af1158015610df2573d6000803e3d6000fd5b505060095460405163984027a760e01b81523360048201526001600160a01b03909116925063984027a7915060240160206040518083038186803b158015610e3957600080fd5b505afa158015610e4d573d6000803e3d6000fd5b505050506040513d601f19601f82011682018060405250810190610e7191906128cd565b6009546040516304252ae160e51b8152600481018790526001600160a01b0390911690637e5ea2829082906384a55c209060240160206040518083038186803b158015610ebd57600080fd5b505afa158015610ed1573d6000803e3d6000fd5b505050506040513d601f19601f82011682018060405250810190610ef591906128cd565b6040518263ffffffff1660e01b8152600401610f1391815260200190565b604080518083038186803b158015610f2a57600080fd5b505afa158015610f3e573d6000803e3d6000fd5b505050506040513d601f19601f82011682018060405250810190610f629190612859565b5160ff1611156110ca576009546040516304252ae160e51b8152600481018690526001600160a01b0390911690630d2176ed9033908390637e5ea2829082906384a55c209060240160206040518083038186803b158015610fc257600080fd5b505afa158015610fd6573d6000803e3d6000fd5b505050506040513d601f19601f82011682018060405250810190610ffa91906128cd565b6040518263ffffffff1660e01b815260040161101891815260200190565b604080518083038186803b15801561102f57600080fd5b505afa158015611043573d6000803e3d6000fd5b505050506040513d601f19601f820116820180604052508101906110679190612859565b5160405160e084901b6001600160e01b03191681526001600160a01b03909216600483015260ff166024820152604401600060405180830381600087803b1580156110b157600080fd5b505af11580156110c5573d6000803e3d6000fd5b505050505b505060016008555050565b600781815481106110e557600080fd5b60009182526020909120600290910201805460019091015490915082565b600954604051630e4d620560e01b81523360048201526000916001600160a01b031690630e4d62059060240160206040518083038186803b15801561114757600080fd5b505afa15801561115b573d6000803e3d6000fd5b505050506040513d601f19601f8201168201806040525081019061117f91906128cd565b6009546040516304252ae160e51b8152600481018390529192506000916001600160a01b0390911690637e5ea2829082906384a55c209060240160206040518083038186803b1580156111d157600080fd5b505afa1580156111e5573d6000803e3d6000fd5b505050506040513d601f19601f8201168201806040525081019061120991906128cd565b6040518263ffffffff1660e01b815260040161122791815260200190565b604080518083038186803b15801561123e57600080fd5b505afa158015611252573d6000803e3d6000fd5b505050506040513d601f19601f820116820180604052508101906112769190612859565b5160ff169050816112b95760405162461bcd60e51b815260206004820152600d60248201526c2ab73b30b634b2103a37b5b2b760991b6044820152606401610343565b6009546040516331a9108f60e11b81526004810184905233916001600160a01b031690636352211e9060240160206040518083038186803b1580156112fd57600080fd5b505afa158015611311573d6000803e3d6000fd5b505050506040513d601f19601f820116820180604052508101906113359190612777565b6001600160a01b0316146113775760405162461bcd60e51b81526020600482015260096024820152682737ba1037bbb732b960b91b6044820152606401610343565b8185146113bb5760405162461bcd60e51b815260206004820152601260248201527110dbdb9cda5cdd195b9d081d1bdad95b925160721b6044820152606401610343565b8381146113fd5760405162461bcd60e51b815260206004820152601060248201526f10dbdb9cda5cdd195b9d081b195d995b60821b6044820152606401610343565b600954604051637538bcfd60e01b815260048101849052602481018390526001600160a01b0390911690637538bcfd9060440160206040518083038186803b15801561144857600080fd5b505afa15801561145c573d6000803e3d6000fd5b505050506040513d601f19601f820116820180604052508101906114809190612793565b156114bd5760405162461bcd60e51b815260206004820152600d60248201526c536574206f766572206f6e636560981b6044820152606401610343565b600954604051622a710d60e31b81526001600160a01b03909116906301538868906114ee90859087906004016129f6565b600060405180830381600087803b15801561150857600080fd5b505af115801561151c573d6000803e3d6000fd5b5050600954604051639d47207160e01b8152336004820152600060248201526001600160a01b039091169250639d4720719150604401600060405180830381600087803b15801561156c57600080fd5b505af1158015611580573d6000803e3d6000fd5b505060095460405163682fffaf60e01b81526004810186905260248101859052600160448201526001600160a01b03909116925063682fffaf9150606401600060405180830381600087803b1580156115d857600080fd5b505af11580156115ec573d6000803e3d6000fd5b505050505050505050565b60095460405163a1b3d1ff60e01b81526001600160a01b039091169063a1b3d1ff906116279084906004016129e3565b600060405180830381600087803b15801561164157600080fd5b505af1158015611655573d6000803e3d6000fd5b5050505050565b600954604051622a710d60e31b81526001600160a01b039091169063015388689061168d90859085906004016129f6565b600060405180830381600087803b1580156116a757600080fd5b505af11580156116bb573d6000803e3d6000fd5b505050505050565b600954604051630e4d620560e01b81523360048201526001600160a01b0390911690630e4d62059060240160206040518083038186803b15801561170657600080fd5b505afa15801561171a573d6000803e3d6000fd5b505050506040513d601f19601f8201168201806040525081019061173e91906128cd565b156117805760405162461bcd60e51b815260206004820152601260248201527114d95d081d1bdad95b95549248199a5c9cdd60721b6044820152606401610343565b600954604051630554924960e51b81523360048201526001600160a01b039091169063aa9249209060240160206040518083038186803b1580156117c357600080fd5b505afa1580156117d7573d6000803e3d6000fd5b505050506040513d601f19601f820116820180604052508101906117fb9190612793565b156118325760405162461bcd60e51b8152602060048201526007602482015266115e1c1a5c995960ca1b6044820152606401610343565b600960009054906101000a90046001600160a01b03166001600160a01b031663860998b86040518163ffffffff1660e01b815260040160206040518083038186803b15801561188057600080fd5b505afa158015611894573d6000803e3d6000fd5b505050506040513d601f19601f820116820180604052508101906118b891906128cd565b6119496001600960009054906101000a90046001600160a01b03166001600160a01b03166325ebda5b6040518163ffffffff1660e01b815260040160206040518083038186803b15801561190b57600080fd5b505afa15801561191f573d6000803e3d6000fd5b505050506040513d601f19601f8201168201806040525081019061194391906128cd565b906124a8565b11156119a85760405162461bcd60e51b815260206004820152602860248201527f4d696e7420776f756c6420657863656564206d617820737570706c79206f6620604482015267566f79616765727360c01b6064820152608401610343565b60095460408051630ca1c5c960e01b815290516000926001600160a01b031691630ca1c5c9916004808301926020929190829003018186803b1580156119ed57600080fd5b505afa158015611a01573d6000803e3d6000fd5b505050506040513d601f19601f82011682018060405250810190611a2591906128cd565b600954604051634541a7fb60e11b8152336004820152602481018390529192506001600160a01b031690638a834ff690604401600060405180830381600087803b158015611a7257600080fd5b505af1158015611a86573d6000803e3d6000fd5b505050508060001415611b71576009546040805163b9e1bbf960e01b815290516001600160a01b03909216916301538868918491849163b9e1bbf9916004808301926000929190829003018186803b158015611ae157600080fd5b505afa158015611af5573d6000803e3d6000fd5b505050506040513d6000823e601f3d908101601f19168201604052611b1d91908101906127e6565b6040518363ffffffff1660e01b8152600401611b3a9291906129f6565b600060405180830381600087803b158015611b5457600080fd5b505af1158015611b68573d6000803e3d6000fd5b50505050611bd6565b600954604051639d47207160e01b8152336004820152602481018390526001600160a01b0390911690639d47207190604401600060405180830381600087803b158015611bbd57600080fd5b505af1158015611bd1573d6000803e3d6000fd5b505050505b60095460408051630ca1c5c960e01b815290516001600160a01b03909216916316dbf90691611c2a916001918591630ca1c5c991600480820192602092909190829003018186803b15801561190b57600080fd5b6040518263ffffffff1660e01b8152600401611c4891815260200190565b600060405180830381600087803b158015611c6257600080fd5b505af1158015611c76573d6000803e3d6000fd5b505060095460405163ca0a9e3d60e01b8152336004820152600160248201526001600160a01b03909116925063ca0a9e3d9150604401600060405180830381600087803b158015611cc657600080fd5b505af1158015611cda573d6000803e3d6000fd5b5050600954604080516325ebda5b60e01b815290516001600160a01b03909216935063440372f89250611d329160019185916325ebda5b91600480820192602092909190829003018186803b15801561190b57600080fd5b6040518263ffffffff1660e01b815260040161162791815260200190565b60038160058110611d6057600080fd5b60089182820401919006600402915054906101000a900463ffffffff1681565b600954604051630e4d620560e01b81523360048201526000916001600160a01b031690630e4d62059060240160206040518083038186803b158015611dc457600080fd5b505afa158015611dd8573d6000803e3d6000fd5b505050506040513d601f19601f82011682018060405250810190611dfc91906128cd565b905090565b600954604051630e4d620560e01b81523360048201526001600160a01b0390911690630e4d62059060240160206040518083038186803b158015611e4457600080fd5b505afa158015611e58573d6000803e3d6000fd5b505050506040513d601f19601f82011682018060405250810190611e7c91906128cd565b15611ebe5760405162461bcd60e51b815260206004820152601260248201527114d95d081d1bdad95b95549248199a5c9cdd60721b6044820152606401610343565b600954604080516312dfc85160e31b8152905160009283926001600160a01b0390911691632f40faf79183916396fe428891600480820192602092909190829003018186803b158015611f1057600080fd5b505afa158015611f24573d6000803e3d6000fd5b505050506040513d601f19601f82011682018060405250810190611f4891906128cd565b6040518263ffffffff1660e01b8152600401611f6691815260200190565b604080518083038186803b158015611f7d57600080fd5b505afa158015611f91573d6000803e3d6000fd5b505050506040513d601f19601f82011682018060405250810190611fb5919061292a565b6000546040516370a0823160e01b815233600482015292945090925083916001600160a01b03909116906370a082319060240160206040518083038186803b15801561200057600080fd5b505afa158015612014573d6000803e3d6000fd5b505050506040513d601f19601f8201168201806040525081019061203891906128cd565b101561207f5760405162461bcd60e51b81526020600482015260166024820152752ab739bab33334b1b4b2b73a103233ba103a37b5b2b760511b6044820152606401610343565b6001546040516370a0823160e01b815233600482015282916001600160a01b0316906370a082319060240160206040518083038186803b1580156120c257600080fd5b505afa1580156120d6573d6000803e3d6000fd5b505050506040513d601f19601f820116820180604052508101906120fa91906128cd565b10156121415760405162461bcd60e51b81526020600482015260166024820152752ab739bab33334b1b4b2b73a103239b8103a37b5b2b760511b6044820152606401610343565b600054612159906001600160a01b0316333085612448565b600154612171906001600160a01b0316333084612448565b60095460408051630ca1c5c960e01b815290516000926001600160a01b031691630ca1c5c9916004808301926020929190829003018186803b1580156121b657600080fd5b505afa1580156121ca573d6000803e3d6000fd5b505050506040513d601f19601f820116820180604052508101906121ee91906128cd565b600954604051634541a7fb60e11b8152336004820152602481018390529192506001600160a01b031690638a834ff690604401600060405180830381600087803b15801561223b57600080fd5b505af115801561224f573d6000803e3d6000fd5b50505050806000141561233a576009546040805163b9e1bbf960e01b815290516001600160a01b03909216916301538868918491849163b9e1bbf9916004808301926000929190829003018186803b1580156122aa57600080fd5b505afa1580156122be573d6000803e3d6000fd5b505050506040513d6000823e601f3d908101601f191682016040526122e691908101906127e6565b6040518363ffffffff1660e01b81526004016123039291906129f6565b600060405180830381600087803b15801561231d57600080fd5b505af1158015612331573d6000803e3d6000fd5b5050505061239f565b600954604051639d47207160e01b8152336004820152602481018390526001600160a01b0390911690639d47207190604401600060405180830381600087803b15801561238657600080fd5b505af115801561239a573d6000803e3d6000fd5b505050505b60095460408051630ca1c5c960e01b815290516001600160a01b03909216916316dbf906916123f3916001918591630ca1c5c991600480820192602092909190829003018186803b15801561190b57600080fd5b6040518263ffffffff1660e01b815260040161241191815260200190565b600060405180830381600087803b15801561242b57600080fd5b505af115801561243f573d6000803e3d6000fd5b50505050505050565b604080516001600160a01b0385811660248301528416604482015260648082018490528251808303909101815260849091019091526020810180516001600160e01b03166323b872dd60e01b1790526124a29085906124bb565b50505050565b60006124b48284612a68565b9392505050565b6000612510826040518060400160405280602081526020017f5361666545524332303a206c6f772d6c6576656c2063616c6c206661696c6564815250856001600160a01b03166125929092919063ffffffff16565b80519091501561258d578080602001905181019061252e9190612793565b61258d5760405162461bcd60e51b815260206004820152602a60248201527f5361666545524332303a204552433230206f7065726174696f6e20646964206e6044820152691bdd081cdd58d8d9595960b21b6064820152608401610343565b505050565b60606125a184846000856125a9565b949350505050565b60608247101561260a5760405162461bcd60e51b815260206004820152602660248201527f416464726573733a20696e73756666696369656e742062616c616e636520666f6044820152651c8818d85b1b60d21b6064820152608401610343565b843b6126585760405162461bcd60e51b815260206004820152601d60248201527f416464726573733a2063616c6c20746f206e6f6e2d636f6e74726163740000006044820152606401610343565b600080866001600160a01b0316858760405161267491906129c7565b60006040518083038185875af1925050503d80600081146126b1576040519150601f19603f3d011682016040523d82523d6000602084013e6126b6565b606091505b50915091506126c68282866126d1565b979650505050505050565b606083156126e05750816124b4565b8251156126f05782518084602001fd5b8160405162461bcd60e51b815260040161034391906129e3565b600082601f83011261271a578081fd5b813561272d61272882612a40565b612a0f565b818152846020838601011115612741578283fd5b816020850160208301379081016020019190915292915050565b60006020828403121561276c578081fd5b81356124b481612aef565b600060208284031215612788578081fd5b81516124b481612aef565b6000602082840312156127a4578081fd5b815180151581146124b4578182fd5b6000602082840312156127c4578081fd5b813567ffffffffffffffff8111156127da578182fd5b6125a18482850161270a565b6000602082840312156127f7578081fd5b815167ffffffffffffffff81111561280d578182fd5b8201601f8101841361281d578182fd5b805161282b61272882612a40565b81815285602083850101111561283f578384fd5b612850826020830160208601612a97565b95945050505050565b60006040828403121561286a578081fd5b6040516040810181811067ffffffffffffffff8211171561288d5761288d612ad9565b604052825160ff811681146128a0578283fd5b81526020928301519281019290925250919050565b6000602082840312156128c6578081fd5b5035919050565b6000602082840312156128de578081fd5b5051919050565b600080604083850312156128f7578081fd5b82359150602083013567ffffffffffffffff811115612914578182fd5b6129208582860161270a565b9150509250929050565b6000806040838503121561293c578182fd5b505080516020909101519092909150565b600080600060608486031215612961578081fd5b8335925060208401359150604084013567ffffffffffffffff811115612985578182fd5b6129918682870161270a565b9150509250925092565b600081518084526129b3816020860160208601612a97565b601f01601f19169290920160200192915050565b600082516129d9818460208701612a97565b9190910192915050565b6020815260006124b4602083018461299b565b8281526040602082015260006125a1604083018461299b565b604051601f8201601f1916810167ffffffffffffffff81118282101715612a3857612a38612ad9565b604052919050565b600067ffffffffffffffff821115612a5a57612a5a612ad9565b50601f01601f191660200190565b60008219821115612a7b57612a7b612ac3565b500190565b600082821015612a9257612a92612ac3565b500390565b60005b83811015612ab2578181015183820152602001612a9a565b838111156124a25750506000910152565b634e487b7160e01b600052601160045260246000fd5b634e487b7160e01b600052604160045260246000fd5b6001600160a01b0381168114612b0457600080fd5b5056fea2646970667358221220135f8524d1f8fd5d8beca5ef4394b31a5b5a4f80b177440f16154adb0258818464736f6c63430008040033",
  "devdoc": {
    "kind": "dev",
    "methods": {},
    "version": 1
  },
  "userdoc": {
    "kind": "user",
    "methods": {
      "cooldowns(uint256)": {
        "notice": ",cooldowns7"
      },
      "mintVoyager()": {
        "notice": "Mint Voyagers: 1.level, 2.level3.4."
      },
      "mintVoyagerByWhitelist()": {
        "notice": "Mint Voyagers: 1.level, 2.level3.4."
      }
    },
    "version": 1
  },
  "storageLayout": {
    "storage": [
      {
        "astId": 5133,
        "contract": "contracts/voyager/VoyagerLogic.sol:VoyagerLogic",
        "label": "dgtAddress",
        "offset": 0,
        "slot": "0",
        "type": "t_address"
      },
      {
        "astId": 5135,
        "contract": "contracts/voyager/VoyagerLogic.sol:VoyagerLogic",
        "label": "dspAddress",
        "offset": 0,
        "slot": "1",
        "type": "t_address"
      },
      {
        "astId": 5140,
        "contract": "contracts/voyager/VoyagerLogic.sol:VoyagerLogic",
        "label": "decimals",
        "offset": 0,
        "slot": "2",
        "type": "t_uint256"
      },
      {
        "astId": 5176,
        "contract": "contracts/voyager/VoyagerLogic.sol:VoyagerLogic",
        "label": "cooldowns",
        "offset": 0,
        "slot": "3",
        "type": "t_array(t_uint32)5_storage"
      },
      {
        "astId": 5179,
        "contract": "contracts/voyager/VoyagerLogic.sol:VoyagerLogic",
        "label": "minLevel",
        "offset": 0,
        "slot": "4",
        "type": "t_uint256"
      },
      {
        "astId": 5181,
        "contract": "contracts/voyager/VoyagerLogic.sol:VoyagerLogic",
        "label": "maxLevel",
        "offset": 0,
        "slot": "5",
        "type": "t_uint256"
      },
      {
        "astId": 5184,
        "contract": "contracts/voyager/VoyagerLogic.sol:VoyagerLogic",
        "label": "initialSupply",
        "offset": 0,
        "slot": "6",
        "type": "t_uint256"
      },
      {
        "astId": 5188,
        "contract": "contracts/voyager/VoyagerLogic.sol:VoyagerLogic",
        "label": "levelUpFees",
        "offset": 0,
        "slot": "7",
        "type": "t_array(t_struct(FeeComponent)5145_storage)dyn_storage"
      },
      {
        "astId": 206,
        "contract": "contracts/voyager/VoyagerLogic.sol:VoyagerLogic",
        "label": "_status",
        "offset": 0,
        "slot": "8",
        "type": "t_uint256"
      },
      {
        "astId": 6616,
        "contract": "contracts/voyager/VoyagerLogic.sol:VoyagerLogic",
        "label": "vS",
        "offset": 0,
        "slot": "9",
        "type": "t_contract(VoyagerStorage)8542"
      }
    ],
    "types": {
      "t_address": {
        "encoding": "inplace",
        "label": "address",
        "numberOfBytes": "20"
      },
      "t_array(t_struct(FeeComponent)5145_storage)dyn_storage": {
        "base": "t_struct(FeeComponent)5145_storage",
        "encoding": "dynamic_array",
        "label": "struct BaseStorage.FeeComponent[]",
        "numberOfBytes": "32"
      },
      "t_array(t_uint32)5_storage": {
        "base": "t_uint32",
        "encoding": "inplace",
        "label": "uint32[5]",
        "numberOfBytes": "32"
      },
      "t_contract(VoyagerStorage)8542": {
        "encoding": "inplace",
        "label": "contract VoyagerStorage",
        "numberOfBytes": "20"
      },
      "t_struct(FeeComponent)5145_storage": {
        "encoding": "inplace",
        "label": "struct BaseStorage.FeeComponent",
        "members": [
          {
            "astId": 5142,
            "contract": "contracts/voyager/VoyagerLogic.sol:VoyagerLogic",
            "label": "dgt",
            "offset": 0,
            "slot": "0",
            "type": "t_uint256"
          },
          {
            "astId": 5144,
            "contract": "contracts/voyager/VoyagerLogic.sol:VoyagerLogic",
            "label": "dsp",
            "offset": 0,
            "slot": "1",
            "type": "t_uint256"
          }
        ],
        "numberOfBytes": "64"
      },
      "t_uint256": {
        "encoding": "inplace",
        "label": "uint256",
        "numberOfBytes": "32"
      },
      "t_uint32": {
        "encoding": "inplace",
        "label": "uint32",
        "numberOfBytes": "4"
      }
    }
  }
}