{
  "address": "0xA1512bc6f13531c2C36365667Ebcd2cD59937602",
  "abi": [
    {
      "anonymous": false,
      "inputs": [
        {
          "indexed": false,
          "internalType": "address",
          "name": "oldAdmin",
          "type": "address"
        },
        {
          "indexed": false,
          "internalType": "address",
          "name": "newAdmin",
          "type": "address"
        }
      ],
      "name": "AdminTransferred",
      "type": "event"
    },
    {
      "anonymous": false,
      "inputs": [
        {
          "indexed": true,
          "internalType": "address",
          "name": "nftContract",
          "type": "address"
        },
        {
          "indexed": true,
          "internalType": "address",
          "name": "buyer",
          "type": "address"
        },
        {
          "indexed": true,
          "internalType": "uint256",
          "name": "itemId",
          "type": "uint256"
        }
      ],
      "name": "CreateMarketSale",
      "type": "event"
    },
    {
      "anonymous": false,
      "inputs": [
        {
          "indexed": true,
          "internalType": "uint256",
          "name": "itemId",
          "type": "uint256"
        },
        {
          "indexed": true,
          "internalType": "address",
          "name": "nftContract",
          "type": "address"
        },
        {
          "indexed": true,
          "internalType": "uint256",
          "name": "tokenId",
          "type": "uint256"
        },
        {
          "indexed": false,
          "internalType": "address",
          "name": "seller",
          "type": "address"
        },
        {
          "indexed": false,
          "internalType": "address",
          "name": "owner",
          "type": "address"
        },
        {
          "indexed": false,
          "internalType": "uint256",
          "name": "price",
          "type": "uint256"
        },
        {
          "indexed": false,
          "internalType": "address",
          "name": "quoteTokenContract",
          "type": "address"
        },
        {
          "indexed": false,
          "internalType": "bool",
          "name": "sold",
          "type": "bool"
        }
      ],
      "name": "MarketItemCreated",
      "type": "event"
    },
    {
      "anonymous": false,
      "inputs": [
        {
          "indexed": true,
          "internalType": "address",
          "name": "previousOwner",
          "type": "address"
        },
        {
          "indexed": true,
          "internalType": "address",
          "name": "newOwner",
          "type": "address"
        }
      ],
      "name": "OwnershipTransferred",
      "type": "event"
    },
    {
      "anonymous": false,
      "inputs": [
        {
          "indexed": true,
          "internalType": "address",
          "name": "_QuoteToken",
          "type": "address"
        }
      ],
      "name": "QuoteTokenAdded",
      "type": "event"
    },
    {
      "anonymous": false,
      "inputs": [
        {
          "indexed": true,
          "internalType": "address",
          "name": "_QuoteToken",
          "type": "address"
        }
      ],
      "name": "QuoteTokenRemoved",
      "type": "event"
    },
    {
      "inputs": [
        {
          "internalType": "address",
          "name": "",
          "type": "address"
        }
      ],
      "name": "QuoteToken",
      "outputs": [
        {
          "internalType": "bool",
          "name": "",
          "type": "bool"
        }
      ],
      "stateMutability": "view",
      "type": "function"
    },
    {
      "inputs": [
        {
          "internalType": "uint256",
          "name": "",
          "type": "uint256"
        }
      ],
      "name": "QuoteTokens",
      "outputs": [
        {
          "internalType": "address",
          "name": "",
          "type": "address"
        }
      ],
      "stateMutability": "view",
      "type": "function"
    },
    {
      "inputs": [
        {
          "internalType": "address[]",
          "name": "_addedQuoteTokens",
          "type": "address[]"
        }
      ],
      "name": "addQuoteTokens",
      "outputs": [],
      "stateMutability": "nonpayable",
      "type": "function"
    },
    {
      "inputs": [],
      "name": "admin",
      "outputs": [
        {
          "internalType": "address",
          "name": "",
          "type": "address"
        }
      ],
      "stateMutability": "view",
      "type": "function"
    },
    {
      "inputs": [
        {
          "internalType": "address",
          "name": "nftContract",
          "type": "address"
        },
        {
          "internalType": "address",
          "name": "quoteTokenContract",
          "type": "address"
        },
        {
          "internalType": "uint256",
          "name": "tokenId",
          "type": "uint256"
        },
        {
          "internalType": "uint256",
          "name": "price",
          "type": "uint256"
        }
      ],
      "name": "createMarketItem",
      "outputs": [],
      "stateMutability": "nonpayable",
      "type": "function"
    },
    {
      "inputs": [
        {
          "internalType": "address",
          "name": "nftContract",
          "type": "address"
        },
        {
          "internalType": "uint256",
          "name": "tokenId",
          "type": "uint256"
        },
        {
          "internalType": "uint256",
          "name": "price",
          "type": "uint256"
        }
      ],
      "name": "createMarketItemByBNB",
      "outputs": [],
      "stateMutability": "nonpayable",
      "type": "function"
    },
    {
      "inputs": [
        {
          "internalType": "address",
          "name": "nftContract",
          "type": "address"
        },
        {
          "internalType": "uint256",
          "name": "itemId",
          "type": "uint256"
        }
      ],
      "name": "createMarketSale",
      "outputs": [],
      "stateMutability": "payable",
      "type": "function"
    },
    {
      "inputs": [],
      "name": "fetchItemsCreated",
      "outputs": [
        {
          "components": [
            {
              "internalType": "uint256",
              "name": "itemId",
              "type": "uint256"
            },
            {
              "internalType": "address",
              "name": "nftContract",
              "type": "address"
            },
            {
              "internalType": "uint256",
              "name": "tokenId",
              "type": "uint256"
            },
            {
              "internalType": "address",
              "name": "seller",
              "type": "address"
            },
            {
              "internalType": "address",
              "name": "owner",
              "type": "address"
            },
            {
              "internalType": "uint256",
              "name": "price",
              "type": "uint256"
            },
            {
              "internalType": "address",
              "name": "quoteTokenContract",
              "type": "address"
            },
            {
              "internalType": "bool",
              "name": "sold",
              "type": "bool"
            }
          ],
          "internalType": "struct Marketplace.MarketItem[]",
          "name": "",
          "type": "tuple[]"
        }
      ],
      "stateMutability": "view",
      "type": "function"
    },
    {
      "inputs": [
        {
          "internalType": "address",
          "name": "_owner",
          "type": "address"
        }
      ],
      "name": "fetchOnesSold",
      "outputs": [
        {
          "components": [
            {
              "internalType": "uint256",
              "name": "itemId",
              "type": "uint256"
            },
            {
              "internalType": "address",
              "name": "nftContract",
              "type": "address"
            },
            {
              "internalType": "uint256",
              "name": "tokenId",
              "type": "uint256"
            },
            {
              "internalType": "address",
              "name": "seller",
              "type": "address"
            },
            {
              "internalType": "address",
              "name": "owner",
              "type": "address"
            },
            {
              "internalType": "uint256",
              "name": "price",
              "type": "uint256"
            },
            {
              "internalType": "address",
              "name": "quoteTokenContract",
              "type": "address"
            },
            {
              "internalType": "bool",
              "name": "sold",
              "type": "bool"
            }
          ],
          "internalType": "struct Marketplace.MarketItem[]",
          "name": "",
          "type": "tuple[]"
        }
      ],
      "stateMutability": "view",
      "type": "function"
    },
    {
      "inputs": [
        {
          "internalType": "address",
          "name": "_owner",
          "type": "address"
        }
      ],
      "name": "fetchOnesUnsold",
      "outputs": [
        {
          "components": [
            {
              "internalType": "uint256",
              "name": "itemId",
              "type": "uint256"
            },
            {
              "internalType": "address",
              "name": "nftContract",
              "type": "address"
            },
            {
              "internalType": "uint256",
              "name": "tokenId",
              "type": "uint256"
            },
            {
              "internalType": "address",
              "name": "seller",
              "type": "address"
            },
            {
              "internalType": "address",
              "name": "owner",
              "type": "address"
            },
            {
              "internalType": "uint256",
              "name": "price",
              "type": "uint256"
            },
            {
              "internalType": "address",
              "name": "quoteTokenContract",
              "type": "address"
            },
            {
              "internalType": "bool",
              "name": "sold",
              "type": "bool"
            }
          ],
          "internalType": "struct Marketplace.MarketItem[]",
          "name": "",
          "type": "tuple[]"
        }
      ],
      "stateMutability": "view",
      "type": "function"
    },
    {
      "inputs": [],
      "name": "fetchSoldItems",
      "outputs": [
        {
          "components": [
            {
              "internalType": "uint256",
              "name": "itemId",
              "type": "uint256"
            },
            {
              "internalType": "address",
              "name": "nftContract",
              "type": "address"
            },
            {
              "internalType": "uint256",
              "name": "tokenId",
              "type": "uint256"
            },
            {
              "internalType": "address",
              "name": "seller",
              "type": "address"
            },
            {
              "internalType": "address",
              "name": "owner",
              "type": "address"
            },
            {
              "internalType": "uint256",
              "name": "price",
              "type": "uint256"
            },
            {
              "internalType": "address",
              "name": "quoteTokenContract",
              "type": "address"
            },
            {
              "internalType": "bool",
              "name": "sold",
              "type": "bool"
            }
          ],
          "internalType": "struct Marketplace.MarketItem[]",
          "name": "",
          "type": "tuple[]"
        }
      ],
      "stateMutability": "view",
      "type": "function"
    },
    {
      "inputs": [
        {
          "internalType": "address",
          "name": "_owner",
          "type": "address"
        }
      ],
      "name": "fetchTradeHistory",
      "outputs": [
        {
          "components": [
            {
              "internalType": "uint256",
              "name": "itemId",
              "type": "uint256"
            },
            {
              "internalType": "address",
              "name": "nftContract",
              "type": "address"
            },
            {
              "internalType": "uint256",
              "name": "tokenId",
              "type": "uint256"
            },
            {
              "internalType": "address",
              "name": "seller",
              "type": "address"
            },
            {
              "internalType": "address",
              "name": "owner",
              "type": "address"
            },
            {
              "internalType": "uint256",
              "name": "price",
              "type": "uint256"
            },
            {
              "internalType": "address",
              "name": "quoteTokenContract",
              "type": "address"
            },
            {
              "internalType": "bool",
              "name": "sold",
              "type": "bool"
            }
          ],
          "internalType": "struct Marketplace.MarketItem[]",
          "name": "",
          "type": "tuple[]"
        }
      ],
      "stateMutability": "view",
      "type": "function"
    },
    {
      "inputs": [],
      "name": "fetchUnsoldItems",
      "outputs": [
        {
          "components": [
            {
              "internalType": "uint256",
              "name": "itemId",
              "type": "uint256"
            },
            {
              "internalType": "address",
              "name": "nftContract",
              "type": "address"
            },
            {
              "internalType": "uint256",
              "name": "tokenId",
              "type": "uint256"
            },
            {
              "internalType": "address",
              "name": "seller",
              "type": "address"
            },
            {
              "internalType": "address",
              "name": "owner",
              "type": "address"
            },
            {
              "internalType": "uint256",
              "name": "price",
              "type": "uint256"
            },
            {
              "internalType": "address",
              "name": "quoteTokenContract",
              "type": "address"
            },
            {
              "internalType": "bool",
              "name": "sold",
              "type": "bool"
            }
          ],
          "internalType": "struct Marketplace.MarketItem[]",
          "name": "",
          "type": "tuple[]"
        }
      ],
      "stateMutability": "view",
      "type": "function"
    },
    {
      "inputs": [],
      "name": "flipMintableState",
      "outputs": [],
      "stateMutability": "nonpayable",
      "type": "function"
    },
    {
      "inputs": [
        {
          "internalType": "uint256",
          "name": "itemId",
          "type": "uint256"
        }
      ],
      "name": "getMarketItem",
      "outputs": [
        {
          "components": [
            {
              "internalType": "uint256",
              "name": "itemId",
              "type": "uint256"
            },
            {
              "internalType": "address",
              "name": "nftContract",
              "type": "address"
            },
            {
              "internalType": "uint256",
              "name": "tokenId",
              "type": "uint256"
            },
            {
              "internalType": "address",
              "name": "seller",
              "type": "address"
            },
            {
              "internalType": "address",
              "name": "owner",
              "type": "address"
            },
            {
              "internalType": "uint256",
              "name": "price",
              "type": "uint256"
            },
            {
              "internalType": "address",
              "name": "quoteTokenContract",
              "type": "address"
            },
            {
              "internalType": "bool",
              "name": "sold",
              "type": "bool"
            }
          ],
          "internalType": "struct Marketplace.MarketItem",
          "name": "",
          "type": "tuple"
        }
      ],
      "stateMutability": "view",
      "type": "function"
    },
    {
      "inputs": [
        {
          "internalType": "uint256",
          "name": "itemId",
          "type": "uint256"
        }
      ],
      "name": "getPrice",
      "outputs": [
        {
          "internalType": "uint256",
          "name": "",
          "type": "uint256"
        }
      ],
      "stateMutability": "view",
      "type": "function"
    },
    {
      "inputs": [
        {
          "internalType": "uint256",
          "name": "itemId",
          "type": "uint256"
        }
      ],
      "name": "getQuoteTokenAddress",
      "outputs": [
        {
          "internalType": "address",
          "name": "",
          "type": "address"
        }
      ],
      "stateMutability": "view",
      "type": "function"
    },
    {
      "inputs": [
        {
          "internalType": "address",
          "name": "_addr",
          "type": "address"
        }
      ],
      "name": "isQuoteToken",
      "outputs": [
        {
          "internalType": "bool",
          "name": "",
          "type": "bool"
        }
      ],
      "stateMutability": "view",
      "type": "function"
    },
    {
      "inputs": [],
      "name": "mineIsActive",
      "outputs": [
        {
          "internalType": "bool",
          "name": "",
          "type": "bool"
        }
      ],
      "stateMutability": "view",
      "type": "function"
    },
    {
      "inputs": [],
      "name": "mintIsActive",
      "outputs": [
        {
          "internalType": "bool",
          "name": "",
          "type": "bool"
        }
      ],
      "stateMutability": "view",
      "type": "function"
    },
    {
      "inputs": [],
      "name": "owner",
      "outputs": [
        {
          "internalType": "address",
          "name": "",
          "type": "address"
        }
      ],
      "stateMutability": "view",
      "type": "function"
    },
    {
      "inputs": [],
      "name": "proxy",
      "outputs": [
        {
          "internalType": "address",
          "name": "",
          "type": "address"
        }
      ],
      "stateMutability": "view",
      "type": "function"
    },
    {
      "inputs": [
        {
          "internalType": "address[]",
          "name": "_removedQuoteTokens",
          "type": "address[]"
        }
      ],
      "name": "removeQuoteTokens",
      "outputs": [],
      "stateMutability": "nonpayable",
      "type": "function"
    },
    {
      "inputs": [],
      "name": "renounceOwnership",
      "outputs": [],
      "stateMutability": "nonpayable",
      "type": "function"
    },
    {
      "inputs": [
        {
          "internalType": "address",
          "name": "_proxy",
          "type": "address"
        }
      ],
      "name": "setProxy",
      "outputs": [],
      "stateMutability": "nonpayable",
      "type": "function"
    },
    {
      "inputs": [
        {
          "internalType": "address",
          "name": "newAdmin",
          "type": "address"
        }
      ],
      "name": "transferAdmin",
      "outputs": [],
      "stateMutability": "nonpayable",
      "type": "function"
    },
    {
      "inputs": [
        {
          "internalType": "address",
          "name": "newOwner",
          "type": "address"
        }
      ],
      "name": "transferOwnership",
      "outputs": [],
      "stateMutability": "nonpayable",
      "type": "function"
    },
    {
      "inputs": [
        {
          "internalType": "bytes32",
          "name": "hash",
          "type": "bytes32"
        },
        {
          "internalType": "bytes",
          "name": "signature",
          "type": "bytes"
        }
      ],
      "name": "verified",
      "outputs": [
        {
          "internalType": "bool",
          "name": "",
          "type": "bool"
        }
      ],
      "stateMutability": "view",
      "type": "function"
    },
    {
      "inputs": [
        {
          "internalType": "address",
          "name": "nftContract",
          "type": "address"
        },
        {
          "internalType": "address",
          "name": "to_",
          "type": "address"
        },
        {
          "internalType": "uint256",
          "name": "tokenId_",
          "type": "uint256"
        }
      ],
      "name": "withdrawNFT",
      "outputs": [],
      "stateMutability": "nonpayable",
      "type": "function"
    }
  ],
  "transactionHash": "0xad6206125143dbec9762084ab12abac1f471903cd089152b3915f28b0a60e5c5",
  "args": [],
  "solcInputHash": "111832c4bd8240d32d619a68a1c12b62",
  "bytecode": "0x60806040526003805461ffff60a01b191661010160a01b1790553480156200002657600080fd5b50620000323362000047565b60018055620000413362000097565b620000f8565b600080546001600160a01b038381166001600160a01b0319831681178455604051919092169283917f8be0079c531659141344cd1fd0a4f28419497f9722a3daafe3b4186f6b6457e09190a35050565b600280546001600160a01b038381166001600160a01b031983168117909355604080519190921680825260208201939093527ff8ccb027dfcd135e000e9d45e6cc2d662578a8825d4c45b5e32e0adf67e79ec6910160405180910390a15050565b612a1e80620001086000396000f3fe6080604052600436106101c25760003560e01c8063c89f2cce116100f7578063ec51a17d11610095578063f2fde38b11610064578063f2fde38b14610538578063f851a44014610558578063fe7206cf14610576578063ff7d56251461059657600080fd5b8063ec51a17d146104cd578063ec556889146104ee578063f01852551461050e578063f064c32e1461052357600080fd5b8063d32fb961116100d1578063d32fb96114610416578063df4a459714610436578063e03694291461046f578063e75722301461048f57600080fd5b8063c89f2cce146103a8578063c8c2c29a146103bd578063c9afee2c146103f657600080fd5b80638da5cb5b11610164578063b62b6f721161013e578063b62b6f7214610326578063bff863ec14610348578063c23b139e14610368578063c7be7a491461037b57600080fd5b80638da5cb5b146102b45780638f3d0315146102e657806397107d6d1461030657600080fd5b80635b9174c5116101a05780635b9174c51461023f5780636a95054f1461025f578063715018a61461027f57806375829def1461029457600080fd5b8063341cb876146101c757806334f15bd7146101e9578063471a42941461021e575b600080fd5b3480156101d357600080fd5b506101e76101e236600461253d565b6105c6565b005b3480156101f557600080fd5b50610209610204366004612645565b6107fc565b60405190151581526020015b60405180910390f35b34801561022a57600080fd5b5060035461020990600160a01b900460ff1681565b34801561024b57600080fd5b506101e761025a366004612571565b6108b6565b34801561026b57600080fd5b506101e761027a3660046124cd565b6109e1565b34801561028b57600080fd5b506101e7610cd3565b3480156102a057600080fd5b506101e76102af366004612455565b610d09565b3480156102c057600080fd5b506000546001600160a01b03165b6040516001600160a01b039091168152602001610215565b3480156102f257600080fd5b506101e7610301366004612571565b610daa565b34801561031257600080fd5b506101e7610321366004612455565b610fd8565b34801561033257600080fd5b5061033b61106c565b60405161021591906127c4565b34801561035457600080fd5b506101e761036336600461248d565b611225565b6101e7610376366004612512565b6112b6565b34801561038757600080fd5b5061039b6103963660046126de565b6114e4565b60405161021591906128f1565b3480156103b457600080fd5b5061033b611571565b3480156103c957600080fd5b506102096103d8366004612455565b6001600160a01b031660009081526005602052604090205460ff1690565b34801561040257600080fd5b506102ce6104113660046126de565b611720565b34801561042257600080fd5b5061033b610431366004612455565b61174a565b34801561044257600080fd5b506102ce6104513660046126de565b6000908152600860205260409020600601546001600160a01b031690565b34801561047b57600080fd5b5061033b61048a366004612455565b611994565b34801561049b57600080fd5b506104bf6104aa3660046126de565b60009081526008602052604090206005015490565b604051908152602001610215565b3480156104d957600080fd5b5060035461020990600160a81b900460ff1681565b3480156104fa57600080fd5b506003546102ce906001600160a01b031681565b34801561051a57600080fd5b506101e7611b9d565b34801561052f57600080fd5b5061033b611be8565b34801561054457600080fd5b506101e7610553366004612455565b611ddf565b34801561056457600080fd5b506002546001600160a01b03166102ce565b34801561058257600080fd5b5061033b610591366004612455565b611e77565b3480156105a257600080fd5b506102096105b1366004612455565b60056020526000908152604090205460ff1681565b600260015414156105f25760405162461bcd60e51b81526004016105e990612874565b60405180910390fd5b6002600155806106445760405162461bcd60e51b815260206004820152601c60248201527f5072696365206d757374206265206174206c656173742031207765690000000060448201526064016105e9565b610652600680546001019055565b600061065d60065490565b60408051610100810182528281526001600160a01b0380881660208084018281528486018a8152336060870181815260006080890181815260a08a018e815260c08b0183815260e08c018481528e85526008909952928c90209a518b55955160018b018054918b166001600160a01b0319928316179055945160028b0155915160038a018054918a1691861691909117905590516004808a018054928a1692909516919091179093559251600588015591516006909601805493511515600160a01b026001600160a81b031990941696909516959095179190911790925592516323b872dd60e01b815293945091926323b872dd9261076292909130918991016127a0565b600060405180830381600087803b15801561077c57600080fd5b505af1158015610790573d6000803e3d6000fd5b50506040805133815260006020820181905281830187905260608201819052608082015290518693506001600160a01b038816925084917f54fca94a28b664ab36e4778272e878c047dce37c370fc45de6453a47ec1d4c69919081900360a00190a45050600180555050565b6040516319045a2560e01b815260009073B1A13497D08d8764900546B5989E654A5c71c2d1906319045a25906108389086908690600401612813565b60206040518083038186803b15801561085057600080fd5b505af4158015610864573d6000803e3d6000fd5b505050506040513d601f19601f820116820180604052508101906108889190612471565b6001600160a01b03166108a36002546001600160a01b031690565b6001600160a01b03161490505b92915050565b6002546001600160a01b031633146108e05760405162461bcd60e51b81526004016105e9906128ab565b6000805b82518110156109dc5782818151811061090d57634e487b7160e01b600052603260045260246000fd5b6020908102919091018101516001600160a01b0381166000908152600590925260409091205490925060ff166109ca576004805460018082019092557f8a35acfbc15ff81a39ae7d344fd709f28e8600b4aa8c65c6b64bfe7fe36bd19b0180546001600160a01b0319166001600160a01b038516908117909155600081815260056020526040808220805460ff1916909417909355915190917fd088fc9e5d97f0602fcd1a894990d94fa7bc6b0b693233005c19c2ac6afc016791a25b806109d48161298c565b9150506108e4565b505050565b6001600160a01b038316600090815260056020526040902054839060ff16610a0857600080fd5b60026001541415610a2b5760405162461bcd60e51b81526004016105e990612874565b600260015581610a7d5760405162461bcd60e51b815260206004820152601c60248201527f5072696365206d757374206265206174206c656173742031207765690000000060448201526064016105e9565b610a8b600680546001019055565b6000610a9660065490565b9050604051806101000160405280828152602001876001600160a01b03168152602001858152602001336001600160a01b0316815260200160006001600160a01b03168152602001848152602001866001600160a01b0316815260200160001515815250600860008381526020019081526020016000206000820151816000015560208201518160010160006101000a8154816001600160a01b0302191690836001600160a01b031602179055506040820151816002015560608201518160030160006101000a8154816001600160a01b0302191690836001600160a01b0316021790555060808201518160040160006101000a8154816001600160a01b0302191690836001600160a01b0316021790555060a0820151816005015560c08201518160060160006101000a8154816001600160a01b0302191690836001600160a01b0316021790555060e08201518160060160146101000a81548160ff021916908315150217905550905050856001600160a01b03166323b872dd3330876040518463ffffffff1660e01b8152600401610c32939291906127a0565b600060405180830381600087803b158015610c4c57600080fd5b505af1158015610c60573d6000803e3d6000fd5b5050604080513381526000602082018190529181018790526001600160a01b0389811660608301526080820192909252879350908916915083907f54fca94a28b664ab36e4778272e878c047dce37c370fc45de6453a47ec1d4c699060a00160405180910390a450506001805550505050565b6000546001600160a01b03163314610cfd5760405162461bcd60e51b81526004016105e99061283f565b610d0760006120b6565b565b6000546001600160a01b03163314610d335760405162461bcd60e51b81526004016105e99061283f565b6001600160a01b038116610d9e5760405162461bcd60e51b815260206004820152602c60248201527f496e76616c69642041646d696e3a206e65772061646d696e206973207468652060448201526b7a65726f206164647265737360a01b60648201526084016105e9565b610da781612106565b50565b6002546001600160a01b03163314610dd45760405162461bcd60e51b81526004016105e9906128ab565b6000805b8251811015610e8b57828181518110610e0157634e487b7160e01b600052603260045260246000fd5b6020908102919091018101516001600160a01b0381166000908152600590925260409091205490925060ff1615610e79576001600160a01b038216600081815260056020526040808220805460ff19169055517f039355463e0ce8c4818b0228efbf3dce8cdf8fb0f2d2737b55ceb6b04c48bcf09190a25b80610e838161298c565b915050610dd8565b5060005b6004548110156109dc5760048181548110610eba57634e487b7160e01b600052603260045260246000fd5b60009182526020808320909101546001600160a01b0316808352600590915260409091205490925060ff16610fc65760048054610ef990600190612949565b81548110610f1757634e487b7160e01b600052603260045260246000fd5b600091825260209091200154600480546001600160a01b039092169183908110610f5157634e487b7160e01b600052603260045260246000fd5b600091825260209091200180546001600160a01b0319166001600160a01b039290921691909117905560048054610f8a90600190612949565b81548110610fa857634e487b7160e01b600052603260045260246000fd5b600091825260209091200180546001600160a01b0319169055610e8f565b80610fd08161298c565b915050610e8f565b6000546001600160a01b031633146110025760405162461bcd60e51b81526004016105e99061283f565b6001600160a01b03811661104a5760405162461bcd60e51b815260206004820152600f60248201526e496e76616c6964204164647265737360881b60448201526064016105e9565b600380546001600160a01b0319166001600160a01b0392909216919091179055565b6060600061107960065490565b9050600061108660075490565b6006546110939190612949565b90506000808267ffffffffffffffff8111156110bf57634e487b7160e01b600052604160045260246000fd5b6040519080825280602002602001820160405280156110f857816020015b6110e5612411565b8152602001906001900390816110dd5790505b50905060005b8481101561121c576000600881611116846001612931565b81526020810191909152604001600020600401546001600160a01b0316141561120a576000611146826001612931565b6000818152600860209081526040918290208251610100810184528154815260018201546001600160a01b0390811693820193909352600282015493810193909352600381015482166060840152600481015482166080840152600581015460a0840152600681015491821660c0840152600160a01b90910460ff16151560e08301528551929350918590879081106111ef57634e487b7160e01b600052603260045260246000fd5b6020908102919091010152611205600186612931565b945050505b806112148161298c565b9150506110fe565b50949350505050565b6000546001600160a01b0316331461124f5760405162461bcd60e51b81526004016105e99061283f565b6040516323b872dd60e01b81526001600160a01b038416906323b872dd9061127f903090869086906004016127a0565b600060405180830381600087803b15801561129957600080fd5b505af11580156112ad573d6000803e3d6000fd5b50505050505050565b600260015414156112d95760405162461bcd60e51b81526004016105e990612874565b6002600181905560008281526008602052604090206005810154918101546006909101546001600160a01b0316806113d057823414611382576040805162461bcd60e51b81526020600482015260248101919091527f506c65617365207375626d6974207468652061736b696e67207072696365206960448201527f6e206f7264657220746f20636f6d706c6574652074686520707572636861736560648201526084016105e9565b6000848152600860205260408082206003015490516001600160a01b03909116913480156108fc02929091818181858888f193505050501580156113ca573d6000803e3d6000fd5b506113fb565b6000848152600860205260409020600301546113fb906001600160a01b038381169133911686612167565b6040516323b872dd60e01b81526001600160a01b038616906323b872dd9061142b903090339087906004016127a0565b600060405180830381600087803b15801561144557600080fd5b505af1158015611459573d6000803e3d6000fd5b50505060008581526008602052604090206004810180546001600160a01b03191633179055600601805460ff60a01b1916600160a01b179055506114a1600780546001019055565b604051849033906001600160a01b038816907f933b602e405006b3eaea967f44ba6205aa1215ee945498c55db449de7960ae3490600090a4505060018055505050565b6114ec612411565b506000908152600860209081526040918290208251610100810184528154815260018201546001600160a01b0390811693820193909352600282015493810193909352600381015482166060840152600481015482166080840152600581015460a08401526006015490811660c0830152600160a01b900460ff16151560e082015290565b6060600061157e60065490565b9050600061158b60075490565b6006546115989190612949565b90506000808267ffffffffffffffff8111156115c457634e487b7160e01b600052604160045260246000fd5b6040519080825280602002602001820160405280156115fd57816020015b6115ea612411565b8152602001906001900390816115e25790505b50905060005b8481101561121c57600060088161161b846001612931565b81526020810191909152604001600020600401546001600160a01b03161461170e57600061164a826001612931565b6000818152600860209081526040918290208251610100810184528154815260018201546001600160a01b0390811693820193909352600282015493810193909352600381015482166060840152600481015482166080840152600581015460a0840152600681015491821660c0840152600160a01b90910460ff16151560e08301528551929350918590879081106116f357634e487b7160e01b600052603260045260246000fd5b6020908102919091010152611709600186612931565b945050505b806117188161298c565b915050611603565b6004818154811061173057600080fd5b6000918252602090912001546001600160a01b0316905081565b6060600061175760065490565b905060008060005b838110156117c3576001600160a01b03861660086000611780846001612931565b81526020810191909152604001600020600401546001600160a01b031614156117b1576117ae600184612931565b92505b806117bb8161298c565b91505061175f565b5060008267ffffffffffffffff8111156117ed57634e487b7160e01b600052604160045260246000fd5b60405190808252806020026020018201604052801561182657816020015b611813612411565b81526020019060019003908161180b5790505b50905060005b8481101561198a576001600160a01b0387166008600061184d846001612931565b81526020810191909152604001600020600301546001600160a01b03161480156118a257506000600881611882846001612931565b81526020810191909152604001600020600401546001600160a01b031614155b156119785760006118b4826001612931565b6000818152600860209081526040918290208251610100810184528154815260018201546001600160a01b0390811693820193909352600282015493810193909352600381015482166060840152600481015482166080840152600581015460a0840152600681015491821660c0840152600160a01b90910460ff16151560e083015285519293509185908790811061195d57634e487b7160e01b600052603260045260246000fd5b6020908102919091010152611973600186612931565b945050505b806119828161298c565b91505061182c565b5095945050505050565b606060006119a160065490565b905060008060005b83811015611a0d576001600160a01b038616600860006119ca846001612931565b81526020810191909152604001600020600401546001600160a01b031614156119fb576119f8600184612931565b92505b80611a058161298c565b9150506119a9565b5060008267ffffffffffffffff811115611a3757634e487b7160e01b600052604160045260246000fd5b604051908082528060200260200182016040528015611a7057816020015b611a5d612411565b815260200190600190039081611a555790505b50905060005b8481101561198a576001600160a01b03871660086000611a97846001612931565b81526020810191909152604001600020600401546001600160a01b03161415611b8b576000611ac7826001612931565b6000818152600860209081526040918290208251610100810184528154815260018201546001600160a01b0390811693820193909352600282015493810193909352600381015482166060840152600481015482166080840152600581015460a0840152600681015491821660c0840152600160a01b90910460ff16151560e0830152855192935091859087908110611b7057634e487b7160e01b600052603260045260246000fd5b6020908102919091010152611b86600186612931565b945050505b80611b958161298c565b915050611a76565b6002546001600160a01b03163314611bc75760405162461bcd60e51b81526004016105e9906128ab565b6003805460ff60a01b198116600160a01b9182900460ff1615909102179055565b60606000611bf560065490565b905060008060005b83811015611c58573360086000611c15846001612931565b81526020810191909152604001600020600301546001600160a01b03161415611c4657611c43600184612931565b92505b80611c508161298c565b915050611bfd565b5060008267ffffffffffffffff811115611c8257634e487b7160e01b600052604160045260246000fd5b604051908082528060200260200182016040528015611cbb57816020015b611ca8612411565b815260200190600190039081611ca05790505b50905060005b8481101561121c573360086000611cd9846001612931565b81526020810191909152604001600020600301546001600160a01b03161415611dcd576000611d09826001612931565b6000818152600860209081526040918290208251610100810184528154815260018201546001600160a01b0390811693820193909352600282015493810193909352600381015482166060840152600481015482166080840152600581015460a0840152600681015491821660c0840152600160a01b90910460ff16151560e0830152855192935091859087908110611db257634e487b7160e01b600052603260045260246000fd5b6020908102919091010152611dc8600186612931565b945050505b80611dd78161298c565b915050611cc1565b6000546001600160a01b03163314611e095760405162461bcd60e51b81526004016105e99061283f565b6001600160a01b038116611e6e5760405162461bcd60e51b815260206004820152602660248201527f4f776e61626c653a206e6577206f776e657220697320746865207a65726f206160448201526564647265737360d01b60648201526084016105e9565b610da7816120b6565b60606000611e8460065490565b905060008060005b83811015611ef0576001600160a01b03861660086000611ead846001612931565b81526020810191909152604001600020600401546001600160a01b03161415611ede57611edb600184612931565b92505b80611ee88161298c565b915050611e8c565b5060008267ffffffffffffffff811115611f1a57634e487b7160e01b600052604160045260246000fd5b604051908082528060200260200182016040528015611f5357816020015b611f40612411565b815260200190600190039081611f385790505b50905060005b8481101561198a576001600160a01b03871660086000611f7a846001612931565b81526020810191909152604001600020600301546001600160a01b0316148015611fce57506000600881611faf846001612931565b81526020810191909152604001600020600401546001600160a01b0316145b156120a4576000611fe0826001612931565b6000818152600860209081526040918290208251610100810184528154815260018201546001600160a01b0390811693820193909352600282015493810193909352600381015482166060840152600481015482166080840152600581015460a0840152600681015491821660c0840152600160a01b90910460ff16151560e083015285519293509185908790811061208957634e487b7160e01b600052603260045260246000fd5b602090810291909101015261209f600186612931565b945050505b806120ae8161298c565b915050611f59565b600080546001600160a01b038381166001600160a01b0319831681178455604051919092169283917f8be0079c531659141344cd1fd0a4f28419497f9722a3daafe3b4186f6b6457e09190a35050565b600280546001600160a01b038381166001600160a01b031983168117909355604080519190921680825260208201939093527ff8ccb027dfcd135e000e9d45e6cc2d662578a8825d4c45b5e32e0adf67e79ec6910160405180910390a15050565b6121bf846323b872dd60e01b858585604051602401612188939291906127a0565b60408051601f198184030181529190526020810180516001600160e01b03166001600160e01b0319909316929092179091526121c5565b50505050565b600061221a826040518060400160405280602081526020017f5361666545524332303a206c6f772d6c6576656c2063616c6c206661696c6564815250856001600160a01b03166122979092919063ffffffff16565b8051909150156109dc57808060200190518101906122389190612625565b6109dc5760405162461bcd60e51b815260206004820152602a60248201527f5361666545524332303a204552433230206f7065726174696f6e20646964206e6044820152691bdd081cdd58d8d9595960b21b60648201526084016105e9565b60606122a684846000856122b0565b90505b9392505050565b6060824710156123115760405162461bcd60e51b815260206004820152602660248201527f416464726573733a20696e73756666696369656e742062616c616e636520666f6044820152651c8818d85b1b60d21b60648201526084016105e9565b843b61235f5760405162461bcd60e51b815260206004820152601d60248201527f416464726573733a2063616c6c20746f206e6f6e2d636f6e747261637400000060448201526064016105e9565b600080866001600160a01b0316858760405161237b9190612784565b60006040518083038185875af1925050503d80600081146123b8576040519150601f19603f3d011682016040523d82523d6000602084013e6123bd565b606091505b50915091506123cd8282866123d8565b979650505050505050565b606083156123e75750816122a9565b8251156123f75782518084602001fd5b8160405162461bcd60e51b81526004016105e9919061282c565b6040805161010081018252600080825260208201819052918101829052606081018290526080810182905260a0810182905260c0810182905260e081019190915290565b600060208284031215612466578081fd5b81356122a9816129d3565b600060208284031215612482578081fd5b81516122a9816129d3565b6000806000606084860312156124a1578182fd5b83356124ac816129d3565b925060208401356124bc816129d3565b929592945050506040919091013590565b600080600080608085870312156124e2578081fd5b84356124ed816129d3565b935060208501356124fd816129d3565b93969395505050506040820135916060013590565b60008060408385031215612524578182fd5b823561252f816129d3565b946020939093013593505050565b600080600060608486031215612551578283fd5b833561255c816129d3565b95602085013595506040909401359392505050565b60006020808385031215612583578182fd5b823567ffffffffffffffff8082111561259a578384fd5b818501915085601f8301126125ad578384fd5b8135818111156125bf576125bf6129bd565b8060051b91506125d0848301612900565b8181528481019084860184860187018a10156125ea578788fd5b8795505b838610156126185780359450612603856129d3565b848352600195909501949186019186016125ee565b5098975050505050505050565b600060208284031215612636578081fd5b815180151581146122a9578182fd5b60008060408385031215612657578182fd5b8235915060208084013567ffffffffffffffff80821115612676578384fd5b818601915086601f830112612689578384fd5b81358181111561269b5761269b6129bd565b6126ad601f8201601f19168501612900565b915080825287848285010111156126c2578485fd5b8084840185840137810190920192909252919491935090915050565b6000602082840312156126ef578081fd5b5035919050565b6000815180845261270e816020860160208601612960565b601f01601f19169290920160200192915050565b80518252602081015160018060a01b0380821660208501526040830151604085015280606084015116606085015280608084015116608085015260a083015160a08501528060c08401511660c0850152505060e0810151151560e08301525050565b60008251612796818460208701612960565b9190910192915050565b6001600160a01b039384168152919092166020820152604081019190915260600190565b6020808252825182820181905260009190848201906040850190845b81811015612807576127f3838551612722565b9284019261010092909201916001016127e0565b50909695505050505050565b8281526040602082015260006122a660408301846126f6565b6020815260006122a960208301846126f6565b6020808252818101527f4f776e61626c653a2063616c6c6572206973206e6f7420746865206f776e6572604082015260600190565b6020808252601f908201527f5265656e7472616e637947756172643a207265656e7472616e742063616c6c00604082015260600190565b60208082526026908201527f496e76616c69642041646d696e3a2063616c6c6572206973206e6f74207468656040820152651030b236b4b760d11b606082015260800190565b61010081016108b08284612722565b604051601f8201601f1916810167ffffffffffffffff81118282101715612929576129296129bd565b604052919050565b60008219821115612944576129446129a7565b500190565b60008282101561295b5761295b6129a7565b500390565b60005b8381101561297b578181015183820152602001612963565b838111156121bf5750506000910152565b60006000198214156129a0576129a06129a7565b5060010190565b634e487b7160e01b600052601160045260246000fd5b634e487b7160e01b600052604160045260246000fd5b6001600160a01b0381168114610da757600080fdfea2646970667358221220e61811396208dc8342bb3b0760dda169cb6827bcaaeef822f1fb9c51eb87b04264736f6c63430008040033",
  "deployedBytecode": "0x6080604052600436106101c25760003560e01c8063c89f2cce116100f7578063ec51a17d11610095578063f2fde38b11610064578063f2fde38b14610538578063f851a44014610558578063fe7206cf14610576578063ff7d56251461059657600080fd5b8063ec51a17d146104cd578063ec556889146104ee578063f01852551461050e578063f064c32e1461052357600080fd5b8063d32fb961116100d1578063d32fb96114610416578063df4a459714610436578063e03694291461046f578063e75722301461048f57600080fd5b8063c89f2cce146103a8578063c8c2c29a146103bd578063c9afee2c146103f657600080fd5b80638da5cb5b11610164578063b62b6f721161013e578063b62b6f7214610326578063bff863ec14610348578063c23b139e14610368578063c7be7a491461037b57600080fd5b80638da5cb5b146102b45780638f3d0315146102e657806397107d6d1461030657600080fd5b80635b9174c5116101a05780635b9174c51461023f5780636a95054f1461025f578063715018a61461027f57806375829def1461029457600080fd5b8063341cb876146101c757806334f15bd7146101e9578063471a42941461021e575b600080fd5b3480156101d357600080fd5b506101e76101e236600461253d565b6105c6565b005b3480156101f557600080fd5b50610209610204366004612645565b6107fc565b60405190151581526020015b60405180910390f35b34801561022a57600080fd5b5060035461020990600160a01b900460ff1681565b34801561024b57600080fd5b506101e761025a366004612571565b6108b6565b34801561026b57600080fd5b506101e761027a3660046124cd565b6109e1565b34801561028b57600080fd5b506101e7610cd3565b3480156102a057600080fd5b506101e76102af366004612455565b610d09565b3480156102c057600080fd5b506000546001600160a01b03165b6040516001600160a01b039091168152602001610215565b3480156102f257600080fd5b506101e7610301366004612571565b610daa565b34801561031257600080fd5b506101e7610321366004612455565b610fd8565b34801561033257600080fd5b5061033b61106c565b60405161021591906127c4565b34801561035457600080fd5b506101e761036336600461248d565b611225565b6101e7610376366004612512565b6112b6565b34801561038757600080fd5b5061039b6103963660046126de565b6114e4565b60405161021591906128f1565b3480156103b457600080fd5b5061033b611571565b3480156103c957600080fd5b506102096103d8366004612455565b6001600160a01b031660009081526005602052604090205460ff1690565b34801561040257600080fd5b506102ce6104113660046126de565b611720565b34801561042257600080fd5b5061033b610431366004612455565b61174a565b34801561044257600080fd5b506102ce6104513660046126de565b6000908152600860205260409020600601546001600160a01b031690565b34801561047b57600080fd5b5061033b61048a366004612455565b611994565b34801561049b57600080fd5b506104bf6104aa3660046126de565b60009081526008602052604090206005015490565b604051908152602001610215565b3480156104d957600080fd5b5060035461020990600160a81b900460ff1681565b3480156104fa57600080fd5b506003546102ce906001600160a01b031681565b34801561051a57600080fd5b506101e7611b9d565b34801561052f57600080fd5b5061033b611be8565b34801561054457600080fd5b506101e7610553366004612455565b611ddf565b34801561056457600080fd5b506002546001600160a01b03166102ce565b34801561058257600080fd5b5061033b610591366004612455565b611e77565b3480156105a257600080fd5b506102096105b1366004612455565b60056020526000908152604090205460ff1681565b600260015414156105f25760405162461bcd60e51b81526004016105e990612874565b60405180910390fd5b6002600155806106445760405162461bcd60e51b815260206004820152601c60248201527f5072696365206d757374206265206174206c656173742031207765690000000060448201526064016105e9565b610652600680546001019055565b600061065d60065490565b60408051610100810182528281526001600160a01b0380881660208084018281528486018a8152336060870181815260006080890181815260a08a018e815260c08b0183815260e08c018481528e85526008909952928c90209a518b55955160018b018054918b166001600160a01b0319928316179055945160028b0155915160038a018054918a1691861691909117905590516004808a018054928a1692909516919091179093559251600588015591516006909601805493511515600160a01b026001600160a81b031990941696909516959095179190911790925592516323b872dd60e01b815293945091926323b872dd9261076292909130918991016127a0565b600060405180830381600087803b15801561077c57600080fd5b505af1158015610790573d6000803e3d6000fd5b50506040805133815260006020820181905281830187905260608201819052608082015290518693506001600160a01b038816925084917f54fca94a28b664ab36e4778272e878c047dce37c370fc45de6453a47ec1d4c69919081900360a00190a45050600180555050565b6040516319045a2560e01b815260009073__$5375cb35093987ecf92e89395ecd702213$__906319045a25906108389086908690600401612813565b60206040518083038186803b15801561085057600080fd5b505af4158015610864573d6000803e3d6000fd5b505050506040513d601f19601f820116820180604052508101906108889190612471565b6001600160a01b03166108a36002546001600160a01b031690565b6001600160a01b03161490505b92915050565b6002546001600160a01b031633146108e05760405162461bcd60e51b81526004016105e9906128ab565b6000805b82518110156109dc5782818151811061090d57634e487b7160e01b600052603260045260246000fd5b6020908102919091018101516001600160a01b0381166000908152600590925260409091205490925060ff166109ca576004805460018082019092557f8a35acfbc15ff81a39ae7d344fd709f28e8600b4aa8c65c6b64bfe7fe36bd19b0180546001600160a01b0319166001600160a01b038516908117909155600081815260056020526040808220805460ff1916909417909355915190917fd088fc9e5d97f0602fcd1a894990d94fa7bc6b0b693233005c19c2ac6afc016791a25b806109d48161298c565b9150506108e4565b505050565b6001600160a01b038316600090815260056020526040902054839060ff16610a0857600080fd5b60026001541415610a2b5760405162461bcd60e51b81526004016105e990612874565b600260015581610a7d5760405162461bcd60e51b815260206004820152601c60248201527f5072696365206d757374206265206174206c656173742031207765690000000060448201526064016105e9565b610a8b600680546001019055565b6000610a9660065490565b9050604051806101000160405280828152602001876001600160a01b03168152602001858152602001336001600160a01b0316815260200160006001600160a01b03168152602001848152602001866001600160a01b0316815260200160001515815250600860008381526020019081526020016000206000820151816000015560208201518160010160006101000a8154816001600160a01b0302191690836001600160a01b031602179055506040820151816002015560608201518160030160006101000a8154816001600160a01b0302191690836001600160a01b0316021790555060808201518160040160006101000a8154816001600160a01b0302191690836001600160a01b0316021790555060a0820151816005015560c08201518160060160006101000a8154816001600160a01b0302191690836001600160a01b0316021790555060e08201518160060160146101000a81548160ff021916908315150217905550905050856001600160a01b03166323b872dd3330876040518463ffffffff1660e01b8152600401610c32939291906127a0565b600060405180830381600087803b158015610c4c57600080fd5b505af1158015610c60573d6000803e3d6000fd5b5050604080513381526000602082018190529181018790526001600160a01b0389811660608301526080820192909252879350908916915083907f54fca94a28b664ab36e4778272e878c047dce37c370fc45de6453a47ec1d4c699060a00160405180910390a450506001805550505050565b6000546001600160a01b03163314610cfd5760405162461bcd60e51b81526004016105e99061283f565b610d0760006120b6565b565b6000546001600160a01b03163314610d335760405162461bcd60e51b81526004016105e99061283f565b6001600160a01b038116610d9e5760405162461bcd60e51b815260206004820152602c60248201527f496e76616c69642041646d696e3a206e65772061646d696e206973207468652060448201526b7a65726f206164647265737360a01b60648201526084016105e9565b610da781612106565b50565b6002546001600160a01b03163314610dd45760405162461bcd60e51b81526004016105e9906128ab565b6000805b8251811015610e8b57828181518110610e0157634e487b7160e01b600052603260045260246000fd5b6020908102919091018101516001600160a01b0381166000908152600590925260409091205490925060ff1615610e79576001600160a01b038216600081815260056020526040808220805460ff19169055517f039355463e0ce8c4818b0228efbf3dce8cdf8fb0f2d2737b55ceb6b04c48bcf09190a25b80610e838161298c565b915050610dd8565b5060005b6004548110156109dc5760048181548110610eba57634e487b7160e01b600052603260045260246000fd5b60009182526020808320909101546001600160a01b0316808352600590915260409091205490925060ff16610fc65760048054610ef990600190612949565b81548110610f1757634e487b7160e01b600052603260045260246000fd5b600091825260209091200154600480546001600160a01b039092169183908110610f5157634e487b7160e01b600052603260045260246000fd5b600091825260209091200180546001600160a01b0319166001600160a01b039290921691909117905560048054610f8a90600190612949565b81548110610fa857634e487b7160e01b600052603260045260246000fd5b600091825260209091200180546001600160a01b0319169055610e8f565b80610fd08161298c565b915050610e8f565b6000546001600160a01b031633146110025760405162461bcd60e51b81526004016105e99061283f565b6001600160a01b03811661104a5760405162461bcd60e51b815260206004820152600f60248201526e496e76616c6964204164647265737360881b60448201526064016105e9565b600380546001600160a01b0319166001600160a01b0392909216919091179055565b6060600061107960065490565b9050600061108660075490565b6006546110939190612949565b90506000808267ffffffffffffffff8111156110bf57634e487b7160e01b600052604160045260246000fd5b6040519080825280602002602001820160405280156110f857816020015b6110e5612411565b8152602001906001900390816110dd5790505b50905060005b8481101561121c576000600881611116846001612931565b81526020810191909152604001600020600401546001600160a01b0316141561120a576000611146826001612931565b6000818152600860209081526040918290208251610100810184528154815260018201546001600160a01b0390811693820193909352600282015493810193909352600381015482166060840152600481015482166080840152600581015460a0840152600681015491821660c0840152600160a01b90910460ff16151560e08301528551929350918590879081106111ef57634e487b7160e01b600052603260045260246000fd5b6020908102919091010152611205600186612931565b945050505b806112148161298c565b9150506110fe565b50949350505050565b6000546001600160a01b0316331461124f5760405162461bcd60e51b81526004016105e99061283f565b6040516323b872dd60e01b81526001600160a01b038416906323b872dd9061127f903090869086906004016127a0565b600060405180830381600087803b15801561129957600080fd5b505af11580156112ad573d6000803e3d6000fd5b50505050505050565b600260015414156112d95760405162461bcd60e51b81526004016105e990612874565b6002600181905560008281526008602052604090206005810154918101546006909101546001600160a01b0316806113d057823414611382576040805162461bcd60e51b81526020600482015260248101919091527f506c65617365207375626d6974207468652061736b696e67207072696365206960448201527f6e206f7264657220746f20636f6d706c6574652074686520707572636861736560648201526084016105e9565b6000848152600860205260408082206003015490516001600160a01b03909116913480156108fc02929091818181858888f193505050501580156113ca573d6000803e3d6000fd5b506113fb565b6000848152600860205260409020600301546113fb906001600160a01b038381169133911686612167565b6040516323b872dd60e01b81526001600160a01b038616906323b872dd9061142b903090339087906004016127a0565b600060405180830381600087803b15801561144557600080fd5b505af1158015611459573d6000803e3d6000fd5b50505060008581526008602052604090206004810180546001600160a01b03191633179055600601805460ff60a01b1916600160a01b179055506114a1600780546001019055565b604051849033906001600160a01b038816907f933b602e405006b3eaea967f44ba6205aa1215ee945498c55db449de7960ae3490600090a4505060018055505050565b6114ec612411565b506000908152600860209081526040918290208251610100810184528154815260018201546001600160a01b0390811693820193909352600282015493810193909352600381015482166060840152600481015482166080840152600581015460a08401526006015490811660c0830152600160a01b900460ff16151560e082015290565b6060600061157e60065490565b9050600061158b60075490565b6006546115989190612949565b90506000808267ffffffffffffffff8111156115c457634e487b7160e01b600052604160045260246000fd5b6040519080825280602002602001820160405280156115fd57816020015b6115ea612411565b8152602001906001900390816115e25790505b50905060005b8481101561121c57600060088161161b846001612931565b81526020810191909152604001600020600401546001600160a01b03161461170e57600061164a826001612931565b6000818152600860209081526040918290208251610100810184528154815260018201546001600160a01b0390811693820193909352600282015493810193909352600381015482166060840152600481015482166080840152600581015460a0840152600681015491821660c0840152600160a01b90910460ff16151560e08301528551929350918590879081106116f357634e487b7160e01b600052603260045260246000fd5b6020908102919091010152611709600186612931565b945050505b806117188161298c565b915050611603565b6004818154811061173057600080fd5b6000918252602090912001546001600160a01b0316905081565b6060600061175760065490565b905060008060005b838110156117c3576001600160a01b03861660086000611780846001612931565b81526020810191909152604001600020600401546001600160a01b031614156117b1576117ae600184612931565b92505b806117bb8161298c565b91505061175f565b5060008267ffffffffffffffff8111156117ed57634e487b7160e01b600052604160045260246000fd5b60405190808252806020026020018201604052801561182657816020015b611813612411565b81526020019060019003908161180b5790505b50905060005b8481101561198a576001600160a01b0387166008600061184d846001612931565b81526020810191909152604001600020600301546001600160a01b03161480156118a257506000600881611882846001612931565b81526020810191909152604001600020600401546001600160a01b031614155b156119785760006118b4826001612931565b6000818152600860209081526040918290208251610100810184528154815260018201546001600160a01b0390811693820193909352600282015493810193909352600381015482166060840152600481015482166080840152600581015460a0840152600681015491821660c0840152600160a01b90910460ff16151560e083015285519293509185908790811061195d57634e487b7160e01b600052603260045260246000fd5b6020908102919091010152611973600186612931565b945050505b806119828161298c565b91505061182c565b5095945050505050565b606060006119a160065490565b905060008060005b83811015611a0d576001600160a01b038616600860006119ca846001612931565b81526020810191909152604001600020600401546001600160a01b031614156119fb576119f8600184612931565b92505b80611a058161298c565b9150506119a9565b5060008267ffffffffffffffff811115611a3757634e487b7160e01b600052604160045260246000fd5b604051908082528060200260200182016040528015611a7057816020015b611a5d612411565b815260200190600190039081611a555790505b50905060005b8481101561198a576001600160a01b03871660086000611a97846001612931565b81526020810191909152604001600020600401546001600160a01b03161415611b8b576000611ac7826001612931565b6000818152600860209081526040918290208251610100810184528154815260018201546001600160a01b0390811693820193909352600282015493810193909352600381015482166060840152600481015482166080840152600581015460a0840152600681015491821660c0840152600160a01b90910460ff16151560e0830152855192935091859087908110611b7057634e487b7160e01b600052603260045260246000fd5b6020908102919091010152611b86600186612931565b945050505b80611b958161298c565b915050611a76565b6002546001600160a01b03163314611bc75760405162461bcd60e51b81526004016105e9906128ab565b6003805460ff60a01b198116600160a01b9182900460ff1615909102179055565b60606000611bf560065490565b905060008060005b83811015611c58573360086000611c15846001612931565b81526020810191909152604001600020600301546001600160a01b03161415611c4657611c43600184612931565b92505b80611c508161298c565b915050611bfd565b5060008267ffffffffffffffff811115611c8257634e487b7160e01b600052604160045260246000fd5b604051908082528060200260200182016040528015611cbb57816020015b611ca8612411565b815260200190600190039081611ca05790505b50905060005b8481101561121c573360086000611cd9846001612931565b81526020810191909152604001600020600301546001600160a01b03161415611dcd576000611d09826001612931565b6000818152600860209081526040918290208251610100810184528154815260018201546001600160a01b0390811693820193909352600282015493810193909352600381015482166060840152600481015482166080840152600581015460a0840152600681015491821660c0840152600160a01b90910460ff16151560e0830152855192935091859087908110611db257634e487b7160e01b600052603260045260246000fd5b6020908102919091010152611dc8600186612931565b945050505b80611dd78161298c565b915050611cc1565b6000546001600160a01b03163314611e095760405162461bcd60e51b81526004016105e99061283f565b6001600160a01b038116611e6e5760405162461bcd60e51b815260206004820152602660248201527f4f776e61626c653a206e6577206f776e657220697320746865207a65726f206160448201526564647265737360d01b60648201526084016105e9565b610da7816120b6565b60606000611e8460065490565b905060008060005b83811015611ef0576001600160a01b03861660086000611ead846001612931565b81526020810191909152604001600020600401546001600160a01b03161415611ede57611edb600184612931565b92505b80611ee88161298c565b915050611e8c565b5060008267ffffffffffffffff811115611f1a57634e487b7160e01b600052604160045260246000fd5b604051908082528060200260200182016040528015611f5357816020015b611f40612411565b815260200190600190039081611f385790505b50905060005b8481101561198a576001600160a01b03871660086000611f7a846001612931565b81526020810191909152604001600020600301546001600160a01b0316148015611fce57506000600881611faf846001612931565b81526020810191909152604001600020600401546001600160a01b0316145b156120a4576000611fe0826001612931565b6000818152600860209081526040918290208251610100810184528154815260018201546001600160a01b0390811693820193909352600282015493810193909352600381015482166060840152600481015482166080840152600581015460a0840152600681015491821660c0840152600160a01b90910460ff16151560e083015285519293509185908790811061208957634e487b7160e01b600052603260045260246000fd5b602090810291909101015261209f600186612931565b945050505b806120ae8161298c565b915050611f59565b600080546001600160a01b038381166001600160a01b0319831681178455604051919092169283917f8be0079c531659141344cd1fd0a4f28419497f9722a3daafe3b4186f6b6457e09190a35050565b600280546001600160a01b038381166001600160a01b031983168117909355604080519190921680825260208201939093527ff8ccb027dfcd135e000e9d45e6cc2d662578a8825d4c45b5e32e0adf67e79ec6910160405180910390a15050565b6121bf846323b872dd60e01b858585604051602401612188939291906127a0565b60408051601f198184030181529190526020810180516001600160e01b03166001600160e01b0319909316929092179091526121c5565b50505050565b600061221a826040518060400160405280602081526020017f5361666545524332303a206c6f772d6c6576656c2063616c6c206661696c6564815250856001600160a01b03166122979092919063ffffffff16565b8051909150156109dc57808060200190518101906122389190612625565b6109dc5760405162461bcd60e51b815260206004820152602a60248201527f5361666545524332303a204552433230206f7065726174696f6e20646964206e6044820152691bdd081cdd58d8d9595960b21b60648201526084016105e9565b60606122a684846000856122b0565b90505b9392505050565b6060824710156123115760405162461bcd60e51b815260206004820152602660248201527f416464726573733a20696e73756666696369656e742062616c616e636520666f6044820152651c8818d85b1b60d21b60648201526084016105e9565b843b61235f5760405162461bcd60e51b815260206004820152601d60248201527f416464726573733a2063616c6c20746f206e6f6e2d636f6e747261637400000060448201526064016105e9565b600080866001600160a01b0316858760405161237b9190612784565b60006040518083038185875af1925050503d80600081146123b8576040519150601f19603f3d011682016040523d82523d6000602084013e6123bd565b606091505b50915091506123cd8282866123d8565b979650505050505050565b606083156123e75750816122a9565b8251156123f75782518084602001fd5b8160405162461bcd60e51b81526004016105e9919061282c565b6040805161010081018252600080825260208201819052918101829052606081018290526080810182905260a0810182905260c0810182905260e081019190915290565b600060208284031215612466578081fd5b81356122a9816129d3565b600060208284031215612482578081fd5b81516122a9816129d3565b6000806000606084860312156124a1578182fd5b83356124ac816129d3565b925060208401356124bc816129d3565b929592945050506040919091013590565b600080600080608085870312156124e2578081fd5b84356124ed816129d3565b935060208501356124fd816129d3565b93969395505050506040820135916060013590565b60008060408385031215612524578182fd5b823561252f816129d3565b946020939093013593505050565b600080600060608486031215612551578283fd5b833561255c816129d3565b95602085013595506040909401359392505050565b60006020808385031215612583578182fd5b823567ffffffffffffffff8082111561259a578384fd5b818501915085601f8301126125ad578384fd5b8135818111156125bf576125bf6129bd565b8060051b91506125d0848301612900565b8181528481019084860184860187018a10156125ea578788fd5b8795505b838610156126185780359450612603856129d3565b848352600195909501949186019186016125ee565b5098975050505050505050565b600060208284031215612636578081fd5b815180151581146122a9578182fd5b60008060408385031215612657578182fd5b8235915060208084013567ffffffffffffffff80821115612676578384fd5b818601915086601f830112612689578384fd5b81358181111561269b5761269b6129bd565b6126ad601f8201601f19168501612900565b915080825287848285010111156126c2578485fd5b8084840185840137810190920192909252919491935090915050565b6000602082840312156126ef578081fd5b5035919050565b6000815180845261270e816020860160208601612960565b601f01601f19169290920160200192915050565b80518252602081015160018060a01b0380821660208501526040830151604085015280606084015116606085015280608084015116608085015260a083015160a08501528060c08401511660c0850152505060e0810151151560e08301525050565b60008251612796818460208701612960565b9190910192915050565b6001600160a01b039384168152919092166020820152604081019190915260600190565b6020808252825182820181905260009190848201906040850190845b81811015612807576127f3838551612722565b9284019261010092909201916001016127e0565b50909695505050505050565b8281526040602082015260006122a660408301846126f6565b6020815260006122a960208301846126f6565b6020808252818101527f4f776e61626c653a2063616c6c6572206973206e6f7420746865206f776e6572604082015260600190565b6020808252601f908201527f5265656e7472616e637947756172643a207265656e7472616e742063616c6c00604082015260600190565b60208082526026908201527f496e76616c69642041646d696e3a2063616c6c6572206973206e6f74207468656040820152651030b236b4b760d11b606082015260800190565b61010081016108b08284612722565b604051601f8201601f1916810167ffffffffffffffff81118282101715612929576129296129bd565b604052919050565b60008219821115612944576129446129a7565b500190565b60008282101561295b5761295b6129a7565b500390565b60005b8381101561297b578181015183820152602001612963565b838111156121bf5750506000910152565b60006000198214156129a0576129a06129a7565b5060010190565b634e487b7160e01b600052601160045260246000fd5b634e487b7160e01b600052604160045260246000fd5b6001600160a01b0381168114610da757600080fdfea2646970667358221220e61811396208dc8342bb3b0760dda169cb6827bcaaeef822f1fb9c51eb87b04264736f6c63430008040033",
  "libraries": {
    "Sig": "0xB1A13497D08d8764900546B5989E654A5c71c2d1"
  },
  "devdoc": {
    "kind": "dev",
    "methods": {
      "admin()": {
        "details": "Returns the address of the current admin."
      },
      "owner()": {
        "details": "Returns the address of the current owner."
      },
      "renounceOwnership()": {
        "details": "Leaves the contract without owner. It will not be possible to call `onlyOwner` functions anymore. Can only be called by the current owner. NOTE: Renouncing ownership will leave the contract without an owner, thereby removing any functionality that is only available to the owner."
      },
      "transferAdmin(address)": {
        "details": "Transfers ownership of the contract to a new account (`newAdmin`). Can only be called by the current admin."
      },
      "transferOwnership(address)": {
        "details": "Transfers ownership of the contract to a new account (`newOwner`). Can only be called by the current owner."
      }
    },
    "version": 1
  },
  "userdoc": {
    "kind": "user",
    "methods": {},
    "version": 1
  },
  "storageLayout": {
    "storage": [
      {
        "astId": 7,
        "contract": "contracts/marketplace/Marketplace.sol:Marketplace",
        "label": "_owner",
        "offset": 0,
        "slot": "0",
        "type": "t_address"
      },
      {
        "astId": 206,
        "contract": "contracts/marketplace/Marketplace.sol:Marketplace",
        "label": "_status",
        "offset": 0,
        "slot": "1",
        "type": "t_uint256"
      },
      {
        "astId": 10498,
        "contract": "contracts/marketplace/Marketplace.sol:Marketplace",
        "label": "_admin",
        "offset": 0,
        "slot": "2",
        "type": "t_address"
      },
      {
        "astId": 10500,
        "contract": "contracts/marketplace/Marketplace.sol:Marketplace",
        "label": "proxy",
        "offset": 0,
        "slot": "3",
        "type": "t_address"
      },
      {
        "astId": 10503,
        "contract": "contracts/marketplace/Marketplace.sol:Marketplace",
        "label": "mintIsActive",
        "offset": 20,
        "slot": "3",
        "type": "t_bool"
      },
      {
        "astId": 10506,
        "contract": "contracts/marketplace/Marketplace.sol:Marketplace",
        "label": "mineIsActive",
        "offset": 21,
        "slot": "3",
        "type": "t_bool"
      },
      {
        "astId": 5446,
        "contract": "contracts/marketplace/Marketplace.sol:Marketplace",
        "label": "QuoteTokens",
        "offset": 0,
        "slot": "4",
        "type": "t_array(t_address)dyn_storage"
      },
      {
        "astId": 5450,
        "contract": "contracts/marketplace/Marketplace.sol:Marketplace",
        "label": "QuoteToken",
        "offset": 0,
        "slot": "5",
        "type": "t_mapping(t_address,t_bool)"
      },
      {
        "astId": 5643,
        "contract": "contracts/marketplace/Marketplace.sol:Marketplace",
        "label": "_itemIds",
        "offset": 0,
        "slot": "6",
        "type": "t_struct(Counter)2841_storage"
      },
      {
        "astId": 5646,
        "contract": "contracts/marketplace/Marketplace.sol:Marketplace",
        "label": "_itemsSold",
        "offset": 0,
        "slot": "7",
        "type": "t_struct(Counter)2841_storage"
      },
      {
        "astId": 5668,
        "contract": "contracts/marketplace/Marketplace.sol:Marketplace",
        "label": "idToMarketItem",
        "offset": 0,
        "slot": "8",
        "type": "t_mapping(t_uint256,t_struct(MarketItem)5663_storage)"
      }
    ],
    "types": {
      "t_address": {
        "encoding": "inplace",
        "label": "address",
        "numberOfBytes": "20"
      },
      "t_array(t_address)dyn_storage": {
        "base": "t_address",
        "encoding": "dynamic_array",
        "label": "address[]",
        "numberOfBytes": "32"
      },
      "t_bool": {
        "encoding": "inplace",
        "label": "bool",
        "numberOfBytes": "1"
      },
      "t_mapping(t_address,t_bool)": {
        "encoding": "mapping",
        "key": "t_address",
        "label": "mapping(address => bool)",
        "numberOfBytes": "32",
        "value": "t_bool"
      },
      "t_mapping(t_uint256,t_struct(MarketItem)5663_storage)": {
        "encoding": "mapping",
        "key": "t_uint256",
        "label": "mapping(uint256 => struct Marketplace.MarketItem)",
        "numberOfBytes": "32",
        "value": "t_struct(MarketItem)5663_storage"
      },
      "t_struct(Counter)2841_storage": {
        "encoding": "inplace",
        "label": "struct Counters.Counter",
        "members": [
          {
            "astId": 2840,
            "contract": "contracts/marketplace/Marketplace.sol:Marketplace",
            "label": "_value",
            "offset": 0,
            "slot": "0",
            "type": "t_uint256"
          }
        ],
        "numberOfBytes": "32"
      },
      "t_struct(MarketItem)5663_storage": {
        "encoding": "inplace",
        "label": "struct Marketplace.MarketItem",
        "members": [
          {
            "astId": 5648,
            "contract": "contracts/marketplace/Marketplace.sol:Marketplace",
            "label": "itemId",
            "offset": 0,
            "slot": "0",
            "type": "t_uint256"
          },
          {
            "astId": 5650,
            "contract": "contracts/marketplace/Marketplace.sol:Marketplace",
            "label": "nftContract",
            "offset": 0,
            "slot": "1",
            "type": "t_address"
          },
          {
            "astId": 5652,
            "contract": "contracts/marketplace/Marketplace.sol:Marketplace",
            "label": "tokenId",
            "offset": 0,
            "slot": "2",
            "type": "t_uint256"
          },
          {
            "astId": 5654,
            "contract": "contracts/marketplace/Marketplace.sol:Marketplace",
            "label": "seller",
            "offset": 0,
            "slot": "3",
            "type": "t_address"
          },
          {
            "astId": 5656,
            "contract": "contracts/marketplace/Marketplace.sol:Marketplace",
            "label": "owner",
            "offset": 0,
            "slot": "4",
            "type": "t_address"
          },
          {
            "astId": 5658,
            "contract": "contracts/marketplace/Marketplace.sol:Marketplace",
            "label": "price",
            "offset": 0,
            "slot": "5",
            "type": "t_uint256"
          },
          {
            "astId": 5660,
            "contract": "contracts/marketplace/Marketplace.sol:Marketplace",
            "label": "quoteTokenContract",
            "offset": 0,
            "slot": "6",
            "type": "t_address"
          },
          {
            "astId": 5662,
            "contract": "contracts/marketplace/Marketplace.sol:Marketplace",
            "label": "sold",
            "offset": 20,
            "slot": "6",
            "type": "t_bool"
          }
        ],
        "numberOfBytes": "224"
      },
      "t_uint256": {
        "encoding": "inplace",
        "label": "uint256",
        "numberOfBytes": "32"
      }
    }
  }
}