{
  "address": "0x33FcA39756779f0d890E2c7BF72F0320B01f441b",
  "abi": [
    {
      "inputs": [
        {
          "internalType": "address",
          "name": "_voyagerStorage",
          "type": "address"
        }
      ],
      "stateMutability": "nonpayable",
      "type": "constructor"
    },
    {
      "anonymous": false,
      "inputs": [
        {
          "indexed": false,
          "internalType": "address",
          "name": "oldAdmin",
          "type": "address"
        },
        {
          "indexed": false,
          "internalType": "address",
          "name": "newAdmin",
          "type": "address"
        }
      ],
      "name": "AdminTransferred",
      "type": "event"
    },
    {
      "anonymous": false,
      "inputs": [
        {
          "indexed": true,
          "internalType": "address",
          "name": "previousOwner",
          "type": "address"
        },
        {
          "indexed": true,
          "internalType": "address",
          "name": "newOwner",
          "type": "address"
        }
      ],
      "name": "OwnershipTransferred",
      "type": "event"
    },
    {
      "anonymous": false,
      "inputs": [
        {
          "indexed": false,
          "internalType": "address",
          "name": "account",
          "type": "address"
        }
      ],
      "name": "Paused",
      "type": "event"
    },
    {
      "anonymous": false,
      "inputs": [
        {
          "indexed": false,
          "internalType": "address",
          "name": "account",
          "type": "address"
        }
      ],
      "name": "Unpaused",
      "type": "event"
    },
    {
      "inputs": [
        {
          "internalType": "uint256",
          "name": "tokenID",
          "type": "uint256"
        },
        {
          "internalType": "string",
          "name": "_tokenURI",
          "type": "string"
        }
      ],
      "name": "_changeTokenURI",
      "outputs": [],
      "stateMutability": "nonpayable",
      "type": "function"
    },
    {
      "inputs": [],
      "name": "_mintVoyager",
      "outputs": [],
      "stateMutability": "nonpayable",
      "type": "function"
    },
    {
      "inputs": [
        {
          "internalType": "bytes",
          "name": "signature",
          "type": "bytes"
        }
      ],
      "name": "_mintVoyagerByWhitelist",
      "outputs": [],
      "stateMutability": "nonpayable",
      "type": "function"
    },
    {
      "inputs": [],
      "name": "admin",
      "outputs": [
        {
          "internalType": "address",
          "name": "",
          "type": "address"
        }
      ],
      "stateMutability": "view",
      "type": "function"
    },
    {
      "inputs": [],
      "name": "burnDSP",
      "outputs": [],
      "stateMutability": "nonpayable",
      "type": "function"
    },
    {
      "inputs": [
        {
          "internalType": "uint256",
          "name": "tokenID",
          "type": "uint256"
        },
        {
          "internalType": "string",
          "name": "_tokenURI",
          "type": "string"
        }
      ],
      "name": "changeTokenURI",
      "outputs": [],
      "stateMutability": "nonpayable",
      "type": "function"
    },
    {
      "inputs": [],
      "name": "curVersion",
      "outputs": [
        {
          "internalType": "address",
          "name": "voyagerLogic",
          "type": "address"
        }
      ],
      "stateMutability": "view",
      "type": "function"
    },
    {
      "inputs": [],
      "name": "delayVersion",
      "outputs": [
        {
          "internalType": "address",
          "name": "voyagerLogic",
          "type": "address"
        }
      ],
      "stateMutability": "view",
      "type": "function"
    },
    {
      "inputs": [],
      "name": "delayVersionName",
      "outputs": [
        {
          "internalType": "string",
          "name": "",
          "type": "string"
        }
      ],
      "stateMutability": "view",
      "type": "function"
    },
    {
      "inputs": [],
      "name": "dsp",
      "outputs": [
        {
          "internalType": "contract DeepSeaPlankton",
          "name": "",
          "type": "address"
        }
      ],
      "stateMutability": "view",
      "type": "function"
    },
    {
      "inputs": [],
      "name": "executeUpgrade",
      "outputs": [],
      "stateMutability": "nonpayable",
      "type": "function"
    },
    {
      "inputs": [],
      "name": "flipMintableState",
      "outputs": [],
      "stateMutability": "nonpayable",
      "type": "function"
    },
    {
      "inputs": [
        {
          "internalType": "string",
          "name": "_version",
          "type": "string"
        }
      ],
      "name": "getLogicContracts",
      "outputs": [
        {
          "internalType": "address",
          "name": "",
          "type": "address"
        }
      ],
      "stateMutability": "view",
      "type": "function"
    },
    {
      "inputs": [
        {
          "internalType": "address",
          "name": "_voyagerLogic",
          "type": "address"
        }
      ],
      "name": "initialize",
      "outputs": [],
      "stateMutability": "nonpayable",
      "type": "function"
    },
    {
      "inputs": [],
      "name": "initialized",
      "outputs": [
        {
          "internalType": "bool",
          "name": "",
          "type": "bool"
        }
      ],
      "stateMutability": "view",
      "type": "function"
    },
    {
      "inputs": [
        {
          "internalType": "uint256",
          "name": "tokenID",
          "type": "uint256"
        }
      ],
      "name": "levelUp",
      "outputs": [],
      "stateMutability": "nonpayable",
      "type": "function"
    },
    {
      "inputs": [],
      "name": "mineIsActive",
      "outputs": [
        {
          "internalType": "bool",
          "name": "",
          "type": "bool"
        }
      ],
      "stateMutability": "view",
      "type": "function"
    },
    {
      "inputs": [],
      "name": "mintIsActive",
      "outputs": [
        {
          "internalType": "bool",
          "name": "",
          "type": "bool"
        }
      ],
      "stateMutability": "view",
      "type": "function"
    },
    {
      "inputs": [],
      "name": "mintVoyager",
      "outputs": [],
      "stateMutability": "nonpayable",
      "type": "function"
    },
    {
      "inputs": [
        {
          "internalType": "bytes",
          "name": "signature",
          "type": "bytes"
        }
      ],
      "name": "mintVoyagerByWhitelist",
      "outputs": [],
      "stateMutability": "nonpayable",
      "type": "function"
    },
    {
      "inputs": [],
      "name": "owner",
      "outputs": [
        {
          "internalType": "address",
          "name": "",
          "type": "address"
        }
      ],
      "stateMutability": "view",
      "type": "function"
    },
    {
      "inputs": [],
      "name": "paused",
      "outputs": [
        {
          "internalType": "bool",
          "name": "",
          "type": "bool"
        }
      ],
      "stateMutability": "view",
      "type": "function"
    },
    {
      "inputs": [],
      "name": "proxy",
      "outputs": [
        {
          "internalType": "address",
          "name": "",
          "type": "address"
        }
      ],
      "stateMutability": "view",
      "type": "function"
    },
    {
      "inputs": [],
      "name": "renounceOwnership",
      "outputs": [],
      "stateMutability": "nonpayable",
      "type": "function"
    },
    {
      "inputs": [],
      "name": "rollback",
      "outputs": [],
      "stateMutability": "nonpayable",
      "type": "function"
    },
    {
      "inputs": [
        {
          "internalType": "address",
          "name": "_token1",
          "type": "address"
        }
      ],
      "name": "setFee1TokenAddress",
      "outputs": [],
      "stateMutability": "nonpayable",
      "type": "function"
    },
    {
      "inputs": [
        {
          "internalType": "address",
          "name": "_token2",
          "type": "address"
        }
      ],
      "name": "setFee2TokenAddress",
      "outputs": [],
      "stateMutability": "nonpayable",
      "type": "function"
    },
    {
      "inputs": [],
      "name": "setPause",
      "outputs": [],
      "stateMutability": "nonpayable",
      "type": "function"
    },
    {
      "inputs": [
        {
          "internalType": "address",
          "name": "_proxy",
          "type": "address"
        }
      ],
      "name": "setProxy",
      "outputs": [],
      "stateMutability": "nonpayable",
      "type": "function"
    },
    {
      "inputs": [
        {
          "internalType": "string",
          "name": "_tokenURI",
          "type": "string"
        }
      ],
      "name": "setToken0URI",
      "outputs": [],
      "stateMutability": "nonpayable",
      "type": "function"
    },
    {
      "inputs": [
        {
          "internalType": "address",
          "name": "_user",
          "type": "address"
        },
        {
          "internalType": "uint256",
          "name": "_tokenid",
          "type": "uint256"
        },
        {
          "internalType": "uint256",
          "name": "_level",
          "type": "uint256"
        },
        {
          "internalType": "string",
          "name": "_tokenURI",
          "type": "string"
        }
      ],
      "name": "setTokenURI",
      "outputs": [],
      "stateMutability": "nonpayable",
      "type": "function"
    },
    {
      "inputs": [
        {
          "internalType": "string",
          "name": "_newVersion",
          "type": "string"
        },
        {
          "internalType": "address",
          "name": "_voyagerLogic",
          "type": "address"
        }
      ],
      "name": "setUpgrade",
      "outputs": [],
      "stateMutability": "nonpayable",
      "type": "function"
    },
    {
      "inputs": [],
      "name": "startTime",
      "outputs": [
        {
          "internalType": "uint256",
          "name": "",
          "type": "uint256"
        }
      ],
      "stateMutability": "view",
      "type": "function"
    },
    {
      "inputs": [
        {
          "internalType": "address",
          "name": "newAdmin",
          "type": "address"
        }
      ],
      "name": "transferAdmin",
      "outputs": [],
      "stateMutability": "nonpayable",
      "type": "function"
    },
    {
      "inputs": [
        {
          "internalType": "address",
          "name": "newOwner",
          "type": "address"
        }
      ],
      "name": "transferOwnership",
      "outputs": [],
      "stateMutability": "nonpayable",
      "type": "function"
    },
    {
      "inputs": [],
      "name": "unPause",
      "outputs": [],
      "stateMutability": "nonpayable",
      "type": "function"
    },
    {
      "inputs": [],
      "name": "vS",
      "outputs": [
        {
          "internalType": "contract VoyagerStorage",
          "name": "",
          "type": "address"
        }
      ],
      "stateMutability": "view",
      "type": "function"
    },
    {
      "inputs": [
        {
          "internalType": "bytes32",
          "name": "hash",
          "type": "bytes32"
        },
        {
          "internalType": "bytes",
          "name": "signature",
          "type": "bytes"
        }
      ],
      "name": "verified",
      "outputs": [
        {
          "internalType": "bool",
          "name": "",
          "type": "bool"
        }
      ],
      "stateMutability": "view",
      "type": "function"
    },
    {
      "inputs": [
        {
          "internalType": "uint256",
          "name": "",
          "type": "uint256"
        }
      ],
      "name": "versionList",
      "outputs": [
        {
          "internalType": "string",
          "name": "",
          "type": "string"
        }
      ],
      "stateMutability": "view",
      "type": "function"
    },
    {
      "inputs": [],
      "name": "versionName",
      "outputs": [
        {
          "internalType": "string",
          "name": "",
          "type": "string"
        }
      ],
      "stateMutability": "view",
      "type": "function"
    },
    {
      "inputs": [
        {
          "internalType": "uint256",
          "name": "_amount",
          "type": "uint256"
        },
        {
          "internalType": "address",
          "name": "_to",
          "type": "address"
        }
      ],
      "name": "withdrawDGT",
      "outputs": [],
      "stateMutability": "nonpayable",
      "type": "function"
    }
  ],
  "transactionHash": "0x7831754078bfc381171634460beff59a0607e92141b09647be910fcd8d405ea4",
  "args": [
    "0x3EFE7499cCD3E02faF6B0D201587F23E641fa24D"
  ],
  "solcInputHash": "111832c4bd8240d32d619a68a1c12b62",
  "bytecode": "0x60806040526003805461ffff60a01b191661010160a01b1790553480156200002657600080fd5b5060405162004d2438038062004d24833981016040819052620000499162000192565b6200005433620000e1565b60018055620000633362000131565b600c805461ff00191690556001600160a01b038116620000bb5760405162461bcd60e51b815260206004820152600f60248201526e496e76616c6964204164647265737360881b604482015260640160405180910390fd5b600480546001600160a01b0319166001600160a01b0392909216919091179055620001c2565b600080546001600160a01b038381166001600160a01b0319831681178455604051919092169283917f8be0079c531659141344cd1fd0a4f28419497f9722a3daafe3b4186f6b6457e09190a35050565b600280546001600160a01b038381166001600160a01b031983168117909355604080519190921680825260208201939093527ff8ccb027dfcd135e000e9d45e6cc2d662578a8825d4c45b5e32e0adf67e79ec6910160405180910390a15050565b600060208284031215620001a4578081fd5b81516001600160a01b0381168114620001bb578182fd5b9392505050565b614b5280620001d26000396000f3fe608060405234801561001057600080fd5b50600436106102535760003560e01c80637e89621411610146578063c4d66de8116100c3578063ec51a17d11610087578063ec51a17d146104ca578063ec556889146104de578063f0185255146104f1578063f2fde38b146104f9578063f7b188a51461050c578063f851a4401461051457600080fd5b8063c4d66de81461048c578063ce0ded3a1461049f578063cf41b8a9146104a7578063d431b1ac146104af578063de3bcca9146104b757600080fd5b80639afd9d781161010a5780639afd9d7814610443578063aa30c4b71461044b578063bfe0b1251461045e578063c1cd333814610471578063c2e8dd4a1461047957600080fd5b80637e896214146103f15780637fb3a9a2146103f95780638da5cb5b1461040c578063942eb8c31461041d57806397107d6d1461043057600080fd5b80635c975abb116101d45780637161cdd8116101985780637161cdd81461038e57806372e0d7fe146103a157806375829def146103b457806378e97925146103c75780637a599e81146103de57600080fd5b80635c975abb1461033757806367e79832146103475780636ed333431461035a5780636ed5545914610373578063715018a61461038657600080fd5b806334f15bd71161021b57806334f15bd7146102e25780633b6764ae146102f55780633b74b039146102fd578063471a42941461031057806347acbe0f1461032457600080fd5b80630ce90ec214610258578063158ef93e1461026d5780631d8f5f181461028f5780632864efb6146102af57806329e566cb146102b7575b600080fd5b61026b610266366004614768565b610525565b005b600c5461027a9060ff1681565b60405190151581526020015b60405180910390f35b6102a261029d366004614768565b6114f2565b60405161028691906148d3565b61026b61159e565b6102ca6102c53660046145b5565b6116e7565b6040516001600160a01b039091168152602001610286565b61027a6102f036600461453d565b611782565b6102a261183a565b61026b61030b3660046144a4565b611847565b60035461027a90600160a01b900460ff1681565b61026b610332366004614582565b611d6e565b600c54610100900460ff1661027a565b6007546102ca906001600160a01b031681565b600c546102ca906201000090046001600160a01b031681565b6006546102ca906001600160a01b031681565b61026b611eb4565b61026b61039c36600461453d565b611eea565b61026b6103af366004614780565b61204d565b61026b6103c236600461446c565b612309565b6103d0600b5481565b604051908152602001610286565b61026b6103ec366004614582565b6123aa565b61026b612438565b61026b61040736600461453d565b6125fa565b6000546001600160a01b03166102ca565b61026b61042b36600461446c565b61268a565b61026b61043e36600461446c565b6127b3565b61026b612847565b6004546102ca906001600160a01b031681565b61026b61046c366004614695565b61288f565b61026b612a0b565b61026b61048736600461446c565b6131a9565b61026b61049a36600461446c565b6132fa565b6102a26133ac565b61026b6133b9565b61026b613585565b61026b6104c5366004614582565b6135ed565b60035461027a90600160a81b900460ff1681565b6003546102ca906001600160a01b031681565b61026b613d5d565b61026b61050736600461446c565b613da8565b61026b613e40565b6002546001600160a01b03166102ca565b600260015414156105515760405162461bcd60e51b815260040161054890614945565b60405180910390fd5b6002600155806105915760405162461bcd60e51b815260206004820152600b60248201526a2737ba1018103a37b5b2b760a91b6044820152606401610548565b60048054604051630e4d620560e01b815233928101929092526001600160a01b031690630e4d62059060240160206040518083038186803b1580156105d557600080fd5b505afa1580156105e9573d6000803e3d6000fd5b505050506040513d601f19601f8201168201806040525081019061060d9190614525565b1561064a5760405162461bcd60e51b815260206004820152600d60248201526c2ab73b30b634b2103a37b5b2b760991b6044820152606401610548565b600480546040805163cc06c35960e01b815290516001600160a01b039092169263cc06c359928282019260209290829003018186803b15801561068c57600080fd5b505afa1580156106a0573d6000803e3d6000fd5b505050506040513d601f19601f820116820180604052508101906106c49190614525565b600480546040516304252ae160e51b81529182018490526001600160a01b031690637e5ea2829082906384a55c209060240160206040518083038186803b15801561070e57600080fd5b505afa158015610722573d6000803e3d6000fd5b505050506040513d601f19601f820116820180604052508101906107469190614525565b6040518263ffffffff1660e01b815260040161076491815260200190565b60a06040518083038186803b15801561077c57600080fd5b505afa158015610790573d6000803e3d6000fd5b505050506040513d601f19601f820116820180604052508101906107b491906146e5565b5160ff16106107f95760405162461bcd60e51b8152602060048201526011602482015270105b1c9958591e481b585e081b195d995b607a1b6044820152606401610548565b60048054604051630219207560e61b8152918201839052600091829182916001600160a01b03909116906386481d409060240160206040518083038186803b15801561084457600080fd5b505afa158015610858573d6000803e3d6000fd5b505050506040513d601f19601f8201168201806040525081019061087c9190614525565b60048054604051632c8ddbf960e21b81529293506001600160a01b03169163b2376fe4916108b09188910190815260200190565b604080518083038186803b1580156108c757600080fd5b505afa1580156108db573d6000803e3d6000fd5b505050506040513d601f19601f820116820180604052508101906108ff91906147a4565b60048054604080516371f3b44560e11b8152905194975092955086936001600160a01b039091169263e3e7688a9281810192602092909190829003018186803b15801561094b57600080fd5b505afa15801561095f573d6000803e3d6000fd5b505050506040513d601f19601f820116820180604052508101906109839190614488565b6040516370a0823160e01b81523360048201526001600160a01b0391909116906370a082319060240160206040518083038186803b1580156109c457600080fd5b505afa1580156109d8573d6000803e3d6000fd5b505050506040513d601f19601f820116820180604052508101906109fc9190614525565b1015610a435760405162461bcd60e51b81526020600482015260166024820152752ab739bab33334b1b4b2b73a103233ba103a37b5b2b760511b6044820152606401610548565b81600460009054906101000a90046001600160a01b03166001600160a01b03166338e514fe6040518163ffffffff1660e01b815260040160206040518083038186803b158015610a9257600080fd5b505afa158015610aa6573d6000803e3d6000fd5b505050506040513d601f19601f82011682018060405250810190610aca9190614488565b6040516370a0823160e01b81523360048201526001600160a01b0391909116906370a082319060240160206040518083038186803b158015610b0b57600080fd5b505afa158015610b1f573d6000803e3d6000fd5b505050506040513d601f19601f82011682018060405250810190610b439190614525565b1015610b8a5760405162461bcd60e51b81526020600482015260166024820152752ab739bab33334b1b4b2b73a103239b8103a37b5b2b760511b6044820152606401610548565b610c27333085600460009054906101000a90046001600160a01b03166001600160a01b031663e3e7688a6040518163ffffffff1660e01b815260040160206040518083038186803b158015610bde57600080fd5b505afa158015610bf2573d6000803e3d6000fd5b505050506040513d601f19601f82011682018060405250810190610c169190614488565b6001600160a01b0316929190613ea2565b610c7b333084600460009054906101000a90046001600160a01b03166001600160a01b03166338e514fe6040518163ffffffff1660e01b815260040160206040518083038186803b158015610bde57600080fd5b60048054604051630219207560e61b81529182018690526001600160a01b0316906380ea5a8390339083906386481d409060240160206040518083038186803b158015610cc757600080fd5b505afa158015610cdb573d6000803e3d6000fd5b505050506040513d601f19601f82011682018060405250810190610cff9190614525565b60048054604051630219207560e61b81529182018a90526001916001600160a01b0390911690636d3f450b90339083906386481d409060240160206040518083038186803b158015610d5057600080fd5b505afa158015610d64573d6000803e3d6000fd5b505050506040513d601f19601f82011682018060405250810190610d889190614525565b6040516001600160e01b031960e085901b1681526001600160a01b039092166004830152602482015260440160206040518083038186803b158015610dcc57600080fd5b505afa158015610de0573d6000803e3d6000fd5b505050506040513d601f19601f82011682018060405250810190610e049190614525565b610e0e9190614a5d565b6040516001600160e01b031960e086901b1681526001600160a01b03909316600484015260248301919091526044820152606401600060405180830381600087803b158015610e5c57600080fd5b505af1158015610e70573d6000803e3d6000fd5b505060048054604051630219207560e61b81529182018890526001600160a01b031692506370a93b369150869083906386481d409060240160206040518083038186803b158015610ec057600080fd5b505afa158015610ed4573d6000803e3d6000fd5b505050506040513d601f19601f82011682018060405250810190610ef89190614525565b610f03906001614a45565b6040516001600160e01b031960e085901b16815260048101929092526024820152604401600060405180830381600087803b158015610f4157600080fd5b505af1158015610f55573d6000803e3d6000fd5b505060048054604051638256c0a360e01b81529182018890524260248301526001600160a01b03169250638256c0a39150604401600060405180830381600087803b158015610fa357600080fd5b505af1158015610fb7573d6000803e3d6000fd5b505060048054604051630219207560e61b81529182018890526001600160a01b031692506380ea5a839150339083906386481d409060240160206040518083038186803b15801561100757600080fd5b505afa15801561101b573d6000803e3d6000fd5b505050506040513d601f19601f8201168201806040525081019061103f9190614525565b60048054604051630219207560e61b81529182018a90526001600160a01b031690636d3f450b90339083906386481d409060240160206040518083038186803b15801561108b57600080fd5b505afa15801561109f573d6000803e3d6000fd5b505050506040513d601f19601f820116820180604052508101906110c39190614525565b6040516001600160e01b031960e085901b1681526001600160a01b039092166004830152602482015260440160206040518083038186803b15801561110757600080fd5b505afa15801561111b573d6000803e3d6000fd5b505050506040513d601f19601f8201168201806040525081019061113f9190614525565b61114a906001614a45565b6040516001600160e01b031960e086901b1681526001600160a01b03909316600484015260248301919091526044820152606401600060405180830381600087803b15801561119857600080fd5b505af11580156111ac573d6000803e3d6000fd5b505060048054604051639d47207160e01b81523392810192909252602482018890526001600160a01b03169250639d4720719150604401600060405180830381600087803b1580156111fd57600080fd5b505af1158015611211573d6000803e3d6000fd5b50506004805460405163984027a760e01b815233928101929092526001600160a01b0316925063984027a7915060240160206040518083038186803b15801561125957600080fd5b505afa15801561126d573d6000803e3d6000fd5b505050506040513d601f19601f820116820180604052508101906112919190614525565b600480546040516304252ae160e51b81529182018790526001600160a01b031690637e5ea2829082906384a55c209060240160206040518083038186803b1580156112db57600080fd5b505afa1580156112ef573d6000803e3d6000fd5b505050506040513d601f19601f820116820180604052508101906113139190614525565b6040518263ffffffff1660e01b815260040161133191815260200190565b60a06040518083038186803b15801561134957600080fd5b505afa15801561135d573d6000803e3d6000fd5b505050506040513d601f19601f8201168201806040525081019061138191906146e5565b5160ff1611156114e857600480546040516304252ae160e51b81529182018690526001600160a01b031690630d2176ed9033908390637e5ea2829082906384a55c209060240160206040518083038186803b1580156113df57600080fd5b505afa1580156113f3573d6000803e3d6000fd5b505050506040513d601f19601f820116820180604052508101906114179190614525565b6040518263ffffffff1660e01b815260040161143591815260200190565b60a06040518083038186803b15801561144d57600080fd5b505afa158015611461573d6000803e3d6000fd5b505050506040513d601f19601f8201168201806040525081019061148591906146e5565b5160405160e084901b6001600160e01b03191681526001600160a01b03909216600483015260ff166024820152604401600060405180830381600087803b1580156114cf57600080fd5b505af11580156114e3573d6000803e3d6000fd5b505050505b5050600180555050565b6008818154811061150257600080fd5b90600052602060002001600091509050805461151d90614aa0565b80601f016020809104026020016040519081016040528092919081815260200182805461154990614aa0565b80156115965780601f1061156b57610100808354040283529160200191611596565b820191906000526020600020905b81548152906001019060200180831161157957829003601f168201915b505050505081565b600354600160a01b900460ff166115c75760405162461bcd60e51b8152600401610548906149c2565b600c54610100900460ff16156115ef5760405162461bcd60e51b8152600401610548906148e6565b600260015414156116125760405162461bcd60e51b815260040161054890614945565b600260015560065460408051600481526024810182526020810180516001600160e01b0316631839a66760e31b17905290516000926001600160a01b03169161165a916147f3565b600060405180830381855af49150503d8060008114611695576040519150601f19603f3d011682016040523d82523d6000602084013e61169a565b606091505b50509050806116e05760405162461bcd60e51b81526020600482015260126024820152711b5a5b9d159bde5859d95c8811985a5b195960721b6044820152606401610548565b5060018055565b600080546001600160a01b031633146117125760405162461bcd60e51b815260040161054890614910565b8161174f5760405162461bcd60e51b815260206004820152600d60248201526c22b6b83a3c902b32b939b4b7b760991b6044820152606401610548565b6005838360405161176192919061480f565b908152604051908190036020019020546001600160a01b0316905092915050565b6040516319045a2560e01b815260009073B1A13497D08d8764900546B5989E654A5c71c2d1906319045a25906117be90869086906004016148ba565b60206040518083038186803b1580156117d657600080fd5b505af41580156117ea573d6000803e3d6000fd5b505050506040513d601f19601f8201168201806040525081019061180e9190614488565b6001600160a01b03166118296002546001600160a01b031690565b6001600160a01b0316149392505050565b6009805461151d90614aa0565b6002546001600160a01b031633146118715760405162461bcd60e51b81526004016105489061497c565b60048054604051630e4d620560e01b81526001600160a01b038781169382019390935260009290911690630e4d62059060240160206040518083038186803b1580156118bc57600080fd5b505afa1580156118d0573d6000803e3d6000fd5b505050506040513d601f19601f820116820180604052508101906118f49190614525565b600480546040516304252ae160e51b81529182018390529192506000916001600160a01b031690637e5ea2829082906384a55c209060240160206040518083038186803b15801561194457600080fd5b505afa158015611958573d6000803e3d6000fd5b505050506040513d601f19601f8201168201806040525081019061197c9190614525565b6040518263ffffffff1660e01b815260040161199a91815260200190565b60a06040518083038186803b1580156119b257600080fd5b505afa1580156119c6573d6000803e3d6000fd5b505050506040513d601f19601f820116820180604052508101906119ea91906146e5565b5160ff16905081611a2d5760405162461bcd60e51b815260206004820152600d60248201526c2ab73b30b634b2103a37b5b2b760991b6044820152606401610548565b600480546040516331a9108f60e11b81529182018490526001600160a01b0388811692911690636352211e9060240160206040518083038186803b158015611a7457600080fd5b505afa158015611a88573d6000803e3d6000fd5b505050506040513d601f19601f82011682018060405250810190611aac9190614488565b6001600160a01b031614611aee5760405162461bcd60e51b81526020600482015260096024820152682737ba1037bbb732b960b91b6044820152606401610548565b818514611b325760405162461bcd60e51b815260206004820152601260248201527110dbdb9cda5cdd195b9d081d1bdad95b925160721b6044820152606401610548565b838114611b745760405162461bcd60e51b815260206004820152601060248201526f10dbdb9cda5cdd195b9d081b195d995b60821b6044820152606401610548565b60048054604051637538bcfd60e01b8152918201849052602482018390526001600160a01b031690637538bcfd9060440160206040518083038186803b158015611bbd57600080fd5b505afa158015611bd1573d6000803e3d6000fd5b505050506040513d601f19601f82011682018060405250810190611bf59190614505565b15611c325760405162461bcd60e51b815260206004820152600d60248201526c536574206f766572206f6e636560981b6044820152606401610548565b60048054604051622a710d60e31b81526001600160a01b0390911691630153886891611c629186918891016148ba565b600060405180830381600087803b158015611c7c57600080fd5b505af1158015611c90573d6000803e3d6000fd5b505060048054604051639d47207160e01b81526001600160a01b038b8116938201939093526000602482015291169250639d4720719150604401600060405180830381600087803b158015611ce457600080fd5b505af1158015611cf8573d6000803e3d6000fd5b50506004805460405163682fffaf60e01b815291820186905260248201859052600160448301526001600160a01b0316925063682fffaf9150606401600060405180830381600087803b158015611d4e57600080fd5b505af1158015611d62573d6000803e3d6000fd5b50505050505050505050565b60405163b613249d60e01b81523360048201528190611dfd9073B1A13497D08d8764900546B5989E654A5c71c2d19063b613249d906024015b60206040518083038186803b158015611dbf57600080fd5b505af4158015611dd3573d6000803e3d6000fd5b505050506040513d601f19601f82011682018060405250810190611df79190614525565b82611782565b611e385760405162461bcd60e51b815260206004820152600c60248201526b139bdd081d995c9a599a595960a21b6044820152606401610548565b600354600160a01b900460ff16611e615760405162461bcd60e51b8152600401610548906149c2565b600c54610100900460ff1615611e895760405162461bcd60e51b8152600401610548906148e6565b60026001541415611eac5760405162461bcd60e51b815260040161054890614945565b505060018055565b6000546001600160a01b03163314611ede5760405162461bcd60e51b815260040161054890614910565b611ee86000613f02565b565b6002546001600160a01b03163314611f145760405162461bcd60e51b81526004016105489061497c565b600c54610100900460ff1615611f3c5760405162461bcd60e51b8152600401610548906148e6565b6006546040516000916001600160a01b0316907f7fb3a9a28264147fdfcb557d570d2771a0c4df4cc7f7f8b4305eede3bba91ab090611f8190869086906024016148ba565b60408051601f198184030181529181526020820180516001600160e01b03166001600160e01b0319909416939093179092529051611fbf91906147f3565b600060405180830381855af49150503d8060008114611ffa576040519150601f19603f3d011682016040523d82523d6000602084013e611fff565b606091505b50509050806120485760405162461bcd60e51b815260206004820152601560248201527418da185b99d9551bdad95b9554924811985a5b1959605a1b6044820152606401610548565b505050565b6000546001600160a01b031633146120775760405162461bcd60e51b815260040161054890614910565b600c54610100900460ff161561209f5760405162461bcd60e51b8152600401610548906148e6565b600260015414156120c25760405162461bcd60e51b815260040161054890614945565b600260015560048054604080516371f3b44560e11b8152905185936001600160a01b039093169263e3e7688a92808201926020929091829003018186803b15801561210c57600080fd5b505afa158015612120573d6000803e3d6000fd5b505050506040513d601f19601f820116820180604052508101906121449190614488565b6040516370a0823160e01b81523360048201526001600160a01b0391909116906370a082319060240160206040518083038186803b15801561218557600080fd5b505afa158015612199573d6000803e3d6000fd5b505050506040513d601f19601f820116820180604052508101906121bd9190614525565b10156122025760405162461bcd60e51b8152602060048201526014602482015273496e73756666696369656e742062616c616e636560601b6044820152606401610548565b60048054604080516371f3b44560e11b815290516001600160a01b039092169263e3e7688a928282019260209290829003018186803b15801561224457600080fd5b505afa158015612258573d6000803e3d6000fd5b505050506040513d601f19601f8201168201806040525081019061227c9190614488565b60405163a9059cbb60e01b81526001600160a01b03838116600483015260248201859052919091169063a9059cbb90604401602060405180830381600087803b1580156122c857600080fd5b505af11580156122dc573d6000803e3d6000fd5b505050506040513d601f19601f820116820180604052508101906123009190614505565b50506001805550565b6000546001600160a01b031633146123335760405162461bcd60e51b815260040161054890614910565b6001600160a01b03811661239e5760405162461bcd60e51b815260206004820152602c60248201527f496e76616c69642041646d696e3a206e65772061646d696e206973207468652060448201526b7a65726f206164647265737360a01b6064820152608401610548565b6123a781613f52565b50565b6002546001600160a01b031633146123d45760405162461bcd60e51b81526004016105489061497c565b6004805460405163a1b3d1ff60e01b81526001600160a01b039091169163a1b3d1ff91612403918591016148d3565b600060405180830381600087803b15801561241d57600080fd5b505af1158015612431573d6000803e3d6000fd5b5050505050565b6000546001600160a01b031633146124625760405162461bcd60e51b815260040161054890614910565b6007546001600160a01b03166124aa5760405162461bcd60e51b815260206004820152600d60248201526c57726f6e67204164647265737360981b6044820152606401610548565b600c5460ff16156124fe57600b546124c59062015180613fb3565b42116124fe5760405162461bcd60e51b8152602060048201526008602482015267496e2044656c617960c01b6044820152606401610548565b60076005600a604051612511919061481f565b908152604051908190036020019020905481546001600160a01b0319166001600160a01b03909116179055600a80546009919061254d90614aa0565b612558929190614307565b50600754600680546001600160a01b0319166001600160a01b0390921691909117905560088054600181018255600091909152600a80547ff3f7a9fe364faab93b216da50a3214154f22a0a2b415b23a84c8169e8b636ee3909201916125bd90614aa0565b6125c8929190614307565b506040805160208101918290526000908190526125e791600a91614392565b50600780546001600160a01b0319169055565b6002546001600160a01b031633146126245760405162461bcd60e51b81526004016105489061497c565b60048054604051622a710d60e31b81526001600160a01b03909116916301538868916126549186918691016148ba565b600060405180830381600087803b15801561266e57600080fd5b505af1158015612682573d6000803e3d6000fd5b505050505050565b6002546001600160a01b031633146126b45760405162461bcd60e51b81526004016105489061497c565b600c54610100900460ff16156126dc5760405162461bcd60e51b8152600401610548906148e6565b806001600160a01b0381166127225760405162461bcd60e51b815260206004820152600c60248201526b5a65726f206164647265737360a01b6044820152606401610548565b600260015414156127455760405162461bcd60e51b815260040161054890614945565b60026001556004805460405163942eb8c360e01b81526001600160a01b038581169382019390935291169063942eb8c390602401600060405180830381600087803b15801561279357600080fd5b505af11580156127a7573d6000803e3d6000fd5b50506001805550505050565b6000546001600160a01b031633146127dd5760405162461bcd60e51b815260040161054890614910565b6001600160a01b0381166128255760405162461bcd60e51b815260206004820152600f60248201526e496e76616c6964204164647265737360881b6044820152606401610548565b600380546001600160a01b0319166001600160a01b0392909216919091179055565b6000546001600160a01b031633146128715760405162461bcd60e51b815260040161054890614910565b6040805160208101918290526000908190526125e791600a91614392565b6000546001600160a01b031633146128b95760405162461bcd60e51b815260040161054890614910565b6001600160a01b0381166128ff5760405162461bcd60e51b815260206004820152600d60248201526c57726f6e67204164647265737360981b6044820152606401610548565b60008251116129405760405162461bcd60e51b815260206004820152600d60248201526c22b6b83a3c902b32b939b4b7b760991b6044820152606401610548565b8160405160200161295191906147f3565b604051602081830303815290604052805190602001206009604051602001612979919061481f565b6040516020818303038152906040528051906020012014156129d05760405162461bcd60e51b815260206004820152601060248201526f22bc34b9ba34b733902b32b939b4b7b760811b6044820152606401610548565b81516129e390600a906020850190614392565b50600780546001600160a01b0319166001600160a01b03929092169190911790555042600b55565b60048054604051630e4d620560e01b815233928101929092526001600160a01b031690630e4d62059060240160206040518083038186803b158015612a4f57600080fd5b505afa158015612a63573d6000803e3d6000fd5b505050506040513d601f19601f82011682018060405250810190612a879190614525565b15612ac95760405162461bcd60e51b815260206004820152601260248201527114d95d081d1bdad95b95549248199a5c9cdd60721b6044820152606401610548565b6000600460009054906101000a90046001600160a01b03166001600160a01b0316630ca1c5c96040518163ffffffff1660e01b815260040160206040518083038186803b158015612b1957600080fd5b505afa158015612b2d573d6000803e3d6000fd5b505050506040513d601f19601f82011682018060405250810190612b519190614525565b9050600080600460009054906101000a90046001600160a01b03166001600160a01b0316637a5caab36040518163ffffffff1660e01b8152600401604080518083038186803b158015612ba357600080fd5b505afa158015612bb7573d6000803e3d6000fd5b505050506040513d601f19601f82011682018060405250810190612bdb91906147a4565b9150915081600460009054906101000a90046001600160a01b03166001600160a01b031663e3e7688a6040518163ffffffff1660e01b815260040160206040518083038186803b158015612c2e57600080fd5b505afa158015612c42573d6000803e3d6000fd5b505050506040513d601f19601f82011682018060405250810190612c669190614488565b6040516370a0823160e01b81523360048201526001600160a01b0391909116906370a082319060240160206040518083038186803b158015612ca757600080fd5b505afa158015612cbb573d6000803e3d6000fd5b505050506040513d601f19601f82011682018060405250810190612cdf9190614525565b1015612d265760405162461bcd60e51b81526020600482015260166024820152752ab739bab33334b1b4b2b73a103233ba103a37b5b2b760511b6044820152606401610548565b80600460009054906101000a90046001600160a01b03166001600160a01b03166338e514fe6040518163ffffffff1660e01b815260040160206040518083038186803b158015612d7557600080fd5b505afa158015612d89573d6000803e3d6000fd5b505050506040513d601f19601f82011682018060405250810190612dad9190614488565b6040516370a0823160e01b81523360048201526001600160a01b0391909116906370a082319060240160206040518083038186803b158015612dee57600080fd5b505afa158015612e02573d6000803e3d6000fd5b505050506040513d601f19601f82011682018060405250810190612e269190614525565b1015612e6d5760405162461bcd60e51b81526020600482015260166024820152752ab739bab33334b1b4b2b73a103239b8103a37b5b2b760511b6044820152606401610548565b612ec1333084600460009054906101000a90046001600160a01b03166001600160a01b031663e3e7688a6040518163ffffffff1660e01b815260040160206040518083038186803b158015610bde57600080fd5b612f15333083600460009054906101000a90046001600160a01b03166001600160a01b03166338e514fe6040518163ffffffff1660e01b815260040160206040518083038186803b158015610bde57600080fd5b60048054604051634541a7fb60e11b81523392810192909252602482018590526001600160a01b031690638a834ff690604401600060405180830381600087803b158015612f6257600080fd5b505af1158015612f76573d6000803e3d6000fd5b50505050826000141561305f57600480546040805163b9e1bbf960e01b815290516001600160a01b03909216926301538868928792859263b9e1bbf9928282019260009290829003018186803b158015612fcf57600080fd5b505afa158015612fe3573d6000803e3d6000fd5b505050506040513d6000823e601f3d908101601f1916820160405261300b9190810190614622565b6040518363ffffffff1660e01b81526004016130289291906148ba565b600060405180830381600087803b15801561304257600080fd5b505af1158015613056573d6000803e3d6000fd5b505050506130c5565b60048054604051639d47207160e01b81523392810192909252602482018590526001600160a01b031690639d47207190604401600060405180830381600087803b1580156130ac57600080fd5b505af11580156130c0573d6000803e3d6000fd5b505050505b6004805460408051630ca1c5c960e01b815290516001600160a01b03909216926316dbf90692613154926001928692630ca1c5c9928083019260209291829003018186803b15801561311657600080fd5b505afa15801561312a573d6000803e3d6000fd5b505050506040513d601f19601f8201168201806040525081019061314e9190614525565b90613fb3565b6040518263ffffffff1660e01b815260040161317291815260200190565b600060405180830381600087803b15801561318c57600080fd5b505af11580156131a0573d6000803e3d6000fd5b50505050505050565b6002546001600160a01b031633146131d35760405162461bcd60e51b81526004016105489061497c565b600c54610100900460ff16156131fb5760405162461bcd60e51b8152600401610548906148e6565b806001600160a01b0381166132415760405162461bcd60e51b815260206004820152600c60248201526b5a65726f206164647265737360a01b6044820152606401610548565b600260015414156132645760405162461bcd60e51b815260040161054890614945565b6002600155600480546040516361746ea560e11b81526001600160a01b038581169382019390935291169063c2e8dd4a90602401600060405180830381600087803b1580156132b257600080fd5b505af11580156132c6573d6000803e3d6000fd5b5050600c80546001600160a01b03909516620100000262010000600160b01b03199095169490941790935550506001805550565b6000546001600160a01b031633146133245760405162461bcd60e51b815260040161054890614910565b600c5460ff161561336d5760405162461bcd60e51b8152602060048201526013602482015272105b1c9958591e48125b9a5d1a585b1a5e9959606a1b6044820152606401610548565b61339460405180604001604052806005815260200164302e302e3160d81b8152508261288f565b61339c612438565b50600c805460ff19166001179055565b600a805461151d90614aa0565b6000546001600160a01b031633146133e35760405162461bcd60e51b815260040161054890614910565b600c54610100900460ff161561340b5760405162461bcd60e51b8152600401610548906148e6565b6002600154141561342e5760405162461bcd60e51b815260040161054890614945565b6002600155600c546004805460408051631c728a7f60e11b815290516001600160a01b03620100009095048516946342966c68949316926338e514fe92808201926020929091829003018186803b15801561348857600080fd5b505afa15801561349c573d6000803e3d6000fd5b505050506040513d601f19601f820116820180604052508101906134c09190614488565b6040516370a0823160e01b81523060048201526001600160a01b0391909116906370a082319060240160206040518083038186803b15801561350157600080fd5b505afa158015613515573d6000803e3d6000fd5b505050506040513d601f19601f820116820180604052508101906135399190614525565b6040518263ffffffff1660e01b815260040161355791815260200190565b600060405180830381600087803b15801561357157600080fd5b505af11580156114e8573d6000803e3d6000fd5b6000546001600160a01b031633146135af5760405162461bcd60e51b815260040161054890614910565b6135b7613fc6565b6040513381527f62e78cea01bee320cd4e420270b5ea74000d11b0c9f74754ebdbfc544b05a258906020015b60405180910390a1565b60405163b613249d60e01b8152336004820152819061362a9073B1A13497D08d8764900546B5989E654A5c71c2d19063b613249d90602401611da7565b6136655760405162461bcd60e51b815260206004820152600c60248201526b139bdd081d995c9a599a595960a21b6044820152606401610548565b600354600160a01b900460ff1661368e5760405162461bcd60e51b8152600401610548906149c2565b600c54610100900460ff16156136b65760405162461bcd60e51b8152600401610548906148e6565b600260015414156136d95760405162461bcd60e51b815260040161054890614945565b600260015560048054604051630e4d620560e01b815233928101929092526001600160a01b031690630e4d62059060240160206040518083038186803b15801561372257600080fd5b505afa158015613736573d6000803e3d6000fd5b505050506040513d601f19601f8201168201806040525081019061375a9190614525565b1561379c5760405162461bcd60e51b815260206004820152601260248201527114d95d081d1bdad95b95549248199a5c9cdd60721b6044820152606401610548565b60048054604051630554924960e51b815233928101929092526001600160a01b03169063aa9249209060240160206040518083038186803b1580156137e057600080fd5b505afa1580156137f4573d6000803e3d6000fd5b505050506040513d601f19601f820116820180604052508101906138189190614505565b1561384f5760405162461bcd60e51b8152602060048201526007602482015266115e1c1a5c995960ca1b6044820152606401610548565b60048054604080516310c1331760e31b815290516001600160a01b039092169263860998b8928282019260209290829003018186803b15801561389157600080fd5b505afa1580156138a5573d6000803e3d6000fd5b505050506040513d601f19601f820116820180604052508101906138c99190614525565b60048054604080516325ebda5b60e01b8152905161390f936001936001600160a01b0316926325ebda5b9281830192602092829003018186803b15801561311657600080fd5b111561396e5760405162461bcd60e51b815260206004820152602860248201527f4d696e7420776f756c6420657863656564206d617820737570706c79206f6620604482015267566f79616765727360c01b6064820152608401610548565b6000600460009054906101000a90046001600160a01b03166001600160a01b0316630ca1c5c96040518163ffffffff1660e01b815260040160206040518083038186803b1580156139be57600080fd5b505afa1580156139d2573d6000803e3d6000fd5b505050506040513d601f19601f820116820180604052508101906139f69190614525565b60048054604051634541a7fb60e11b81523392810192909252602482018390529192506001600160a01b0390911690638a834ff690604401600060405180830381600087803b158015613a4857600080fd5b505af1158015613a5c573d6000803e3d6000fd5b505050508060001415613b4557600480546040805163b9e1bbf960e01b815290516001600160a01b03909216926301538868928592859263b9e1bbf9928282019260009290829003018186803b158015613ab557600080fd5b505afa158015613ac9573d6000803e3d6000fd5b505050506040513d6000823e601f3d908101601f19168201604052613af19190810190614622565b6040518363ffffffff1660e01b8152600401613b0e9291906148ba565b600060405180830381600087803b158015613b2857600080fd5b505af1158015613b3c573d6000803e3d6000fd5b50505050613bab565b60048054604051639d47207160e01b81523392810192909252602482018390526001600160a01b031690639d47207190604401600060405180830381600087803b158015613b9257600080fd5b505af1158015613ba6573d6000803e3d6000fd5b505050505b6004805460408051630ca1c5c960e01b815290516001600160a01b03909216926316dbf90692613bfc926001928692630ca1c5c9928083019260209291829003018186803b15801561311657600080fd5b6040518263ffffffff1660e01b8152600401613c1a91815260200190565b600060405180830381600087803b158015613c3457600080fd5b505af1158015613c48573d6000803e3d6000fd5b50506004805460405163ca0a9e3d60e01b81523392810192909252600160248301526001600160a01b0316925063ca0a9e3d9150604401600060405180830381600087803b158015613c9957600080fd5b505af1158015613cad573d6000803e3d6000fd5b505060048054604080516325ebda5b60e01b815290516001600160a01b03909216945063440372f89350613d049260019286926325ebda5b9281810192602092909190829003018186803b15801561311657600080fd5b6040518263ffffffff1660e01b8152600401613d2291815260200190565b600060405180830381600087803b158015613d3c57600080fd5b505af1158015613d50573d6000803e3d6000fd5b5050600180555050505050565b6002546001600160a01b03163314613d875760405162461bcd60e51b81526004016105489061497c565b6003805460ff60a01b198116600160a01b9182900460ff1615909102179055565b6000546001600160a01b03163314613dd25760405162461bcd60e51b815260040161054890614910565b6001600160a01b038116613e375760405162461bcd60e51b815260206004820152602660248201527f4f776e61626c653a206e6577206f776e657220697320746865207a65726f206160448201526564647265737360d01b6064820152608401610548565b6123a781613f02565b6000546001600160a01b03163314613e6a5760405162461bcd60e51b815260040161054890614910565b613e7261403d565b6040513381527f5db9ee0a495bf2e6ff9c91a7834c1ba4fdd244a5e8aa4e537bd38aeae4b073aa906020016135e3565b604080516001600160a01b0385811660248301528416604482015260648082018490528251808303909101815260849091019091526020810180516001600160e01b03166323b872dd60e01b179052613efc9085906140bd565b50505050565b600080546001600160a01b038381166001600160a01b0319831681178455604051919092169283917f8be0079c531659141344cd1fd0a4f28419497f9722a3daafe3b4186f6b6457e09190a35050565b600280546001600160a01b038381166001600160a01b031983168117909355604080519190921680825260208201939093527ff8ccb027dfcd135e000e9d45e6cc2d662578a8825d4c45b5e32e0adf67e79ec6910160405180910390a15050565b6000613fbf8284614a45565b9392505050565b600c54610100900460ff1615613fee5760405162461bcd60e51b8152600401610548906148e6565b600c805461ff0019166101001790557f62e78cea01bee320cd4e420270b5ea74000d11b0c9f74754ebdbfc544b05a2586140253390565b6040516001600160a01b0390911681526020016135e3565b600c54610100900460ff1661408b5760405162461bcd60e51b815260206004820152601460248201527314185d5cd8589b194e881b9bdd081c185d5cd95960621b6044820152606401610548565b600c805461ff00191690557f5db9ee0a495bf2e6ff9c91a7834c1ba4fdd244a5e8aa4e537bd38aeae4b073aa33614025565b6000614112826040518060400160405280602081526020017f5361666545524332303a206c6f772d6c6576656c2063616c6c206661696c6564815250856001600160a01b031661418f9092919063ffffffff16565b80519091501561204857808060200190518101906141309190614505565b6120485760405162461bcd60e51b815260206004820152602a60248201527f5361666545524332303a204552433230206f7065726174696f6e20646964206e6044820152691bdd081cdd58d8d9595960b21b6064820152608401610548565b606061419e84846000856141a6565b949350505050565b6060824710156142075760405162461bcd60e51b815260206004820152602660248201527f416464726573733a20696e73756666696369656e742062616c616e636520666f6044820152651c8818d85b1b60d21b6064820152608401610548565b843b6142555760405162461bcd60e51b815260206004820152601d60248201527f416464726573733a2063616c6c20746f206e6f6e2d636f6e74726163740000006044820152606401610548565b600080866001600160a01b0316858760405161427191906147f3565b60006040518083038185875af1925050503d80600081146142ae576040519150601f19603f3d011682016040523d82523d6000602084013e6142b3565b606091505b50915091506142c38282866142ce565b979650505050505050565b606083156142dd575081613fbf565b8251156142ed5782518084602001fd5b8160405162461bcd60e51b815260040161054891906148d3565b82805461431390614aa0565b90600052602060002090601f0160209004810192826143355760008555614382565b82601f106143465780548555614382565b8280016001018555821561438257600052602060002091601f016020900482015b82811115614382578254825591600101919060010190614367565b5061438e929150614406565b5090565b82805461439e90614aa0565b90600052602060002090601f0160209004810192826143c05760008555614382565b82601f106143d957805160ff1916838001178555614382565b82800160010185558215614382579182015b828111156143825782518255916020019190600101906143eb565b5b8082111561438e5760008155600101614407565b600082601f83011261442b578081fd5b813561443e61443982614a1d565b6149ec565b818152846020838601011115614452578283fd5b816020850160208301379081016020019190915292915050565b60006020828403121561447d578081fd5b8135613fbf81614b07565b600060208284031215614499578081fd5b8151613fbf81614b07565b600080600080608085870312156144b9578283fd5b84356144c481614b07565b93506020850135925060408501359150606085013567ffffffffffffffff8111156144ed578182fd5b6144f98782880161441b565b91505092959194509250565b600060208284031215614516578081fd5b81518015158114613fbf578182fd5b600060208284031215614536578081fd5b5051919050565b6000806040838503121561454f578182fd5b82359150602083013567ffffffffffffffff81111561456c578182fd5b6145788582860161441b565b9150509250929050565b600060208284031215614593578081fd5b813567ffffffffffffffff8111156145a9578182fd5b61419e8482850161441b565b600080602083850312156145c7578182fd5b823567ffffffffffffffff808211156145de578384fd5b818501915085601f8301126145f1578384fd5b8135818111156145ff578485fd5b866020828501011115614610578485fd5b60209290920196919550909350505050565b600060208284031215614633578081fd5b815167ffffffffffffffff811115614649578182fd5b8201601f81018413614659578182fd5b805161466761443982614a1d565b81815285602083850101111561467b578384fd5b61468c826020830160208601614a74565b95945050505050565b600080604083850312156146a7578182fd5b823567ffffffffffffffff8111156146bd578283fd5b6146c98582860161441b565b92505060208301356146da81614b07565b809150509250929050565b600060a082840312156146f6578081fd5b60405160a0810181811067ffffffffffffffff8211171561471957614719614af1565b604052825160ff8116811461472c578283fd5b815260208381015190820152604083015161474681614b07565b6040820152606083810151908201526080928301519281019290925250919050565b600060208284031215614779578081fd5b5035919050565b60008060408385031215614792578182fd5b8235915060208301356146da81614b07565b600080604083850312156147b6578182fd5b505080516020909101519092909150565b600081518084526147df816020860160208601614a74565b601f01601f19169290920160200192915050565b60008251614805818460208701614a74565b9190910192915050565b8183823760009101908152919050565b600080835482600182811c91508083168061483b57607f831692505b602080841082141561485b57634e487b7160e01b87526022600452602487fd5b81801561486f5760018114614880576148ac565b60ff198616895284890196506148ac565b60008a815260209020885b868110156148a45781548b82015290850190830161488b565b505084890196505b509498975050505050505050565b82815260406020820152600061419e60408301846147c7565b602081526000613fbf60208301846147c7565b60208082526010908201526f14185d5cd8589b194e881c185d5cd95960821b604082015260600190565b6020808252818101527f4f776e61626c653a2063616c6c6572206973206e6f7420746865206f776e6572604082015260600190565b6020808252601f908201527f5265656e7472616e637947756172643a207265656e7472616e742063616c6c00604082015260600190565b60208082526026908201527f496e76616c69642041646d696e3a2063616c6c6572206973206e6f74207468656040820152651030b236b4b760d11b606082015260800190565b60208082526010908201526f155b9858dd1a5d99481d1bc81b5a5b9d60821b604082015260600190565b604051601f8201601f1916810167ffffffffffffffff81118282101715614a1557614a15614af1565b604052919050565b600067ffffffffffffffff821115614a3757614a37614af1565b50601f01601f191660200190565b60008219821115614a5857614a58614adb565b500190565b600082821015614a6f57614a6f614adb565b500390565b60005b83811015614a8f578181015183820152602001614a77565b83811115613efc5750506000910152565b600181811c90821680614ab457607f821691505b60208210811415614ad557634e487b7160e01b600052602260045260246000fd5b50919050565b634e487b7160e01b600052601160045260246000fd5b634e487b7160e01b600052604160045260246000fd5b6001600160a01b03811681146123a757600080fdfea2646970667358221220e69b758b6812e0fc34151f2286464350a705d4e82c142079d59a59c3c222b04064736f6c63430008040033",
  "deployedBytecode": "0x608060405234801561001057600080fd5b50600436106102535760003560e01c80637e89621411610146578063c4d66de8116100c3578063ec51a17d11610087578063ec51a17d146104ca578063ec556889146104de578063f0185255146104f1578063f2fde38b146104f9578063f7b188a51461050c578063f851a4401461051457600080fd5b8063c4d66de81461048c578063ce0ded3a1461049f578063cf41b8a9146104a7578063d431b1ac146104af578063de3bcca9146104b757600080fd5b80639afd9d781161010a5780639afd9d7814610443578063aa30c4b71461044b578063bfe0b1251461045e578063c1cd333814610471578063c2e8dd4a1461047957600080fd5b80637e896214146103f15780637fb3a9a2146103f95780638da5cb5b1461040c578063942eb8c31461041d57806397107d6d1461043057600080fd5b80635c975abb116101d45780637161cdd8116101985780637161cdd81461038e57806372e0d7fe146103a157806375829def146103b457806378e97925146103c75780637a599e81146103de57600080fd5b80635c975abb1461033757806367e79832146103475780636ed333431461035a5780636ed5545914610373578063715018a61461038657600080fd5b806334f15bd71161021b57806334f15bd7146102e25780633b6764ae146102f55780633b74b039146102fd578063471a42941461031057806347acbe0f1461032457600080fd5b80630ce90ec214610258578063158ef93e1461026d5780631d8f5f181461028f5780632864efb6146102af57806329e566cb146102b7575b600080fd5b61026b610266366004614768565b610525565b005b600c5461027a9060ff1681565b60405190151581526020015b60405180910390f35b6102a261029d366004614768565b6114f2565b60405161028691906148d3565b61026b61159e565b6102ca6102c53660046145b5565b6116e7565b6040516001600160a01b039091168152602001610286565b61027a6102f036600461453d565b611782565b6102a261183a565b61026b61030b3660046144a4565b611847565b60035461027a90600160a01b900460ff1681565b61026b610332366004614582565b611d6e565b600c54610100900460ff1661027a565b6007546102ca906001600160a01b031681565b600c546102ca906201000090046001600160a01b031681565b6006546102ca906001600160a01b031681565b61026b611eb4565b61026b61039c36600461453d565b611eea565b61026b6103af366004614780565b61204d565b61026b6103c236600461446c565b612309565b6103d0600b5481565b604051908152602001610286565b61026b6103ec366004614582565b6123aa565b61026b612438565b61026b61040736600461453d565b6125fa565b6000546001600160a01b03166102ca565b61026b61042b36600461446c565b61268a565b61026b61043e36600461446c565b6127b3565b61026b612847565b6004546102ca906001600160a01b031681565b61026b61046c366004614695565b61288f565b61026b612a0b565b61026b61048736600461446c565b6131a9565b61026b61049a36600461446c565b6132fa565b6102a26133ac565b61026b6133b9565b61026b613585565b61026b6104c5366004614582565b6135ed565b60035461027a90600160a81b900460ff1681565b6003546102ca906001600160a01b031681565b61026b613d5d565b61026b61050736600461446c565b613da8565b61026b613e40565b6002546001600160a01b03166102ca565b600260015414156105515760405162461bcd60e51b815260040161054890614945565b60405180910390fd5b6002600155806105915760405162461bcd60e51b815260206004820152600b60248201526a2737ba1018103a37b5b2b760a91b6044820152606401610548565b60048054604051630e4d620560e01b815233928101929092526001600160a01b031690630e4d62059060240160206040518083038186803b1580156105d557600080fd5b505afa1580156105e9573d6000803e3d6000fd5b505050506040513d601f19601f8201168201806040525081019061060d9190614525565b1561064a5760405162461bcd60e51b815260206004820152600d60248201526c2ab73b30b634b2103a37b5b2b760991b6044820152606401610548565b600480546040805163cc06c35960e01b815290516001600160a01b039092169263cc06c359928282019260209290829003018186803b15801561068c57600080fd5b505afa1580156106a0573d6000803e3d6000fd5b505050506040513d601f19601f820116820180604052508101906106c49190614525565b600480546040516304252ae160e51b81529182018490526001600160a01b031690637e5ea2829082906384a55c209060240160206040518083038186803b15801561070e57600080fd5b505afa158015610722573d6000803e3d6000fd5b505050506040513d601f19601f820116820180604052508101906107469190614525565b6040518263ffffffff1660e01b815260040161076491815260200190565b60a06040518083038186803b15801561077c57600080fd5b505afa158015610790573d6000803e3d6000fd5b505050506040513d601f19601f820116820180604052508101906107b491906146e5565b5160ff16106107f95760405162461bcd60e51b8152602060048201526011602482015270105b1c9958591e481b585e081b195d995b607a1b6044820152606401610548565b60048054604051630219207560e61b8152918201839052600091829182916001600160a01b03909116906386481d409060240160206040518083038186803b15801561084457600080fd5b505afa158015610858573d6000803e3d6000fd5b505050506040513d601f19601f8201168201806040525081019061087c9190614525565b60048054604051632c8ddbf960e21b81529293506001600160a01b03169163b2376fe4916108b09188910190815260200190565b604080518083038186803b1580156108c757600080fd5b505afa1580156108db573d6000803e3d6000fd5b505050506040513d601f19601f820116820180604052508101906108ff91906147a4565b60048054604080516371f3b44560e11b8152905194975092955086936001600160a01b039091169263e3e7688a9281810192602092909190829003018186803b15801561094b57600080fd5b505afa15801561095f573d6000803e3d6000fd5b505050506040513d601f19601f820116820180604052508101906109839190614488565b6040516370a0823160e01b81523360048201526001600160a01b0391909116906370a082319060240160206040518083038186803b1580156109c457600080fd5b505afa1580156109d8573d6000803e3d6000fd5b505050506040513d601f19601f820116820180604052508101906109fc9190614525565b1015610a435760405162461bcd60e51b81526020600482015260166024820152752ab739bab33334b1b4b2b73a103233ba103a37b5b2b760511b6044820152606401610548565b81600460009054906101000a90046001600160a01b03166001600160a01b03166338e514fe6040518163ffffffff1660e01b815260040160206040518083038186803b158015610a9257600080fd5b505afa158015610aa6573d6000803e3d6000fd5b505050506040513d601f19601f82011682018060405250810190610aca9190614488565b6040516370a0823160e01b81523360048201526001600160a01b0391909116906370a082319060240160206040518083038186803b158015610b0b57600080fd5b505afa158015610b1f573d6000803e3d6000fd5b505050506040513d601f19601f82011682018060405250810190610b439190614525565b1015610b8a5760405162461bcd60e51b81526020600482015260166024820152752ab739bab33334b1b4b2b73a103239b8103a37b5b2b760511b6044820152606401610548565b610c27333085600460009054906101000a90046001600160a01b03166001600160a01b031663e3e7688a6040518163ffffffff1660e01b815260040160206040518083038186803b158015610bde57600080fd5b505afa158015610bf2573d6000803e3d6000fd5b505050506040513d601f19601f82011682018060405250810190610c169190614488565b6001600160a01b0316929190613ea2565b610c7b333084600460009054906101000a90046001600160a01b03166001600160a01b03166338e514fe6040518163ffffffff1660e01b815260040160206040518083038186803b158015610bde57600080fd5b60048054604051630219207560e61b81529182018690526001600160a01b0316906380ea5a8390339083906386481d409060240160206040518083038186803b158015610cc757600080fd5b505afa158015610cdb573d6000803e3d6000fd5b505050506040513d601f19601f82011682018060405250810190610cff9190614525565b60048054604051630219207560e61b81529182018a90526001916001600160a01b0390911690636d3f450b90339083906386481d409060240160206040518083038186803b158015610d5057600080fd5b505afa158015610d64573d6000803e3d6000fd5b505050506040513d601f19601f82011682018060405250810190610d889190614525565b6040516001600160e01b031960e085901b1681526001600160a01b039092166004830152602482015260440160206040518083038186803b158015610dcc57600080fd5b505afa158015610de0573d6000803e3d6000fd5b505050506040513d601f19601f82011682018060405250810190610e049190614525565b610e0e9190614a5d565b6040516001600160e01b031960e086901b1681526001600160a01b03909316600484015260248301919091526044820152606401600060405180830381600087803b158015610e5c57600080fd5b505af1158015610e70573d6000803e3d6000fd5b505060048054604051630219207560e61b81529182018890526001600160a01b031692506370a93b369150869083906386481d409060240160206040518083038186803b158015610ec057600080fd5b505afa158015610ed4573d6000803e3d6000fd5b505050506040513d601f19601f82011682018060405250810190610ef89190614525565b610f03906001614a45565b6040516001600160e01b031960e085901b16815260048101929092526024820152604401600060405180830381600087803b158015610f4157600080fd5b505af1158015610f55573d6000803e3d6000fd5b505060048054604051638256c0a360e01b81529182018890524260248301526001600160a01b03169250638256c0a39150604401600060405180830381600087803b158015610fa357600080fd5b505af1158015610fb7573d6000803e3d6000fd5b505060048054604051630219207560e61b81529182018890526001600160a01b031692506380ea5a839150339083906386481d409060240160206040518083038186803b15801561100757600080fd5b505afa15801561101b573d6000803e3d6000fd5b505050506040513d601f19601f8201168201806040525081019061103f9190614525565b60048054604051630219207560e61b81529182018a90526001600160a01b031690636d3f450b90339083906386481d409060240160206040518083038186803b15801561108b57600080fd5b505afa15801561109f573d6000803e3d6000fd5b505050506040513d601f19601f820116820180604052508101906110c39190614525565b6040516001600160e01b031960e085901b1681526001600160a01b039092166004830152602482015260440160206040518083038186803b15801561110757600080fd5b505afa15801561111b573d6000803e3d6000fd5b505050506040513d601f19601f8201168201806040525081019061113f9190614525565b61114a906001614a45565b6040516001600160e01b031960e086901b1681526001600160a01b03909316600484015260248301919091526044820152606401600060405180830381600087803b15801561119857600080fd5b505af11580156111ac573d6000803e3d6000fd5b505060048054604051639d47207160e01b81523392810192909252602482018890526001600160a01b03169250639d4720719150604401600060405180830381600087803b1580156111fd57600080fd5b505af1158015611211573d6000803e3d6000fd5b50506004805460405163984027a760e01b815233928101929092526001600160a01b0316925063984027a7915060240160206040518083038186803b15801561125957600080fd5b505afa15801561126d573d6000803e3d6000fd5b505050506040513d601f19601f820116820180604052508101906112919190614525565b600480546040516304252ae160e51b81529182018790526001600160a01b031690637e5ea2829082906384a55c209060240160206040518083038186803b1580156112db57600080fd5b505afa1580156112ef573d6000803e3d6000fd5b505050506040513d601f19601f820116820180604052508101906113139190614525565b6040518263ffffffff1660e01b815260040161133191815260200190565b60a06040518083038186803b15801561134957600080fd5b505afa15801561135d573d6000803e3d6000fd5b505050506040513d601f19601f8201168201806040525081019061138191906146e5565b5160ff1611156114e857600480546040516304252ae160e51b81529182018690526001600160a01b031690630d2176ed9033908390637e5ea2829082906384a55c209060240160206040518083038186803b1580156113df57600080fd5b505afa1580156113f3573d6000803e3d6000fd5b505050506040513d601f19601f820116820180604052508101906114179190614525565b6040518263ffffffff1660e01b815260040161143591815260200190565b60a06040518083038186803b15801561144d57600080fd5b505afa158015611461573d6000803e3d6000fd5b505050506040513d601f19601f8201168201806040525081019061148591906146e5565b5160405160e084901b6001600160e01b03191681526001600160a01b03909216600483015260ff166024820152604401600060405180830381600087803b1580156114cf57600080fd5b505af11580156114e3573d6000803e3d6000fd5b505050505b5050600180555050565b6008818154811061150257600080fd5b90600052602060002001600091509050805461151d90614aa0565b80601f016020809104026020016040519081016040528092919081815260200182805461154990614aa0565b80156115965780601f1061156b57610100808354040283529160200191611596565b820191906000526020600020905b81548152906001019060200180831161157957829003601f168201915b505050505081565b600354600160a01b900460ff166115c75760405162461bcd60e51b8152600401610548906149c2565b600c54610100900460ff16156115ef5760405162461bcd60e51b8152600401610548906148e6565b600260015414156116125760405162461bcd60e51b815260040161054890614945565b600260015560065460408051600481526024810182526020810180516001600160e01b0316631839a66760e31b17905290516000926001600160a01b03169161165a916147f3565b600060405180830381855af49150503d8060008114611695576040519150601f19603f3d011682016040523d82523d6000602084013e61169a565b606091505b50509050806116e05760405162461bcd60e51b81526020600482015260126024820152711b5a5b9d159bde5859d95c8811985a5b195960721b6044820152606401610548565b5060018055565b600080546001600160a01b031633146117125760405162461bcd60e51b815260040161054890614910565b8161174f5760405162461bcd60e51b815260206004820152600d60248201526c22b6b83a3c902b32b939b4b7b760991b6044820152606401610548565b6005838360405161176192919061480f565b908152604051908190036020019020546001600160a01b0316905092915050565b6040516319045a2560e01b815260009073__$5375cb35093987ecf92e89395ecd702213$__906319045a25906117be90869086906004016148ba565b60206040518083038186803b1580156117d657600080fd5b505af41580156117ea573d6000803e3d6000fd5b505050506040513d601f19601f8201168201806040525081019061180e9190614488565b6001600160a01b03166118296002546001600160a01b031690565b6001600160a01b0316149392505050565b6009805461151d90614aa0565b6002546001600160a01b031633146118715760405162461bcd60e51b81526004016105489061497c565b60048054604051630e4d620560e01b81526001600160a01b038781169382019390935260009290911690630e4d62059060240160206040518083038186803b1580156118bc57600080fd5b505afa1580156118d0573d6000803e3d6000fd5b505050506040513d601f19601f820116820180604052508101906118f49190614525565b600480546040516304252ae160e51b81529182018390529192506000916001600160a01b031690637e5ea2829082906384a55c209060240160206040518083038186803b15801561194457600080fd5b505afa158015611958573d6000803e3d6000fd5b505050506040513d601f19601f8201168201806040525081019061197c9190614525565b6040518263ffffffff1660e01b815260040161199a91815260200190565b60a06040518083038186803b1580156119b257600080fd5b505afa1580156119c6573d6000803e3d6000fd5b505050506040513d601f19601f820116820180604052508101906119ea91906146e5565b5160ff16905081611a2d5760405162461bcd60e51b815260206004820152600d60248201526c2ab73b30b634b2103a37b5b2b760991b6044820152606401610548565b600480546040516331a9108f60e11b81529182018490526001600160a01b0388811692911690636352211e9060240160206040518083038186803b158015611a7457600080fd5b505afa158015611a88573d6000803e3d6000fd5b505050506040513d601f19601f82011682018060405250810190611aac9190614488565b6001600160a01b031614611aee5760405162461bcd60e51b81526020600482015260096024820152682737ba1037bbb732b960b91b6044820152606401610548565b818514611b325760405162461bcd60e51b815260206004820152601260248201527110dbdb9cda5cdd195b9d081d1bdad95b925160721b6044820152606401610548565b838114611b745760405162461bcd60e51b815260206004820152601060248201526f10dbdb9cda5cdd195b9d081b195d995b60821b6044820152606401610548565b60048054604051637538bcfd60e01b8152918201849052602482018390526001600160a01b031690637538bcfd9060440160206040518083038186803b158015611bbd57600080fd5b505afa158015611bd1573d6000803e3d6000fd5b505050506040513d601f19601f82011682018060405250810190611bf59190614505565b15611c325760405162461bcd60e51b815260206004820152600d60248201526c536574206f766572206f6e636560981b6044820152606401610548565b60048054604051622a710d60e31b81526001600160a01b0390911691630153886891611c629186918891016148ba565b600060405180830381600087803b158015611c7c57600080fd5b505af1158015611c90573d6000803e3d6000fd5b505060048054604051639d47207160e01b81526001600160a01b038b8116938201939093526000602482015291169250639d4720719150604401600060405180830381600087803b158015611ce457600080fd5b505af1158015611cf8573d6000803e3d6000fd5b50506004805460405163682fffaf60e01b815291820186905260248201859052600160448301526001600160a01b0316925063682fffaf9150606401600060405180830381600087803b158015611d4e57600080fd5b505af1158015611d62573d6000803e3d6000fd5b50505050505050505050565b60405163b613249d60e01b81523360048201528190611dfd9073__$5375cb35093987ecf92e89395ecd702213$__9063b613249d906024015b60206040518083038186803b158015611dbf57600080fd5b505af4158015611dd3573d6000803e3d6000fd5b505050506040513d601f19601f82011682018060405250810190611df79190614525565b82611782565b611e385760405162461bcd60e51b815260206004820152600c60248201526b139bdd081d995c9a599a595960a21b6044820152606401610548565b600354600160a01b900460ff16611e615760405162461bcd60e51b8152600401610548906149c2565b600c54610100900460ff1615611e895760405162461bcd60e51b8152600401610548906148e6565b60026001541415611eac5760405162461bcd60e51b815260040161054890614945565b505060018055565b6000546001600160a01b03163314611ede5760405162461bcd60e51b815260040161054890614910565b611ee86000613f02565b565b6002546001600160a01b03163314611f145760405162461bcd60e51b81526004016105489061497c565b600c54610100900460ff1615611f3c5760405162461bcd60e51b8152600401610548906148e6565b6006546040516000916001600160a01b0316907f7fb3a9a28264147fdfcb557d570d2771a0c4df4cc7f7f8b4305eede3bba91ab090611f8190869086906024016148ba565b60408051601f198184030181529181526020820180516001600160e01b03166001600160e01b0319909416939093179092529051611fbf91906147f3565b600060405180830381855af49150503d8060008114611ffa576040519150601f19603f3d011682016040523d82523d6000602084013e611fff565b606091505b50509050806120485760405162461bcd60e51b815260206004820152601560248201527418da185b99d9551bdad95b9554924811985a5b1959605a1b6044820152606401610548565b505050565b6000546001600160a01b031633146120775760405162461bcd60e51b815260040161054890614910565b600c54610100900460ff161561209f5760405162461bcd60e51b8152600401610548906148e6565b600260015414156120c25760405162461bcd60e51b815260040161054890614945565b600260015560048054604080516371f3b44560e11b8152905185936001600160a01b039093169263e3e7688a92808201926020929091829003018186803b15801561210c57600080fd5b505afa158015612120573d6000803e3d6000fd5b505050506040513d601f19601f820116820180604052508101906121449190614488565b6040516370a0823160e01b81523360048201526001600160a01b0391909116906370a082319060240160206040518083038186803b15801561218557600080fd5b505afa158015612199573d6000803e3d6000fd5b505050506040513d601f19601f820116820180604052508101906121bd9190614525565b10156122025760405162461bcd60e51b8152602060048201526014602482015273496e73756666696369656e742062616c616e636560601b6044820152606401610548565b60048054604080516371f3b44560e11b815290516001600160a01b039092169263e3e7688a928282019260209290829003018186803b15801561224457600080fd5b505afa158015612258573d6000803e3d6000fd5b505050506040513d601f19601f8201168201806040525081019061227c9190614488565b60405163a9059cbb60e01b81526001600160a01b03838116600483015260248201859052919091169063a9059cbb90604401602060405180830381600087803b1580156122c857600080fd5b505af11580156122dc573d6000803e3d6000fd5b505050506040513d601f19601f820116820180604052508101906123009190614505565b50506001805550565b6000546001600160a01b031633146123335760405162461bcd60e51b815260040161054890614910565b6001600160a01b03811661239e5760405162461bcd60e51b815260206004820152602c60248201527f496e76616c69642041646d696e3a206e65772061646d696e206973207468652060448201526b7a65726f206164647265737360a01b6064820152608401610548565b6123a781613f52565b50565b6002546001600160a01b031633146123d45760405162461bcd60e51b81526004016105489061497c565b6004805460405163a1b3d1ff60e01b81526001600160a01b039091169163a1b3d1ff91612403918591016148d3565b600060405180830381600087803b15801561241d57600080fd5b505af1158015612431573d6000803e3d6000fd5b5050505050565b6000546001600160a01b031633146124625760405162461bcd60e51b815260040161054890614910565b6007546001600160a01b03166124aa5760405162461bcd60e51b815260206004820152600d60248201526c57726f6e67204164647265737360981b6044820152606401610548565b600c5460ff16156124fe57600b546124c59062015180613fb3565b42116124fe5760405162461bcd60e51b8152602060048201526008602482015267496e2044656c617960c01b6044820152606401610548565b60076005600a604051612511919061481f565b908152604051908190036020019020905481546001600160a01b0319166001600160a01b03909116179055600a80546009919061254d90614aa0565b612558929190614307565b50600754600680546001600160a01b0319166001600160a01b0390921691909117905560088054600181018255600091909152600a80547ff3f7a9fe364faab93b216da50a3214154f22a0a2b415b23a84c8169e8b636ee3909201916125bd90614aa0565b6125c8929190614307565b506040805160208101918290526000908190526125e791600a91614392565b50600780546001600160a01b0319169055565b6002546001600160a01b031633146126245760405162461bcd60e51b81526004016105489061497c565b60048054604051622a710d60e31b81526001600160a01b03909116916301538868916126549186918691016148ba565b600060405180830381600087803b15801561266e57600080fd5b505af1158015612682573d6000803e3d6000fd5b505050505050565b6002546001600160a01b031633146126b45760405162461bcd60e51b81526004016105489061497c565b600c54610100900460ff16156126dc5760405162461bcd60e51b8152600401610548906148e6565b806001600160a01b0381166127225760405162461bcd60e51b815260206004820152600c60248201526b5a65726f206164647265737360a01b6044820152606401610548565b600260015414156127455760405162461bcd60e51b815260040161054890614945565b60026001556004805460405163942eb8c360e01b81526001600160a01b038581169382019390935291169063942eb8c390602401600060405180830381600087803b15801561279357600080fd5b505af11580156127a7573d6000803e3d6000fd5b50506001805550505050565b6000546001600160a01b031633146127dd5760405162461bcd60e51b815260040161054890614910565b6001600160a01b0381166128255760405162461bcd60e51b815260206004820152600f60248201526e496e76616c6964204164647265737360881b6044820152606401610548565b600380546001600160a01b0319166001600160a01b0392909216919091179055565b6000546001600160a01b031633146128715760405162461bcd60e51b815260040161054890614910565b6040805160208101918290526000908190526125e791600a91614392565b6000546001600160a01b031633146128b95760405162461bcd60e51b815260040161054890614910565b6001600160a01b0381166128ff5760405162461bcd60e51b815260206004820152600d60248201526c57726f6e67204164647265737360981b6044820152606401610548565b60008251116129405760405162461bcd60e51b815260206004820152600d60248201526c22b6b83a3c902b32b939b4b7b760991b6044820152606401610548565b8160405160200161295191906147f3565b604051602081830303815290604052805190602001206009604051602001612979919061481f565b6040516020818303038152906040528051906020012014156129d05760405162461bcd60e51b815260206004820152601060248201526f22bc34b9ba34b733902b32b939b4b7b760811b6044820152606401610548565b81516129e390600a906020850190614392565b50600780546001600160a01b0319166001600160a01b03929092169190911790555042600b55565b60048054604051630e4d620560e01b815233928101929092526001600160a01b031690630e4d62059060240160206040518083038186803b158015612a4f57600080fd5b505afa158015612a63573d6000803e3d6000fd5b505050506040513d601f19601f82011682018060405250810190612a879190614525565b15612ac95760405162461bcd60e51b815260206004820152601260248201527114d95d081d1bdad95b95549248199a5c9cdd60721b6044820152606401610548565b6000600460009054906101000a90046001600160a01b03166001600160a01b0316630ca1c5c96040518163ffffffff1660e01b815260040160206040518083038186803b158015612b1957600080fd5b505afa158015612b2d573d6000803e3d6000fd5b505050506040513d601f19601f82011682018060405250810190612b519190614525565b9050600080600460009054906101000a90046001600160a01b03166001600160a01b0316637a5caab36040518163ffffffff1660e01b8152600401604080518083038186803b158015612ba357600080fd5b505afa158015612bb7573d6000803e3d6000fd5b505050506040513d601f19601f82011682018060405250810190612bdb91906147a4565b9150915081600460009054906101000a90046001600160a01b03166001600160a01b031663e3e7688a6040518163ffffffff1660e01b815260040160206040518083038186803b158015612c2e57600080fd5b505afa158015612c42573d6000803e3d6000fd5b505050506040513d601f19601f82011682018060405250810190612c669190614488565b6040516370a0823160e01b81523360048201526001600160a01b0391909116906370a082319060240160206040518083038186803b158015612ca757600080fd5b505afa158015612cbb573d6000803e3d6000fd5b505050506040513d601f19601f82011682018060405250810190612cdf9190614525565b1015612d265760405162461bcd60e51b81526020600482015260166024820152752ab739bab33334b1b4b2b73a103233ba103a37b5b2b760511b6044820152606401610548565b80600460009054906101000a90046001600160a01b03166001600160a01b03166338e514fe6040518163ffffffff1660e01b815260040160206040518083038186803b158015612d7557600080fd5b505afa158015612d89573d6000803e3d6000fd5b505050506040513d601f19601f82011682018060405250810190612dad9190614488565b6040516370a0823160e01b81523360048201526001600160a01b0391909116906370a082319060240160206040518083038186803b158015612dee57600080fd5b505afa158015612e02573d6000803e3d6000fd5b505050506040513d601f19601f82011682018060405250810190612e269190614525565b1015612e6d5760405162461bcd60e51b81526020600482015260166024820152752ab739bab33334b1b4b2b73a103239b8103a37b5b2b760511b6044820152606401610548565b612ec1333084600460009054906101000a90046001600160a01b03166001600160a01b031663e3e7688a6040518163ffffffff1660e01b815260040160206040518083038186803b158015610bde57600080fd5b612f15333083600460009054906101000a90046001600160a01b03166001600160a01b03166338e514fe6040518163ffffffff1660e01b815260040160206040518083038186803b158015610bde57600080fd5b60048054604051634541a7fb60e11b81523392810192909252602482018590526001600160a01b031690638a834ff690604401600060405180830381600087803b158015612f6257600080fd5b505af1158015612f76573d6000803e3d6000fd5b50505050826000141561305f57600480546040805163b9e1bbf960e01b815290516001600160a01b03909216926301538868928792859263b9e1bbf9928282019260009290829003018186803b158015612fcf57600080fd5b505afa158015612fe3573d6000803e3d6000fd5b505050506040513d6000823e601f3d908101601f1916820160405261300b9190810190614622565b6040518363ffffffff1660e01b81526004016130289291906148ba565b600060405180830381600087803b15801561304257600080fd5b505af1158015613056573d6000803e3d6000fd5b505050506130c5565b60048054604051639d47207160e01b81523392810192909252602482018590526001600160a01b031690639d47207190604401600060405180830381600087803b1580156130ac57600080fd5b505af11580156130c0573d6000803e3d6000fd5b505050505b6004805460408051630ca1c5c960e01b815290516001600160a01b03909216926316dbf90692613154926001928692630ca1c5c9928083019260209291829003018186803b15801561311657600080fd5b505afa15801561312a573d6000803e3d6000fd5b505050506040513d601f19601f8201168201806040525081019061314e9190614525565b90613fb3565b6040518263ffffffff1660e01b815260040161317291815260200190565b600060405180830381600087803b15801561318c57600080fd5b505af11580156131a0573d6000803e3d6000fd5b50505050505050565b6002546001600160a01b031633146131d35760405162461bcd60e51b81526004016105489061497c565b600c54610100900460ff16156131fb5760405162461bcd60e51b8152600401610548906148e6565b806001600160a01b0381166132415760405162461bcd60e51b815260206004820152600c60248201526b5a65726f206164647265737360a01b6044820152606401610548565b600260015414156132645760405162461bcd60e51b815260040161054890614945565b6002600155600480546040516361746ea560e11b81526001600160a01b038581169382019390935291169063c2e8dd4a90602401600060405180830381600087803b1580156132b257600080fd5b505af11580156132c6573d6000803e3d6000fd5b5050600c80546001600160a01b03909516620100000262010000600160b01b03199095169490941790935550506001805550565b6000546001600160a01b031633146133245760405162461bcd60e51b815260040161054890614910565b600c5460ff161561336d5760405162461bcd60e51b8152602060048201526013602482015272105b1c9958591e48125b9a5d1a585b1a5e9959606a1b6044820152606401610548565b61339460405180604001604052806005815260200164302e302e3160d81b8152508261288f565b61339c612438565b50600c805460ff19166001179055565b600a805461151d90614aa0565b6000546001600160a01b031633146133e35760405162461bcd60e51b815260040161054890614910565b600c54610100900460ff161561340b5760405162461bcd60e51b8152600401610548906148e6565b6002600154141561342e5760405162461bcd60e51b815260040161054890614945565b6002600155600c546004805460408051631c728a7f60e11b815290516001600160a01b03620100009095048516946342966c68949316926338e514fe92808201926020929091829003018186803b15801561348857600080fd5b505afa15801561349c573d6000803e3d6000fd5b505050506040513d601f19601f820116820180604052508101906134c09190614488565b6040516370a0823160e01b81523060048201526001600160a01b0391909116906370a082319060240160206040518083038186803b15801561350157600080fd5b505afa158015613515573d6000803e3d6000fd5b505050506040513d601f19601f820116820180604052508101906135399190614525565b6040518263ffffffff1660e01b815260040161355791815260200190565b600060405180830381600087803b15801561357157600080fd5b505af11580156114e8573d6000803e3d6000fd5b6000546001600160a01b031633146135af5760405162461bcd60e51b815260040161054890614910565b6135b7613fc6565b6040513381527f62e78cea01bee320cd4e420270b5ea74000d11b0c9f74754ebdbfc544b05a258906020015b60405180910390a1565b60405163b613249d60e01b8152336004820152819061362a9073__$5375cb35093987ecf92e89395ecd702213$__9063b613249d90602401611da7565b6136655760405162461bcd60e51b815260206004820152600c60248201526b139bdd081d995c9a599a595960a21b6044820152606401610548565b600354600160a01b900460ff1661368e5760405162461bcd60e51b8152600401610548906149c2565b600c54610100900460ff16156136b65760405162461bcd60e51b8152600401610548906148e6565b600260015414156136d95760405162461bcd60e51b815260040161054890614945565b600260015560048054604051630e4d620560e01b815233928101929092526001600160a01b031690630e4d62059060240160206040518083038186803b15801561372257600080fd5b505afa158015613736573d6000803e3d6000fd5b505050506040513d601f19601f8201168201806040525081019061375a9190614525565b1561379c5760405162461bcd60e51b815260206004820152601260248201527114d95d081d1bdad95b95549248199a5c9cdd60721b6044820152606401610548565b60048054604051630554924960e51b815233928101929092526001600160a01b03169063aa9249209060240160206040518083038186803b1580156137e057600080fd5b505afa1580156137f4573d6000803e3d6000fd5b505050506040513d601f19601f820116820180604052508101906138189190614505565b1561384f5760405162461bcd60e51b8152602060048201526007602482015266115e1c1a5c995960ca1b6044820152606401610548565b60048054604080516310c1331760e31b815290516001600160a01b039092169263860998b8928282019260209290829003018186803b15801561389157600080fd5b505afa1580156138a5573d6000803e3d6000fd5b505050506040513d601f19601f820116820180604052508101906138c99190614525565b60048054604080516325ebda5b60e01b8152905161390f936001936001600160a01b0316926325ebda5b9281830192602092829003018186803b15801561311657600080fd5b111561396e5760405162461bcd60e51b815260206004820152602860248201527f4d696e7420776f756c6420657863656564206d617820737570706c79206f6620604482015267566f79616765727360c01b6064820152608401610548565b6000600460009054906101000a90046001600160a01b03166001600160a01b0316630ca1c5c96040518163ffffffff1660e01b815260040160206040518083038186803b1580156139be57600080fd5b505afa1580156139d2573d6000803e3d6000fd5b505050506040513d601f19601f820116820180604052508101906139f69190614525565b60048054604051634541a7fb60e11b81523392810192909252602482018390529192506001600160a01b0390911690638a834ff690604401600060405180830381600087803b158015613a4857600080fd5b505af1158015613a5c573d6000803e3d6000fd5b505050508060001415613b4557600480546040805163b9e1bbf960e01b815290516001600160a01b03909216926301538868928592859263b9e1bbf9928282019260009290829003018186803b158015613ab557600080fd5b505afa158015613ac9573d6000803e3d6000fd5b505050506040513d6000823e601f3d908101601f19168201604052613af19190810190614622565b6040518363ffffffff1660e01b8152600401613b0e9291906148ba565b600060405180830381600087803b158015613b2857600080fd5b505af1158015613b3c573d6000803e3d6000fd5b50505050613bab565b60048054604051639d47207160e01b81523392810192909252602482018390526001600160a01b031690639d47207190604401600060405180830381600087803b158015613b9257600080fd5b505af1158015613ba6573d6000803e3d6000fd5b505050505b6004805460408051630ca1c5c960e01b815290516001600160a01b03909216926316dbf90692613bfc926001928692630ca1c5c9928083019260209291829003018186803b15801561311657600080fd5b6040518263ffffffff1660e01b8152600401613c1a91815260200190565b600060405180830381600087803b158015613c3457600080fd5b505af1158015613c48573d6000803e3d6000fd5b50506004805460405163ca0a9e3d60e01b81523392810192909252600160248301526001600160a01b0316925063ca0a9e3d9150604401600060405180830381600087803b158015613c9957600080fd5b505af1158015613cad573d6000803e3d6000fd5b505060048054604080516325ebda5b60e01b815290516001600160a01b03909216945063440372f89350613d049260019286926325ebda5b9281810192602092909190829003018186803b15801561311657600080fd5b6040518263ffffffff1660e01b8152600401613d2291815260200190565b600060405180830381600087803b158015613d3c57600080fd5b505af1158015613d50573d6000803e3d6000fd5b5050600180555050505050565b6002546001600160a01b03163314613d875760405162461bcd60e51b81526004016105489061497c565b6003805460ff60a01b198116600160a01b9182900460ff1615909102179055565b6000546001600160a01b03163314613dd25760405162461bcd60e51b815260040161054890614910565b6001600160a01b038116613e375760405162461bcd60e51b815260206004820152602660248201527f4f776e61626c653a206e6577206f776e657220697320746865207a65726f206160448201526564647265737360d01b6064820152608401610548565b6123a781613f02565b6000546001600160a01b03163314613e6a5760405162461bcd60e51b815260040161054890614910565b613e7261403d565b6040513381527f5db9ee0a495bf2e6ff9c91a7834c1ba4fdd244a5e8aa4e537bd38aeae4b073aa906020016135e3565b604080516001600160a01b0385811660248301528416604482015260648082018490528251808303909101815260849091019091526020810180516001600160e01b03166323b872dd60e01b179052613efc9085906140bd565b50505050565b600080546001600160a01b038381166001600160a01b0319831681178455604051919092169283917f8be0079c531659141344cd1fd0a4f28419497f9722a3daafe3b4186f6b6457e09190a35050565b600280546001600160a01b038381166001600160a01b031983168117909355604080519190921680825260208201939093527ff8ccb027dfcd135e000e9d45e6cc2d662578a8825d4c45b5e32e0adf67e79ec6910160405180910390a15050565b6000613fbf8284614a45565b9392505050565b600c54610100900460ff1615613fee5760405162461bcd60e51b8152600401610548906148e6565b600c805461ff0019166101001790557f62e78cea01bee320cd4e420270b5ea74000d11b0c9f74754ebdbfc544b05a2586140253390565b6040516001600160a01b0390911681526020016135e3565b600c54610100900460ff1661408b5760405162461bcd60e51b815260206004820152601460248201527314185d5cd8589b194e881b9bdd081c185d5cd95960621b6044820152606401610548565b600c805461ff00191690557f5db9ee0a495bf2e6ff9c91a7834c1ba4fdd244a5e8aa4e537bd38aeae4b073aa33614025565b6000614112826040518060400160405280602081526020017f5361666545524332303a206c6f772d6c6576656c2063616c6c206661696c6564815250856001600160a01b031661418f9092919063ffffffff16565b80519091501561204857808060200190518101906141309190614505565b6120485760405162461bcd60e51b815260206004820152602a60248201527f5361666545524332303a204552433230206f7065726174696f6e20646964206e6044820152691bdd081cdd58d8d9595960b21b6064820152608401610548565b606061419e84846000856141a6565b949350505050565b6060824710156142075760405162461bcd60e51b815260206004820152602660248201527f416464726573733a20696e73756666696369656e742062616c616e636520666f6044820152651c8818d85b1b60d21b6064820152608401610548565b843b6142555760405162461bcd60e51b815260206004820152601d60248201527f416464726573733a2063616c6c20746f206e6f6e2d636f6e74726163740000006044820152606401610548565b600080866001600160a01b0316858760405161427191906147f3565b60006040518083038185875af1925050503d80600081146142ae576040519150601f19603f3d011682016040523d82523d6000602084013e6142b3565b606091505b50915091506142c38282866142ce565b979650505050505050565b606083156142dd575081613fbf565b8251156142ed5782518084602001fd5b8160405162461bcd60e51b815260040161054891906148d3565b82805461431390614aa0565b90600052602060002090601f0160209004810192826143355760008555614382565b82601f106143465780548555614382565b8280016001018555821561438257600052602060002091601f016020900482015b82811115614382578254825591600101919060010190614367565b5061438e929150614406565b5090565b82805461439e90614aa0565b90600052602060002090601f0160209004810192826143c05760008555614382565b82601f106143d957805160ff1916838001178555614382565b82800160010185558215614382579182015b828111156143825782518255916020019190600101906143eb565b5b8082111561438e5760008155600101614407565b600082601f83011261442b578081fd5b813561443e61443982614a1d565b6149ec565b818152846020838601011115614452578283fd5b816020850160208301379081016020019190915292915050565b60006020828403121561447d578081fd5b8135613fbf81614b07565b600060208284031215614499578081fd5b8151613fbf81614b07565b600080600080608085870312156144b9578283fd5b84356144c481614b07565b93506020850135925060408501359150606085013567ffffffffffffffff8111156144ed578182fd5b6144f98782880161441b565b91505092959194509250565b600060208284031215614516578081fd5b81518015158114613fbf578182fd5b600060208284031215614536578081fd5b5051919050565b6000806040838503121561454f578182fd5b82359150602083013567ffffffffffffffff81111561456c578182fd5b6145788582860161441b565b9150509250929050565b600060208284031215614593578081fd5b813567ffffffffffffffff8111156145a9578182fd5b61419e8482850161441b565b600080602083850312156145c7578182fd5b823567ffffffffffffffff808211156145de578384fd5b818501915085601f8301126145f1578384fd5b8135818111156145ff578485fd5b866020828501011115614610578485fd5b60209290920196919550909350505050565b600060208284031215614633578081fd5b815167ffffffffffffffff811115614649578182fd5b8201601f81018413614659578182fd5b805161466761443982614a1d565b81815285602083850101111561467b578384fd5b61468c826020830160208601614a74565b95945050505050565b600080604083850312156146a7578182fd5b823567ffffffffffffffff8111156146bd578283fd5b6146c98582860161441b565b92505060208301356146da81614b07565b809150509250929050565b600060a082840312156146f6578081fd5b60405160a0810181811067ffffffffffffffff8211171561471957614719614af1565b604052825160ff8116811461472c578283fd5b815260208381015190820152604083015161474681614b07565b6040820152606083810151908201526080928301519281019290925250919050565b600060208284031215614779578081fd5b5035919050565b60008060408385031215614792578182fd5b8235915060208301356146da81614b07565b600080604083850312156147b6578182fd5b505080516020909101519092909150565b600081518084526147df816020860160208601614a74565b601f01601f19169290920160200192915050565b60008251614805818460208701614a74565b9190910192915050565b8183823760009101908152919050565b600080835482600182811c91508083168061483b57607f831692505b602080841082141561485b57634e487b7160e01b87526022600452602487fd5b81801561486f5760018114614880576148ac565b60ff198616895284890196506148ac565b60008a815260209020885b868110156148a45781548b82015290850190830161488b565b505084890196505b509498975050505050505050565b82815260406020820152600061419e60408301846147c7565b602081526000613fbf60208301846147c7565b60208082526010908201526f14185d5cd8589b194e881c185d5cd95960821b604082015260600190565b6020808252818101527f4f776e61626c653a2063616c6c6572206973206e6f7420746865206f776e6572604082015260600190565b6020808252601f908201527f5265656e7472616e637947756172643a207265656e7472616e742063616c6c00604082015260600190565b60208082526026908201527f496e76616c69642041646d696e3a2063616c6c6572206973206e6f74207468656040820152651030b236b4b760d11b606082015260800190565b60208082526010908201526f155b9858dd1a5d99481d1bc81b5a5b9d60821b604082015260600190565b604051601f8201601f1916810167ffffffffffffffff81118282101715614a1557614a15614af1565b604052919050565b600067ffffffffffffffff821115614a3757614a37614af1565b50601f01601f191660200190565b60008219821115614a5857614a58614adb565b500190565b600082821015614a6f57614a6f614adb565b500390565b60005b83811015614a8f578181015183820152602001614a77565b83811115613efc5750506000910152565b600181811c90821680614ab457607f821691505b60208210811415614ad557634e487b7160e01b600052602260045260246000fd5b50919050565b634e487b7160e01b600052601160045260246000fd5b634e487b7160e01b600052604160045260246000fd5b6001600160a01b03811681146123a757600080fdfea2646970667358221220e69b758b6812e0fc34151f2286464350a705d4e82c142079d59a59c3c222b04064736f6c63430008040033",
  "libraries": {
    "Sig": "0xB1A13497D08d8764900546B5989E654A5c71c2d1"
  },
  "devdoc": {
    "kind": "dev",
    "methods": {
      "admin()": {
        "details": "Returns the address of the current admin."
      },
      "owner()": {
        "details": "Returns the address of the current owner."
      },
      "paused()": {
        "details": "Returns true if the contract is paused, and false otherwise."
      },
      "renounceOwnership()": {
        "details": "Leaves the contract without owner. It will not be possible to call `onlyOwner` functions anymore. Can only be called by the current owner. NOTE: Renouncing ownership will leave the contract without an owner, thereby removing any functionality that is only available to the owner."
      },
      "transferAdmin(address)": {
        "details": "Transfers ownership of the contract to a new account (`newAdmin`). Can only be called by the current admin."
      },
      "transferOwnership(address)": {
        "details": "Transfers ownership of the contract to a new account (`newOwner`). Can only be called by the current owner."
      }
    },
    "version": 1
  },
  "userdoc": {
    "kind": "user",
    "methods": {},
    "version": 1
  },
  "storageLayout": {
    "storage": [
      {
        "astId": 7,
        "contract": "contracts/voyager/Voyager.sol:Voyager",
        "label": "_owner",
        "offset": 0,
        "slot": "0",
        "type": "t_address"
      },
      {
        "astId": 206,
        "contract": "contracts/voyager/Voyager.sol:Voyager",
        "label": "_status",
        "offset": 0,
        "slot": "1",
        "type": "t_uint256"
      },
      {
        "astId": 10498,
        "contract": "contracts/voyager/Voyager.sol:Voyager",
        "label": "_admin",
        "offset": 0,
        "slot": "2",
        "type": "t_address"
      },
      {
        "astId": 10500,
        "contract": "contracts/voyager/Voyager.sol:Voyager",
        "label": "proxy",
        "offset": 0,
        "slot": "3",
        "type": "t_address"
      },
      {
        "astId": 10503,
        "contract": "contracts/voyager/Voyager.sol:Voyager",
        "label": "mintIsActive",
        "offset": 20,
        "slot": "3",
        "type": "t_bool"
      },
      {
        "astId": 10506,
        "contract": "contracts/voyager/Voyager.sol:Voyager",
        "label": "mineIsActive",
        "offset": 21,
        "slot": "3",
        "type": "t_bool"
      },
      {
        "astId": 12756,
        "contract": "contracts/voyager/Voyager.sol:Voyager",
        "label": "vS",
        "offset": 0,
        "slot": "4",
        "type": "t_contract(VoyagerStorage)14375"
      },
      {
        "astId": 12764,
        "contract": "contracts/voyager/Voyager.sol:Voyager",
        "label": "versions",
        "offset": 0,
        "slot": "5",
        "type": "t_mapping(t_string_memory_ptr,t_struct(LogicContracts)12759_storage)"
      },
      {
        "astId": 12767,
        "contract": "contracts/voyager/Voyager.sol:Voyager",
        "label": "curVersion",
        "offset": 0,
        "slot": "6",
        "type": "t_struct(LogicContracts)12759_storage"
      },
      {
        "astId": 12770,
        "contract": "contracts/voyager/Voyager.sol:Voyager",
        "label": "delayVersion",
        "offset": 0,
        "slot": "7",
        "type": "t_struct(LogicContracts)12759_storage"
      },
      {
        "astId": 12773,
        "contract": "contracts/voyager/Voyager.sol:Voyager",
        "label": "versionList",
        "offset": 0,
        "slot": "8",
        "type": "t_array(t_string_storage)dyn_storage"
      },
      {
        "astId": 12775,
        "contract": "contracts/voyager/Voyager.sol:Voyager",
        "label": "versionName",
        "offset": 0,
        "slot": "9",
        "type": "t_string_storage"
      },
      {
        "astId": 12777,
        "contract": "contracts/voyager/Voyager.sol:Voyager",
        "label": "delayVersionName",
        "offset": 0,
        "slot": "10",
        "type": "t_string_storage"
      },
      {
        "astId": 12782,
        "contract": "contracts/voyager/Voyager.sol:Voyager",
        "label": "startTime",
        "offset": 0,
        "slot": "11",
        "type": "t_uint256"
      },
      {
        "astId": 12784,
        "contract": "contracts/voyager/Voyager.sol:Voyager",
        "label": "initialized",
        "offset": 0,
        "slot": "12",
        "type": "t_bool"
      },
      {
        "astId": 121,
        "contract": "contracts/voyager/Voyager.sol:Voyager",
        "label": "_paused",
        "offset": 1,
        "slot": "12",
        "type": "t_bool"
      },
      {
        "astId": 11240,
        "contract": "contracts/voyager/Voyager.sol:Voyager",
        "label": "dsp",
        "offset": 2,
        "slot": "12",
        "type": "t_contract(DeepSeaPlankton)4547"
      }
    ],
    "types": {
      "t_address": {
        "encoding": "inplace",
        "label": "address",
        "numberOfBytes": "20"
      },
      "t_array(t_string_storage)dyn_storage": {
        "base": "t_string_storage",
        "encoding": "dynamic_array",
        "label": "string[]",
        "numberOfBytes": "32"
      },
      "t_bool": {
        "encoding": "inplace",
        "label": "bool",
        "numberOfBytes": "1"
      },
      "t_contract(DeepSeaPlankton)4547": {
        "encoding": "inplace",
        "label": "contract DeepSeaPlankton",
        "numberOfBytes": "20"
      },
      "t_contract(VoyagerStorage)14375": {
        "encoding": "inplace",
        "label": "contract VoyagerStorage",
        "numberOfBytes": "20"
      },
      "t_mapping(t_string_memory_ptr,t_struct(LogicContracts)12759_storage)": {
        "encoding": "mapping",
        "key": "t_string_memory_ptr",
        "label": "mapping(string => struct VoyagerProxy.LogicContracts)",
        "numberOfBytes": "32",
        "value": "t_struct(LogicContracts)12759_storage"
      },
      "t_string_memory_ptr": {
        "encoding": "bytes",
        "label": "string",
        "numberOfBytes": "32"
      },
      "t_string_storage": {
        "encoding": "bytes",
        "label": "string",
        "numberOfBytes": "32"
      },
      "t_struct(LogicContracts)12759_storage": {
        "encoding": "inplace",
        "label": "struct VoyagerProxy.LogicContracts",
        "members": [
          {
            "astId": 12758,
            "contract": "contracts/voyager/Voyager.sol:Voyager",
            "label": "voyagerLogic",
            "offset": 0,
            "slot": "0",
            "type": "t_address"
          }
        ],
        "numberOfBytes": "32"
      },
      "t_uint256": {
        "encoding": "inplace",
        "label": "uint256",
        "numberOfBytes": "32"
      }
    }
  }
}